:020000040800F2
:1000000070E20020990100089B220008B52000083A
:10001000992200081D0F0008812B00080000000035
:10002000000000000000000000000000D3250008D0
:10003000490F000800000000D1250008D525000860
:10004000B3010008B3010008B3010008B3010008C0
:10005000B3010008B3010008B3010008B3010008B0
:10006000B3010008B3010008B3010008B3010008A0
:10007000B3010008B3010008B3010008B301000890
:10008000B3010008B3010008B3010008B301000880
:10009000B3010008B3010008B3010008B301000870
:1000A000B3010008B3010008B3010008B301000860
:1000B0007926000885260008B3010008B30100086E
:1000C000B3010008B3010008B3010008B301000840
:1000D000B3010008D52A0008752B0008B3010008F9
:1000E000B3010008B3010008B3010008B301000820
:1000F000B3010008B3010008B3010008B301000810
:10010000B3010008B3010008B3010008B3010008FF
:10011000B3010008B3010008B3010008B3010008EF
:10012000B3010008B3010008B3010008B3010008DF
:10013000B30100080000000000000000B301000847
:10014000B3010008B3010008B3010008B3010008BF
:10015000B3010008B3010008B3010008B3010008AF
:10016000B3010008B3010008B3010008B30100089F
:10017000B3010008B3010008000000000000000007
:10018000B3010008DFF80CD000F0D4FC00480047B1
:10019000E546000870E20020064880470648004710
:1001A000FEE7FEE7FEE7FEE7FEE7FEE7FEE7FEE727
:1001B000FEE7FEE731260008850100082DE9F05F23
:1001C0000546002092469B468846064681464024C6
:1001D0001BE0284641464746224600F04FFA534668
:1001E0005A46C01A914110D311461846224600F0D3
:1001F00036FA2D1A67EB01084F46224601200021EE
:1002000000F02DFA17EB00094E41201EA4F1010465
:10021000DFDC484631462A464346BDE8F09F40EAC7
:1002200001039B0703D009E008C9121F08C0042A74
:10023000FAD203E011F8013B00F8013B521EF9D25B
:100240007047D2B201E000F8012B491EFBD2704783
:100250000022F6E710B513460A4604461946FFF792
:10026000F0FF204610BD421C10F8011B0029FBD1F5
:10027000801A704710B5002200E0521C835C8C5C31
:10028000A34201D1002BF8D1D8B2E1B2401A10BD7F
:10029000034611F8012B00F8012B002AF9D118466A
:1002A0007047000070B50F4D00B92868002412E0B7
:1002B0000A4602E09E4203D0521C1378002BF9D16B
:1002C000DAB2224305D02BB124B1002100F8011B82
:1002D00004E00446401C0678002EE9D12860204640
:1002E00070BD0000E00600202DE9F0410E460546F5
:1002F000002400E0641C285D00F0DDF90746305D55
:1003000000F0D9F9381A02D1295D0029F2D1BDE8EF
:10031000F0812DE9F0410546002090460E46044646
:1003200000E0641C44450BD2285D00F0C4F9074688
:10033000305D00F0C0F9381A02D1295D0029F0D1F2
:10034000BDE8F0810FB400B58DB010A909900B90F5
:1003500000914FF0FF300A9000200C900548069065
:10036000054807906A4609A80F9900F0BFF90DB03B
:100370005DF814FB09070008270700082DE9FF5F57
:100380001D464FF0FF3BD5E9014691465F464FF0D1
:100390000008A9697F1C01988847296A8246884716
:1003A0000028F6D1BAF1FF3F0CD024F4C064002E2F
:1003B00019DD600614D5BAF12B0F09D0BAF12D0F53
:1003C0000ED103E0584604B0BDE8F09F44F48064C9
:1003D000A9697F1C01988847761E8246002E02DD9F
:1003E000BAF1300F03D0B9F1000F26D032E0A9697D
:1003F000761E44F400747F1C019888478246002EC4
:1004000005DDBAF1780F06D0BAF1580F03D0B9F173
:10041000000F10D01EE0B9F1000F02D0B9F1100F9B
:1004200018D1A969761E24F400747F1C01988847AE
:100430008246102002E0082000E00A20814609E000
:1004400008FB0908A969761E44F400747F1C019812
:1004500088478246002E05DD4946504600F031F9B6
:100460000028EDDAE96901988847A00502D46FF009
:100470000100A8E7E00725D1600613D5600502D585
:10048000C8F1000000E0404629680A1D2A6009689A
:10049000220501D5087015E0220701D5088011E07A
:1004A00008600FE02868011D29600068210502D559
:1004B00080F8008006E0210702D5A0F8008001E066
:1004C000C0F8008038467EE72DE9F05F93460F467E
:1004D00080460446002602F079FBD0F80090824660
:1004E00014F8015B2DB100F0D9F80068405DC00739
:1004F000F6D12B2D02D02D2D1AD0641E0021CAF862
:1005000000105A463946204600F01EF9014627B130
:100510003868A04201D1C7F80080DAF8000002284C
:1005200009D0CAF80090700505D54842BDE8F09F93
:1005300046F48066E2E70846F8E72DE9F04D81EAE7
:10054000030404F0004B21F0004514464FF0000A6C
:1005500023F0004150EA050220D054EA01021DD0E8
:10056000C5F30A570246C5F31303C1F31300C1F3E1
:100570000A5640F4801543F48013A7EB0608101BBD
:10058000D64608F2FD3873EB050002D308F10108E6
:1005900001E092185B41B8F1000F03DA0020014638
:1005A000BDE8F08D00204FF48011064684460EE031
:1005B000171B73EB050705D3121B63EB05030643FB
:1005C0004CEA010C49084FEA300092185B4150EAAE
:1005D0000107EDD152EA030012D082EA040083EA57
:1005E0000501084305D0101BAB4106D201220023B0
:1005F00006E000224FF0004302E06FF001025310CA
:100600001AEB06004CEB085110EB0A0041EB0B0112
:10061000BDE8F04D00F0E7B80EB540F2334102916D
:100620000021CDE900110A460B4600F0EBF803B0BB
:1006300000BD30B50B46014600202022012409E010
:1006400021FA02F59D4205D303FA02F5491B04FA8B
:1006500002F52844151EA2F10102F1DC30BD202A6A
:1006600004DB203A00FA02F1002070479140C2F109
:10067000200320FA03F3194390407047202A04DB3B
:10068000203A21FA02F00021704721FA02F3D0400B
:10069000C2F1200291400843194670470048704754
:1006A000E854000810B50446FFF7F8FF0068005D45
:1006B00000F0010010BDA0F14101192900D820303F
:1006C00070473A2800D2303820F02002412A01D366
:1006D000A2F13700884201D34FF0FF30704700008D
:1006E000026811441378016018467047D1600449CC
:1006F00051610449116200211161114600F03EBAB6
:10070000E1060008A5060008426842B1016811F838
:10071000013B23B1521EC0E9001218467047012167
:10072000C160881E704742685AB1C368016843B906
:1007300083688B4205D0491E521CC0E9001200207C
:1007400070474FF0FF3070472DE9F05F8246007828
:10075000002715468B460AF10104B946302801D01E
:100760009DB113E014F8010B0127782803D0582815
:1007700001D045B10AE00DB1102D07D10027102599
:1007800014F8010B02E0082500E00A250026B04617
:100790000EE005FB080005FB06F1012701EB104602
:1007A0001FFA80F8B6F5803F00D3B94614F8010B64
:1007B0002946FFF786FF0028EBDABBF1000F05D0D2
:1007C0000FB1641E00E05446CBF80040B9F1000FB1
:1007D00006D002F0FBF902210160C81EBDE8F09FBF
:1007E00048EA0640FAE710B5141E73F1000408DA6F
:1007F000401C41F1000192185B411A4301D120F0E5
:10080000010010BD2DE9F04D92469B4611B1B1FAA1
:1008100081F202E0B0FA80F220329046FFF71FFF2B
:1008200004460F4640EA0A0041EA0B0153465A4685
:10083000084313D0114653EA010019D0C8F1400211
:100840005046FFF71BFF05460E46504659464246A6
:10085000FFF705FF084305D0012004E02046394694
:10086000BDE8F08D0020054346EAE0762C4337438F
:100870000A986305E40AA0EB08000022FD0A44EA96
:1008800047540A3002D500200146E9E70105101956
:100890006941DDE9084500196941BDE8F04DA2E76D
:1008A0002DE9FE4F804681EA0300C00F0C46009000
:1008B00021F0004123F00045B8EB0200A94105D228
:1008C0004046214690461C460B46024623F0004017
:1008D000104347D0270DC7F30A00C3F30A51029013
:1008E000401A019040286BDAC3F3130040F4801BD8
:1008F0000098924620B10023D2EB030A63EB0B0B66
:1009000001985946C0F140025046FFF7A8FE06463E
:100910000D4650465946019A00F01EF910EB0800AA
:100920006141002487EA115284EAE7731A4340D0F8
:10093000009A62B3019A012A4FEA075215DC001BA4
:1009400061EB02014FF0004202EA0752CDE900429A
:10095000001C41F5801132462B46FFF753FF03B0D0
:10096000BDE8F08F40462146F9E7001B61EB02012C
:10097000001C41F5801300185B412018A2F50017F8
:1009800047EB030140EAD570B6196D4111E06D08DF
:100990004FEA360645EAC0754FEA0752001B61EB85
:1009A0000201001C41F5801149084FEA300000198E
:1009B000514132462B4603B0BDE8F04FFFF713BF5D
:1009C0000098012240000023D0EB020263EBE073A9
:1009D000009821464FEAE074B8EB000061EB040197
:1009E000E9E783F000435BE781F0004158E72DE938
:1009F000FE4F81EA030404F0004421F0004100941A
:100A00004FF0000B23F0004350EA01045ED052EA9D
:100A100003045BD0C3F30A54C1F30A552C44A4F277
:100A2000F3340194A0FB0254C1F3130141F480118B
:100A3000C3F3130343F4801301FB024400FB034E92
:100A4000840A970A44EA815447EA8357A4FB07685B
:100A500002958D0A05FB07854FEA932C04FB0C5485
:100A60002705029D4FEA065847EA1637B5EB0805F9
:100A70006EEB070C870E920E47EA811742EA83124B
:100A8000A7FB0201B6EB0B0164EB00042B0D43EA5C
:100A90000C335E1844EB1C50DA465146E7FB02016A
:100AA000C5F313044FEA0B3343EA14534FEA0432FD
:100AB000019C43EA0603A4F10C040294009CCDE9D6
:100AC00000B4FFF79FFE03B0BDE8F08F00200146A1
:100AD000F9E7C1F30A52C1F3130140F2FF3341F4C5
:100AE00080119A4202DA00200146704740F23343F7
:100AF0009A42A2F2334202DC5242FFF7BFBDFFF737
:100B0000AEBD000030B5041E71F1000404DB4FF0EF
:100B10000044404264EB0101141E73F1000405DB44
:100B20001C464FF00043524263EB0403994208BF56
:100B3000904230BD064C074D06E0E06840F00103EE
:100B400094E8070098471034AC42F6D3FFF71EFB39
:100B50001057000830570008202A06DBCB17203A30
:100B600041FA02F043EAE07306E041FA02F3D040B2
:100B7000C2F1200291400843194670472DE9F34F16
:100B80008BB04FF0000801F10C000C464FF0010B48
:100B900046460DF1080A01906269012101989047CB
:100BA000051E2DD0252D2CD0216A8847C0B1626941
:100BB000012101989047216A88470028F7D1411EFA
:100BC00062690198904700E0761CA1690B988847FC
:100BD000216A88470028F7D1E1690B988847DBE74D
:100BE000A1690B9888470746A84201D1761CD3E734
:100BF000E1690B9888477F1C02D1B8F1000F6FD0D4
:100C000046E1002762693D463946019890472A2807
:100C100004D162690121019890470125DFF884928F
:100C20006269012101989047A0F130010A290AD296
:100C30004F45E5DC07EB870100EB4107303FDFD490
:100C400045F01005ECE7E90601D46FF000476C2889
:100C50000AD04C2814D0682815D06A280DD07428E2
:100C60001CD07A281AD01DE06269012101989047B2
:100C70006C2802D045F0040514E045F002050DE0B3
:100C800045F020050AE06269012101989047682833
:100C900002D045F0080505E045F4006562690121D0
:100CA00001989047C4E9015765283DD019DC5828C0
:100CB0007AD00CDC452837D004DC252826D0412802
:100CC00031D131E046282FD047282CD12CE05B28A9
:100CD00077D0612828D063287CD0642823D15AE0BB
:100CE000D0E06F2848D008DC66281DD067281BD0CC
:100CF000692821D06E2816D127E0702845D07328A6
:100D000068D0752847D078280DD14DE0A1690B989F
:100D10008847054625283FF469AFE1690B98884765
:100D20006D1C3FF46AAFB3E023466A466FF00100E2
:100D30000B99AFF300809EE045F040006060A8078B
:100D400023464FF0000236D43EE0E8077FF447AF79
:100D50002068011D21600068290501D506701BE788
:100D6000290701D5068017E7A90703D5F117C0E9C0
:100D7000006111E706600FE745F040006060A807DA
:100D800023464FF0080216D41EE040F60E0125EA75
:100D90000100606016E045F040006060A80723464F
:100DA0004FF00A0207D40FE045F040006060A8074A
:100DB00008D5234610226FF001000B99AFF3008095
:100DC00059E007E0234610226FF001000B99FFF76E
:100DD000D5FA50E04FF000094F464B46632802D049
:100DE0005B2806D040E0E80601D40120A06001277E
:100DF0003AE062690121019890475E2805D14FF0E1
:100E000001096269494601989047216939B9002171
:100E10000A46534643F82120491C0829FADBB0B39F
:100E2000216969B9C11700EBD16253110AEB830143
:100E300022F01F02821A01200B68904003430B60CE
:100E400062690121019890475D28E8D1B9F1000F4E
:100E500009D00020514651F82020D24341F82020EB
:100E6000401C0828F7DB02AB224600976FF0010018
:100E70000B99AFF3008000280CDA401C08D1BBF1BD
:100E8000000F05D04FF0FF300DB0BDE8F08FFFE749
:100E90004046F9E7E90701D108F1010806444FF09F
:100EA000000B79E6CCCCCC0C70B58C1810F8015B3B
:100EB00015F0070301D110F8013B2A1106D110F8F3
:100EC000012B03E010F8016B01F8016B5B1EF9D1F7
:100ED0002B0705D40023521E0DD401F8013BFAE77D
:100EE00010F8013BCB1A921C03E013F8015B01F8E8
:100EF000015B521EF9D5A142D8D3002070BD020E6D
:100F00000A70020C4A70020A8A70C8707047016841
:100F1000C07809BA21F0FF0108437047FEE70000DE
:100F200030B54FF0FF330022064C07E0855C5D4092
:100F3000EDB2521C54F8255085EA13238A42F5D3AA
:100F4000D84330BDD00200207047704790F835106C
:100F5000022903D08021416501207047052180F8D6
:100F600035100068016821F0010101600020704720
:100F700031B500F011F9009C0546601C02D0044810
:100F80000078044400F008F9401BA042FAD338BDB1
:100F9000D00600202DE9F84FDFF8B4B10023012777
:100FA0004FF0030A4FF00F090BF1040EC9E000BF28
:100FB00007FA03F6324070D04C68022C01D0122C94
:100FC00012D1DC0800EB840CDCF820405D07ED0E4C
:100FD00009FA05F824EA0804D1F8108008FA05F89F
:100FE00048EA0408CCF82080D0F800805D0091F831
:100FF00004C00AFA05F40CF0030C28EA04080CFA01
:1010000005FC4CEA080CC0F800C0D1F804C0BCF1E3
:10101000010F08D0BCF1020F05D0BCF1110F02D0B6
:10102000BCF1120F16D1D0F808C0D1F80C802CEA10
:10103000040C08FA05F848EA0C08C0F80880D0F853
:1010400004C02CEA060C0E79C6F300169E4046EA50
:101050000C064660C668A6438C68AC403443C46046
:101060004C68E4006CD53B4C256845F48045256010
:10107000246823F0030504F480440094364C2E19B0
:10108000D6F808489D074FEA157C09FA0CF5AC43E1
:10109000324DA84202D1002529E051E0304DA8424E
:1010A00001D1012523E02F4DA84201D102251EE0E8
:1010B0002D4DA84201D1032519E02C4DA84201D1A4
:1010C000042514E02A4DA84201D105250FE0294D41
:1010D000A84201D106250AE0274DA84201D10725E3
:1010E00005E0264DA84201D1082500E0092505FAB2
:1010F0000CF52543C6F80858DBF800405D464E68FD
:101100009443F60300D514432C60DEF80040754686
:101110004E689443B60300D514432C600C4D08353B
:101120002C684E689443F60200D514432C60084D99
:101130000C352C684E689443B60200D514432C60DD
:101140005B1C0A6832FA03F47FF432AFBDE8F88F13
:10115000003C0140443802400030014000000240A1
:101160000004024000080240000C0240001002404F
:101170000014024000180240001C024000200240FF
:1011800042690A4200D00904816170470AB1816155
:1011900070470904FBE700000148806870470000C1
:1011A000D0060020024881680278114481607047AF
:1011B000D00600200B4810B5016841F400710160B1
:1011C000016841F480610160016841F4807101604F
:1011D000032000F06FF8002000F006F800F024F87B
:1011E000002010BD003C024070B50D4D04464FF488
:1011F0007A712878B1FBF0F00A490968B1FBF0F088
:1012000000F010FB48B9102C07D200222146501ED6
:1012100000F030F800206C6070BD012070BD00004F
:10122000D0060020DC0600200A4808B5016841F419
:1012300080410160006800F4804000900548001F74
:10124000016841F080510160006800F0805000901A
:1012500008BD000044380240002809DB00F01F02EE
:10126000012191404009800000F1E020C0F8001108
:1012700070470000F0B40E4B1B680C46C3F302230A
:10128000C3F10705042D00D90425191D072901D232
:10129000002300E0DB1E012606FA05F1491E21406D
:1012A00099409E40761E16403143F0BC01F07EBC52
:1012B0000CED00E0064900F0070208684FF6FF0356
:1012C000184040EA0220034A1043086070470000BB
:1012D0000CED00E00000FA052DE9F0470E46050090
:1012E00063D0DFF81C81D8F80000F7B200F00F00DF
:1012F000B04207D288F80070D8F8000000F00F0064
:10130000B04252D128683F4C810712D5400703D51F
:10131000206840F4E05020602878000703D520685A
:1013200040F4604020602068A96820F0F000084385
:1013300020602878C0072BD0324968680839012816
:1013400010D00968022810D0890700292DDA2168F9
:1013500021F0030101432160FFF71EFF814641F2A6
:10136000883A0EE009688903EFE78901EDE700BFDD
:10137000FFF712FFA0EB0901514502D90320BDE898
:10138000F0872068696800F00C00B0EB810FEFD1A6
:10139000D8F80010404601F00F01B14207D907709C
:1013A000006800F00F00B04201D00120E7E7287884
:1013B000400705D52068E96820F4E0500843206024
:1013C0002878000706D52068296920F4604040EAA3
:1013D000C100206000F04EF82168F02292FAA2F2DB
:1013E00001F0F001B2FA82F2D140074A515CC840E4
:1013F0000649086006480068FFF7F6FE0020BEE7D1
:10140000003C0240083802404F540008DC0600202F
:10141000D406002008480949006809684FF4E052E2
:1014200092FAA2F201F4E051B2FA82F2D140044AF7
:10143000515CC84070470000DC06002008380240BC
:101440005F54000808480949006809684FF4604281
:1014500092FAA2F201F46041B2FA82F2D140044A57
:10146000515CC84070470000DC060020083802408C
:101470005F540008154810B5006810F00C021448BD
:1014800013D01449042A0FD0082A0ED10F4C241F60
:101490002268236802F03F025B0207D52068C0F390
:1014A0008810A0FB010106E0084610BD2168C1F3C9
:1014B0008811A1FB00010023FEF780FE2168C1F323
:1014C0000141491C4900B0FBF1F010BD0838024051
:1014D0000024F40040787D012DE9F84F040079D014
:1014E000DFF830B32078ABF10408C007A8F1040599
:1014F00036D0DBF800105846C1F38101012908D02D
:101500000068C0F3810002280AD1D8F80000400228
:1015100006D52868800323D560680028DFD01FE047
:10152000BC492079891F0870606860B1FFF734FEFC
:10153000064604E0FFF730FE801B642874D8286854
:101540008003F7D50CE0FFF727FE064605E000BF55
:10155000FFF722FE801B6428F0D828688003F7D4A8
:101560002078AD4E80074FF0000943D5DBF800101E
:10157000584611F00C0F4FF0F80A08D00068C0F37D
:10158000810002280AD1D8F80000400206D4286859
:10159000800713D5E06801281CD10FE0E068D0B1C6
:1015A00001203060FFF7F8FD074604E0FFF7F4FD87
:1015B000C01B0228C2D828688007F7D528689AFA85
:1015C000AAF22169B2FA82F220F0F80091400843B1
:1015D00028600FE019E1C6F80090FFF7DDFD07462F
:1015E00005E000BFFFF7D8FDC01B0228A6D8286879
:1015F0008007F7D42078000727D5DFF818A287489E
:1016000061690AF16C0A81B101210160FFF7C4FD33
:10161000074604E0FFF7C0FDC01B022804D8DAF833
:1016200000008007F6D510E082E0C0F80090FFF7D8
:10163000B3FD074605E000BFFFF7AEFDC01B022863
:1016400076D8DAF800008007F6D4207840075FD516
:10165000DFF8C0A100270AF1380ADAF80000C0005C
:101660000BD4DAF8001041F08051CAF80010DAF813
:101670000000012700F0805000906948016841F4A3
:10168000807101600168C90512D4016841F480715C
:101690000160FFF781FD009006E000BFFFF77CFDD1
:1016A0000099401A022843D85D480068C005F5D566
:1016B0005849207A68310870A06888B1FFF76CFD3E
:1016C000009007E0FFF768FD0099411A41F2883069
:1016D000814276D84F48683000688007F2D510E024
:1016E000FFF75AFD009007E0FFF756FD0099411AF9
:1016F00041F28830814264D84648683000688007EB
:10170000F2D42FB1DAF8001021F08051CAF800109D
:10171000A069E8B3DBF80010C1F38101022957D0BA
:101720000228C6F8609004D0FFF736FD04464BE06F
:1017300047E0FFF731FD074605E000BFFFF72CFD4E
:10174000C01B64283DD828688001F7D4D4E907017C
:10175000084347F6C07292FAA2F2616AB2FA82F2C4
:101760009140A26A4FF0FF3303EB52024FF4403333
:1017700093FAA3F3B3FA83F39A40114308434FF06B
:10178000706292FAA2F2E16AB2FA82F2914000E04B
:101790003DE00843C8F8000001203066FFF7FCFC7C
:1017A000044604E0FFF7F8FC001B642809D8286809
:1017B0008001F7D52BE000BFFFF7EEFC001B64288B
:1017C00002D90320BDE8F88F28688001F4D41EE018
:1017D0000128F7D0D8F80000E26900F480019142B6
:1017E00013D1226A00F03F0191420ED1616AC0F329
:1017F0008812914209D1A26A00F44031914204D189
:10180000E16A00F07060884201D00120DAE7002030
:10181000D8E700000838024000004742800E4742E7
:101820000070004010B5401EB0F1807F01D3012050
:1018300010BD4FF0E02460610F21601701F0B6F990
:101840000020A06107202061002010BD7047704774
:1018500070B590F83C20012A19D0012400F83C4FC3
:101860000222427050F83C3C5A689D6822F0700693
:101870000A684968324325F0800529435A6050F8C8
:101880003C2C9160447000210170084670BD02201C
:1018900070BD10B5040003D094F83D0010B107E00E
:1018A000012010BD002084F83C00204600F00CF818
:1018B000022084F83D00211D206800F0E9FE01208F
:1018C00084F83D00002010BD08B501681448B1F14E
:1018D000804F14D0134A914220D1016841F0020197
:1018E00001600068002200F00200009011461D20F7
:1018F000FFF7C0FC1D20BDE80840FFF7ADBC016844
:1019000041F0010101600068002200F00100009038
:1019100011461C20FFF7AEFC1C20ECE708BD0000C0
:1019200040380240000400400168CA6842F00102E9
:10193000CA600068816801F00701062903D00168C8
:1019400041F0010101600020704770B5044690F835
:101950003C00012817D0012584F83C50022084F86F
:101960003D002068826822F0770222F47F42826084
:101970000868502830D00DDC20284DD005DC98B305
:1019800010283BD148E0022070BD302844D04028C8
:1019900034D139E0602828D0702806D0B0F5805FB7
:1019A0002CD0B0F5005F29D10AE0CB68D1E9012144
:1019B000206800F0D1FE2068816841F0770109E0DD
:1019C000CB68D1E90121206800F0C6FE206881685B
:1019D00041F48041816011E0CA684968206800F0E4
:1019E000CDFE5021206807E016E0CA6849682068EB
:1019F00000F0D5FE6021206800F0B8FE84F83D506C
:101A0000002084F83C0070BDCA684968206800F076
:101A1000B5FE40212068EFE7226801461046EBE75B
:101A2000704770B50446006801694FF00005C9436E
:101A3000890715D4C168C943890711D4E91E01611A
:101A400001202077206880698007204602D0FFF7B8
:101A5000E7FF04E000F098F8204600F096F82577BC
:101A600020680169C943490717D4C168C9434907B8
:101A700013D46FF00401016102202077206880698F
:101A800010F4407F204602D0FFF7CAFF04E000F0C8
:101A90007BF8204600F079F8257720680169C94372
:101AA000090716D4C168C943090712D46FF00801A9
:101AB0000161042020772068C0698007204602D099
:101AC000FFF7AEFF04E000F05FF8204600F05DF89D
:101AD000257720680169C943C90617D4C168C9437D
:101AE000C90613D46FF01001016108202077206827
:101AF000C06910F4407F204602D0FFF791FF04E058
:101B000000F042F8204600F040F82577206801698F
:101B1000C943C90708D1C168C943C90704D1891E8F
:101B20000161204600F032F820680169C9430906C6
:101B300009D4C168C943090605D46FF08001016169
:101B40002046FFF783FE20680169C943490609D48E
:101B5000C168C943490605D46FF0400101612046C0
:101B600000F068F820680169C94389060BD4C16890
:101B7000C943890607D46FF0200101612046BDE802
:101B80007040FFF764BE70BD7047704770B5006865
:101B90002449884205D1BDE8704001212248FFF761
:101BA000EFBAB0F1804F3BD1204D214C6868411C09
:101BB00069604FF480414E10092831D2DFE800F00F
:101BC0000510053010053030200000222046FFF7B8
:101BD000DDFA002231462046FFF7D8FA002209E05C
:101BE00001222046FFF7D2FA012231462046FFF7B4
:101BF000CDFA01222046BDE870402021FFF7C6BA89
:101C000001222046FFF7C2FA012231462046FFF7A3
:101C1000BDFA012220212046FFF7B8FA00206860B3
:101C200070BD0000000400400004024000000020DD
:101C3000000802407047704770B50268044610689B
:101C4000D168536910F00F0F50D003F0010501F473
:101C5000907635435DD0C20705D0CA0503D5E26B47
:101C600042F00102E263420705D5DA0703D0E26BD6
:101C700042F00202E263820705D5DA0703D0E26B85
:101C800042F00402E263020705D5DA0703D0E26BF3
:101C900042F00802E263E26B002A33D0800604D5EA
:101CA000880602D5204600F0A2FD20684069E16B5D
:101CB000C0F38010090700D428B3204600F089FD46
:101CC0002068416949061AD5416921F04001416106
:101CD000606BA0B11B490165606BFFF737F9002805
:101CE00010D0606B016DBDE870400847830610D5C9
:101CF0008B060ED52046BDE8704000F078BD20462A
:101D0000FFF799FF70BD2046FFF795FF0020E063C5
:101D100070BD030606D50B0604D52046BDE870400D
:101D200000F074BE4006F3D54806F1D5D1682046D0
:101D300021F04001D160202184F8391000F0B9F978
:101D400070BD0000C327000870B5040004D094F8EB
:101D50003900002510B106E0012070BD84F838502C
:101D6000204600F023F8242084F839002068C16858
:101D700021F40051C160204600F084FD2068016913
:101D800021F4904101612068416921F02A014161FB
:101D90002068C16841F40051C160E563202084F8E7
:101DA000390084F83A00002070BD0000F0B587B01B
:101DB000044614216846FEF74BFA2A4F2368002296
:101DC00029490224032507262848BB4221D1264B56
:101DD00014331F6847F010071F601B6803F01003DF
:101DE00005930B6843F001030B60096802AB01F037
:101DF000010105916902CDE9001483E86400694698
:101E0000FFF7C8F8002211462520FFF733FA2520F6
:101E100023E0174FBB4222D1134B10331F6847F406
:101E200000371F601B6803F4003305930B6843F011
:101E300001030B60096802AB01F0010105910C215F
:101E4000CDE9001483E864006946FFF7A3F8002297
:101E500011462620FFF70EFA2620FFF7FDF907B0FE
:101E6000F0BD000000100140303802400000024088
:101E7000004400402DE9F843044690F83A009946A2
:101E800016460D4620284FD195B18EB194F83800F2
:101E9000012849D0012084F838000027E763222078
:101EA00084F83A00FFF778F9A6858046E68531E0A8
:101EB0000120BDE8F883E08D401EE085A068434620
:101EC000B0F5805F4FF000024FF020012046CDF8C2
:101ED000009004D000F0CBFD98B10320E9E700F0BA
:101EE000C6FD0028F9D1206900282068406803D089
:101EF000C1B225F8011B0DE0C0F3080125F8021B53
:101F000008E0206900282068406801D000F07F00C8
:101F100005F8010BE08D0028CDD1202084F83A008F
:101F200084F838700020C4E70220C2E790F83A3005
:101F3000202B22D1F9B1F2B190F83830012B1CD00E
:101F400081628285C2850021C163222280F83A2005
:101F500080F838100168CA6842F48072CA6001686B
:101F60004A6942F001024A610068C16841F02001FB
:101F7000C1600020704701207047022070470000B8
:101F80000068194988422DD1184801680868C2883C
:101F90008388521C9A4205D0C388028993420DD18E
:101FA00082885AB983880268D25C828803899A42FF
:101FB00001D1002201E08288521C828008680C490D
:101FC000C38809780268D154C1880289914201D13D
:101FD000002101E0C188491CC18001220449054853
:101FE000FFF7A4BF7047000000100140C4020020AA
:101FF00000000020180D00202DE9F843044690F859
:1020000039001F4616460D46202850D1A5B19EB175
:1020100094F8380001284AD0012084F838004FF0A5
:102020000008C4F83C80212084F83900FFF7B4F898
:10203000A6848146E68426E00120BDE8F883E08C92
:10204000401EE084A0684B46B0F5805F4FF0000270
:102050004FF080012046009703D000F008FDE8B95A
:102060000DE000F004FDC8B928882168C0F308001D
:102070004860206908B16D1C05E0AD1C03E02168D3
:1020800015F8010B4860E08C0028D8D14B4600229F
:1020900040212046009700F0EAFC08B10320CCE77D
:1020A000202084F8390084F838800020C5E7022019
:1020B000C3E77047FEE70000F0B587B0142168461B
:1020C000FEF7C6F821480024016841F004010160D0
:1020D000016801F004010591016841F0800101608F
:1020E000016801F080010591016841F00101016082
:1020F000016801F001010591016841F002010160F0
:102100000068134E00F0020046F220050590002200
:1021100029463046FFF73AF80E4F00220F21384685
:10212000FFF734F800950125CDE9015469463046A2
:102130000394FEF72FFF0F200090CDE9015469466C
:1021400038460394FEF726FF07B0F0BD3038024052
:10215000000802400004024010B586B00024174871
:10216000009401940294039404944FF080410594E8
:10217000016040F6B731C0E901140121C0E9031440
:1021800080218161FFF785FB08B1FEF7DEFE4FF489
:102190008050009069460948FFF7D7FB08B1FEF769
:1021A000D4FE049404A905480594FFF751FB0028C8
:1021B00001D0FEF7CAFE06B010BD0000980C00204A
:1021C00010B586B00024174800940194029403943B
:1021D00004941349059401604EF65F21C0E901148F
:1021E000F921C0E9031480218161FFF752FB08B196
:1021F000FEF7ABFE4FF48050009069460948FFF7A8
:10220000A4FB08B1FEF7A1FE049404A905480594B7
:10221000FFF71EFB002801D0FEF797FE06B010BDA9
:1022200000040040D80C00200C4810B50A49016099
:102230004FF4E1314160002181600C22C160C0E9AE
:1022400004128161C161FFF77FFD002803D0BDE862
:102250001040FEF77ABE10BD00100140180D00209E
:102260000C4810B50A4901604FF4E131416000218A
:1022700081600C22C160C0E904128161C161FFF775
:1022800063FD002803D0BDE81040FEF75EBE10BD20
:1022900000440040580D0020FEE770472DE9F04152
:1022A0000F46044616464BA1544800F06BFC544DB3
:1022B00028780028514806D0FDF7D5FF01464F4841
:1022C00002F0B4FD07E0FDF7CEFF82B2FF234B49D9
:1022D0004C48FFF791FE22464BA1484800F052FCC3
:1022E00028780028454806D0FDF7BDFF0146434841
:1022F00002F09CFD07E0FDF7B6FF82B2FF233F49E5
:102300004048FFF779FE002447E0200717D1220953
:102310003FA13A4800F036FC28780028374806D01C
:10232000FDF7A1FF0146354802F080FD07E0FDF70B
:102330009AFF82B2FF2331493248FFF75DFE200742
:10234000B0F1704F02D0701E844201D132A300E080
:1023500032A33A5D0A2A02D00D2A02D002E04E22B0
:1023600000E052222EA1254800F00CFC287800281D
:10237000224806D0FDF777FF0146204802F056FDBF
:1023800007E0FDF770FF82B2FF231C491D48FFF7ED
:1023900033FE0A20FEF7ECFD641CB442B5D30DA158
:1023A000164800F0EFFB28780028144807D0FDF706
:1023B0005AFFBDE8F0410146104802F037BDFDF775
:1023C00052FFBDE8F04182B2FF230C490D48FFF7F0
:1023D00013BE00002A2A2A2A2A2A2A2A2A2A2A2A34
:1023E0002A205052494E542043484152202A2A2A3A
:1023F0002A2A2A2A2A2A2A2A2A2A0A00E806002021
:1024000001000020180D002025733A0A000000008A
:1024100025303858203A20000A0000002000000033
:1024200025632573000000002DE9F0410F460446A6
:10243000164647A1504800F0A5FB504D28780028CB
:102440004D4806D0FDF70FFF01464B4802F0EEFC69
:1024500007E0FDF708FF82B2FF2347494848FFF72E
:10246000CBFD224647A1444800F08CFB2878002889
:10247000414806D0FDF7F7FE01463F4802F0D6FC82
:1024800007E0FDF7F0FE82B2FF233B493C48FFF72F
:10249000B3FD00243FE0200717D122093BA13648B5
:1024A00000F070FB28780028334806D0FDF7DBFEEB
:1024B0000146314802F0BAFC07E0FDF7D4FE82B2D3
:1024C000FF232D492E48FFF797FD2007B0F1704FED
:1024D00002D0701E844201D12EA300E02EA33A5DEB
:1024E0002EA1254800F04EFB28780028224806D06F
:1024F000FDF7B9FE0146204802F098FC07E0FDF721
:10250000B2FE82B2FF231C491D48FFF775FD0A2069
:10251000FEF72EFD641CB442BDD323A1164800F083
:1025200031FB28780028144807D0FDF79CFEBDE851
:10253000F0410146104802F079BCFDF794FEBDE879
:10254000F04182B2FF230C490D48FFF755BD000052
:102550002A2A2A2A2A2A2A2A2A2A2A2A2A20505297
:10256000494E5420484558202A2A2A2A2A2A2A2A0B
:102570002A2A2A2A2A0A0000E80600200100002050
:10258000180D002025733A0A000000002530385845
:10259000203A20000A00000020000000307825309A
:1025A00032582573000000002A2A2A2A2A2A2A2AB9
:1025B0002A2A2A2A2A205052494E5420454E442085
:1025C0002A2A2A2A2A2A2A2A2A2A2A2A2A0A0000DF
:1025D00070477047FEF7E6BD10B592B030216846EF
:1025E000FDF736FE14210CA8FDF732FE0120009005
:1025F000019002248005CDE9064019200890F020C2
:10260000CDE9090404200B906846FEF765FF0F2012
:10261000CDE90C0400200E904FF4A0500F90E00282
:10262000109003210CA8FEF757FE12B010BD000059
:102630000D48016841F0010101600B4A0021083298
:1026400011600268094B1A400260031D084A1A60B3
:10265000026822F48022026003480C3001600549C0
:10266000580608607047000000380240FFFFF6FE81
:102670001030002408ED00E00148FFF7D2B9000057
:10268000980C00200148FFF7CCB90000D80C0020BE
:10269000F0B50268254C264D264E274F274B4FF0AC
:1026A000804CA04209D0604507D0A84205D0B04276
:1026B00003D0B84201D0984204D122F0700E4A688B
:1026C00042EA0E02A0421BD0604519D0A84217D0A2
:1026D000B04215D0B84213D0984211D0184DA8423C
:1026E0000ED0184DA8420BD0174DA84208D0174D58
:1026F000A84205D0164DA84202D0164DA84203D1DB
:1027000022F44075CA682A434D6922F080022A43A8
:1027100002608A68C2620A688262A04201D098425E
:1027200001D10969016301214161F0BD000001404F
:102730000004004000080040000C0040000401407C
:1027400000400140004401400048014000180040A2
:10275000001C00400020004010B5846842EA0322BB
:1027600024F47F440A432243826010BD826822F031
:1027700070020A4342F007018160704710B5036A96
:10278000046A24F001040462846924F0F00444EA39
:10279000021423F00A020A438461026210BD10B5DC
:1027A000036A23F0100303628369046A23F470430D
:1027B00043EA023224F0A00343EA0111826101627C
:1027C00010BD10B5806B0021C185C184FFF733FABD
:1027D00010BD0168CA6822F49072CA6001684A6933
:1027E00022F001024A61202180F83A10704710B5AA
:1027F00090F83A10222901D0022010BD8168B1F56D
:10280000805F11D00169002901681FD0496801F07B
:102810007F03816A4A1C82620B70C18D491E0904C4
:10282000090CC18518D02BE00269816A002A026870
:10283000526805D0D2B20A80816A491C8162ECE7F5
:10284000C2F308020A80816A891CF7E74A68816A34
:102850004B1C83620A70E0E70168CA6822F020021C
:10286000CA600168CA6822F48072CA6001684A6955
:1028700022F001024A61202180F83A10FFF780FB24
:10288000002010BD2DE9F041044600680169E268AE
:1028900021F44051114301612169A068E2690843B4
:1028A0006169114322680843D16849F20C63994376
:1028B0000143D16020684169A26921F4407111434C
:1028C0004161E26964253226B2F5004F4D494E4818
:1028D000226806D0824201D08A4263D1FEF7B2FD5F
:1028E00062E0824201D08A4225D1FEF7ABFD00EBC7
:1028F000C00101EB001061686FF0180C4900B0FBDB
:10290000F1F3B3FBF5F3B0FBF1F7B0FBF1F203FB2E
:102910000CF307EB830306EBC303B2FBF5F2B3FB47
:10292000F5F3120103F0F80302EB4302B0FBF1F3FD
:10293000B0FBF1F024E0FEF76DFD00EBC00101EB10
:10294000001160686FF0180C4000B1FBF0F3B3FBAE
:10295000F5F3B1FBF0F7B1FBF0F203FB0CF307EB7F
:10296000830306EBC303B2FBF5F2B3FBF5F31201ED
:1029700003F0F80302EB4302B1FBF0F3B1FBF0F01C
:10298000B0FBF5F06FF01801484303EB800006EB55
:10299000C000B0FBF5F000F007002168104488602B
:1029A000BDE8F081FEF736FD00EBC00101EB001140
:1029B00060686FF018078000B1FBF0F2B2FBF5F22F
:1029C000B1FBF0F37A4303EB8202B1FBF0F306EBC9
:1029D0000212B2FBF5F2B3FBF5F302F0F00202EBE8
:1029E0000312B1FBF0F3B1FBF0F0B0FBF5F078436C
:1029F00003EB800006EB0010B0FBF5F000F00F00D9
:102A0000CBE70000001401400010014090F839109D
:102A1000212901D0022070478168B1F5805F016AE9
:102A20000BD04A1C0262026809785160C18C491EB1
:102A30000904090CC1840ED017E009880268C1F3AB
:102A40000801516001690029016A02D0491C016234
:102A5000ECE7891CFBE70168CA6822F08002CA60C3
:102A60000068C16841F04001C160002070472DE955
:102A7000F041984617460E460446069D1DE0681C28
:102A80001BD02DB1FEF788FBA0EB0800A84214D99B
:102A90002068C16821F4D071C1602068416921F0CB
:102AA00001014161202084F8390084F83A000020B7
:102AB00084F838000320BDE8F0812068006836EA19
:102AC000000004D00020B842D9D00020F3E7012054
:102AD000F9E700002DE9F04123480078C8B3234D01
:102AE0002868C168224F890620D5016889061DD54E
:102AF000396840680C68C6B2E088A188401C8842EA
:102B000005D0E0882189884204D1A08810B92046E8
:102B100002F059F9E18820684654E088218988420A
:102B200001D1002001E0E088401CE0802968C868ED
:102B300000060CD50868000609D538684068828808
:102B4000C3889A4206D1C86820F08000C860BDE8FA
:102B5000F08104E002F037F929684860F7E7BDE842
:102B6000F0410248FFF768B801000020180D00206E
:102B7000C40200200148FFF75FB80000580D002094
:102B8000FEE700000FB4084B10B504A902AA039891
:102B900000F0F2F8044602A9002000F084FC204670
:102BA00010BC5DF814FB0000A73400080907090EEB
:102BB000002804DB00F1E02080F80014704700F0EA
:102BC0000F0000F1E02080F8141D704700487047A6
:102BD000E406002002E008C8121F08C1002AFAD14A
:102BE00070477047002001E001C1121F002AFBD18D
:102BF000704700002DE9FF5F82B00021DDE904305D
:102C0000020DDDF840B0034318D044F61050A2F294
:102C1000FF3242431514119801281FD0A5EB0B0079
:102C2000401C5FEA000A4FF000064E4FDFF8389173
:102C3000B046504615D5CAF1000413E0119801249E
:102C40004AA3012801D16FEA0B010298119AC0E949
:102C50000031C0E9024206B0BDE8F09FCBF10000B0
:102C6000DFE704460021404A491842EB0450CDE911
:102C7000001012E0E00707D032463B464046494686
:102C8000FDF7B5FE8046894632463B46104619465A
:102C9000FDF7ADFE06460F466410002CEAD1DDE9D3
:102CA0000401DDE90023BAF1000F06DAFDF79FFE0B
:102CB00042464B46FDF79BFE05E0FDF73EFC4246D3
:102CC0004B46FDF73AFC04460E460022284BFDF722
:102CD00019FF03D84FF0FF30014607E00022254BD3
:102CE00020463146FDF7DCFDFDF7F3FE102409E038
:102CF000002C0ADB0A220023FDF760FA039B303226
:102D00001A55641E50EA0102F2D1641C039AC4F100
:102D100011031444119A012A03D0012208430DD152
:102D20000AE0084304D000204FF0110B119072E725
:102D3000A3EB0B056D1E0DE05B4504DD4FF00002BB
:102D400005F1010504E003DA4FF00002A5F10105E9
:102D5000002AECD002981199C0E90231C0E900457F
:102D600079E70000000014400000F03F3000000050
:102D70000000F0430000E03F2DE9FF4F95B09B4677
:102D80008946064600250FE2252877D100242746EC
:102D9000F84A0121059400E0044316F8013F203B66
:102DA00001FA03F01042F7D130782A2811D06FF0E1
:102DB0002F033078A0F13002092A16D8059A44F082
:102DC000020402EB820203EB42021044761C0590DF
:102DD000EFE759F8042B0592002A03DA504244F435
:102DE0000054059044F00204761C30782E2816D149
:102DF00016F8010F44F004042A280DD06FF02F02BA
:102E00003078A0F13003092B09D807EB870302EBD8
:102E10004303C718761CF3E759F8047B761C307817
:102E20006C280FD006DC4C2817D068280DD06A28F3
:102E300014D104E0742810D07A280FD10DE044F4A6
:102E400000140AE044F4801401E044F44014727861
:102E5000824202D104F58014761C761C30786628F4
:102E60000BD013DC582877D009DC002875D0452812
:102E7000F6D04628F4D047281AD19DE118E06328FF
:102E800035D0642879D0652812D195E1702873D0A7
:102E900008DC6728F1D069286FD06E280DD06F2824
:102EA00006D1B5E073282CD0752875D0782874D059
:102EB0005A46179990476D1C75E1C4F302500228D9
:102EC00009D003280DD0D9F8001004280DD00D60CA
:102ED00009F1040967E1D9F80010EA17C1E90052C5
:102EE000F6E7D9F800100D80F2E70D70F0E719F859
:102EF000041B8DF8001000208DF80100EA46012027
:102F000003E059F804AB4FF0FF3061074FF00001C8
:102F100002D40DE008F101018846B9420FDA80457C
:102F2000F8DB1AF808100029F4D108E008F10101D3
:102F300088468142FADB1AF808100029F6D1059874
:102F40005B46A0EB080721463846179A00F094FA32
:102F5000284400EB080507E04DE029E10DE01AF8F0
:102F6000010B5A4617999047B8F10108F7D25B4612
:102F700021463846179A13E142E00A220092C4F330
:102F800002524FF0000A022A08D059F804CB032A53
:102F90004FEAEC710AD00DE029E02AE009F10701BF
:102FA00021F00702F2E802C1914609E00FFA8CFC19
:102FB0004FEAEC71042A03D14FFA8CFC4FEAEC7112
:102FC000002907DA0A460021DCF1000C61EB02015E
:102FD0002D2202E0220504D52B228DF804200122A7
:102FE00003E0E20701D02022F7E7904659E00A21EA
:102FF00002E010220DE010214FF0000A00910BE0DA
:1030000010224FF0000A44F004040827009203E065
:1030100008224FF0000A0092C4F30252022A05D09F
:1030200059F804CB0021032A08D009E009F107016F
:1030300021F00702F2E802C1914605E01FFA8CFC7C
:10304000042A01D10CF0FF0C4FF00008220728D50C
:10305000702806D0009B83F0100353EA0A0305D0C2
:103060000EE040228DF80420012208E05CEA010213
:1030700006D030228DF804208DF8050002229046FB
:10308000009B83F0080353EA0A030AD15CEA0102B9
:1030900001D1620705D530228DF804204FF00108D8
:1030A0007F1E582804D034A003900EA802900DE093
:1030B00036A0F9E753466046009AFDF77FF884464C
:1030C0000398825C0298401E029002705CEA010044
:1030D000F0D1029806A9081A00F1200A600702D56B
:1030E00024F4803400E00127574502DDA7EB0A00F5
:1030F00000E0002000EB0A01009005984144401ACE
:103100000590E00306D45B462146179A059800F027
:10311000B3F90544002706E001A85A46C05D179997
:1031200090476D1C7F1C4745F6DBE0030CD55B46E2
:103130002146179A059800F09FF9054404E03020D5
:103140005A46179990476D1C0099481E0090002917
:10315000F5DC08E0029802995A460078491C029171
:10316000179990476D1CBAF10001AAF1010AF1DC30
:1031700065E100000928010030313233343536373B
:1031800038396162636465660000000030313233B3
:103190003435363738394142434445460000000053
:1031A00000F058F90544761C307800287FF4ECAD27
:1031B00019B02846BDE8F08F620700D4062709F150
:1031C000070222F0070CFCE80223E14603F0004866
:1031D0005FEA080C02D00FF2702C0DE05FEA045C8D
:1031E00002D50FF2682C07E05FEAC47C02D00FF230
:1031F000602C01E0AFF2700C4FF0FF3823F0004379
:10320000CDF850C065280CD006DC452809D04628EA
:103210001DD047283DD13DE0662818D067287ED1D3
:1032200038E00021112F01DB112000E0781CCDE9EE
:10323000000106A90EA8FFF7DDFCDDE90F010E9ADB
:1032400003910021009207F1010A04914DE04FF033
:1032500000400097CDE9011006A90EA8FFF7CAFCAF
:10326000DDE90F0203920E9B11990022DDF80CA0FC
:103270000093049211B9791C00EB010AB7EB0A0024
:1032800004D4C0F1FF3007F1010A0490AAEB070053
:10329000019044E0012F00DA01270021112F01DD08
:1032A000112000E03846CDE9000106A90EA8FFF77D
:1032B000A1FCDDE90F010E9A039100210491009217
:1032C000BA4621070CD40399514500DA8A46BAF16F
:1032D000010F05DD009AAAF10101515C302908D0E7
:1032E000B84202DA10F1040F06DA0121CDE901102B
:1032F00015E0AAF10101E9E7002805DC0499014481
:103300000491AAEB000102E0411C514500DD8A4610
:103310000499401A401C01904FF000400290200791
:1033200004D40198504501DBCDF8048000208DF8CD
:103330004F0002980DF14F07B0F1004F25D02B2020
:103340000E9002984FF0020800280CDA40420290DA
:103350002D200E9007E00A210298FDF76AF930311E
:10336000029007F8011DB8F10001A8F10108F2DC94
:1033700002980028EFD1791E0E980870307800F07E
:10338000200040F0450007F8020D12A8C01B00F114
:1033900007081498007800B1012000EB0A01019899
:1033A00001EBE07105984144401A401E0590E0038E
:1033B00006D45B462146179A059800F05DF805444F
:1033C0001498007818B15A46179990476D1CE0037D
:1033D00024D55B462146179A059800F04DF8054420
:1033E0001CE00498002807DBDDE90301884203DDC7
:1033F0000098405C179901E0179930205A46904791
:10340000049805F10105401C04900198401E0190AC
:1034100004D12E205A46179990476D1CBAF100012D
:10342000AAF1010ADDDC05E017F8010B5A461799ED
:1034300090476D1CB8F10001A8F10108F4DC5B466F
:103440002146179A0598ABE62D0000002B000000DE
:10345000200000002DE9F041044600251E461746D5
:10346000880404D405E039462020B0476D1C641E52
:10347000F9D52846BDE8F0812DE9F0410446002544
:103480001E469046C80301D5302700E02027880457
:1034900004D505E041463846B0476D1C641EF9D599
:1034A0002846BDE8F0810A68531C0B601070704715
:1034B00038B5012804D9086800F022F9002038BD89
:1034C000194800211A4B01634163184800900822F3
:1034D00003F59661602001F0D5FA0400EFD114489D
:1034E0000930FDF714FD134D18B1A52803D012A122
:1034F00002E015A100E01BA12048FFF743FB28785C
:1035000000281E4806D0FCF7AEFE01461B4801F01D
:103510008DFC07E0FCF7A7FE82B2FF23174918488D
:10352000FEF76AFD204638BD30DA0020CC020020CC
:10353000B0D5002001000020556E6B6E6F776E20B5
:103540007374617475730A004465766963652069F4
:103550006E206E6F726D616C207374617475730A86
:103560000000000044657669636520696E2065721D
:10357000726F72207374617475730A00E80600201C
:10358000180D002070B50C460546052804D0032D03
:103590000DD0042D16D01AE012A16068FCF76AFE67
:1035A000A8B921462846BDE8704000F00DBD0EA127
:1035B0006068FCF75FFE50B921462846BDE87040C0
:1035C00000F0E6BB09A16068FCF754FE20B120685A
:1035D00000F096F8002070BD21462846BDE87040F6
:1035E00000F0A2BE646163006164630074616700FF
:1035F0002DE9F04786B02022102101A8FCF721FE1A
:103600000024DFF8C8900DF1040A314D314F56E027
:1036100004EB840605EB86082FA1D8F80C00FCF714
:1036200029FE00284AD055F82600FCF71CFEC0F100
:103630000C0100220AF801202AA12C48FFF7A2FA67
:1036400099F800000028294806D0FCF70CFE014636
:10365000264801F0EBFB07E0FCF705FE82B2FF23F2
:1036600022492348FEF7C8FCD8F80800009055F816
:10367000262001AB1FA11D48FFF784FA99F800002E
:1036800000281A4806D0FCF7EEFD0146174801F065
:10369000CDFB07E0FCF7E7FD82B2FF231349144896
:1036A000FEF7AAFC55F82600FCF7DDFDC0F10C0181
:1036B00020220AF801201E20FDF75AFC641C3868FD
:1036C0008442A5D306B00020BDE8F08701000020A9
:1036D0000800002024540008494E5445524E414CE5
:1036E00000000000636D643A20000000E80600203E
:1036F000180D0020257325732D2025730A00000066
:103700002DE9F04107460026534D544C09E000BF17
:1037100006EB8600394655F82000FCF7E5FD30B190
:10372000761C20688642F3D30020BDE8F0814CA1CE
:103730004D48FFF727FA4D4C207800284A4806D01C
:10374000FCF791FD0146484801F070FB07E0FCF7EB
:103750008AFD82B2FF2344494548FEF74DFC06EB43
:10376000860644A155F826203F48FFF70BFA20783B
:1037700000283D4806D0FCF776FD01463A4801F0A6
:1037800055FB07E0FCF76FFD82B2FF23364938484E
:10379000FEF732FC38A13448FFF7F4F9207800280E
:1037A000314806D0FCF75FFD01462F4801F03EFB93
:1037B00007E0FCF758FD82B2FF232B492C48FEF7A7
:1037C0001BFC05EB86052BA12748EA68FFF7DAF911
:1037D00020780028244806D0FCF745FD0146224801
:1037E00001F024FB07E0FCF73EFD82B2FF231E49F7
:1037F0001F48FEF701FC24A11B48FFF7C3F92078FE
:103800000028194806D0FCF72EFD0146164801F0A5
:103810000DFB07E0FCF727FD82B2FF231249144895
:10382000FEF7EAFB13A110482A69FFF7ABF92078ED
:1038300000280D4806D0FCF716FD01460A4801F0A5
:10384000F5FA71E7FCF70FFD82B2FF23064908483D
:10385000FEF7D2FB68E700000800002024540008AF
:10386000636D643A20000000E8060020010000209B
:10387000180D002025730A00202020202075736178
:1038800067653A20202000002020202020657861F4
:103890006D706C653A20000010B50C46022802D00D
:1038A000042809D00DE00CA16068FCF7E3FC40B9E6
:1038B000BDE8104000F0C8BE09A16068FCF7DAFC62
:1038C00020B12068FFF71CFF002010BDD4E90201E1
:1038D000BDE8104000F042BE7061636B6574730018
:1038E00067657400F8B5012804D90868FFF708FF78
:1038F0000020F8BD3A4800213B4B01634163394841
:103900000090082203F59661402001F0BBF8060004
:10391000EFD136A13948FFF735F9394D287800281D
:10392000364806D0FCF79FFC0146344801F07EFA89
:1039300007E0FCF798FC82B2FF2330493148FEF7DC
:103940005BFB294C30A1313422462C48FFF71AF991
:1039500028780028294806D0FCF785FC014627482E
:1039600001F064FA07E0FCF77EFC82B2FF232349F2
:103970002448FEF741FB2534224629A11F48FFF7C2
:1039800001F9287800281D4806D0FCF76CFC014698
:103990001A4801F04BFA07E0FCF765FC82B2FF23FE
:1039A00016491848FEF728FB04F1140223A1134816
:1039B000FFF7E8F828780028104806D0FCF753FCF9
:1039C00001460E4801F032FA07E0FCF74CFC82B2E7
:1039D000FF230A490B48FEF70FFB3046F8BD0000F5
:1039E00030DA0020CC020020B0D50020526573658B
:1039F0007420737563636573730A0000E806002022
:103A000001000020180D00204669726D7761726513
:103A10002056657273696F6E3A2025730A000000A4
:103A2000417373656D626C792053657269616C20B6
:103A30004E756D6265723A2025730A0046696C7492
:103A400065722053657269616C204E756D62657296
:103A50003A2025730A00000038B5012804D9086807
:103A6000FFF74EFE002038BD1A4800211B4B0163B2
:103A7000416319480090082203F59661502001F037
:103A800001F80400EFD115480930FDF740FAFCF7C2
:103A9000C3FD0022124BFCF750FD02460B4611A15C
:103AA0001548FFF76FF8154800780028124806D02F
:103AB000FCF7D9FB0146104801F0B8F907E0FCF724
:103AC000D2FB82B2FF230C490D48FEF795FA20463F
:103AD00038BD000030DA0020CC020020B0D5002034
:103AE0000000244054656D70657261747572653AAA
:103AF00020252E316C660A00E80600200100002017
:103B0000180D002010B50C46082802D002280CD051
:103B100010E00DA16068FCF7ADFB58B904F1080195
:103B2000BDE81040062001F0CDB908A16068FCF79F
:103B3000A1FB20B12068FFF7E3FD002010BDBDE828
:103B4000104000F0C9BC0000736574006765740024
:103B500010B50C46022802D0032814D018E015A195
:103B60006068FCF787FB50B114A16068FCF782FB2A
:103B7000C0B114A16068FCF77DFBB8B108E0BDE8F6
:103B8000104001F083BB0BA16068FCF773FB20B110
:103B90002068FFF7B5FD002010BDA068BDE810400B
:103BA00001F0BCBBBDE8104001F00EBABDE810400A
:103BB00001F022BC696E69740000000066696C65E2
:103BC00000000000696E7374616C6C00F8B5012828
:103BD00004D90868FFF794FD0020F8BD474800218C
:103BE000484B0163416346480090082203F5966103
:103BF000302000F047FF0600EFD1424C42A11D34B7
:103C000022464648FEF7BEFF454D28780028434827
:103C100006D0FCF728FB0146404801F007F907E011
:103C2000FCF721FB82B2FF233C493E48FEF7E4F952
:103C30000A3422463CA13948FEF7A4FF2878002820
:103C4000364806D0FCF70FFB0146344801F0EEF889
:103C500007E0FCF708FB82B2FF2330493148FEF74A
:103C6000CBF90A34224636A12C48FEF78BFF287880
:103C700000282A4806D0FCF7F6FA0146274801F04A
:103C8000D5F807E0FCF7EFFA82B2FF232349254875
:103C9000FEF7B2F9253422462FA12048FEF772FF25
:103CA000287800281D4806D0FCF7DDFA01461B489D
:103CB00001F0BCF807E0FCF7D6FA82B2FF231749FF
:103CC0001848FEF799F904F114022AA11348FEF7E7
:103CD00059FF28780028114806D0FCF7C4FA01469D
:103CE0000E4801F0A3F807E0FCF7BDFA82B2FF230B
:103CF0000A490C48FEF780F93046F8BD30DA00205A
:103D0000CC020020B0D5002050726F64756374201F
:103D10004E756D6265723A2025730A00E806002030
:103D200001000020180D00204D616E7566616374FE
:103D300075726520446174653A2025730A0000009D
:103D40004669726D776172652056657273696F6E30
:103D50003A2025730A000000417373656D626C7927
:103D60002053657269616C204E756D6265723A20F0
:103D700025730A0046696C74657220536572696127
:103D80006C204E756D6265723A2025730A00000042
:103D90002DE9F84F0C468868022268A1FCF7B9FAB1
:103DA000674E0028DFF89CA1674F684DA06806F1B8
:103DB00008086FF0004BA6F2A7490BD0032264A1BC
:103DC000FCF7A7FA002864D02068FFF799FC0020D0
:103DD000BDE8F88F0A220021801CFCF775FB034622
:103DE000401E072819D35BA15F48FEF7CBFE287859
:103DF00000285D4806D0FCF736FA01465A4801F023
:103E000015F807E0FCF72FFA82B2FF23564957480E
:103E1000FEF7F2F84FF0FF30DAE749495046FDF778
:103E20006EF8311D0220FDF76AF841461846FDF78D
:103E300066F84F4B0C2242495846009700F022FE8C
:103E40000400C5D14846FDF762F883B2020C49A1CF
:103E50004548FEF797FE28780028434806D0FCF72F
:103E600002FA0146404800F0E1FF07E0FCF7FBF9E9
:103E700082B2FF233C493D48FEF7BEF83C480D3076
:103E8000FDF745F883B2020C43A13748FEF77AFEEE
:103E90003FE0A0680A220021C01CFCF715FB034686
:103EA000072819D92BA13048FEF76CFE2878002886
:103EB0002D4806D0FCF7D7F901462B4800F0B6FF95
:103EC00007E0FCF7D0F982B2FF2327492748FEF725
:103ED00093F86FF001007BE719495046FDF70FF8A2
:103EE000311D0320FDF70BF841461846FDF707F892
:103EF0001F4B0C2212495846009700F0C3FD0400E6
:103F00008AD14846FDF703F882B22CA11648FEF785
:103F100039FE28780028144806D0FCF7A4F9014699
:103F2000114800F083FF07E0FCF79DF982B2FF2300
:103F30000D490E48FEF760F8204649E77377000008
:103F400060DA0020A5A55A5ACC020020010000200A
:103F5000766F6C00414443206E756D626572206916
:103F60006E76616C69640A00E8060020180D002076
:103F7000B0D50020506F7369746976652078203D54
:103F80002025752C204E6567617469766520782040
:103F90003D2025750A000000506F736974697665CD
:103FA0002079203D2025752C204E65676174697647
:103FB000652079203D2025750A00000056616C754A
:103FC00065203D2025750A002DE9FE430D468868D1
:103FD0008EA1FCF789F98E4C58B102228DA1A868F8
:103FE000FCF797F938B12868FFF78AFB0020BDE895
:103FF000FE83002623E0A8680A220021801CFCF72B
:1040000063FA0646401E072819D383A18848FEF7A5
:10401000B9FD20780028864806D0FCF724F901462F
:10402000834800F003FF07E0FCF71DF982B2FF238D
:104030007F498048FDF7E0FF4FF0FF30D7E701AA46
:104040007DA1E868FCF77EF9DFF8F0810198404532
:1040500003DD4FF48047B84219DB79A17448FEF7BD
:1040600091FD20780028724806D0FCF7FCF8014644
:104070006F4800F0DBFE07E0FCF7F5F882B2FF23A3
:104080006B496C48FDF7B8FF6FF00100AFE702AA7B
:1040900069A12869FCF756F90298404501DDB8424C
:1040A00019DB6CA16248FEF76DFD2078002860489E
:1040B00006D0FCF7D8F801465D4800F0B7FE07E0EF
:1040C000FCF7D1F882B2FF2359495A48FDF794FF13
:1040D0006FF002008BE764496448FCF710FF624907
:1040E0000120091DFCF70BFF5F4930460831FCF742
:1040F00006FF5D4901980C31FCF701FF5A4902980F
:104100001031FCF7FCFE5A4800905A4B14225649D5
:104110006FF0004000F0B6FC07008FD15548093021
:10412000FCF7F5FE054653480D30FCF7F0FE064659
:10413000030C2A0E50A13E48FEF724FD20780028EB
:104140003B4806D0FCF78FF80146394800F06EFE78
:1041500007E0FCF788F882B2FF2335493548FDF7C0
:104160004BFFB3B2C5F307424EA13148FEF70AFD3B
:10417000207800282E4806D0FCF775F801462C4818
:1041800000F054FE07E0FCF76EF882B2FF232849E6
:104190002848FDF731FF37481130FCF7B8FE0646D6
:1041A000030CC5F307224AA12148FEF7EBFC207857
:1041B00000281F4806D0FCF756F801461C4800F0BE
:1041C00035FE07E0FCF74FF882B2FF231849194883
:1041D000FDF712FFB3B2EAB248A11548FEF7D2FCD0
:1041E00020780028124806D0FCF73DF80146104818
:1041F00000F01CFE07E0FCF736F882B2FF230C4902
:104200000C48FDF7F9FE3846F1E60000616C6C00E1
:104210000100002073770000537769746368206E93
:10422000756D62657220696E76616C69640A000062
:10423000E8060020180D00202564000000C0FFFFE4
:1042400056616C7565207820696E76616C69640AC8
:104250000000000056616C7565207920696E7661FA
:104260006C69640A0000000060DA0020A5A55A5AB3
:10427000CC020020B0D50020506F73697469766558
:10428000207820646163206368616E6E656C203DF8
:104290002025752C2076616C7565203D2025750ADA
:1042A000000000004E6567617469766520782064BF
:1042B0006163206368616E6E656C203D2025752CFE
:1042C0002076616C7565203D2025750A0000000090
:1042D000506F736974697665207920646163206327
:1042E00068616E6E656C203D2025752C2076616CB2
:1042F0007565203D2025750A000000004E65676148
:1043000074697665207920646163206368616E6EEC
:10431000656C203D2025752C2076616C7565203DEF
:104320002025750A00000000F8B50C46C868FBF7A8
:104330009AFF05463BA1A068FBF7D6FF3A4E4FF027
:10434000FF37A0B139A1A068FBF7CEFF30B339A188
:10435000A068FBF7C9FF30B337A1A068FBF7C4FF23
:10436000002825D02068FFF7CBF90120F8BD0023F5
:10437000082D29D931A11FE0FBF775FF014636480A
:1043800000F054FD08E000BFFBF76DFF82B2FF2391
:1043900031493248FDF730FE3846F8BD0123082D7B
:1043A00012D92FA108E002230C2D0DD934A103E06E
:1043B0000323172D08D93AA12748FEF7E3FB3078ED
:1043C00000282548E0D0D7E73D493E48FCF797FD57
:1043D0003B490420091DFCF792FD39491846083174
:1043E000FCF78DFD38A1E068FBF77EFF34490C3106
:1043F00090B12846FCF783FD3148E1681030FBF7A7
:1044000047FF33480090334B05F110022C496FF001
:10441000004000F037FBF8BD0020FCF770FD0025E0
:10442000EFE70000706E0000010000206461746519
:104430000000000061736E0066736E00504E206DC8
:10444000757374206C657373207468616E203820F6
:1044500062797465730A0000E8060020180D0020D8
:1044600044617465206D757374206C65737320747A
:1044700068616E20382062797465730A000000005C
:1044800041534E206D757374206C6573732074688E
:10449000616E2031322062797465730A0000000079
:1044A00046534E206D757374206C65737320746869
:1044B000616E2032332062797465730A0000000057
:1044C00060DA0020A5A55A5A636C6561720000008D
:1044D000CC020020B0D5002038B515480021164B7D
:1044E0000163416313480090082203F5966174202C
:1044F00000F0C8FA04001AD10F4A10A1093214487A
:10450000FEF740FB134800780028114806D0FBF75F
:10451000AAFE01460E4800F089FC07E0FBF7A3FE67
:1045200082B2FF230A490C48FDF766FD204638BDDC
:1045300030DA0020CC020020B0D50020526563653F
:104540006976656420646174652025730A00000043
:10455000E806002001000020180D002038B50D46A7
:1045600000221146FBF7B0FF044600221146284600
:10457000FBF7AAFF034623492046FCF7C0FC21496C
:104580001846091DFCF7BBFC1F4800901F4B082272
:104590001C49762000F076FA040031D11B4809301E
:1045A000FCF7B5FC034619480D30FCF7B0FC054696
:1045B00016481130FCF7ABFC024615A11E480095C9
:1045C000FEF7E0FA1D48007800281B4806D0FBF7EC
:1045D0004AFE0146184800F029FC07E0FBF743FEBD
:1045E00082B2FF2314491648FDF706FD0648074925
:1045F000001F1531426813A01D3AFDF74FFE2046FB
:1046000038BD000060DA0020CC020020B0D50020C8
:1046100073697A65203D2025752C207061636B6578
:104620007473203D2025752C206E756D6265722097
:104630003D2025750A000000E8060020010000204A
:10464000180D00204C4F470038B5194800211A4B6F
:104650000163416317480090082203F596617520B5
:1046600000F010FA040022D1134B0D331846FCF76A
:104670004EFC0246181DFCF74AFC03460FA11648E3
:10468000FEF780FA154800780028134806D0FBF79B
:10469000EAFD0146104800F0C9FB07E0FBF7E3FD27
:1046A00082B2FF230C490E48FDF7A6FC204638BD18
:1046B00030DA0020CC020020B0D5002073697A6582
:1046C000203D2025752C207061636B657473203D3F
:1046D0002025750A00000000E806002001000020E7
:1046E000180D0020C2B00025FCF764FDFDF774FF33
:1046F000FDF7E2FCFDF764FDFDF796FDFDF7B0FD6B
:10470000FDF72AFD744E4FF480742146326852F84A
:10471000080B00F049FB32682146506802F58472AC
:1047200000F042FB6D4C012060706D480068C1686C
:1047300041F02001C1606B48FDF7F6F86A4E012296
:1047400091033046FCF722FD012251033046FCF76D
:104750001DFD012220213046FCF718FD63A16748AA
:10476000FEF710FA60780028644806D0FBF77BFD5E
:104770000146624800F05AFB07E0FBF774FD82B285
:10478000FF235E495648FDF737FC5DA15B48FEF705
:10479000F9F960780028594806D0FBF764FD014616
:1047A000564800F043FB07E0FBF75DFD82B2FF23B4
:1047B00052494B48FDF720FC58A15048FEF7E2F95A
:1047C000607800284D4806D0FBF74DFD01464B4868
:1047D00000F02CFB07E0FBF746FD82B2FF234749C0
:1047E0003F48FDF709FC6E464FF0FF3700F0FAFA3C
:1047F0000028FBD000F008FB8DF800010D28F5D053
:104800000A280CD008283FD0FF2D01D270556D1C0E
:104810003B46012240A93248FDF7EEFBE6E736A110
:104820003648FEF7AFF960780028344806D0FBF729
:104830001AFD0146314800F0F9FA07E0FBF713FDD5
:1048400082B2FF232D492648FDF7D6FB0020705584
:10485000684600F067F831A12848FEF793F96078C0
:104860000028264806D0FBF7FEFC0146234800F04E
:10487000DDFA07E0FBF7F7FC82B2FF231F49184877
:10488000FDF7BAFB0025B1E7002DAFD03B46012272
:1048900040A91348FDF7B0FB21A11848FEF772F9B3
:1048A00060780028154806D0FBF7DDFC0146134868
:1048B00000F0BCFA07E0FBF7D6FC82B2FF230F49F9
:1048C0000748FDF799FB3B46012240A90448FDF744
:1048D00093FB6D1E8AE70000C40200200000002048
:1048E000180D0020D80C002000080240434F4D2036
:1048F00069732072656164790A000000E80600208F
:104900004669726D776172652056657273696F6E64
:104910003A20302E312E350A000000003E00000003
:10492000200000002DE9F043A1B000256F4634A11E
:1049300005E000BF47F8250031A100206D1CFBF702
:10494000B1FC0028F6D135B100242E4EDFF8B88036
:10495000DFF8B8900DE04FF0FF3021B0BDE8F083F4
:1049600004EB8402009958F82200FBF7BDFC98B1D3
:10497000641CD9F800008442F2D325A12948FEF72F
:1049800001F930780028274830D0FBF76CFC01464D
:10499000244800F04BFA31E004EB840208EB82017A
:1049A000E8B24A6839469047040006D003461A46E2
:1049B0001DA11C48FEF7E6F803E029A11948FEF7FF
:1049C000E1F830780028174806D0FBF74CFC014688
:1049D000144800F02BFA07E0FBF745FC82B2FF23F6
:1049E00010492748FDF708FB2046B6E7FBF73BFCDC
:1049F00082B2FF230B492248FDF7FEFA0020ACE704
:104A000020090000010000200800002024540008B4
:104A1000556E6B6E6F776E20636F6D6D616E640A9D
:104A200000000000E8060020436F6D6D616E642099
:104A3000657865637574696F6E206661696C65641D
:104A40002C2052657475726E656420636F646520F6
:104A5000697320256420283D20252358290A000059
:104A6000436F6D6D616E6420657865637574656410
:104A7000207375636365737366756C6C790A0000E7
:104A8000180D00202DE9F0471C468D4B1500DDF870
:104A900020901A68166826F0200616601A68526878
:104AA000884F4FF0550200BA3A70C7F8010005F17F
:104AB0000C0000BAC7F805004FF0090606D007F150
:104AC00009002A46FBF7ABFB05F1090605F10801D1
:104AD000781CFCF725FA00BAB851361DB2B2FF2394
:104AE00078497748FDF788FA774EE8B140F22D23F0
:104AF000764A77A17C48FEF745F8307800287A4856
:104B000006D0FBF7B0FB0146774800F08FF907E0CD
:104B1000FBF7A9FB82B2FF2373497448FDF76CFAD7
:104B20004FF0FF30BDE8F087002020704FF47A7519
:104B30002B46012221466248FDF79CF9E0B14FF473
:104B40000D73624A6AA16848FEF71CF830780028A5
:104B5000654806D0FBF787FB0146634800F066F91D
:104B600007E0FBF780FB82B2FF235F495F48FDF758
:104B700043FA6FF00100D5E720785528D8D1FF23FC
:104B80000822611C4E48FDF775F9E0B140F2392367
:104B90004E4A5EA15448FDF7F5FF30780028524890
:104BA00006D0FBF760FB01464F4800F03FF907E0F5
:104BB000FBF759FB82B2FF234B494C48FDF71CFA27
:104BC0006FF00200AEE70520FF23005904F1090150
:104BD00005BAA5F1080082B23948FDF74BF908B3D0
:104BE00040F23F23394A50A13F48FDF7CBFF3078D0
:104BF00000283D4806D0FBF736FB01463A4800F056
:104C000015F907E0FBF72FFB82B2FF23364937483F
:104C1000FDF7F2F9092221464AA0FDF705FC6FF0E5
:104C200003007FE76719A7F10308291F601CFCF741
:104C300077F9D8F8001009BA81421CD04FF41273EA
:104C4000224A45A12848FDF79DFF307800282648D4
:104C500006D0FBF708FB0146234800F0E7F807E021
:104C6000FBF701FB82B2FF231F492048FDF7C4F97F
:104C70006FF0040056E757F8070C02BAD2B113469A
:104C80003BA11948FDF77EFF30780028164806D072
:104C9000FBF7E9FA0146144800F0C8F807E0FBF713
:104CA000E2FA82B2FF2310491048FDF7A5F96FF030
:104CB000050037E76D1C0020C9F8005032E70000FE
:104CC000580D0020E8070020010000203F54000894
:104CD00025732C25643A205472616E736D697420BB
:104CE0006661696C65640A00E8060020180D002002
:104CF00025732C25643A20526563656976652066C4
:104D000061696C656420310A0000000025732C2560
:104D1000643A2052656365697665206661696C65F1
:104D20006420320A0000000025732C25643A2052CA
:104D3000656365697665206661696C656420330A20
:104D4000000000005265636569766564206D6573D7
:104D5000736167657300000025732C25643A204356
:104D60006865636B73756D206661696C65640A00C4
:104D7000436F6D6D616E6420657865637574696FEE
:104D80006E206661696C65642C2052657475726E64
:104D9000656420636F646520697320256420283D65
:104DA00020252358290A000000238380C380491E40
:104DB0000181026070478188C088814201D1012051
:104DC00070470020704782880168895C8288038967
:104DD0009A4201D1002201E08288521C828008465A
:104DE00070470000074800680068C1888288891AF7
:104DF000C28883889A4202D20089491C014488B241
:104E000070470000C40200200748006801688A88D3
:104E10000868805C8A880B899A4201D1002201E0EF
:104E20008A88521C8A807047C40200202DE9F04114
:104E30000F4680460024214D214E03E018F804104F
:104E40004160641C30684068FFF7B5FF28B12868EE
:104E50000168090601D5BC42F0D32868C16821F079
:104E60008001C1601BE0306818F804104068C288F7
:104E70008388521C9A4214D0C28803899A4201D175
:104E8000828872B1C3880268D154C1880289914274
:104E900001D1002101E0C188491CC180641CBC42D1
:104EA000E1D330684068FFF786FF20B92868C16801
:104EB00041F08001C1602046BDE8F081180D00205E
:104EC000C40200202DE9FF470C4648690A22002150
:104ED000FBF7FAFA81460A2200212069FBF7F4FA6F
:104EE00080460A220021E068FBF7EEFA07460A2214
:104EF0000021A068FBF7E8FA06460A220021606854
:104F0000FBF7E2FA05460A2200212068FBF7DCFAEB
:104F10008DE8C00302462B4616A11E48FDF732FE5F
:104F20001C4A1DA12348FDF72DFE234800780028C8
:104F3000204806D0FBF797F901461E48FFF776FF99
:104F400007E0FBF790F982B2FF231A491B48FDF7EF
:104F500053F81048002130381A4B40F83F1F1422F4
:104F60000171174800900B497320FFF78BFD04B0C7
:104F7000BDE8F0872530346C752530326C752530EE
:104F8000326C752530326C752530326C75253032B7
:104F90006C75000060DA002053656E64696E6720EE
:104FA0006461746520257320746F206D6F64756C67
:104FB000650A0000E806002001000020180D00200E
:104FC000CC020020B0D500202DE9FC5FDFF8ECA179
:104FD00000250195DAF800004FF00108C16821F0C2
:104FE0002001C160DFF8D89176A17B4889F8005094
:104FF000FDF7C8FD7848FBF736F982B2FF23764902
:105000005046FCF7F9FF4EF660234FF48072734967
:105010005046FCF72FFF4FF0010BB8B170A16E485E
:10502000FDF7B0FD6C48FBF71EF982B2FF236A4919
:105030005046FCF7E1FFDAF80000C16841F02001BA
:10504000C16089F800B0681EBDE8FC9F634842F269
:10505000107350F8C01F09BA21F0FF04C1780C4347
:105060004168C07909BA21F0FF0661490643A2B23E
:105070000F465248FCF7FEFE334622465DA15648D5
:10508000FDF780FD5448FBF7EEF882B2FF2352494A
:105090004A48FCF7B1FF21463846FBF741FFB042D2
:1050A0001CD15FA14C48FDF76DFD4B48FBF7DBF8C9
:1050B00082B2FF2348494148FCF79EFF5CA1464865
:1050C000FDF760FD4448FBF7CEF882B2FF2342496A
:1050D0003A48FCF791FF04F5807652E059A13E482A
:1050E000FDF750FD3C48FBF7BEF882B2FF233A497A
:1050F0003248FCF781FF89F800B06FF00100A3E7A8
:10510000544898FA88F1016053490A68A918B142D5
:1051100002D9621B02F580724E4811BA17464160EF
:105120002E4841194B480830FBF779F849490020CF
:1051300039444A4B8860484807F10C02001D009032
:1051400044491120FFF79EFC0090B8B1B8F1010F5F
:1051500019D10198032816D241A11F48FDF712FD6D
:105160001D48FBF780F882B2FF231B491348FCF768
:1051700043FF0198401CC0B2019002E008F1010811
:105180003D44B542BCD3B54201D137A100E03BA1BB
:105190001148FDF7F7FC1048FBF765F882B2FF23D2
:1051A0000D490648FCF728FFDAF80000C16841F015
:1051B0002001C16089F800B0009845E7180D002073
:1051C00001000020446F776E6C6F616420696D612F
:1051D00067652E2E2E0A0000E8060020B00D002084
:1051E000554152542054696D656F75740A00000072
:1051F000B00E0020446F776E6C6F6164207375632E
:10520000636573732C204C656E677468203D2025A0
:10521000752C20637263203D202523580A0000006E
:10522000435243333220737563636573730A00001E
:1052300053656E64696E6720696D6167652E2E2EF9
:105240000A0000004352433332206661696C656492
:105250000A00000060DA0020C8020020B0D500205B
:1052600052657472790A000053656E642066772077
:10527000737563636573730A0000000053656E64A1
:10528000206677206661696C65640A0038B5184C41
:105290004FF4806017A120601B48FDF773FC1B488A
:1052A00000780028184806D0FAF7DDFF01461648B6
:1052B000FFF7BCFD07E0FAF7D6FF82B2FF231249E1
:1052C0001348FCF799FE012001BA12481022124B34
:1052D0000160216809BA416000218160C160044811
:1052E0000C49001D00901046FFF7CCFB38BD0000B4
:1052F000C8020020496E697469616C697A6520553D
:105300007067726164650A00E806002001000020F1
:10531000180D002060DA0020B0D5002038B500223A
:105320001146FBF7D1F8274C274D2060A0F580707F
:10533000B0F5407F1BD94FF4806020604423234A9E
:1053400023492448FDF71EFC28780028214806D070
:10535000FAF789FF01461F48FFF768FD07E0FAF7F3
:1053600082FF82B2FF231B491B48FCF745FE1BA1AD
:105370001848FDF707FC28780028164806D0FAF7E9
:1053800072FF01461348FFF751FD07E0FAF76BFF84
:1053900082B2FF230F491048FCF72EFE012001BA0C
:1053A00013481022134B0160216809BA41600021A3
:1053B0008160C16003480E49001D00901046FFF750
:1053C00061FB38BDC80200200100002028540008FD
:1053D000CC560008E8060020180D0020496E6974BC
:1053E00069616C697A6520557067726164650A004D
:1053F00060DA0020B0D5002008B507480021084B2E
:105400000163416305480090082203F5966112206C
:10541000FFF738FB08BD000030DA0020CC02002086
:10542000B0D5002009000000757067726164655F87
:10543000696E69745F776974685F73697A65007013
:10544000726F636573735F636F6D6D616E6400008F
:105450000000000000000001020304060708090024
:105460000000000102030400404040404040404032
:105470004041414141414040404040404040404027
:105480004040404040404040050202020202020209
:1054900002020202020202022020202020202020FC
:1054A000202002020202020202909090909090103E
:1054B00010101010101010101010101010101010EC
:1054C0001010100202020202028888888888880868
:1054D000080808080808080808080808080808084C
:1054E00008080802020202406854000864617465FA
:1054F00020676574207C2073657420323032302040
:105500003720323920313520353520353000000044
:105510006C6F67207061636B657473207C206765B6
:1055200074203132332032006C6F67207061636BFE
:10553000657473207C20676574203C7061636B65C3
:1055400074733E203C6E756D6265723E0000000013
:105550005265736574207468652064657669636557
:1055600000000000436F6D6D616E642061626F75B5
:1055700074207570677261646500000075706772F1
:10558000616465005365742F476574206D6F6475A1
:105590006C652074696D6500476574206465766983
:1055A00063652074656D7065726174757265000065
:1055B0006461746500000000436F6D6D616E64206E
:1055C00061626F7574206C6F670000006C6F67001C
:1055D000436F6D6D616E6420666F722064656275E5
:1055E000670000007570677261646520696E697498
:1055F000205B3531325D207C2066696C65207C2023
:10560000696E7374616C6C0075706772616465209B
:10561000696E6974205B626C6F636B5F73697A6536
:105620005D207C2066696C65207C20696E737461E6
:105630006C6C00004765742076657273696F6E004C
:1056400048656C7020696E666F726D6174696F6E0B
:105650000000000068656C70207C203C636D643E37
:105660002068656C7000000068656C70207C207597
:105670007067726164652068656C700068656C7045
:105680000000000074656D700000000064617465C6
:1056900020676574207C207365742079206D2064F8
:1056A0002068206D2073000047657420646576696A
:1056B00063652073746174757300000073746174A2
:1056C00075730000726573657400000025732C25E6
:1056D000643A20426C6F636B2073697A6520657849
:1056E00063656564206C696D69746174696F6E2CA3
:1056F0002064656661756C7420746F2046575F4244
:105700004C4F434B5F4D41585F53495A450A000087
:105710003057000800000020E8060000A80E00082E
:10572000D05B0008E806002088DB0000E42B0008BE
:1057300081137C551408513B1B0864081308561B41
:1057400008E4081A38081ACD141A3408290C290458
:105750001AC40413E5381B085020290C29041A84A4
:105760000413593A1B089814290C29041ABC041371
:10577000B1345B08A80C29041AB0201A05501A8409
:10578000081A8C1013EC541B08CC0C1A99501AB838
:10579000081A28041A10041ADC041385355B08D093
:1057A0000C29041A7C301AF1141A40081A54041AED
:1057B000680413980D1B20A40401FF01FF2122BCE3
:1057C0001220A20410C2963007772C610EEEBA5157
:1057D000099919C46D078FF46A7035A563E9A3951B
:1057E000649E3288DB0EA4B8DC791EE9D5E088D946
:1057F000D2972B4CB609BD7CB17E072DB8E7911D21
:10580000BF906410B71DF220B06A4871B9F3DE4151
:10581000BE847DD4DA1AEBE4DD6D51B5D4F4C785CE
:10582000D38356986C13C0A86B647AF962FDECC9F7
:10583000658A4F5C0114D96C0663633D0FFAF50D60
:10584000088DC8206E3B5E10694CE44160D57271D2
:1058500067A2D1E4033C47D4044BFD850DD26BB560
:105860000AA5FAA8B5356C98B242D6C9BBDB40F997
:10587000BCACE36CD832755CDF45CF0DD6DC593D4E
:10588000D1ABAC30D9263A1061DE518051D7C81661
:1058900061D0BFB5F4B42123C4B3569995BACF0FE4
:1058A000A5BDB89EB802280888055FB2D90CC624E9
:1058B000E90BB1877C6F2F114C6858AB1D61C13D5E
:1058C0002D66B69041DC760671DB01BC20D2982AA9
:1058D00010D5EF8985B1711FB5B606A5E4BF9F331A
:1058E000D4B8E8A2C9077834F910270F8EA8099612
:1058F00018980EE1BB0D6A7F2D3D6D08976C649181
:10590000015C63E6F4516B6B62616C1CD830658599
:105910004E103C62F2ED95066C7BA5011BC1F408AC
:105920008257C40FF5C6D9B06550E9B712EAB8BEC0
:105930008B7C88B9FCDF1DDD62492DDA15F37CD341
:105940008C654CD4FB5861B24DCE51B53A7410B150
:10595000BCA3E230BBD441A5DF4AD795D83D6DC486
:10596000D1A4FBF4D6D36AE96943FCD96E344688E6
:1059700067ADD0B860DA732D0444E51D03335F4C86
:105980000AAAC97C0DDD3C710550AA4102271010FE
:105990000BBE86200CC925B56857B3856F2009D486
:1059A00066B99FE461CE0EF9DE5E98C9D9292298C6
:1059B000D0B0B4A8D7C7173DB359810DB42E3B5C06
:1059C000BDB7AD6CBAC02083B8EDB6B3BF9A0CE2D8
:1059D000B6039AD2B1743947D5EAAF77D29D15266E
:1059E000DB048316DC73120B63E3843B64943E6A2E
:1059F0006D0DA85A6A7A0BCF0EE49DFF099327AE6E
:105A000010E40AB19E077D44930FF0D2A308876883
:105A1000F2011EFEC206695D5762F7CB67658071B1
:105A2000366C19E7066B6E761BD4FEE02BD3895AD1
:105A30007ADA10CC4ADD676FDFB9F9F9EFBE8E4331
:105A4000BEB717D58EB060E8A3D6D67E93D1A1C4D9
:105A5000C2D83852F2DF4FF167BBD16757BCA6DD21
:105A600006B53F4B36B248DA2B0DD84C1B0AAFF6C1
:105A70004A0336607A0441C3EF60DF55DF67A8EF61
:105A80008E6E3179BE69468CB361CB1A8366BCA039
:105A9000D26F2536E2685295770CCC03470BBBB921
:105AA0001602222F260555BE3BBAC5280BBDB29261
:105AB0005AB42B046AB35CA7FFD7C231CFD0B58BE1
:105AC0009ED92C1DAEDE5BB0C2649B26F263EC9CBB
:105AD000A36A750A936D02A906099C3F360EEB85F1
