:020000042000DA
:100000003063012081020020A7430020AF39002087
:10001000A5430020D3090020C152002000000000A9
:10002000000000000000000000000000C1010020EE
:1000300059140020000000001D020020ED4B00209C
:100040009B0200209B0200209B0200209B020020BC
:10005000151500209B0200205B1400209B0200204D
:100060009B0200209B0200209B0200209B0200209C
:100070009B0200209B0200209B0200209B0200208C
:100080009B0200209B0200209B0200209B0200207C
:100090009B0200209B0200209B0200209B0200206C
:1000A0009B0200209B020020C14C00209B020020EC
:1000B0009B0200209B0200209B0200209B0200204C
:1000C0009B0200209B0200209B0200209B0200203C
:1000D0009B0200201D5100209B0200209B0200205B
:1000E000611400209B0200209B0200209B02002044
:1000F0009B0200209B0200209B0200209B0200200C
:100100009B0200209B0200209B0200209B020020FB
:100110009B0200209B0200209B0200209B020020EB
:100120009B0200209B020020A91300209B020020BC
:100130009B0200209B0200209B0200209B020020CB
:100140009B0200209B0200209B0200209B020020BB
:100150009B0200209B0200209B0200209B020020AB
:100160009B0200209B0200209B0200209B0200209B
:100170009B0200209B0200209B0200200000000048
:100180009B0200209B0200209B0200209B0200207B
:100190009B0200209B0200209B0200209B0200206B
:1001A00000000000000000009B020020DFF80CD0DF
:1001B00000F02EFB00480047595B0020306301200F
:1001C0002C4B19680868B0E8F04F80F30988BFF33A
:1001D0006F8F4FF0000080F311887047000000001F
:1001E00008480068006880F308884FF0000080F33A
:1001F000148862B661B6BFF34F8FBFF36F8F00DF15
:1002000000BF00BF08ED00E0DFF80C00016841F41A
:1002100070010160704700BF88ED00E0EFF30980D6
:10022000BFF36F8F134B1A681EF0100F08BF20ED3D
:10023000108A20E9F04F106009B44FF0500080F3AD
:100240001188BFF34F8FBFF36F8F07F033F84FF074
:10025000000080F3118809BC19680868B0E8F04F05
:100260001EF0100F08BFB0EC108A80F30988BFF3AE
:100270006F8F7047DC040120EFF3058070470000AA
:100280000648804706480047FEE7FEE7FEE7FEE730
:10029000FEE7FEE7FEE7FEE7FEE7FEE7A94C0020EB
:1002A000AD0100202DE9F05F0546002092469B46F7
:1002B00088460646814640241BE02846414647467C
:1002C000224600F025FA53465A46C01A914110D3EF
:1002D00011461846224600F00CFA2D1A67EB010869
:1002E0004F4622460120002100F003FA17EB0009D7
:1002F0004E41201EA4F10104DFDC484631462A4667
:100300004346BDE8F09F40EA01039B0703D009E0A4
:1003100008C9121F08C0042AFAD203E011F8013BF1
:1003200000F8013B521EF9D27047D2B201E000F84A
:10033000012B491EFBD270470022F6E710B5134689
:100340000A4604461946FFF7F0FF204610BD421C3E
:1003500010F8011B0029FBD1801A704710B500224C
:1003600000E0521C835C8C5CA34201D1002BF8D1CD
:10037000D8B2E1B2401A10BD034611F8012B00F8C3
:10038000012B002AF9D1184670472DE9FE4F80460F
:1003900081EA0300C00F0C46009021F0004123F0D9
:1003A0000045B8EB0200A94105D2404621469046DF
:1003B0001C460B46024623F00040104347D0270D51
:1003C000C7F30A00C3F30A510290401A0190402873
:1003D0006BDAC3F3130040F4801B0098924620B1FF
:1003E0000023D2EB030A63EB0B0B01985946C0F1D3
:1003F0004002504600F07DF906460D4650465946EB
:10040000019A00F095F910EB08006141002487EA99
:10041000115284EAE7731A4340D0009A62B3019AFA
:10042000012A4FEA075215DC001B61EB02014FF075
:10043000004202EA0752CDE90042001C41F580115A
:1004400032462B4600F095F903B0BDE8F08F4046E8
:100450002146F9E7001B61EB0201001C41F5801306
:1004600000185B412018A2F5001747EB030140EA92
:10047000D570B6196D4111E06D084FEA360645EAB0
:10048000C0754FEA0752001B61EB0201001C41F5E9
:10049000801149084FEA30000019514132462B467D
:1004A00003B0BDE8F04F00F055B9009801224000BC
:1004B0000023D0EB020263EBE073009821464FEA81
:1004C000E074B8EB000061EB0401E9E783F000435E
:1004D0005BE781F0004158E72DE9FE4F81EA030414
:1004E00004F0004421F0004100944FF0000B23F091
:1004F000004350EA01045ED052EA03045BD0C3F328
:100500000A54C1F30A552C44A4F2F3340194A0FB1D
:100510000254C1F3130141F48011C3F3130343F4F4
:10052000801301FB024400FB034E840A970A44EA4D
:10053000815447EA8357A4FB076802958D0A05FB9F
:1005400007854FEA932C04FB0C542705029D4FEAC4
:10055000065847EA1637B5EB08056EEB070C870E11
:10056000920E47EA811742EA8312A7FB0201B6EB1B
:100570000B0164EB00042B0D43EA0C335E1844EBD3
:100580001C50DA465146E7FB0201C5F313044FEA5B
:100590000B3343EA14534FEA0432019C43EA060347
:1005A000A4F10C040294009CCDE900B400F0E1F841
:1005B00003B0BDE8F08F00200146F9E72DE9F04DCA
:1005C00081EA030404F0004B21F0004514464FF08B
:1005D000000A23F0004150EA050220D054EA01024B
:1005E0001DD0C5F30A570246C5F31303C1F3130028
:1005F000C1F30A5640F4801543F48013A7EB0608B4
:10060000101BD64608F2FD3873EB050002D308F143
:10061000010801E092185B41B8F1000F03DA0020F5
:100620000146BDE8F08D00204FF480110646844657
:100630000EE0171B73EB050705D3121B63EB0503D5
:1006400006434CEA010C49084FEA300092185B411E
:1006500050EA0107EDD152EA030012D082EA040009
:1006600083EA0501084305D0101BAB4106D20122E5
:10067000002306E000224FF0004302E06FF0010289
:1006800053101AEB06004CEB085110EB0A0041EB3B
:100690000B01BDE8F04D00F05DB80EB540F23341FE
:1006A00002910021CDE900110A460B4600F061F8E5
:1006B00003B000BD70B5C1F30A5201F0004500243B
:1006C000C1F3130140F2FF3341F480119A4201DA81
:1006D000002070BD40F233439A42A2F2334203DC61
:1006E000524200F015F800E090402C43F1D0404217
:1006F00070BD202A04DB203A00FA02F10020704786
:100700009140C2F1200320FA03F31943904070474F
:10071000202A04DB203A21FA02F00021704721FA56
:1007200002F3D040C2F120029140084319467047BD
:10073000202A06DBCB17203A41FA02F043EAE073A5
:1007400006E041FA02F3D040C2F120029140084392
:100750001946704710B5141E73F1000408DA401CE6
:1007600041F1000192185B411A4301D120F00100D0
:1007700010BD2DE9F04D92469B4611B1B1FA81F2C0
:1007800002E0B0FA80F220329046FFF7B2FF044652
:100790000F4640EA0A0041EA0B0153465A46084315
:1007A00013D0114653EA010019D0C8F14002504657
:1007B000FFF7AEFF05460E46504659464246FFF744
:1007C00098FF084305D0012004E020463946BDE8E3
:1007D000F08D0020054346EAE0762C4337430A9823
:1007E0006305E40AA0EB08000022FD0A44EA47542E
:1007F0000A3002D500200146E9E7010510196941D8
:10080000DDE9084500196941BDE8F04DA2E70000A7
:10081000064C074D06E0E06840F0010394E807004D
:1008200098471034AC42F6D3FFF7C4FCCC850020C7
:10083000EC85002070B58C1810F8015B15F00703EB
:1008400001D110F8013B2A1106D110F8012B03E069
:1008500010F8016B01F8016B5B1EF9D12B0705D471
:100860000023521E0DD401F8013BFAE710F8013BBA
:10087000CB1A921C03E013F8015B01F8015B521ED6
:10088000F9D5A142D8D3002070BD0000464910B56B
:100890004A6822F440324A604A6843681A434A6010
:1008A00001684A6822F480724A6001684A680369F4
:1008B00042EA03224A6001684A6822F040724A60B4
:1008C00001684A6883681A434A6001688A6822F4AA
:1008D00000628A6001688A68C3681A438A60816A14
:1008E0006FF07062D14201688A6822F070628A609B
:1008F00001688A680CD0836A1A438A6001688A6832
:1009000022F040528A6001688A68C36A1A4301E093
:1009100022F040528A6001688A6822F002028A60EE
:1009200001688A68037E42EA43028A6090F82010D8
:10093000002901684A680FD042F400624A600168E9
:100940004A6822F460424A6001684A68174C436A68
:1009500004EB43331A4301E022F400624A60016869
:10096000CA6A22F47002CA620168CA6A838B104C98
:1009700004EB03531A43CA6201688A6822F40072C6
:100980008A6001688A6890F8303042EA43228A60BF
:1009900001688A6822F480628A6001688A68406916
:1009A00042EA8020886010BD0023014000E0FFFF84
:1009B0000000F0FF020E0A70020C4A70020A8A70F0
:1009C000C87070470168C07809BA21F0FF01084378
:1009D0007047FEE730B54FF0FF330022064C07E0CA
:1009E000855C5D40EDB2521C54F8255085EA132316
:1009F0008A42F5D3D84330BD0000012004480022CC
:100A00006021C260C0E90012042181601046704775
:100A1000100E01202DE9F05F424D434801F01EF811
:100A20003221414800F0C8FF00264FF47A794FF098
:100A3000FF3AA5F10C0450274FF00408B8B14FF469
:100A400099733A4A3AA1454804F03CFC4348FFF701
:100A50007EFC82B2FF234149414802F04AFF4846EA
:100A600005F0BCFF2860304801F06EF849E02E48E0
:100A700000F060FF83462C4801F066F85846FFF707
:100A80000CFE9FED381B53EC112BFFF725FD9FED5E
:100A9000371B53EC112BFFF71FFD9FED361B53EC5B
:100AA000112BFFF713FD9FED351B53EC112BFFF7B7
:100AB00085FD9FED341B53EC112BFFF766FC9FED7A
:100AC000331B53EC112BFFF707FDFFF7F3FD00B2CB
:100AD00000F12D01B1F5A26F1AD34FF49F73134AA1
:100AE0002CA11E4804F0EEFB1C48FFF730FC82B23C
:100AF000FF231A491A4802F0FCFE484605F06EFF33
:100B00002860C4F80880C4E900765046BDE8F09F2C
:100B100005F064FF2860C4F80880C4E9007600206E
:100B2000F4E700001C0E012014130120B382002002
:100B300025732C25643A20506F6C6C20666F7220F0
:100B400074656D70657261747572652073656E731E
:100B50006F72206661696C65640A000054050120AB
:100B600058150120000000000000303F66666666F0
:100B700066660A4052B81E85EB51E83F7B14AE47CB
:100B8000E17A643F000000000000394000000000EE
:100B90000000244025732C25643A20726573206977
:100BA0006E76616C69640A0070B5134D114C204675
:100BB0002968FFF7E1FB0A3420466968FFF7DCFB90
:100BC0000A342046A968FFF7D7FB25342046E96898
:100BD000FFF7D2FB04F114002969FFF7CDFBA4F164
:100BE000590030210160002141607821816000209E
:100BF00070BD0000300E01200004012038B51848F7
:100C0000D0F8090005F0EAFE04461648002100BFAE
:100C100050F83120A24207D100EBC100406830B14A
:100C200001B0BDE830400047491C1029F0D33C23F7
:100C30000D4A0EA11548009404F044FB1348FFF739
:100C400086FB82B2FF231149114802F052FE11487F
:100C500042F28371C0E9004100218160084638BD3D
:100C600054090120140401206482002025732C25DE
:100C7000643A20556E6B6E6F7720636F6D6D616E99
:100C800064206964203D202523580A005405012072
:100C900058150120100E012000231A464021184645
:100CA00004F042FABFF34F8F05480168054A01F48A
:100CB000E06111430160BFF34F8F00BFFDE700000B
:100CC0000CED00E00400FA052DE9FC5F9B4C04F5F7
:100CD000996854F8110F05F081FE0746606805F029
:100CE0007DFE05460026384605F078FEC8F800006F
:100CF00008F2B44008340178A0F598694FF0110A61
:100D000042F283784FF0080B012906D081238C4AE8
:100D10008CA1944804F0D6FA1FE09348C069A84219
:100D200004D28723864A91A1009526E0012F1ED088
:100D30008D4801694A1CBA4202D1027B032A7BD04A
:100D4000B94202D1027B022AF9D0CDE90071BA235F
:100D50007B4A91A1834804F0B5FA8248FFF7F7FA7D
:100D600082B2FF237F49964802F0C3FD2EE0A842DD
:100D700013D0734A8E2393A100957A4804F0A2FA07
:100D80007848FFF7E4FA82B2FF2376498C4802F0F4
:100D9000B0FD494642F2A570B6E096A12046FFF7A5
:100DA000DDFAB0B19323664A96496E4804F08AFA98
:100DB0006C48FFF7CCFA82B2FF236A49804802F000
:100DC00098FD2022214690A003F018FE4946404697
:100DD0009AE0DFF8948100216248C8F81070C8F8E2
:100DE0002010D4F8C01094F8C32009BA21F0FF01F4
:100DF0001143C8F81810D4F8C42094F8C73012BAB8
:100E000022F0FF021A43C8F81420CDE90012A323F0
:100E10004B4A80A104F056FA5248FFF798FA82B282
:100E2000FF235049664802F064FD8248807800281C
:100E300033D1A623424A00E034E07FA1494804F0C0
:100E400041FA4848FFF783FA82B2FF2345495C48DC
:100E500002F04FFD7F48017819B1A923384A7EA1DD
:100E60000FE00121017088F80110814AD8F80410C0
:100E7000914203D0D8F8080000F04EFB304AB0236E
:100E80007CA1384804F01EFA3648FFF760FA82B2B7
:100E9000FF2334494A4802F02CFD04F58074A5F57F
:100EA000807500E007616B4F387838B13046761CAA
:100EB000062803D2642004F071FEF5E74FF0020823
:100EC00042F27D77062E03D3C3231D4A6FA10AE0A9
:100ED00058488178F1B10021817004F0CAF9C8B195
:100EE000174ACC2371A11F4804F0ECF91D48FFF705
:100EF0002EFA82B2FF231B49314802F0FAFC1A484D
:100F0000494680F80C803846C1E900A0C9F808B00D
:100F1000BDE8FC9F144EAA08316A70680844214657
:100F200000F01EFB306A2844306203203073002139
:100F3000C9E900A10846C9F808B0E9E75409012049
:100F40008E82002025732C25643A2043616E6E6FDB
:100F5000742065786375746520636F6D6D616E6470
:100F60000A00000054050120D012012025732C2511
:100F7000643A204657207265636569766564206926
:100F80006E76616C69642064617461206C656E6763
:100F900074682025750A000025732C25643A2053B7
:100FA000657120696E76616C6964203A2025750947
:100FB0007072655F736571203A2025750A00000024
:100FC0005815012025732C25643A20465720726558
:100FD00063656976656420696E76616C6964206416
:100FE000617461206C656E677468203A2025750A0B
:100FF000000000004F4E45542D4F53573178363482
:1010000000000000A48400206D6F64756C65206E84
:10101000616D650025732C25643A2046772073693D
:101020007A65203D2025752C20637263203D2025A4
:1010300023580A00F412012025732C25643A2066F7
:101040006C617368206973206E6F7420656D7074B5
:10105000790A00009504012025732C25643A204666
:101060006C61736820696E207573696E670A000091
:101070000000080825732C25643A206572617365A9
:1010800020736563746F722E2E2E0A0025732C2533
:10109000643A2057616974696E6720666C61736891
:1010A0002074696D656F75740A00000025732C2526
:1010B000643A20557064617465207570677261646C
:1010C000652073746174757320746F206565707228
:1010D0006F6D206661696C65640A0000F8B5174899
:1010E000D0F8150005F07AFCA0F58071144C10259D
:1010F0000426B1F5407F15D900906523114A12A14D
:101100001C4804F0DFF81B48FFF721F982B2FF23E7
:101110001849194802F0EDFB42F27D70A660C4E95F
:101120000050F8BD154901220A70C86100200873FB
:1011300008610862A660C4E90050F8BD54090120A6
:10114000100E01207D82002025732C25643A204654
:101150005720726563656976656420696E76616C97
:10116000696420626C6F636B2073697A65202575F2
:101170000A0000005405012058150120D01201205A
:101180002DE9F0414B4812250426017888B0A0F5DE
:101190009864012911D0E023474A48A1534804F03C
:1011A00091F85248FFF7D3F882B2FF234F495048D5
:1011B00002F09FFB42F2837070E0026A81696FF077
:1011C00009078A4205D0CDE90021E6233A4A494978
:1011D00020E00269032A10D2EC23374A46A1434893
:1011E00004F070F84148FFF7B2F882B2FF233F499C
:1011F0003F4802F07EFB384650E080464068FFF7EB
:10120000E9FBD8F81410814208D02B4ACDE900013F
:10121000F4233FA1354804F055F8E3E7464800279A
:10122000DFF818C18770D8F80430634501D1012375
:1012300000E002234370D8F81820C0E90121D0E96A
:10124000038C0DF1100E03928EE8021100781A4AF9
:101250008DE88900FD233AA1244804F033F823489F
:10126000FFF775F882B2FF232049214802F041FBC5
:10127000314803F0FEFFB8B14FF480730E4A3EA12F
:101280001A4804F01FF81948FFF761F882B2FF23EB
:101290001649174802F02DFB6FF00800A660C4E95C
:1012A000005008B0BDE8F081A660C4E900570020F6
:1012B000F7E70000D01201209F82002025732C2523
:1012C000643A2043616E6E6F74206578637574654F
:1012D00020636D642062656163757365206F6620AD
:1012E00077726F6E67206D6F64650A005405012088
:1012F000581501206084002025732C25643A204E67
:101300006F2076616C696420646174612E0A00004C
:1013100025732C25643A2043524320766572696612
:10132000696564206661696C65642E2025235820F8
:10133000213D202523580A00F41201200000040852
:1013400025732C25643A20757067726164655F733C
:1013500074617475733A202523582C2025752C2030
:1013600025752C2025752C202523582C2025752CFF
:10137000202523580A00000025732C25643A2055A7
:101380007064617465207570677261646520737440
:101390006174757320746F20656570726F6D20665F
:1013A00061696C65640A0000014800F045BC0000FA
:1013B0009815012001681823CAB2103AB2FBF3F263
:1013C000054B6FF30901032A9B5CC36500D9091D16
:1013D00081650846704700003F84002010B5014633
:1013E00000208B698A6A4FF0C07453B1B3F5005F77
:1013F00015D072B1012A0CD0022A0AD0032A09D1D1
:1014000004E01AB1012A06D0022A03D1C96AC9012F
:1014100000D5012010BDC96AA142FAD010BD002A32
:10142000F7D0012AF2D0022AF3D0032AF3D010BD5C
:1014300030B50468256825F480252560046863605C
:101440008368402B036803D099600068C26030BD98
:101450009A600068C16030BD7047012000F0C0BED6
:101460004FF4005000F0BCBE70470000002229B1CC
:1014700001291DD002291ED04FF440720B2800D93B
:10148000001D0E490B6823F440730B600B68134377
:101490000B600A6822F0F8020A600A68022303EB74
:1014A000C00002430A60086840F48030086070475A
:1014B0004FF48072E2E74FF40072DFE7103C024025
:1014C0001348016889050FD5016821F40071016096
:1014D000016841F400610160016821F4006101606C
:1014E000016841F400710160016849050FD5016888
:1014F00021F480610160016841F48051016001685C
:1015000021F480510160016841F4806101607047FD
:10151000003C024000F09CBD10B586B00446132884
:101520000ED200F045FE0120CDE901040390002019
:10153000009002200490684600F002FD002800D0D0
:10154000012006B010BD000010B500F031FE0349C7
:1015500091200860BDE8104000F0E0BD0C3C024066
:101560002DE9F0470026174689460546344600F027
:101570001FFEDFF83C8012E059F8242000232946A2
:10158000022000F0D7FD08B103260CE059F8240032
:101590002968814201D0022605E0641C2D1DBC4251
:1015A00001D24545E8D900F0B9FD3046BDE8F087E5
:1015B000F8FF0F080E4A136823F4407313600329E1
:1015C0000DD0012911680FD041F40041116011685C
:1015D0004FF4803343EA00200143116070471168E3
:1015E00048F204031943F1E741F00401EEE700007B
:1015F000103C0240064A136823F4407313601368DA
:101600001360136843F0010313600170704700001A
:10161000103C0240094910B50C6824F440740C6079
:101620000C6844F440740C600C6844F001040C60D5
:101630000260BFF36F8F436010BD0000103C02409A
:10164000074A136823F440731360136843F48073EC
:101650001360136843F001031360018070470000BA
:10166000103C0240074A136823F440731360136868
:1016700043F400731360136843F0010313600160C7
:1016800070470000103C02401C490868C2061C4814
:1016900005D5C26942F01002C26110220A600A68D0
:1016A000920605D5C26942F00802C26120220A6092
:1016B0000A68520605D5C26942F00402C26140229E
:1016C0000A600A68120605D5C26942F00202C261C8
:1016D00080220A600A68D20506D5C26942F001027A
:1016E000C2614FF480720A600A68920705D5C26928
:1016F00042F02002C2610220086070470C3C0240A8
:101700003816012070B5114904460020C86100F068
:1017100063FE06460E4D09E0601C07D024B100F0C0
:101720005BFE801BA04201D9032070BD2868C00366
:10173000F2D42868C00701D001202860286810F47E
:10174000F970F2D0FFF7A0FF012070BD381601201C
:101750000C3C02407CB5044608236A461321AE20A7
:1017600003F0E8F9050008D16846FFF72BF960603F
:1017700001A8FFF727F9206028467CBD70B586B028
:10178000044613236A460021AE2003F0D3F9050076
:101790001CD19DF8000020709DF8010060709DF83C
:1017A0000200A0706E46F01CFFF70CF96060F01D9F
:1017B000FFF708F9A0600DF10B00FFF703F9E060F7
:1017C0000DF10F00FFF7FEF82061284606B070BD4E
:1017D00078B50024009490F83C20012A19D0012209
:1017E00080F83C200A6807230568092A13D9EE68A7
:1017F0000A3A02EB420293409E43EE600B788A68FD
:101800000A3B03EB43039A400368DD682A43DA602E
:1018100010E0022078BD2E6902EB420293409E4305
:101820002E610B788A6803EB43039A4003681D69B5
:101830002A431A614A681F23072A13D205686E6B70
:10184000521E02EB820293409E436E630A8893B25B
:101850000A79521E02EB820293400268556B2B43B9
:10186000536327E005680D2A12D22E6BD21F02EBBC
:10187000820293409E432E630B790A88DB1F92B24B
:1018800003EB83039A4003681D6B2A431A6311E03C
:10189000EE6A0D3A02EB820293409E43EE620B79B0
:1018A0000A880D3B92B203EB83039A400368DD6A1A
:1018B0002A43DA621B4B0568194A9D420AD10D681A
:1018C000122D07D1556825F400055560556845F47B
:1018D0008005556005689D421DD1134D0B68AB42D4
:1018E00001D0112B17D1536823F480035360536840
:1018F00043F4000353600968A9420CD10B490C4A18
:101900000968B1FBF2F101EB8101490000E0491ED9
:1019100000910029FBD180F83C40002078BD0000F8
:10192000002301400020014012000010D8040120D3
:1019300040420F000068C06C704770B504004FF063
:10194000000503D0206C002610B107E0012070BD17
:10195000204600F01DF8666484F83C60206CC006E8
:1019600010D4206C20F4885040F0020020642046FF
:10197000FEF78CFF6664206C20F0020040F001004E
:10198000206400E0012584F83C60284670BD00001A
:1019900008B500680649884208D10648016841F444
:1019A00080710160006800F48070009008BD000044
:1019B00000200140443802402DE9F041044600680F
:1019C0000D4681684FF0000749050BD58068C005BA
:1019D00008D5206C40F02000206484F83C70012081
:1019E000BDE8F08100F0F8FC06460FE0681C0DD061
:1019F00025B100F0F1FC801BA84207D9206C40F013
:101A00000400206484F83C700320E9E72068006843
:101A10008007EBD521686FF012000860206C40F45D
:101A2000007020642068816811F0405F13D1217E2E
:101A300089B9C16A11F4700F02D0806840050AD4D8
:101A4000206C20F480702064206CC00403D4206CCF
:101A500040F0010020640020C2E7000018B500211A
:101A6000009190F83C20012A07D0012280F83C2008
:101A700002689368DB0702D011E0022018BD93686A
:101A800043F0010393602A4A2A4B1268B2FBF3F237
:101A900002EB420200E0521E0092002AFBD10268D3
:101AA0009368DB0741D0036C40F20164A34343F425
:101AB0008073036453685B0505D5036C23F40053FE
:101AC00043F480530364036CDB0404D5436C23F0BC
:101AD0000603436400E0416480F83C1016496FF04F
:101AE0002203136049680068CA06144906D0884278
:101AF0001BD1816811F0405F13D016E08842F8D006
:101B00000F4A904203D1D1F80423D206F1D00D4AF6
:101B100090420AD1D1F8041301F01F011029E8D333
:101B200003E0816841F080418160002018BD000021
:101B3000D804012040420F00002301400020014052
:101B4000002101400022014090F83C1001290CD0F6
:101B5000012180F83C1001688A6822F001028A6045
:101B600001688968C90702D007E002207047016C4C
:101B700021F4885141F001010164002180F83C10FA
:101B8000084670472DE9F0410446876D00F024FCBB
:101B9000064694F835000025022806D080206065AE
:101BA00084F834500120BDE8F0812068016821F0FC
:101BB000160101602068416921F080014161206CBB
:101BC00008B9A06C20B12068016821F0080101600B
:101BD0002068016821F0010101600BE000F0FCFBCE
:101BE000801B052806D92020606504F8345F032097
:101BF0006070D8E720680068C007EFD194F85C10E7
:101C00003F208840B86004F8345F012060700020F5
:101C1000C9E790F83510022903D0802141650120E1
:101C20007047052180F835100068016821F0010136
:101C300001600020704700002DE9F84304464FF092
:101C40000009CDF8009063484FF41651A56D006867
:101C5000B0FBF1F72E6894F85C10082000FA01F14F
:101C600031420FD021680A6852070BD50A6822F06A
:101C700004020A6094F85C108840A860606D40F02F
:101C80000100606594F85C104FF0010808FA01F05B
:101C9000304208D021684969090604D5A860606D02
:101CA00040F00200606594F85C10042088403042E7
:101CB00008D021680968890704D5A860606D40F0E4
:101CC0000400606594F85C1010208840304218D001
:101CD00021680968090714D5A860206801684903CC
:101CE00004D50068000308D5A16C07E00168C905A8
:101CF00003D4016821F008010160216C09B120467C
:101D0000884794F85C1020208840304231D0216808
:101D10000968C9062DD5A86094F835000528206803
:101D2000016806D0490347D5006800031DD4616CE3
:101D30001CE021F0160101602068416921F080015A
:101D40004161206C08B9A06C20B12068016821F0C5
:101D50000801016094F85C103F208840A86084F876
:101D6000349084F83580216D1FE0E16B09B1204685
:101D70008847606D00282BD0606DC00714D0052007
:101D800084F835002068016821F0010101600098A5
:101D9000401C0090B84203D820680068C007F6D104
:101DA00084F8349084F83580E16C002910D001B0BB
:101DB0002046BDE8F04308470168C905D5D401684D
:101DC00021F01001016084F8349084F83580CCE76C
:101DD000BDE8F883D80401202DE9F041044600F065
:101DE000FBFA06465CB1002584F83450022084F8E2
:101DF00035002068016821F0010101600DE001203B
:101E0000BDE8F08100F0E8FA801B052805D9202004
:101E10006065032084F83500F2E720680068C00799
:101E2000F0D12268116820480140D4E90103184329
:101E3000D4E903363343184363691843A36918434D
:101E4000E3691843236A18430843616A042903D1EC
:101E5000D4E90B1319430843106020684069666A8F
:101E600020F0070130460E43012704280CD1A06A58
:101E70000643E06A40B12046FFF7B0FA20B14020A7
:101E8000606584F83570BAE7206846612046FFF740
:101E900091FA94F85C203F2191408160656584F857
:101EA00035700020ACE700003F8010F02DE9F041D4
:101EB0000446866D90F83400002501280DD00120DD
:101EC00084F8340094F835700020012F07D084F88E
:101ED000340002252846BDE8F0810220FBE70227F6
:101EE00084F8357060652046FFF7A2FA94F85C101C
:101EF0003F208840B0602068016841F01601016011
:101F0000206C20B12068016841F008010160206860
:101F1000016841F001010160DCE7000070B5044692
:101F200000F05AFA0546601C02D0044800780444C8
:101F300000F052FA401BA042FAD370BDCC0401203D
:101F400070B5174900240A7E012A1ED0154A0123C4
:101F50000B76156845F080751560156845F00075BD
:101F60001560104DF3222D1F2A600268012A0ED041
:101F70000B70C2684A608268CA60027C0A72017C87
:101F80008068FFF773FA204670BD022070BD022200
:101F90000A7042680A614168007CFFF70BFBF2E7B8
:101FA00038160120103C02400EB5401C24D14FF4DD
:101FB0009773144A14A11F4803F084F91D48FEF7D3
:101FC000C6F982B2FF231B491B4801F092FC00F0C6
:101FD000A5F81A490020487019494A786AB1194B86
:101FE00001229A70487018488DF8002000231A4684
:101FF0006946006803F0B6FE0EBD1448006804F0A0
:1020000027F80EBDFD82002025732C25643A20455B
:102010007261736520666C617368206F70657261B0
:1020200074696F6E20636F6D706C6574656C790A8E
:1020300000000000540501205815012094040120DF
:10204000D0120120F4120120AC040120A4040120CC
:102050002DE9F0412F4F38682F4C10F4F97F4FF0E5
:10206000FF384FF000050DD0207801282ED02078C1
:1020700002282FD0D4F81460FFF706FB304600F09A
:1020800057F825703868C0070BD0012038602078D9
:10209000012821D02078022838D06069FFF784FF1A
:1020A0002570207800280FD11A48001D016848F2D9
:1020B000FF0291430160016821F0807101600168B5
:1020C00021F0007101602576BDE8F081E668C4F872
:1020D0000C80D1E72669CFE76068401E60606068C9
:1020E00050B1E068FFF760FFE068401CE060E06826
:1020F000217AFFF7BBF9D4E74646C4F80C80257077
:10210000FFF7DEF93046FFF74FFFCAE7FFF7D8F9D0
:102110002069C3E70C3C02403816012003480168DF
:1021200041F000410160002070470000103C024077
:10213000704700002DE9F0471B4E05461446307EDF
:102140001F468946012808D0012030764CF25038CD
:102150004046FFF7D7FA18B114E00220BDE8F08737
:102160009DB1012D16D0022D19D022463B4648467E
:10217000FFF750FA4046FFF7C5FA0C490A6822F00B
:1021800001020A6000213176E8E7E1B24846FFF734
:1021900031FAEFE7A1B24846FFF752FAEAE72146E3
:1021A0004846FFF75FFAE5E738160120103C024089
:1021B000074900200A68002A09DA054A054B0C3A4B
:1021C0001360054B13600968002900DA012070478D
:1021D000103C024023016745AB89EFCD70470000FA
:1021E000044910B50A68024202D00860FFF7F6FF02
:1021F00010BD0000143C01402DE9F84F00224FF0C3
:10220000010803254FF00F0E0B6808FA02F4234073
:10221000A3426ED14E68012E05D0022E03D0112E9E
:1022200001D0122E12D186684FEA420C05FA0CF743
:10223000BE43CF6807FA0CF7374387604668A6436A
:102240000C79C4F30014944034434460C6685700CA
:1022500005FA07FC8C6826EA0C06BC403443C460CF
:102260004C68022C01D0122C13D1D40800EB84044A
:10227000A346D4F8209054074FEAD46A0EFA0AF61F
:1022800029EA06090E6906FA0AF646EA0906CBF8B3
:10229000206004680E7924EA0C0406F00306BE40B0
:1022A000264306604C68E4006FD53B4C266846F434
:1022B00080462660246822F0030604F480440094DB
:1022C000364C3444A446D4F808489607360F0EFA24
:1022D00006F7BC43324FB84201D100272EE0314F00
:1022E000B84201D1012729E02F4FB84202D102277D
:1022F00024E04AE02D4FB84201D103271EE02C4FC5
:10230000B84201D1042719E02A4FB84201D105276C
:1023100014E0294FB84201D106270FE0274FB842F9
:1023200001D107270AE0264FB84201D1082705E06E
:10233000244FB84201D1092700E00A27B7402743BC
:10234000CCF80878204E34684F689C43FF0300D5D2
:102350001C4334601C4E361D34684F689C43BF03D9
:1023600000D51C433460184E083634684F689C43CF
:10237000FF0200D51C433460134E0C3634684F689E
:102380009C43BF0200D51C433460521C102AFFF44A
:102390003BAFBDE8F88F00004438024000300140F8
:1023A000000002400004024000080240000C02400D
:1023B000001002400014024000180240001C0240BD
:1023C0000020024000240240003C01400AB181612B
:1023D00070470904FBE7000001488068704700006F
:1023E000CC04012090F83D20202A01D00220704723
:1023F000242280F83D200268136823F00103136053
:102400000268536A23F0100353620268536A0B4355
:10241000536201680A6842F001020A60202180F8D4
:102420003D100020704790F83D20202A01D0022066
:102430007047242280F83D200268136823F00103CE
:10244000136003685A6A22F00F020A4391B259627C
:1024500001680A6842F001020A60202180F83D10FC
:102460000020704770B5040025D094F83D00002589
:1024700020B984F83C50204600F04CFA242084F81F
:102480003D002068016821F00101016020680168B9
:1024900041F4004101602068016821F400410160BD
:1024A00000F09EFC4D4A6168914201D84C4900E021
:1024B0004C49884201D2012070BD4B492368B0FBD2
:1024C000F1F15E6826F03F060E435E60636893425A
:1024D00006D94FF4967359434FF47A73B1FBF3F175
:1024E0002368491C1E6A26F03F0631431962616861
:1024F000914210D84900401EB0FBF1F2521CC2F3C9
:102500000B02042A01D2042022E0B0FBF1F0401CAF
:10251000C0F30B001CE0A268F2B301EBC10303EBB4
:102520000116431EB3FBF6F35B1C43F480431B050B
:1025300049D092B301EBC10202EB0111401EB0FB86
:10254000F1F0401CC0F30B0040F4804040F4004028
:102550002168CA694CF6FF739A431043C861D4E9F5
:10256000071001432068026822F0C0021143016095
:10257000D4E9030101432068826848F2FF339A439B
:1025800011438160D4E9050108432168CA6822F03B
:10259000FF021043C86001E00EE016E02068016809
:1025A00041F0010101602564202084F83D0025638D
:1025B00084F83E50002070BD01EB4106431EB3FB82
:1025C000F6F35B1CB3E70120C2E701EB4101401EBB
:1025D000B0FBF1F0401CC0F30B00B7E7A086010090
:1025E00080841E0000093D0040420F002DE9FF4F8E
:1025F00083B09A46DDE9119793460446DDF84080A2
:10260000FFF7EAFE054694F83D00202870D1192313
:10261000012271492046009501F0DAFA0028F5D12F
:1026200094F83C00012863D0012084F83C00206825
:102630000168C90703D1016841F001010160206808
:10264000016821F400610160222084F83D004020EF
:1026500084F83E0000262664C4F82480A4F82A905A
:10266000608D20855D48E062CDE9007553465A468D
:102670002046049901F0B4F900287CD1208DD0B116
:10268000012821D00228206824D041698069009067
:10269000208D032869D801282BD0514902283B46B8
:1026A0004FF00002009559D08846204601F090FA7C
:1026B000002860D13CE0206841698169009101688F
:1026C00041F40071016077E02068016821F48061C5
:1026D0000160F0E7016821F4806101602068016811
:1026E00041F400610160206841698069009063E005
:1026F0006FE02A463946204601F0E9FA98BB206887
:102700000069616A08704EE02068016841F4007158
:10271000016020680069616A0870606A401C60623C
:10272000218D491E2185618D491E6185216838E012
:102730002068016821F48061016020680069616A95
:102740000870606A401C6062208D401E2085608D8C
:10275000401E60853B46002241460095204601F020
:1027600037FA00B9D0E706E0FFE72A4639462046A7
:1027700001F0ADFA18B1012007B0BDE8F08F206874
:102780000069616A0870606A401C6062218D491EA0
:102790002185618D491E618521684A69D2435207AE
:1027A0000AD409690170606A401C6062208D401E75
:1027B0002085608D401E6085208D00287FF468AFE5
:1027C000202084F83D0084F83E6084F83C600020BE
:1027D000D2E70220D0E70000020010000000FFFF57
:1027E000040001002DE9FF4F83B09A46DDE91197FF
:1027F00093460446DDF84080FFF7EEFD054694F869
:102800003D0020287FD11923012240492046009510
:1028100001F0DEF9002876D194F83C00012872D04E
:10282000012084F83C0020680168C90703D10168D1
:1028300041F0010101602068016821F4006101603C
:10284000212084F83D00402084F83E0000262664C4
:10285000C4F82480A4F82A90608D20852C48E0627A
:10286000CDE9007553465A462046049901F036F9E1
:1028700070B930E02A463946204601F05BFA58B17B
:10288000206C042804D12068016841F400710160C3
:10289000012007B0BDE8F08F606A21680078086108
:1028A000606A401C6062218D491E89B22185628D5B
:1028B000521E628522685369DB435B070BD469B102
:1028C00000781061606A401C6062208D401E208587
:1028D000608D401E6085208D0028CBD12A46394668
:1028E000204601F04FF90028CAD154F83D0B016889
:1028F00041F400710160202004F81E09E677667734
:102900000020C6E7FFE70220C3E700000200100036
:102910000000FFFF2DE9F04F87B004461421684600
:10292000FDF70AFD374D2268DFF8DC80364C0426BF
:102930000023012103204FF0120B08F11008AA42D6
:102940003DD18A4681464022304FCDE9002ACDE96B
:10295000023969463846FFF74FFC00250122402125
:102960003846FFF733FD0120FFF7D8FA0022402157
:102970003846FFF72BFD0120FFF7D0FA6D1C0A2D1A
:10298000ECDB206840F0020020602068CDF808A051
:1029900000F002000590C020CDE9000BCDE90396C0
:1029A00069463846FFF728FCD8F8001041F40011BA
:1029B000C8F80010D8F8000000F400101DE0144B17
:1029C0009A421BD1226842F0200222602268CDE99F
:1029D000000BCDE9021002F02002CDE90462694645
:1029E0000C48FFF709FCD8F8001041F48001C8F842
:1029F0000010D8F8000000F48000059007B0BDE892
:102A0000F08F0000005400403038024000040240C3
:102A1000005800400014024070B5040011D0216835
:102A20004CF6CC400860216845F255500860D4E966
:102A3000000141602168A0688860FFF7CDFC054671
:102A400009E0012070BD00BFFFF7C6FC401B302825
:102A500001D9032070BD2068C0680028F4D1216826
:102A60004AF6AA200860002070BD00684AF6AA2134
:102A7000016000207047000002488168027811441C
:102A800081607047CC0401200B4810B5016841F407
:102A900000710160016841F480610160016841F4E6
:102AA00080710160032000F097F8002000F006F824
:102AB00000F03EF8002010BD003C024010B5014679
:102AC00088B000221A2000F067F81A2000F056F8AB
:102AD00013480024016841F480210160006805A9C1
:102AE00000F480200690684600F05AF900F088F95A
:102AF0000C494000B0FBF1F10C480B4A491E026042
:102B000040F2E732C0E90324C0E9011400F018FCE8
:102B100010B1012008B010BD044800F02DFCF9E709
:102B20004438024040420F0000480140F81501209F
:102B3000114808B5016841F480410160006800F463
:102B4000804000900C48001F016841F080510160F6
:102B50000068002200F0805000900F21901E00F0CD
:102B60001BF800220521042000F016F8BDE80840FB
:102B7000042000F003B8000044380240002809DBBC
:102B800000F01F02012191404009800000F1E02087
:102B9000C0F8001170470000F0B40E4B1B680C46E3
:102BA000C3F30223C3F10705042D00D90425191D21
:102BB000072901D2002300E0DB1E012606FA05F1F9
:102BC000491E214099409E40761E16403143F0BC7C
:102BD00002F08CBB0CED00E0064900F0070208682B
:102BE0004FF6FF03184040EA0220034A10430860F2
:102BF000704700000CED00E00000FA052DE9F843F5
:102C00001748016841F0805101600068154F00F0DD
:102C10008050012600903E64FFF7DEFB05464FF42E
:102C20007A78114C05E000BFFFF7D6FB401B40450A
:102C30000DD86068C003F7D57E64FFF7CDFB05466D
:102C4000464607E0FFF7C8FB401BB04202D903200D
:102C5000BDE8F88360688003F4D50020F8E7000041
:102C60004038024000000E42007000402DE9F0475D
:102C70000E46050065D0DFF81481D8F80000F7B2E1
:102C800000F00F00B04207D288F80070D8F80000BA
:102C900000F00F00B04254D128683D4C810712D596
:102CA000400703D5206840F4E050206028780007F2
:102CB00003D5206840F4604020602068A96820F0B7
:102CC000F000084320602878C0072DD0304968689C
:102CD0000839012812D0022813D0032811D009681E
:102CE000890700292DDA216821F0030101432160C1
:102CF000FFF772FB814641F2883A0EE009688903CA
:102D0000EFE709688901ECE7FFF766FBA0EB090133
:102D1000514502D90320BDE8F0872068696800F0BA
:102D20000C00B0EB810FEFD1D8F80010404601F055
:102D30000F01B14207D90770006800F00F00B042E0
:102D400001D00120E7E72878400705D52068E96829
:102D500020F4E050084320602878000706D520685A
:102D6000296920F4604040EAC100206000F058F872
:102D70002168084AC1F30311515CC8400649086044
:102D800006480068FFF79AFE0020C4E7003C0240B6
:102D90000838024047840020D8040120D0040120D4
:102DA0000F2202600C4A136803F0030343601368A8
:102DB00003F0F0038360136803F4E053C360126808
:102DC0004FF4E05303EAD20202610448006800F0C5
:102DD0000F0008607047000008380240003C0240C5
:102DE0000448054900680968044AC1F38221515C1E
:102DF000C8407047D804012008380240578400209A
:102E00000448054900680968044AC1F34231515C2D
:102E1000C8407047D8040120083802405784002079
:102E2000154810B5006810F00C02144813D041107A
:102E3000042A0FD0082A0ED10F4C241F22682368C1
:102E400002F03F025B0207D52068C0F38810A0FBA8
:102E5000010106E0084610BD2168C1F38811A1FBFD
:102E600000010023FDF71EFA2168C1F30141491C4E
:102E70004900B0FBF1F010BD083802400024F40016
:102E80002DE9F84F040076D02078DFF838A3CE4D36
:102E9000C00749D0DAF800105046C1F3810101297A
:102EA00008D00068C0F3810002280AD1281D0068FC
:102EB000400206D52868800336D560680028E2D035
:102EC00032E06068B0F5803F10D0B0F5A02F2868E0
:102ED00010D020F480302860286820F480202860FA
:102EE0006068A0B1FFF778FA06460CE0286840F465
:102EF0008030F4E740F480202860F7E7FFF76CFAB1
:102F0000801B642873D828688003F7D50CE0FFF78E
:102F100063FA064605E000BFFFF75EFA801B6428EF
:102F2000F0D828688003F7D42078DFF8A0828007E3
:102F30004FF000093ED5DAF80010504611F00C0FA2
:102F400009D00068C0F3810002280BD19D48001F02
:102F50000068400206D42868800715D5E06801287B
:102F600009D111E0E068B8B10120C8F80000FFF70E
:102F700033FA064605E020E1FFF72EFA801B02280F
:102F8000C0D828688007F7D52868216920F0F800A4
:102F900040EAC10028600DE0C8F80090FFF71CFA75
:102FA000064604E0FFF718FA801B02281FD828689D
:102FB0008007F7D42078000722D5824E84486169C3
:102FC0006C3671B101210160FFF706FA074604E093
:102FD000FFF702FAC01B022809D830688007F7D52E
:102FE0000EE0C0F80090FFF7F7F9074605E082E031
:102FF000FFF7F2F9C01B02287DD830688007F7D4AC
:103000002078400768D5DFF8BCB100270BF1380BFA
:10301000DBF80000C0000BD4DBF8001041F0805159
:10302000CBF80010DBF80000012700F08050009082
:10303000684E3068C00510D4306840F4807030604D
:10304000FFF7CAF9009005E0FFF7C6F90099401AAA
:10305000022850D83068C005F6D55A4EA0686836A8
:1030600001280FD00528306810D020F00100306012
:10307000306820F004003060A068B8B1FFF7ACF908
:1030800000900FE0306840F00100F4E740F00400E9
:103090003060F7E7FFF7A0F90099411A41F2883054
:1030A000814266D830688007F4D50EE0FFF794F9C6
:1030B000009007E0FFF790F90099411A41F288303B
:1030C000814256D830688007F4D42FB1DBF8001065
:1030D00021F08051CBF80010A069D0B3DAF80020BD
:1030E0005146C2F38102022A4AD00228484607D03C
:1030F000C8F8600000E03CE0FFF76EF904463BE0F2
:103100004746C8F86000FFF767F9064605E000BFCC
:10311000FFF762F9801B02282BD828688001F7D4BA
:10312000D4E907010843A16A2B4A490802EB01418F
:10313000626A41EA8211084394F82C1040EA016166
:103140002048001F016001203866FFF745F904465A
:1031500005E034E0FFF740F9001B022809D8286891
:103160008001F7D52BE000BFFFF736F9001B0228DE
:1031700002D90320BDE8F88F28688001F4D41EE04E
:103180000128F7D00868E26900F48001914214D167
:10319000226A00F03F0191420FD147F6C071626A86
:1031A0000140914209D1A26A00F44031914204D118
:1031B000E16A00F07060884201D00120DAE7002067
:1031C000D8E70000083802400038024000004742BB
:1031D000800E4742007000400000FFFF70B5040001
:1031E00005D00025A56294F8510010B106E0012039
:1031F00070BD84F85050204600F030F8022084F86A
:1032000051002068016821F040010160D4E901010A
:103210000843D4E903121143084361690843218B31
:1032200001F400710843E1690843216A0843A16A77
:10323000084321680860A069042101EA1040616A1E
:103240000843216848602068C16921F40061C161B8
:103250006565012084F85100002070BDF0B587B08D
:10326000044614216846FDF767F82E482C4F26685F
:1032700000222C491438022303240525BE4215D10F
:103280000E6846F480560E60096801F4805105917D
:10329000016841F0010101600068694600F0010029
:1032A0000590E020CDE900031F4818E01F4FBE4203
:1032B0001CD10E6846F400560E60096801F40051F6
:1032C0000591016841F0100101600068694600F055
:1032D000100005904FF4E040CDE90003144802AE21
:1032E00086E83400FEF788FF07B0F0BD114FBE42FC
:1032F000FAD10E6846F480160E60096801F4801158
:103300000591016841F0200101600068694600F004
:10331000200005904FF46070CDE900030648DEE719
:1033200000300140443802400000024000340140B7
:1033300000100240005001400014024070477047E6
:1033400010B5040003D094F83D0010B107E001204F
:1033500010BD002084F83C00204600F00CF802204C
:1033600084F83D00211D206801F0B0FC012084F8A4
:103370003D00002010BD70470168CA6842F001029C
:10338000CA600068816801F00701062903D001685E
:1033900041F00101016000207047704770B504469C
:1033A000006801694FF00005C943890715D4C16859
:1033B000C943890711D4E91E0161012020772068E3
:1033C00080698007204602D0FFF7E7FF04E000F0A5
:1033D00098F8204600F096F8257720680169C943DF
:1033E000490717D4C168C943490713D46FF00401D2
:1033F0000161022020772068806910F4407F204618
:1034000002D0FFF7CAFF04E000F07BF8204600F08E
:1034100079F8257720680169C943090716D4C1687E
:10342000C943090712D46FF0080101610420207715
:103430002068C0698007204602D0FFF7AEFF04E095
:1034400000F05FF8204600F05DF8257720680169FC
:10345000C943C90617D4C168C943C90613D46FF05C
:1034600010010161082020772068C06910F4407FB6
:10347000204602D0FFF791FF04E000F042F820461A
:1034800000F040F8257720680169C943C90708D1D1
:10349000C168C943C90704D1891E0161204600F0F3
:1034A00033F820680169C943090609D4C168C943D2
:1034B000090605D46FF0800101612046FFF73EFF49
:1034C00020680169C943490609D4C168C94349064E
:1034D00005D46FF040010161204600F01FF820681C
:1034E0000169C94389060BD4C168C943890607D459
:1034F0006FF0200101612046BDE87040FFF71FBF5B
:1035000070BD70477047000000680349884201D1D0
:10351000FFF7B2BA7047000000480140704710B58D
:1035200004460068416994F83920C1F3C011212A8A
:103530000BD151B1416921F080014161206B08B18B
:10354000FEF720FB204601F09DFC2068416994F8BD
:103550003A20C1F38011222A0BD151B1416921F0E7
:1035600040014161606B08B1FEF70CFB204601F0A1
:103570007BFC002010BD704770B5026804461068DF
:10358000D168536910F00F0F52D003F0010501F418
:1035900090762E435FD0C20705D0CA0503D5E26BF3
:1035A00042F00102E263420705D5DA0703D0E26B7D
:1035B00042F00202E263820705D5DA0703D0E26B2C
:1035C00042F00402E263020707D501F020022A4319
:1035D00003D0E26B42F00802E263E26B002A33D0D0
:1035E000800604D5880602D5204601F054FC2068E8
:1035F0004069E16BC0F38010090700D428B320466E
:1036000001F032FC2068416949061AD5416921F070
:1036100040014161606BA0B11B490165606BFEF721
:10362000F8FA002810D0606B016DBDE870400847C3
:10363000830610D58B060ED52046BDE8704001F0FC
:103640002ABC2046FFF797FF70BD2046FFF793FF87
:103650000020E06370BD030606D50B0604D52046A6
:10366000BDE8704001F0F6BC4006F3D54806F1D540
:10367000D168204621F04001D160202184F8391022
:1036800000F094F970BD0000C94D002070B5040031
:1036900004D094F83900002510B106E0012070BD77
:1036A00084F83850204600F023F8242084F83900AC
:1036B0002068C16821F40051C160204601F036FC49
:1036C0002068016921F4904101612068416921F07D
:1036D0002A0141612068C16841F40051C160E5637D
:1036E000202084F8390084F83A00002070BD0000E2
:1036F000F0B587B0064614216846FCF71DFE334F2F
:10370000306800253249022203230724B8423DD104
:103710002F481430076847F010070760006800F072
:1037200010000590086840F00100086008686946CC
:1037300000F00100059058028DE82500CDE9033422
:103740002448FEF759FD254C234820604FF00060C7
:10375000C4E901054014C4E9035065614FF44030E9
:10376000A561C4E9075020466562FEF735FB08B144
:10377000FDF77AFE7463002205212520A663FFF77A
:103780000BFA2520FFF7FAF907B0F0BD144EB0424E
:10379000FAD10F481030066846F4802606600068AB
:1037A00000F480200590086840F008000860086870
:1037B000694600F0080005904FF440708DE8250040
:1037C000CDE903340748FEF717FDDDE7001001409F
:1037D0003038024000000240406402409815012049
:1037E00000480040000C0240F8B5044690F83A004A
:1037F00020283CD1C1B3BAB394F83800012836D0A0
:10380000012084F83800A162A2850025E56322200A
:1038100084F83A00636B1748D863636B16481864E2
:10382000636B1648D864606B134605650846666B83
:10383000216802463046091DFEF738FB2068016802
:103840004168009184F83850C16841F48071C160CA
:103850002068416941F0010141612068416941F0FE
:10386000400141610020F8BDFFE70120FBE7022095
:10387000F9E70000234E00205F4E0020D94D0020C4
:1038800090F83A30202B22D1F9B1F2B190F83830CB
:10389000012B1CD081628285C2850021C163222256
:1038A00080F83A2080F838100168CA6842F48072C3
:1038B000CA6001684A6942F001024A610068C16851
:1038C00041F02001C16000207047012070470220B4
:1038D0007047000000680449884203D1034800682B
:1038E00002F0B6BB70470000001001409C040120AC
:1038F00070472DE9F843044690F839001F461646F4
:103900000D46202850D1B5B1AEB194F83800012849
:103910004AD0012084F838004FF00008C4F83C80F9
:10392000212084F83900FEF757FDA6848146E684FD
:1039300084F8388026E00120BDE8F883E08C401E42
:10394000E084A0684B46B0F5805F4FF000024FF076
:1039500080012046009703D001F0ADFBE8B90DE0EF
:1039600001F0A9FBC8B928882168C0F308004860A5
:10397000206908B16D1C05E0AD1C03E0216815F855
:10398000010B4860E08C0028D8D14B460022402132
:103990002046009701F08FFB08B10320CCE72020E0
:1039A00084F839000020C7E70220C5E77047FEE72A
:1039B00001684A69D24352050FD46FF480624A61AC
:1039C000002140F8301F202242738173026942F0C7
:1039D000040202610173012070470020704700005B
:1039E0002DE9F84F0446006889460B9D016898460A
:1039F000174641F4806101602068016841F48071DC
:103A0000016000954FF0011B0022594620460A9B99
:103A100000F0DEF84FF4007A40B120680068C0057D
:103A200001D5C4F840A00320BDE8F88F216809F053
:103A3000FE0008612B46284920460A9A00F0FCF84F
:103A4000F0BB20684169806900902A4620460A99A7
:103A500000F070F940B1206C04283AD12068016868
:103A600041F40071016034E0FEB2B8F1010F09D0F9
:103A70002168380A08612A4620460A9900F05AF956
:103A80000028E8D1206806612A4620460A9900F0FD
:103A900051F90028DFD12068016841F4807101608C
:103AA00000950022594620460A9B00F091F8002814
:103AB000B3D1216809F0FF0040F00100086100E087
:103AC00007E02B46044920460A9A00F0B5F8002882
:103AD000AAD00120A8E70000020001002DE9F84368
:103AE000044600680D46DDE90897016898461646C9
:103AF00041F4807101604B4600224FF001112046D5
:103B0000009700F065F848B120680068C00502D54C
:103B10004FF4007020640320BDE8F883216805F0AD
:103B2000FE0008613B464A461549204600F084F8ED
:103B300088B920684169806900903A464946204624
:103B400000F0F8F848B1206C042804D1206801681E
:103B500041F4007101600120DEE7F5B2B8F1010F18
:103B600009D02168300A08613A464946204600F0EB
:103B7000E1F80028E7D1206805610020CCE70000CB
:103B80000200010070B516460D4604460DE02046C1
:103B9000FFF70EFF08B1012070BD681C05D0FEF7CD
:103BA0001BFC801BA84207D835B120684069C04380
:103BB0004007ECD4002070BD002044F8300F2021D5
:103BC0006173A073216941F0200121612073E2E754
:103BD0002DE9F0471E4690460D460446C1F30747BF
:103BE000DDF8209008E0701C06D0FEF7F5FBA0EB96
:103BF0000900B0420FD876B12068012F18D0806933
:103C000025EA00000004000C14D000214145EAD050
:103C10000020BDE8F087002044F8300F20216173B8
:103C2000A073216941F02001216120730120F0E798
:103C30004069E5E70121E9E72DE9F0479A46914619
:103C40000E46044600254FF02008C1F3074725E043
:103C500020684069C043400514D42068016841F4DD
:103C60000071016021686FF480604861256384F809
:103C70003D8084F83E50206C40F00400206484F8BD
:103C80003C501FE0B9F1FF3F08D0FEF7A5FBA0EBC9
:103C90000A0149450CD8B9F1000F09D02068012F5D
:103CA00013D0806926EA00000004000C0BD0CFE797
:103CB00044F8305F84F80D80A573206940F020003F
:103CC000206125730120BDE8F0874069EAE72DE90E
:103CD000F041002590460E460446202717E0406933
:103CE000C043C0060CD454F8301B6FF0100048617C
:103CF00044F810596777A577206A2062257717E086
:103D0000FEF76AFBA0EB0800B04208D83EB120687D
:103D10004169C9434906E2D40020BDE8F08144F876
:103D2000305F6773A573206940F020002061257320
:103D30000120F2E770B516460D4604460DE0204618
:103D4000FFF736FE08B1012070BD681C05D0FEF7F4
:103D500043FB801BA84207D835B120684069C043A7
:103D60000006ECD4002070BD002044F8300F202164
:103D70006173A073216941F0200121612073E2E7A2
:103D80003EB564249BB28DE81C0080B20A46014611
:103D900010230248FEF72AFC3EBD00005C13012000
:103DA0002DE9FE4F0027DFF868B091460E468246A7
:103DB0001D46B8463A4620215846FEF707FB1DE04F
:103DC00006F03F00C0F14004AC4200DB2C46642208
:103DD000A1B209EB07008DE807001FFA8AF1102352
:103DE00032460C48FEF7FEFC5FEA000808D13019A5
:103DF00086B22D1B27440A2001F0D0FE002DDFDC07
:103E0000012220215846FEF7E1FA4046BDE8FE8F28
:103E1000000402405C1301202DE9F041154688465C
:103E20000646002402F00307FEF7C2F91CE0201D3D
:103E3000A8420FD900200246B84203D2231818F82E
:103E4000031000E02021C30099400A43401C0428CD
:103E5000F2D302E008EB040002680023314602209E
:103E6000FEF768F9241D361DAC42E0D3FEF756F983
:103E70002046BDE8F0812DE9F0410646080640EAFB
:103E8000014040EA0125174600240D43FEF790F952
:103E900007E02A46002331460220FEF74BF9241D95
:103EA000361DBC42F5D3FEF739F92046BDE8F08156
:103EB0007FB500241548009401940294124903949C
:103EC00001604FF48031C0E901140461047680F888
:103ED00020400F49C0E90A140125C561C46080F87B
:103EE00030404561FDF729FD08B1FDF7BDFA0948ED
:103EF000CDE90005694602940448FDF769FC0028F5
:103F000001D0FDF7B1FA7FBD00200140141301205C
:103F10000100000F12000010094808B5016841F4C3
:103F2000800101600068002200F4800000900521FB
:103F30003A20FEF731FEBDE808403A20FEF71EBEEB
:103F40003038024010B500221146012002F028F856
:103F5000244C002211466060012002F021F800226A
:103F6000A0601146012002F01BF8E06000220C2145
:103F7000062001F0BDFE206100220C21062001F088
:103F8000B7FE6061184801F063FF174AA061C432B0
:103F90000021164802F094F8134A206334320021BD
:103FA000134802F08DF8104A2062103200211148A7
:103FB00002F086F80C4AE061583200210E4802F007
:103FC0007FF8094A60627C3200210C4802F078F8E0
:103FD000054AA062A0320021094802F071F8E062AF
:103FE00010BD00009804012038830020E54B00201C
:103FF000E1690020995700201973002071580020B2
:10400000655900202DE9F04F87B014216846FCF770
:1040100093F954480024016841F0020101600168ED
:1040200001F002010591016841F0010101600168A0
:1040300001F001010591016841F020010160016872
:1040400001F020010591016841F0800101600168E3
:1040500001F080010591016841F4807101600168FF
:1040600001F480710591016841F01001016001685F
:1040700001F010010591016841F00801016000683C
:10408000394E00F008000590002220213046FEF74E
:104090009DF9DFF8D890002244214846FEF796F9B2
:1040A000DFF8CCA0002210215046FEF78FF9DFF890
:1040B000C4B0F714002239465846FEF787F920208D
:1040C00000900125CDE90154694630460394FEF77E
:1040D00093F8294E6803CDE90006DFF8A080694611
:1040E00002944046FEF788F80095CDE901646946E0
:1040F0002348FEF781F844200090CDE90154694639
:1041000048460394FEF778F84FF4FE50CDE90004DA
:10411000694640460294FEF76FF810200090CDE902
:104120000154694650460394FEF766F80097CDE9BE
:104130000154694658460394FEF75EF800220521B3
:104140000620FEF729FD0620FEF718FD00220521B6
:104150002820FEF721FD2820FEF710FD07B0BDE85E
:10416000F08F00003038024000040240001402408A
:10417000000002400010024000001110001C02402C
:1041800000200240144810B51249016013494160F3
:1041900000214FF480428160C0E9031241618161D6
:1041A000C1610162FEF75EF908B1FDF75DF900211A
:1041B0000948FEF717F908B1FDF756F9002106483E
:1041C000FEF731F9002803D0BDE81040FDF74CB9E7
:1041D00010BD0000005400405C130120A0860100C7
:1041E000144810B5124901601349416000214FF491
:1041F00080428160C0E9031241618161C161016255
:10420000FEF730F908B1FDF72FF900210948FEF754
:10421000E9F808B1FDF728F900210648FEF703F98F
:10422000002803D0BDE81040FDF71EB910BD000006
:1042300000580040B0130120A0860100094810B5C5
:10424000074901600321416040F2DC518160FEF7C3
:10425000E3FB002803D0BDE81040FDF705B910BD11
:1042600000300040041401200F4810B50D490160D2
:104270004FF48271416000218160C1604FF400728F
:104280000161C0E90512C1610162416281620A21D6
:10429000C162FEF7A3FF002803D0BDE81040FDF780
:1042A000E3B810BD00300140101401200F4810B5D4
:1042B0000D4901604FF48271416000218160C1604D
:1042C0004FF400720161C0E90512C16101624162EF
:1042D00081620A21C162FEF781FF002803D0BDE898
:1042E0001040FDF7C1B810BD003401406814012032
:1042F0000F4810B50D4901604FF4827141600021F3
:104300008160C1604FF400720161C0E90512C161B2
:104310000162416281620A21C162FEF75FFF0028EB
:1043200003D0BDE81040FDF79FB810BD005001401C
:10433000C01401200C4810B50A4901604FF4E13166
:104340004160002181600C22C160C0E904128161DA
:10435000C161FFF79BF9002803D0BDE81040FDF7CD
:1043600083B810BD00100140181501200C4810B58D
:104370000A4901604FF4E1314160002181600C2263
:10438000C160C0E904128161C161FFF77FF90028B3
:1043900003D0BDE81040FDF767B810BD00480040ED
:1043A00058150120FEE770472DE9F043DB4887B040
:1043B000C12300680090DA4ADAA1E24800F082FFE7
:1043C000E048FBF7C4FF82B2FF23DE49DE48FFF777
:1043D00090FADE4D2868DE4C800112D52078C52386
:1043E00040F001002070CE4ADAA1D64800F06AFF02
:1043F000D448FBF7ACFF82B2FF23D249D248FFF783
:1044000078FA2868400112D52078C92340F00200CC
:104410002070C34AD6A1CB4800F054FFC948FBF72F
:1044200096FF82B2FF23C749C748FFF762FA2868A0
:10443000000112D52078CD2340F004002070B84A46
:10444000D2A1C04800F03EFFBE48FBF780FF82B219
:10445000FF23BC49BC48FFF74CFA2868C00012D5BE
:104460002078D12340F008002070AD4ACFA1B54894
:1044700000F028FFB348FBF76AFF82B2FF23B1497F
:10448000B148FFF736FA2868800012D52078D52386
:1044900040F010002070A24ACCA1AA4800F012FF00
:1044A000A848FBF754FF82B2FF23A649A648FFF7AE
:1044B00020FA2868400012D52078D92340F0200047
:1044C0002070974ACCA19F4800F0FCFE9D48FBF766
:1044D0003EFF82B2FF239B499B48FFF70AFA2868F8
:1044E000002812DA2078DD2340F0400020708C4A4A
:1044F000CBA1944800F0E6FE9248FBF728FF82B279
:10450000FF2390499048FFF7F4F9286840F0807045
:104510002860CB4D0020287068706070FDF714F89B
:10452000C848FDF72BF978B10090ED237C4AC6A16D
:10453000844800F0C7FE8348FBF709FF82B2FF23DF
:1045400080498148FFF7D5F9BE4E03AF301D0FC833
:1045500087E80F003078B27871788DE80700EF2394
:104560006F4AC5A1774800F0ADFE7648FBF7EFFE35
:1045700082B2FF2373497448FFF7BBF93078AA2849
:104580000ED0F323664ACAA16E4800F09BFE6D4828
:10459000FBF7DDFE82B2FF236A496B48FFF7A9F9FA
:1045A0007078CC4FDFF830934FF00608002831D0F8
:1045B000012833D0022845D04FF48373584AC7A14D
:1045C000604800F07FFE5F48FBF7C1FE82B2FF2328
:1045D0005C495D48FFF78DF90820C5E90190C648A0
:1045E0000068009040F20B134D4AC4A1554800F0FA
:1045F00069FE5448FBF7ABFE82B2FF235149524893
:10460000FFF777F9B07800282FD040F21513444A0D
:10461000C1A147E0F723424AC5A117E0FC23404A65
:10462000CAA1484800F04EFE4648FBF790FE82B211
:10463000FF2344494448FFF75CF9CC4868600720F1
:10464000A860CCE7364A40F20113C9A13D4800F00A
:1046500039FE3C48FBF77BFE82B2FF2339493A48DA
:10466000FFF747F9C5E90178B9E701206070687084
:104670004FF488732A4AC6A1324800F023FE31481D
:10468000FBF765FE82B2FF232E492F48FFF731F971
:104690006968494502D0A868FCF73EFF204A40F20D
:1046A0001313C2A1274800F00DFE2648FBF74FFE6A
:1046B00082B2FF2323492448FFF71BF961481430D5
:1046C000FDF748F85F4C4FF48D731434144AD4E965
:1046D0000010CDE90001BBA11A4800F0F3FD194814
:1046E000FBF735FE82B2FF2316491748FFF701F9A1
:1046F0000B4A002061680C3A02EB80035B68994228
:1047000002D3401C0228F7D30C30207207B01021CE
:10471000BDE8F043B4A000F03DBB00000804012058
:10472000F482002025732C25643A204669726D7747
:104730006172652076657273696F6E3A2025730A1F
:104740000000000054050120581501207438024073
:104750009404012025732C25643A20424F522052A4
:1047600065736574206973207365740A0000000026
:1047700025732C25643A2050494E20526573657488
:10478000206973207365740A0000000025732C25CE
:10479000643A20504F522F50445220526573657432
:1047A000206973207365740A0000000025732C25AE
:1047B000643A20536F667477617265205265736541
:1047C00074206973207365740A00000025732C251A
:1047D000643A20496E646570656E64656E74205736
:1047E00061746368646F67205265736574206973D0
:1047F000207365740A00000025732C25643A205745
:10480000696E646F77205761746368646F672052C4
:1048100065736574206973207365740A0000000075
:1048200025732C25643A204C6F772D506F77657275
:10483000205265736574206973207365740A0000E3
:10484000D0120120F412012025732C25643A204750
:104850006574207570677261646520737461747526
:1048600073206661696C65642C2073746174757360
:10487000203D2025750A000025732C25643A2075FB
:104880007067726164655F7374617475733A202533
:1048900023582C2025752C2025752C2025752C209F
:1048A0002523582C2025752C202523580A0000008C
:1048B00025732C25643A2056657269667920665FF7
:1048C00073746174652E6D61676963206661696CDC
:1048D00065640A00000004080000080825732C2500
:1048E000643A20665F73746174652E72756E206918
:1048F0006E76616C69640A00143C024025732C25B5
:10490000643A20464C4153482D3E4F505443522068
:104910003D202523580A000025732C25643A206683
:104920006C61736820697320656D7074790A00008A
:1049300025732C25643A20426F6F742066726F6D68
:1049400020666163746F72790A00000025732C255C
:10495000643A20426F6F742066726F6D20417070F0
:104960006C69636174696F6E20310A00000006088B
:1049700025732C25643A20426F6F742066726F6D28
:10498000204170706C69636174696F6E20320A0037
:1049900025732C25643A20666C6173682069732046
:1049A0006E6F7420656D7074790A000025732C2574
:1049B000643A20657261736520736563746F722E4B
:1049C0002E2E0A0025732C25643A206C6F675F66D3
:1049D000696C655F73746174653A202523582C20D7
:1049E0002523580A000000004F53573178363420F1
:1049F00070726F6772616D0A0000000070B50E463C
:104A0000044615462CA1364800F05CFC3448FBF700
:104A10009EFC82B2FF2332493248FEF76AFF2246EB
:104A200031A12F4800F04EFC2D48FBF790FC82B2DC
:104A3000FF232B492B48FEF75CFF00242BE02007C7
:104A40000DD122092AA1264800F03CFC2448FBF79E
:104A50007EFC82B2FF2322492248FEF74AFF20074C
:104A6000B0F1704F02D0681E844201D122A300E051
:104A700022A3325D22A11A4800F024FC1848FBF75B
:104A800066FC82B2FF2316491648FEF732FF0A2061
:104A9000FDF744FA641CAC42D1D31CA1104800F0CD
:104AA00011FC0F48FBF753FCBDE8704082B2FF23B6
:104AB0000B490C48FEF71DBF2A2A2A2A2A2A2A2A2D
:104AC0002A2A2A2A2A205052494E54204845582042
:104AD0002A2A2A2A2A2A2A2A2A2A2A2A2A0A0000AA
:104AE000540501205815012025733A0A00000000E2
:104AF00025303858203A20000A000000200000002D
:104B00003078253032582573000000002A2A2A2ADE
:104B10002A2A2A2A2A2A2A2A2A205052494E54204E
:104B2000454E44202A2A2A2A2A2A2A2A2A2A2A2A96
:104B30002A0A00002DE9F047134D884681461E469B
:104B400017464FF4FA71286801F04CF9040019D1A6
:104B500033463A4641464846FFF712F970B10128FC
:104B600004D0022805D0032806D007E04FF0FF3418
:104B700004E06FF0020401E06FF00104286801F026
:104B8000A7F92046BDE8F087B00401202DE9F047E1
:104B9000134D884681461E4617464FF4FA71286821
:104BA00001F020F9040019D133463A4641464846FF
:104BB000FFF7F6F870B1012804D0022805D00328C9
:104BC00006D007E04FF0FF3404E06FF0020401E08C
:104BD0006FF00104286801F07BF92046BDE8F087FA
:104BE000B0040120012000F0D9FFFBE710B55020F0
:104BF00080F31188BFF34F8FBFF36F8F03F054F929
:104C000018B104494FF080500860002080F31188EB
:104C100010BD000004ED00E030B593B030216846CF
:104C2000FBF78AFB14210CA8FBF786FB1C48002528
:104C3000016841F080510160006800F080501190DF
:104C40001848016841F4404101600068022400F402
:104C500040401190092000904FF4803001900120D5
:104C6000CDE9050480050790082008904FF4B47042
:104C7000CDE9090404200B906846FEF701F9FDF721
:104C8000BDFF0CA90F2081E831004FF4A0500F9018
:104C9000E002109005210CA8FDF7E8FF13B030BD2D
:104CA00040380240007000400448016841F470013F
:104CB00001600249800680390860704788ED00E095
:104CC0000148FEF76BBB0000F8150120F0B5026843
:104CD000254C264D264E274F274B4FF0804CA042A7
:104CE00009D0604507D0A84205D0B04203D0B842F1
:104CF00001D0984204D122F0700E4A6842EA0E02B6
:104D0000A0421BD0604519D0A84217D0B04215D0A0
:104D1000B84213D0984211D0184DA8420ED0184D69
:104D2000A8420BD0174DA84208D0174DA84205D075
:104D3000164DA84202D0164DA84203D122F4407568
:104D4000CA682A434D6922F080022A4302608A68B9
:104D5000C2620A688262A04201D0984201D1096908
:104D6000016301214161F0BD0000014000040040E9
:104D700000080040000C00400004014000400140D9
:104D8000004401400048014000180040001C004061
:104D9000002000403EB505460C46084601F090FD57
:104DA000224629460190FBF7AEFA00208DF800005C
:104DB00003460246034802946946006800F0D2FFA9
:104DC0003EBD0000A804012010B5806B0021C18504
:104DD000C184FEF7D0FB10BD70B5846B20684069BC
:104DE00094F83910C0F3C0100025212904D118B15E
:104DF000E584204600F046F82068406994F83A10AF
:104E0000C0F38010222904D118B1E585204600F0B6
:104E10002BF8E06B40F01000E0632046FEF7ABFBA0
:104E200070BD10B50146806B09680968C90513D4C7
:104E30000021C1850168CA6822F48072CA600168D5
:104E40004A6922F001024A6101684A6922F040027F
:104E50004A61202180F83A10FEF73CFD10BD10B5E4
:104E6000806BFEF745FD10BD0168CA6822F49072A0
:104E7000CA6001684A6922F001024A61202180F873
:104E80003A1070470168CA6822F0C002CA60202147
:104E900080F83910704710B590F83A10222901D0E7
:104EA000022010BD8168B1F5805F11D00169002931
:104EB00001681FD0496801F07F03816A4A1C826241
:104EC0000B70C18D491E0904090CC18518D02BE057
:104ED0000269816A002A0268526805D0D2B20A804B
:104EE000816A491C8162ECE7C2F308020A80816A88
:104EF000891CF7E74A68816A4B1C83620A70E0E705
:104F00000168CA6822F02002CA600168CA6822F4F7
:104F10008072CA6001684A6922F001024A61202158
:104F200080F83A10FEF7D6FC002010BD2DE9F041C4
:104F3000044600680169E26821F4405111430161AF
:104F40002169A068E2690843616911430843216847
:104F5000CA6849F20C639A430243CA6020684169F7
:104F6000A26921F4407111434161E0691927642568
:104F70003226B0F5004F354A354920684FF0000819
:104F800006D0884201D0904236D1FDF739FF35E096
:104F9000884201D0904202D1FDF732FF01E0FDF7D7
:104FA0001FFF61684A18A0FB070148EB0803FBF7E5
:104FB00079F90146B0FBF5F00201B1FBF5F06FF0B5
:104FC0001803584301EB800006EBC000B0FBF5F07E
:104FD00000F0F80002EB4002B1FBF5F0584301EBA2
:104FE000800006EBC000B0FBF5F000F00700216880
:104FF00010448860BDE8F081FDF7F2FE61688B0F18
:105000008A00A0FB0701FBF74DF90146B0FBF5F064
:105010006FF01802504301EB800006EB0010B0FB6C
:10502000F5F000F0F002B1FBF5F002EB0012B1FB7D
:10503000F5F06FF01803584301EB800006EB001009
:10504000B0FBF5F000F00F00D1E7000000140140C4
:105050000010014090F83910212901D0022070473A
:105060008168B1F5805F016A0BD04A1C0262026858
:1050700009785160C18C491E0904090CC1840ED005
:1050800017E009880268C1F308015160016900292D
:10509000016A02D0491C0162ECE7891CFBE7016848
:1050A000CA6822F08002CA600068C16841F040010D
:1050B000C160002070472DE9F041984617460E4622
:1050C0000446069D1DE0681C1BD02DB1FDF784F938
:1050D000A0EB0800A84214D92068C16821F4D0715F
:1050E000C1602068416921F001014161202084F8FC
:1050F000390084F83A00002084F838000320BDE825
:10510000F0812068006836EA000004D00020B84230
:10511000D9D00020F3E70120F9E700000148FEF7AD
:105120002BBA0000181501202DE9FC47DFF8C080DC
:105130000F4655211C469246814688F8081001F01A
:105140004DFC4146C1F8090004F1100001F046FC95
:1051500041460925C1F80D0001F109063CB106F1EF
:10516000080022465146FBF7CEF804F109053846FF
:1051700001F034FC08EB05012D1D886004F10C01E1
:105180003046FBF727FC01F029FC08EB05012D1D3B
:1051900088601749AAB2FF2308311648FEF7A9FB19
:1051A00090B15423144A15A11C4800F08BF81B48F9
:1051B000FBF7CDF882B2FF2318491948FEF799FB97
:1051C0004FF0FF30BDE8FC8787B1CDE90097582349
:1051D000094A14A1114800F075F81048FBF7B7F818
:1051E00082B2FF230D490E48FEF783FB0020E9E75A
:1051F00054090120181501207082002025732C25E8
:10520000643A20526573706F6E6420636F6D6D61D8
:105210006E64206661696C65640A000054050120B3
:105220005815012025732C25643A20526573706F40
:105230006E6420636F6D6D616E64203D2025235880
:105240002C20737461747573203D202523580A0047
:105250001CB5044640686946FBF7ACFB01A9206811
:10526000FBF7A8FB08236A461321AE20FFF78EFC4C
:105270001CBD30B585B0044600788DF8000060781C
:105280008DF80100A0788DF802006D46E91C606879
:10529000FBF790FBE91DA068FBF78CFB0DF10B0100
:1052A000E068FBF787FB0DF10F012069FBF782FB3C
:1052B00013236A460021AE20FFF768FC05B030BD1D
:1052C000FEE700000FB4084B10B504A902AA03982A
:1052D00000F02CF8044602A9002000F058FA2046FD
:1052E00010BC5DF814FB00008F5700200907090E61
:1052F000002804DB00F1E02080F80014704700F083
:105300000F0000F1E02080F8141D704702E008C88B
:10531000121F08C1002AFAD170477047002001E02F
:1053200001C1121F002AFBD1704700002DE9FF4F79
:105330008DB00F460546002606E025280BD0DDE996
:105340000F1290476D1C761C28780028F5D111B0FB
:105350003046BDE8F08F0024A246A1460122EC4968
:1053600000E0044315F8013F203B02FA03F0084235
:10537000F7D128782A2810D06FF02F022878A0F1D2
:105380003001092914D80AEB8A0102EB410144F0EB
:10539000020400EB010A6D1CF0E701CF5FEA000A8E
:1053A00003D544F40054CAF1000A44F002046D1C11
:1053B00028782E2817D115F8010F44F004042A2864
:1053C0000ED06FF02F022878A0F1300109290AD8F9
:1053D00009EB890102EB410100EB01096D1CF2E7C9
:1053E00057F8049B6D1C28786C280FD006DC4C28DD
:1053F00017D068280DD06A2814D104E0742810D082
:105400007A280FD10DE044F400140AE044F480142B
:1054100001E044F440146978814202D104F580141B
:105420006D1C6D1C2A786E2A1FD00CDC632A31D0CB
:1054300004DC002A8BD0582A11D1A3E0642A68D05A
:10544000692A0CD165E0732A2ED004DC6F2A73D050
:10545000702A04D19BE0752A6FD0782A6ED010464E
:10546000DDE90F129047761C50E1C4F30250022888
:1054700006D0032809D0042801CF09D0066045E1F1
:1054800001CFF117C0E9006140E101CF06803DE1A5
:1054900006703BE117F8040B8DF8000000208DF832
:1054A0000100EB46012003E057F804BB4FF0FF304A
:1054B00061074FF0000102D40DE008F101018846B8
:1054C00049450FDA8045F8DB1BF808100029F4D1B4
:1054D00008E008F1010188468142FADB1BF8081058
:1054E0000029F6D1DDE90F23AAEB08008146214609
:1054F00000F036F9304400EB080604E0DDE90F1255
:105500001BF8010B9047B8F10108F7D22146484635
:10551000F7E00A21C4F302534FF0000B0891022B6D
:1055200004D001CFC117032B09D00AE0FF1D27F0DB
:105530000707F7E8020108E032E01FE020E000B2D0
:10554000C117042B01D140B2C117031E71F1000332
:1055500007DA4FF0000CD0EB0C006CEB01012D23AF
:1055600002E0230504D52B238DF82430012303E02A
:10557000E30701D02023F7E7984658E00A2110E01E
:1055800010210EE010204FF0000B08900CE01021CD
:105590004FF0000B44F004044FF00809089103E0B9
:1055A00008214FF0000B0891C4F30253022B04D0E2
:1055B00001CF0021032B06D006E0FF1D27F00707CF
:1055C000F7E8020103E080B2042B00D1C0B24FF033
:1055D000000823072BD5702A07D0DDF820C08CF0F7
:1055E000100C5CEA0B0C05D00EE040238DF8243043
:1055F000012308E050EA010306D030238DF824305F
:105600008DF8252002239846DDF820C08CF0080C88
:105610005CEA0B0C0BD150EA010301D1630706D5FC
:1056200030238DF824304FF00108A9F10109582AE0
:1056300004D038A20B9208AA0A920BE03AA2F9E72A
:105640005B46089AFAF72EFE0B9B9B5C0A9A521E49
:105650000A92137050EA0102F2D10A98ADEB0000F1
:1056600000F1200B600702D524F4803401E04FF0F4
:105670000109D94502DDA9EB0B0000E0002000EB99
:105680000B0141440890AAEB010AE00306D4DDE9CE
:105690000F232146504600F063F806444FF00009FE
:1056A00008E009A911F80900DDE90F12904709F196
:1056B0000109761CC145F4DBE0030CD5DDE90F23BD
:1056C0002146504600F04CF8064404E0DDE90F1294
:1056D00030209047761C0899481E08900029F5DC78
:1056E00008E00A980A990078491C0A91DDE90F122E
:1056F0009047761CBBF10001ABF1010BF1DC2146B8
:105700005046DDE90F2300F019F806446D1C1BE636
:105710000928010030313233343536373839616287
:10572000636465660000000030313233343536374B
:105730003839414243444546000000002DE9F0411C
:10574000044600251E461746880404D405E0394661
:105750002020B0476D1C641EF9D52846BDE8F081B5
:105760002DE9F041044600251E469046C80301D5A8
:10577000302700E02027880404D505E0414638465C
:10578000B0476D1C641EF9D52846BDE8F0810A6853
:10579000531C0B60107070474FF0FF371F4E204CAA
:1057A00000253946012001F0DDFA3078022810D0BA
:1057B00040F24B131B4A1CA12148FFF783FD2048F0
:1057C000FAF7C5FD82B2FF231D491E48FEF791F886
:1057D000E7E701202070FBF711FA607890B14FF4F1
:1057E000AB73104A18A11648FFF76CFD1448FAF77E
:1057F000AEFD82B2FF2312491248FEF77AF86570B7
:105800002570CEE70648806800F022FC1748174A4A
:105810000BC80C32FFF788FCF2E7000054090120A6
:10582000980401203084002025732C25643A2053ED
:105830007461676520696E636F72726563740A00D4
:10584000540501205815012025732C25643A204465
:10585000657465637465642070726F63657373202B
:1058600074696D656F75740A00000000100E0120E8
:105870001FB5FEF799FD1C4C4FF0FF352B4600225B
:1058800001A9606900F0E0F90028F7D19DF8040053
:105890000128F3D1154840F27913154A8078009019
:1058A00014A12248FFF70EFD2048FAF750FD82B2FE
:1058B000FF231E491E48FEF71CF80C48FFF7D9FCD1
:1058C0000028DBD04FF4BE73094A1AA11748FFF72E
:1058D000F9FC1648FAF73BFD82B2FF23134914483E
:1058E000FEF707F8CAE7000098040120F41201202F
:1058F0002883002025732C25643A2052656365694E
:10590000766564204D53475F545950455F464C417E
:1059100053485F4953522C20666C6173685F656D14
:10592000707479203D2025750A000000540501207F
:105930005815012025732C25643A20557064617434
:105940006520757067726164652073746174757326
:1059500020746F20656570726F6D206661696C657B
:10596000640A000086B05F49DFF874B15E4F0978C1
:105970009BF808000B310291884206D15B484FF03A
:105980000C083D680468641C07E007EB8001401CBC
:1059900051F82C4C00F0FF082546554E4FF0FF33D0
:1059A000002203A9306900F04FF90028F6D1DFF892
:1059B0003CA1DBF80400DAF80010491C8842EDD263
:1059C00039688842EAD3059911F0030101D0C1F189
:1059D0000401059AD94602441144A14237D3221A40
:1059E0002021FEF748FA434C02E0C82000F0D6F828
:1059F00020780028F9D1012020700021F06800F003
:105A000095FA4046FBF788FD4FF0FF31F06800F053
:105A10008DFAC9F8045089F80880029B2A46484646
:105A20004146984506D1DAF800404FF00C08641C56
:105A30003D6807E007EB8103491C53F82C4C01F04B
:105A4000FF08254601688A4201D1C9F80050D9E90A
:105A50000010CDE90001CA464FF4E173264A27A1A0
:105A60003448FFF72FFC3348FAF771FC82B2FF236A
:105A700030493148FDF73DFFDFF8789013E000BF73
:105A80004FF4E2731C4A2DA12A48FFF71BFC29485A
:105A9000FAF75DFC82B2FF2326492748FDF729FF6C
:105AA000C82000F07BF899F800000028E8D1DDE973
:105AB0000412DAF80400FEF7AFF9DAF80410014432
:105AC000CAF80410049801F02DFA306900F0FAF8D1
:105AD00000287FF463AF0248FFF7BAFB5EE70000DF
