:020000042000DA
:1000000090630120810200208F5200204B48002085
:100010008D520020070B00206D62002000000000C0
:10002000000000000000000000000000C1010020EE
:10003000211C0020000000001D020020815B002028
:100040009B0200209B0200209B0200209B020020BC
:10005000DD1C00209B020020231C00209B020020AE
:100060009B0200209B0200209B0200209B0200209C
:100070009B0200209B0200209B0200209B0200208C
:100080009B0200209B0200209B0200209B0200207C
:100090009B0200209B0200209B0200209B0200206C
:1000A0009B0200209B0200206D5C00209B02002030
:1000B0009B0200209B0200209B0200209B0200204C
:1000C0009B0200209B0200209B0200209B0200203C
:1000D0009B020020C96000209B0200209B020020A0
:1000E000291C00209B0200209B0200209B02002074
:1000F0009B0200209B0200209B0200209B0200200C
:100100009B0200209B0200209B0200209B020020FB
:100110009B0200209B0200209B0200209B020020EB
:100120009B0200209B020020711B00209B020020EC
:100130009B0200209B0200209B0200209B020020CB
:100140009B0200209B0200209B0200209B020020BB
:100150009B0200209B0200209B0200209B020020AB
:100160009B0200209B0200209B0200209B0200209B
:100170009B0200209B0200209B0200200000000048
:100180009B0200209B0200209B0200209B0200207B
:100190009B0200209B0200209B0200209B0200206B
:1001A00000000000000000009B020020DFF80CD0DF
:1001B00000F0BAFB004800470D6B0020906301205F
:1001C0002C4B19680868B0E8F04F80F30988BFF33A
:1001D0006F8F4FF0000080F311887047000000001F
:1001E00008480068006880F308884FF0000080F33A
:1001F000148862B661B6BFF34F8FBFF36F8F00DF15
:1002000000BF00BF08ED00E0DFF80C00016841F41A
:1002100070010160704700BF88ED00E0EFF30980D6
:10022000BFF36F8F134B1A681EF0100F08BF20ED3D
:10023000108A20E9F04F106009B44FF0500080F3AD
:100240001188BFF34F8FBFF36F8F08F027F84FF07F
:10025000000080F3118809BC19680868B0E8F04F05
:100260001EF0100F08BFB0EC108A80F30988BFF3AE
:100270006F8F70471C050120EFF305807047000069
:100280000648804706480047FEE7FEE7FEE7FEE730
:10029000FEE7FEE7FEE7FEE7FEE7FEE7555C00202F
:1002A000AD0100202DE9F05F0546002092469B46F7
:1002B00088460646814640241BE02846414647467C
:1002C000224600F05EFA53465A46C01A914110D3B6
:1002D00011461846224600F045FA2D1A67EB010830
:1002E0004F4622460120002100F03CFA17EB00099E
:1002F0004E41201EA4F10104DFDC484631462A4667
:100300004346BDE8F09F40EA01039B0703D009E0A4
:1003100008C9121F08C0042AFAD203E011F8013BF1
:1003200000F8013B521EF9D27047D2B201E000F84A
:10033000012B491EFBD270470022F6E710B5134689
:100340000A4604461946FFF7F0FF204610BD421C3E
:1003500010F8011B0029FBD1801A704710B500224C
:1003600000E0521C835C8C5CA34201D1002BF8D1CD
:10037000D8B2E1B2401A10BD034611F8012B00F8C3
:10038000012B002AF9D1184670472DE9F05F9346FA
:100390000F4680460446002605F08EFFD0F80090F8
:1003A000824614F8015B2DB100F00EFA0068405D42
:1003B000C007F6D12B2D02D02D2D1AD0641E00219E
:1003C000CAF800105A463946204600F001FA0146A4
:1003D00027B13868A04201D1C7F80080DAF80000E0
:1003E000022809D0CAF80090700505D54842BDE83A
:1003F000F09F46F48066E2E70846F8E72DE9FE4FF5
:10040000804681EA0300C00F0C46009021F00041B5
:1004100023F00045B8EB0200A94105D24046214631
:1004200090461C460B46024623F00040104347D03E
:10043000270DC7F30A00C3F30A510290401A019036
:1004400040286BDAC3F3130040F4801B00989246F7
:1004500020B10023D2EB030A63EB0B0B0198594642
:10046000C0F14002504600F07DF906460D46504668
:100470005946019A00F095F910EB080061410024FB
:1004800087EA115284EAE7731A4340D0009A62B3B4
:10049000019A012A4FEA075215DC001B61EB0201A9
:1004A0004FF0004202EA0752CDE90042001C41F53C
:1004B000801132462B4600F0E9F903B0BDE8F08F19
:1004C00040462146F9E7001B61EB0201001C41F5A3
:1004D000801300185B412018A2F5001747EB0301B9
:1004E00040EAD570B6196D4111E06D084FEA360645
:1004F00045EAC0754FEA0752001B61EB0201001C80
:1005000041F5801149084FEA300000195141324647
:100510002B4603B0BDE8F04F00F0A9B900980122C6
:1005200040000023D0EB020263EBE0730098214609
:100530004FEAE074B8EB000061EB0401E9E783F0F7
:1005400000435BE781F0004158E72DE9FE4F81EA67
:10055000030404F0004421F0004100944FF0000B2C
:1005600023F0004350EA01045ED052EA03045BD05A
:10057000C3F30A54C1F30A552C44A4F2F334019492
:10058000A0FB0254C1F3130141F48011C3F3130320
:1005900043F4801301FB024400FB034E840A970AD4
:1005A00044EA815447EA8357A4FB076802958D0A01
:1005B00005FB07854FEA932C04FB0C542705029D8D
:1005C0004FEA065847EA1637B5EB08056EEB070CFD
:1005D000870E920E47EA811742EA8312A7FB0201B7
:1005E000B6EB0B0164EB00042B0D43EA0C335E18F1
:1005F00044EB1C50DA465146E7FB0201C5F31304F5
:100600004FEA0B3343EA14534FEA0432019C43EAA6
:100610000603A4F10C040294009CCDE900B400F0A0
:1006200035F903B0BDE8F08F00200146F9E72DE968
:10063000F04D81EA030404F0004B21F0004514461C
:100640004FF0000A23F0004150EA050220D054EA9E
:1006500001021DD0C5F30A570246C5F31303C1F3C7
:100660001300C1F30A5640F4801543F48013A7EB3E
:100670000608101BD64608F2FD3873EB050002D3BE
:1006800008F1010801E092185B41B8F1000F03DAAC
:1006900000200146BDE8F08D00204FF48011064691
:1006A00084460EE0171B73EB050705D3121B63EBA3
:1006B000050306434CEA010C49084FEA3000921842
:1006C0005B4150EA0107EDD152EA030012D082EA01
:1006D000040083EA0501084305D0101BAB4106D294
:1006E0000122002306E000224FF0004302E06FF0F9
:1006F000010253101AEB06004CEB085110EB0A00F4
:1007000041EB0B01BDE8F04D00F0B1B80EB540F281
:10071000334102910021CDE900110A460B4600F059
:10072000B5F803B000BD70B5C1F30A5201F0004541
:100730000024C1F3130140F2FF3341F480119A42C7
:1007400001DA002070BD40F233439A42A2F23342F4
:1007500003DC524200F015F800E090402C43F1D049
:10076000404270BD202A04DB203A00FA02F100204A
:1007700070479140C2F1200320FA03F319439040DF
:100780007047202A04DB203A21FA02F0002170474A
:1007900021FA02F3D040C2F12002914008431946E9
:1007A0007047202A06DBCB17203A41FA02F043EAD1
:1007B000E07306E041FA02F3D040C2F1200291401A
:1007C000084319467047000000487047089500200C
:1007D0002DE9F05F82460078002715468B460AF126
:1007E0000104B946302801D09DB113E014F8010B83
:1007F0000127782803D0582801D045B10AE00DB16F
:10080000102D07D10027102514F8010B02E0082550
:1008100000E00A250026B0460EE005FB080005FBB7
:1008200006F1012701EB10461FFA80F8B6F5803F6C
:1008300000D3B94614F8010B294600F087F80028C8
:10084000EBDABBF1000F05D00FB1641E00E0544697
:10085000CBF80040B9F1000F06D005F02DFD0221C4
:100860000160C81EBDE8F09F48EA0640FAE710B5EF
:10087000141E73F1000408DA401C41F100019218C3
:100880005B411A4301D120F0010010BD2DE9F04D6C
:1008900092469B4611B1B1FA81F202E0B0FA80F2C1
:1008A00020329046FFF75EFF04460F4640EA0A00FA
:1008B00041EA0B0153465A46084313D0114653EA06
:1008C000010019D0C8F140025046FFF75AFF054613
:1008D0000E46504659464246FFF744FF084305D0AE
:1008E000012004E020463946BDE8F08D0020054394
:1008F00046EAE0762C4337430A986305E40AA0EB06
:1009000008000022FD0A44EA47540A3002D50020BC
:100910000146E9E7010510196941DDE908450019BB
:100920006941BDE8F04DA2E7064C074D06E0E068DE
:1009300040F0010394E8070098471034AC42F6D326
:10094000FFF738FC78960020989600203A2800D2CD
:10095000303820F02002412A01D3A2F1370088422A
:1009600001D34FF0FF30704770B58C1810F8015B61
:1009700015F0070301D110F8013B2A1106D110F838
:10098000012B03E010F8016B01F8016B5B1EF9D13C
:100990002B0705D40023521E0DD401F8013BFAE7C2
:1009A00010F8013BCB1A921C03E013F8015B01F82D
:1009B000015B521EF9D5A142D8D3002070BD0000C2
:1009C000464910B54A6822F440324A604A68436892
:1009D0001A434A6001684A6822F480724A600168DA
:1009E0004A68036942EA03224A6001684A6822F0C1
:1009F00040724A6001684A6883681A434A60016825
:100A00008A6822F400628A6001688A68C3681A43AF
:100A10008A60816A6FF07062D14201688A6822F050
:100A200070628A6001688A680CD0836A1A438A609F
:100A300001688A6822F040528A6001688A68C36A45
:100A40001A4301E022F040528A6001688A6822F06D
:100A500002028A6001688A68037E42EA43028A6071
:100A600090F82010002901684A680FD042F4006213
:100A70004A6001684A6822F460424A6001684A6834
:100A8000174C436A04EB43331A4301E022F400623B
:100A90004A600168CA6A22F47002CA620168CA6ABE
:100AA000838B104C04EB03531A43CA6201688A68B3
:100AB00022F400728A6001688A6890F8303042EA55
:100AC00043228A6001688A6822F480628A60016831
:100AD0008A68406942EA8020886010BD0023014096
:100AE00000E0FFFF0000F0FF020E0A70020C4A70E7
:100AF000020A8A70C87070470168C07809BA21F08C
:100B0000FF0108437047FEE730B54FF0FF33002286
:100B1000064C07E0855C5D40EDB2521C54F8255050
:100B200085EA13238A42F5D3D84330BD0000012063
:100B3000044800226021C260C0E9001204218160E3
:100B400010467047540E01202DE9F04F4E4C85B0F1
:100B50002046FFF7D1FF04F26F42002191644B4918
:100B600002F13C0B42F28375884206D06FF00040E0
:100B7000CBF80000594628461DE0201DFFF7BCFFBA
:100B80000128F3D104F10800FFF7B6FF054604F190
:100B90000C00FFF7B1FF009004F11000FFF7ACFF6D
:100BA00082460DB1082D0DD36FF00040CBF8000048
:100BB00059464FF0FF3004224860CBF8082005B0BA
:100BC000BDE8F08F0024324850F83400A84219D113
:100BD0000098002803DB1FFA80F9002005E04FF0A1
:100BE0000009009805F0B6FF80B28046BAF1000017
:100BF00003DB1FFA8AF7002607E0002705F0AAFFAB
:100C000086B202E0641C072CDDD3CDE90059CDF893
:100C10000880CDE9037640F202231E4A1EA12E4829
:100C200005F026FB2C48FFF792FB82B2FF232A49EE
:100C30002A4803F0ACFD164800EBC4000379417963
:100C400082791B06C07943EA014141EA0221084347
:100C50002349FFF749FF224948EA0940091DFFF7E8
:100C600043FF1F4946EA07400831FFF73DFF6FF099
:100C70000041CBF800100021CBF804100C2100201B
:100C8000CBF808109BE70000A9090120A5A55A5A36
:100C900014040120E892002025732C25643A204496
:100CA000656275673A2073775F6E756D203D20250C
:100CB000752C207078203D2025752C206E78203DE5
:100CC0002025752C207079203D2025752C206E79EB
:100CD000203D2025750A000098050120BC15012043
:100CE000600E01202DE9F05F424D434801F0D4FA37
:100CF0003221414801F07EFA00264FF47A794FF014
:100D0000FF3AA5F10C0450274FF00408B8B140F2A7
:100D10003D133A4A3AA1454805F0AAFA4348FFF77D
:100D200016FB82B2FF234149414803F030FD48469B
:100D300006F048FE2860304801F024FB49E02E48C8
:100D400001F016FA83462C4801F01CFB5846FFF7C9
:100D5000DDFC9FED381B53EC112BFFF7F6FB9FEDED
:100D6000371B53EC112BFFF7F0FB9FED361B53ECB9
:100D7000112BFFF7E4FB9FED351B53EC112BFFF715
:100D800056FC9FED341B53EC112BFFF737FB9FED07
:100D9000331B53EC112BFFF7D8FBFFF7C4FC00B259
:100DA00000F12D01B1F5A26F1AD340F24913134A95
:100DB0002CA11E4805F05CFA1C48FFF7C8FA82B265
:100DC000FF231A491A4803F0E2FC484606F0FAFDF0
:100DD0002860C4F80880C4E900765046BDE8F09F5A
:100DE00006F0F0FD2860C4F80880C4E90076002011
:100DF000F4E70000600E0120581301209B920020B0
:100E000025732C25643A20506F6C6C20666F72201D
:100E100074656D70657261747572652073656E734B
:100E20006F72206661696C65640A00009805012094
:100E3000BC150120000000000000303F66666666B9
:100E400066660A4052B81E85EB51E83F7B14AE47F8
:100E5000E17A643F0000000000003940000000001B
:100E60000000244025732C25643A207265732069A4
:100E70006E76616C69640A0000B58DB0002206A927
:100E8000264802F075FF00220BA9244802F04EFF0D
:100E90009DF82E000DF1080C9DF81A309DF81920D0
:100EA0009DF818108CE80F009DF82F109DF82D006C
:100EB00001F5FA61CDE900104FF4C173184A19A188
:100EC000244805F0D5F92348FFF741FA82B2FF2301
:100ED0002049214803F05BFC9DF82E009DF81A3054
:100EE0009DF819209DF818108DE80F009DF82F200F
:100EF0009DF82D3019A1204802F5FA6205F0B8F9E5
:100F00001D4800220C3874218276C276C0E9001296
:100F1000102181600DB0104600BD00005414012066
:100F2000BC92002025732C25643A204765742074F8
:100F3000696D6520253034752D253032752D2530AD
:100F4000327520253032753A253032753A253032E7
:100F5000750A000098050120BC1501202530347564
:100F60002530327525303275253032752530327591
:100F70002530327500000000600E012070B5134D61
:100F8000114C20462968FFF7F7F90A3420466968B2
:100F9000FFF7F2F90A342046A968FFF7EDF9253486
:100FA0002046E968FFF7E8F904F114002969FFF722
:100FB000E3F9A4F15900302101600021416078215A
:100FC0008160002070BD0000740E0120000401202B
:100FD0002DE9FF5F5148504DD0E90021881A914218
:100FE00006D24F490A684F490968891A0844401CCB
:100FF000870A00B17F1C2846FFF77EFDDFF82881B5
:1010000001460C2608F10C0042F2837408F1100B23
:1010100008F1140A4FF076090390B94207D040F264
:10102000B113424A42A14E4805F022F958E0281D6A
:10103000FFF762FD0546B8424AD8002D48D037492F
:10104000484A086802EB8522861836480268521C16
:10105000964205D3324A00681268301A401E1618AC
:101060004FF48060AF4203D149688C1B844200D9A1
:1010700004460095CDE901644FF4E6732B4A3AA18A
:10108000374805F0F5F83648FFF761F982B2FF23DB
:101090003349424803F07BFB38460399FFF724FDB0
:1010A00059462846FFF720FD51462046FFF71CFD14
:1010B0001D4922461831304603F0FCFD0021C8E9E5
:1010C00000910C340846C8F8084004B0BDE8F09F11
:1010D00000904FF4DD73154A31A1214805F0C8F89E
:1010E0001F48FFF734F982B2FF231D492B4803F054
:1010F0004EFB38460399FFF7F7FC59460020FFF7EF
:10110000F3FC51460020FFF7EFFCC8E900942046AD
:10111000C8F80860D9E70000A90901204C13012094
:10112000F892002048930020540E0120D89200200D
:1011300025732C25643A207061636B65745F636F5F
:10114000756E7420213D204275666665725F546F2E
:101150005F4245333228707264617461290A00006D
:101160009805012000FCFFFF25732C25643A2070B0
:1011700061636B65745F6E756D203D2025752C2055
:10118000646573742061646472203D202523582CAB
:101190002073697A65203D2025750A00BC15012061
:1011A00025732C25643A207061636B65745F6E75DE
:1011B0006D203D20257520696E76616C69640A009A
:1011C0007CB51E4803C80C1A814206D21C481D4932
:1011D00000680968081A0444641CE01704EB905086
:1011E000851204B16D1C4FF4CB73174A17A1214827
:1011F000CDE9004505F03CF81E48FFF7A8F882B29B
:10120000FF231C491C4803F0C2FA1C490020FFF7C9
:101210006BFC1A492046091DFFF766FC1749284652
:101220000831FFF761FC154875210C380160002179
:1012300041600C21816000207CBD00004C13012026
:10124000F892002048930020C992002025732C2595
:10125000643A2073697A65203D2025642C207061F2
:10126000636B65745F636F756E74203D2025750A2E
:101270000000000098050120BC150120600E01202F
:1012800038B51848D0F8090006F09CFB044616480B
:10129000002100BF50F83120A24207D100EBC1006D
:1012A000406830B101B0BDE830400047491C112909
:1012B000F0D349230D4A0EA11548009404F0D8FF3D
:1012C0001348FFF744F882B2FF231149114803F095
:1012D0005EFA114842F28371C0E900410021816049
:1012E000084638BD980901204C0401204C9200208A
:1012F00025732C25643A20556E6B6E6F7720636FD3
:101300006D6D616E64206964203D202523580A00BC
:1013100098050120BC150120540E012030B58FB076
:101320004148002507958564142108A8FFF704F8B3
:101330003E4C01208DF8340054F8110F06900A221B
:10134000002106A8FFF721F8A0F5FA608DF8370014
:101350008DF81A50A088ADF818000A22002106A8BE
:10136000FFF713F88DF83500E088ADF818000A2271
:10137000002106A8FFF709F88DF836002089ADF89E
:1013800018000A22002106A8FEF7FFFF8DF82000B2
:101390006089ADF818000A22002106A8FEF7F5FFC3
:1013A0008DF82100A089ADF818000A22002106A8B6
:1013B000FEF7EBFFC0B28DF822009DF821109DF8DA
:1013C00020309DF83620CDE90410CDE902239DF8A8
:1013D00037109DF8350001F5FA61CDE9001040F2B3
:1013E0007313134A13A11D4804F042FF1B48FEF774
:1013F000AEFF82B2FF231949194803F0C8F9002251
:1014000008A9184802F0A6FD00220DA9154802F00F
:101410003DFD054873213C30C0E900150421816081
:101420000FB0002030BD0000180E012098090120E7
:10143000AF92002025732C25643A205365742074E4
:10144000696D6520746F2025752D25752D257520F6
:1014500025753A25753A25750A0000009805012082
:10146000BC15012054140120BFF34F8F05480168BB
:10147000054A01F4E06111430160BFF34F8F00BFE3
:10148000FDE700000CED00E00400FA052DE9FC5F2B
:101490009B4C04F5996854F8110F06F093FA07462F
:1014A000606806F08FFA05460026384606F08AFA8C
:1014B000C8F8000008F2B44008340178A0F5986933
:1014C0004FF0110A42F283784FF0080B012906D041
:1014D0008E238C4A8CA1944804F0CAFE1FE09348E6
:1014E000C069A84204D29423864A91A1009526E0BF
:1014F000012F1ED08D4801694A1CBA4202D1027BDD
:10150000032A7BD0B94202D1027B022AF9D0CDE96D
:101510000071C7237B4A91A1834804F0A9FE824849
:10152000FEF715FF82B2FF237F49964803F02FF99B
:101530002EE0A84213D0734A9B2393A100957A48CA
:1015400004F096FE7848FEF702FF82B2FF23764948
:101550008C4803F01CF9494642F2A570B6E096A10A
:101560002046FEF7FBFEB0B1A023664A96496E48BE
:1015700004F07EFE6C48FEF7EAFE82B2FF236A4961
:10158000804803F004F92022214690A004F0CEF90F
:10159000494640469AE0DFF8948100216248C8F845
:1015A0001070C8F82010D4F8C01094F8C32009BAFD
:1015B00021F0FF011143C8F81810D4F8C42094F8A2
:1015C000C73012BA22F0FF021A43C8F81420CDE93E
:1015D0000012B0234B4A80A104F04AFE5248FEF7A5
:1015E000B6FE82B2FF235049664803F0D0F8824825
:1015F0008078002833D1B323424A00E034E07FA151
:10160000494804F035FE4848FEF7A1FE82B2FF23A8
:1016100045495C4803F0BBF87F48017819B1B6230F
:10162000384A7EA10FE00121017088F80110814A3B
:10163000D8F80410914203D0D8F8080000F050FB0D
:10164000304ABD237CA1384804F012FE3648FEF72C
:101650007EFE82B2FF2334494A4803F098F804F52D
:101660008074A5F5807500E007616B4F387838B15C
:101670003046761C062803D2642005F083FAF5E78D
:101680004FF0020842F27D77062E03D3D0231D4A85
:101690006FA10AE058488178F1B10021817004F00F
:1016A000BEFDC8B1174AD92371A11F4804F0E0FD5F
:1016B0001D48FEF74CFE82B2FF231B49314803F060
:1016C00066F81A48494680F80C803846C1E900A0FF
:1016D000C9F808B0BDE8FC9F144EAA08316A7068CA
:1016E0000844214600F020FB306A28443062032081
:1016F00030730021C9E900A10846C9F808B0E9E73C
:10170000980901207692002025732C25643A204305
:10171000616E6E6F742065786375746520636F6D9C
:101720006D616E640A000000980501201413012009
:1017300025732C25643A20465720726563656976C7
:10174000656420696E76616C6964206461746120EF
:101750006C656E6774682025750A000025732C255A
:10176000643A2053657120696E76616C6964203A31
:10177000202575097072655F736571203A202575A3
:101780000A000000BC15012025732C25643A204670
:101790005720726563656976656420696E76616C51
:1017A00069642064617461206C656E677468203AB6
:1017B0002025750A000000004F4E45542D4F535709
:1017C0003178363400000000509500206D6F64754C
:1017D0006C65206E616D650025732C25643A20468A
:1017E000772073697A65203D2025752C206372630C
:1017F000203D202523580A003813012025732C256D
:10180000643A20666C617368206973206E6F74207F
:10181000656D7074790A0000D504012025732C25AC
:10182000643A20466C61736820696E207573696E36
:10183000670A00000000080825732C25643A20651B
:101840007261736520736563746F722E2E2E0A00A9
:1018500025732C25643A2057616974696E67206688
:101860006C6173682074696D656F75740A0000009F
:1018700025732C25643A2055706461746520757059
:1018800067726164652073746174757320746F206E
:10189000656570726F6D206661696C65640A000031
:1018A000F8B51748D0F8150006F08CF8A0F580714F
:1018B000144C10250426B1F5407F15D900907223F1
:1018C000114A12A11C4804F0D3FC1B48FEF73FFD4F
:1018D00082B2FF231849194802F059FF42F27D7085
:1018E000A660C4E90050F8BD154901220A70C8611C
:1018F0000020087308610862A660C4E90050F8BDC2
:1019000098090120540E01206592002025732C2592
:10191000643A20465720726563656976656420697C
:101920006E76616C696420626C6F636B2073697A98
:10193000652025750A00000098050120BC150120CE
:10194000141301202DE9F0414C481225042601789A
:1019500088B0A0F59864012911D0ED23484A49A127
:10196000544804F085FC5348FEF7F1FC82B2FF2393
:101970005049514802F00BFF42F2837072E0026A54
:1019800081696FF009078A4205D0CDE90021F32370
:101990003B4A4A4921E00269032A10D2F923384A16
:1019A00047A1444804F064FC4248FEF7D0FC82B2F0
:1019B000FF234049404802F0EAFE384652E08046A4
:1019C0004068FFF7A1F8D8F81410814209D02C4ADA
:1019D000CDE9000140F201133FA1364804F048FC74
:1019E000E2E747480027DFF81CC18770D8F80430C9
:1019F000634501D1012300E002234370D8F8182089
:101A0000C0E90121D0E9038C0DF1100E03928EE89C
:101A1000021100781A4A8DE889004FF485733AA1C3
:101A2000244804F025FC2348FEF791FC82B2FF23F2
:101A30002049214802F0ABFE314804F0F0FBB8B178
:101A400040F20D130E4A3EA11A4804F011FC194849
:101A5000FEF77DFC82B2FF231649174802F097FE7D
:101A60006FF00800A660C4E9005008B0BDE8F0813E
:101A7000A660C4E900570020F7E700001413012016
:101A80008792002025732C25643A2043616E6E6F87
:101A9000742065786375746520636D642062656188
:101AA00063757365206F662077726F6E67206D6F48
:101AB00064650A0098050120BC1501200C950020E2
:101AC00025732C25643A204E6F2076616C69642062
:101AD000646174612E0A000025732C25643A20434A
:101AE0005243207665726966696564206661696C37
:101AF00065642E2025235820213D202523580A00E7
:101B0000381301200000040825732C25643A207541
:101B10007067726164655F7374617475733A2025D0
:101B200023582C2025752C2025752C2025752C203C
:101B30002523582C2025752C202523580A00000029
:101B400025732C25643A2055706461746520757086
:101B500067726164652073746174757320746F209B
:101B6000656570726F6D206661696C65640A00005E
:101B7000014800F07FBC0000FC150120016818231B
:101B8000CAB2103AB2FBF3F2054B6FF30901032A14
:101B90009B5CC36500D9091D81650846704700003C
:101BA0006794002010B5014600208B698A6A4FF0C7
:101BB000C07453B1B3F5005F15D072B1012A0CD0D7
:101BC000022A0AD0032A09D104E01AB1012A06D058
:101BD000022A03D1C96AC90100D5012010BDC96A12
:101BE000A142FAD010BD002AF7D0012AF2D0022A71
:101BF000F3D0032AF3D010BD30B50468256825F46E
:101C000080252560046863608368402B036803D0E7
:101C100099600068C26030BD9A600068C16030BDE4
:101C20007047012000F056BF4FF4005000F052BF43
:101C300070470000002229B101291DD002291ED0C1
:101C40004FF440720B2800D9001D0E490B6823F495
:101C500040730B600B6813430B600A6822F0F802B4
:101C60000A600A68022303EBC00002430A600868A6
:101C700040F48030086070474FF48072E2E74FF420
:101C80000072DFE7103C02401348016889050FD558
:101C9000016821F400710160016841F40061016094
:101CA000016821F400610160016841F40071016084
:101CB000016849050FD5016821F480610160016860
:101CC00041F480510160016821F480510160016894
:101CD00041F4806101607047003C024000F0D6BDD5
:101CE00010B586B0044613280ED200F07FFE012006
:101CF000CDE9010403900020009002200490684682
:101D000000F03CFD002800D0012006B010BD00000E
:101D100010B500F06BFE034991200860BDE810404B
:101D200000F01ABE0C3C02402DE9F0470026174691
:101D300089460546344600F059FEDFF83C8012E043
:101D400059F8242000232946022000F011FE08B192
:101D500003260CE059F824002968814201D00226AC
:101D600005E0641C2D1DBC4201D24545E8D900F0B8
:101D7000F3FD3046BDE8F087F8FF0F080E4A136800
:101D800023F44073136003290DD0012911680FD08B
:101D900041F40041116011684FF4803343EA0020A0
:101DA000014311607047116848F204031943F1E7D9
:101DB00041F00401EEE70000103C0240064A1368BF
:101DC00023F44073136013681360136843F0010336
:101DD0001360017070470000103C0240094910B5C3
:101DE0000C6824F440740C600C6844F440740C607B
:101DF0000C6844F001040C600260BFF36F8F436015
:101E000010BD0000103C0240074A136823F44073E1
:101E10001360136843F480731360136843F0010385
:101E20001360018070470000103C0240074A1368AD
:101E300023F440731360136843F400731360136852
:101E400043F001031360016070470000103C024042
:101E50001C490868C2061C4805D5C26942F0100238
:101E6000C26110220A600A68920605D5C26942F072
:101E70000802C26120220A600A68520605D5C269BA
:101E800042F00402C26140220A600A68120605D5C7
:101E9000C26942F00202C26180220A600A68D20569
:101EA00006D5C26942F00102C2614FF480720A6035
:101EB0000A68920705D5C26942F02002C261022079
:101EC000086070470C3C02409C16012070B5114917
:101ED00004460020C86100F0FDFE06460E4D09E0F4
:101EE000601C07D024B100F0F5FE801BA04201D990
:101EF000032070BD2868C003F2D42868C00701D051
:101F000001202860286810F4F970F2D0FFF7A0FFD4
:101F1000012070BD9C1601200C3C02407CB504469B
:101F200008236A461321AE2003F0CEFD050008D138
:101F30006846FEF7E1FD606001A8FEF7DDFD206068
:101F400028467CBD70B51B4D00244FF40061284627
:101F500000F0B6FE012800D120244FF4806128460D
:101F600000F0AEFE012801D144F010044FF40071DE
:101F7000284600F0A5FE012801D144F008044FF4E2
:101F80008071284600F09CFE012801D144F0040431
:101F90008021284600F094FE012801D144F002047B
:101FA0004021284600F08CFE012801D144F00104B4
:101FB000204670BD001C024070B586B00446132355
:101FC0006A460021AE2003F07FFD05001CD19DF87C
:101FD000000020709DF8010060709DF80200A07064
:101FE0006E46F01CFEF788FD6060F01DFEF784FD74
:101FF000A0600DF10B00FEF77FFDE0600DF10F001A
:10200000FEF77AFD2061284606B070BD78B5002441
:10201000009490F83C20012A19D0012280F83C203D
:102020000A6807230568092A13D9EE680A3A02EB01
:10203000420293409E43EE600B788A680A3B03EBB2
:1020400043039A400368DD682A43DA6010E0022007
:1020500078BD2E6902EB420293409E432E610B78BD
:102060008A6803EB43039A4003681D692A431A6197
:102070004A681F23072A13D205686E6B521E02EBB3
:10208000820293409E436E630A8893B20A79521E7D
:1020900002EB820293400268556B2B43536327E0A7
:1020A00005680D2A12D22E6BD21F02EB82029340DA
:1020B0009E432E630B790A88DB1F92B203EB8303E6
:1020C0009A4003681D6B2A431A6311E0EE6A0D3AC9
:1020D00002EB820293409E43EE620B790A880D3B2D
:1020E00092B203EB83039A400368DD6A2A43DA6203
:1020F0001B4B0568194A9D420AD10D68122D07D164
:10210000556825F400055560556845F4800555600F
:1021100005689D421DD1134D0B68AB4201D0112BB8
:1021200017D1536823F480035360536843F40003CA
:1021300053600968A9420CD10B490C4A0968B1FBEC
:10214000F2F101EB8101490000E0491E00910029F4
:10215000FBD180F83C40002078BD00000023014006
:1021600000200140120000101805012040420F001D
:102170000068C06C704770B504004FF0000503D0D4
:10218000206C002610B107E0012070BD204600F051
:102190001DF8666484F83C60206CC00610D4206C86
:1021A00020F4885040F0020020642046FEF708FC2E
:1021B0006664206C20F0020040F00100206400E022
:1021C000012584F83C60284670BD000008B5006811
:1021D0000649884208D10648016841F480710160CF
:1021E000006800F48070009008BD000000200140ED
:1021F000443802402DE9F041044600680D468168EC
:102200004FF0000749050BD58068C00508D5206C44
:1022100040F02000206484F83C700120BDE8F0818B
:1022200000F058FD06460FE0681C0DD025B100F007
:1022300051FD801BA84207D9206C40F004002064A7
:1022400084F83C700320E9E7206800688007EBD53C
:1022500021686FF012000860206C40F40070206468
:102260002068816811F0405F13D1217E89B9C16A6D
:1022700011F4700F02D0806840050AD4206C20F45D
:1022800080702064206CC00403D4206C40F00100F6
:1022900020640020C2E7000018B50021009190F8EA
:1022A0003C20012A07D0012280F83C200268936874
:1022B000DB0702D011E0022018BD936843F0010350
:1022C00093602A4A2A4B1268B2FBF3F202EB4202F5
:1022D00000E0521E0092002AFBD102689368DB07DF
:1022E00041D0036C40F20164A34343F48073036460
:1022F00053685B0505D5036C23F4005343F4805306
:102300000364036CDB0404D5436C23F006034364CD
:1023100000E0416480F83C1016496FF0220313601E
:1023200049680068CA06144906D088421BD18168F2
:1023300011F0405F13D016E08842F8D00F4A904267
:1023400003D1D1F80423D206F1D00D4A90420AD12C
:10235000D1F8041301F01F011029E8D303E08168CC
:1023600041F080418160002018BD00001805012067
:1023700040420F00002301400020014000210140A5
:102380000022014090F83C1001290CD0012180F876
:102390003C1001688A6822F001028A60016889683D
:1023A000C90702D007E002207047016C21F4885170
:1023B00041F001010164002180F83C10084670479B
:1023C0002DE9F0410446876D00F084FC064694F840
:1023D00035000025022806D08020606584F834503E
:1023E0000120BDE8F0812068016821F0160101603C
:1023F0002068416921F080014161206C08B9A06C1E
:1024000020B12068016821F008010160206801689E
:1024100021F0010101600BE000F05CFC801B05284D
:1024200006D92020606504F8345F03206070D8E787
:1024300020680068C007EFD194F85C103F20884006
:10244000B86004F8345F012060700020C9E790F89C
:102450003510022903D080214165012070470521F4
:1024600080F835100068016821F00101016000204A
:10247000704700002DE9F84304464FF00009CDF8FD
:10248000009063484FF41651A56D0068B0FBF1F75A
:102490002E6894F85C10082000FA01F131420FD048
:1024A00021680A6852070BD50A6822F004020A6004
:1024B00094F85C108840A860606D40F00100606591
:1024C00094F85C104FF0010808FA01F0304208D08F
:1024D00021684969090604D5A860606D40F00200D2
:1024E000606594F85C1004208840304208D0216870
:1024F0000968890704D5A860606D40F00400606534
:1025000094F85C1010208840304218D02168096887
:10251000090714D5A86020680168490304D500683C
:10252000000308D5A16C07E00168C90503D4016860
:1025300021F008010160216C09B12046884794F818
:102540005C1020208840304231D021680968C906DB
:102550002DD5A86094F8350005282068016806D0BC
:10256000490347D5006800031DD4616C1CE021F0CD
:10257000160101602068416921F080014161206CF1
:1025800008B9A06C20B12068016821F00801016041
:1025900094F85C103F208840A86084F8349084F858
:1025A0003580216D1FE0E16B09B120468847606DE1
:1025B00000282BD0606DC00714D0052084F83500AA
:1025C0002068016821F0010101600098401C009022
:1025D000B84203D820680068C007F6D184F8349068
:1025E00084F83580E16C002910D001B02046BDE8A8
:1025F000F04308470168C905D5D4016821F01001EE
:10260000016084F8349084F83580CCE7BDE8F88325
:10261000180501202DE9F041044600F05BFB064659
:102620005CB1002584F83450022084F8350020681D
:10263000016821F0010101600DE00120BDE8F08199
:1026400000F048FB801B052805D920206065032089
:1026500084F83500F2E720680068C007F0D12268EE
:10266000116820480140D4E901031843D4E9033636
:102670003343184363691843A3691843E369184354
:10268000236A18430843616A042903D1D4E90B1370
:1026900019430843106020684069666A20F007010A
:1026A00030460E43012704280CD1A06A0643E06A95
:1026B00040B12046FFF776FA20B14020606584F8EB
:1026C0003570BAE7206846612046FFF757FA94F85C
:1026D0005C203F2191408160656584F83570002061
:1026E000ACE700003F8010F02DE9F0410446866D14
:1026F00090F83400002501280DD0012084F8340022
:1027000094F835700020012F07D084F8340002259A
:102710002846BDE8F0810220FBE7022784F83570E7
:1027200060652046FFF768FA94F85C103F20884007
:10273000B0602068016841F016010160206C20B192
:102740002068016841F0080101602068016841F0DB
:1027500001010160DCE7000070B5044600F0BAFA40
:102760000546601C02D004480078044400F0B2FA28
:10277000401BA042FAD370BD0C05012070B517496B
:1027800000240A7E012A1ED0154A01230B76156803
:1027900045F080751560156845F000751560104DA1
:1027A000F3222D1F2A600268012A0ED00B70C26826
:1027B0004A608268CA60027C0A72017C8068FFF706
:1027C00039FA204670BD022070BD02220A704268AC
:1027D0000A614168007CFFF7D1FAF2E79C160120FC
:1027E000103C02400EB5401C24D140F24313144A61
:1027F00014A11F4803F03CFD1D48FDF7A8FD82B25F
:10280000FF231B491B4801F0C2FF00F0A5F81A493D
:102810000020487019494A786AB1194B01229A7010
:10282000487018488DF8002000231A466946006851
:1028300004F08CFA0EBD1448006804F0FDFB0EBDD8
:102840000D93002025732C25643A20457261736531
:1028500020666C617368206F7065726174696F6E59
:1028600020636F6D706C6574656C790A0000000000
:1028700098050120BC150120D40401201413012067
:1028800038130120EC040120E40401202DE9F0417B
:102890002F4F38682F4C10F4F97F4FF0FF384FF06E
:1028A00000050DD0207801282ED0207802282FD0C6
:1028B000D4F81460FFF7CCFA304600F057F82570D2
:1028C0003868C0070BD0012038602078012821D05B
:1028D0002078022838D06069FFF784FF25702078BF
:1028E00000280FD11A48001D016848F2FF029143E9
:1028F0000160016821F080710160016821F00071C0
:1029000001602576BDE8F081E668C4F80C80D1E767
:102910002669CFE76068401E6060606850B1E0687B
:10292000FFF760FFE068401CE060E068217AFFF795
:1029300081F9D4E74646C4F80C802570FFF7A4F966
:102940003046FFF74FFFCAE7FFF79EF92069C3E75C
:102950000C3C02409C1601200348016841F00041F4
:102960000160002070470000103C024070470000EA
:102970002DE9F0471B4E05461446307E1F4689461A
:10298000012808D0012030764CF250384046FFF73D
:102990009DFA18B114E00220BDE8F0879DB1012D29
:1029A00016D0022D19D022463B464846FFF716FAAC
:1029B0004046FFF78BFA0C490A6822F001020A60D0
:1029C00000213176E8E7E1B24846FFF7F7F9EFE793
:1029D000A1B24846FFF718FAEAE721464846FFF752
:1029E00025FAE5E79C160120103C0240074900202B
:1029F0000A68002A09DA054A054B0C3A1360054BB0
:102A000013600968002900DA01207047103C024079
:102A100023016745AB89EFCD08B5B0F5005F24D140
:102A20004FF48051114800F04BF9012815D0FFF701
:102A300089FA00904FF4AD730D4A0EA1144803F0CB
:102A400017FC1348FDF783FC01B082B2FF23104945
:102A500010485DF804EB01F09ABE40F25713044AA7
:102A60000DA10B4803F004FCEBE708BD001C02407D
:102A70002E93002025732C25643A205377697463C4
:102A800068206E756D6265722069732025750A0075
:102A900098050120BC15012025732C25643A20538C
:102AA0007769746368207374726F626520736967F5
:102AB0006E616C20636F6D65206275742073776939
:102AC000746368206D6F6465206973207365740A90
:102AD00000000000044910B50A68024202D00860F4
:102AE000FFF79AFF10BD0000143C01402DE9F84F9C
:102AF00000224FF0010803254FF00F0E0B6808FA73
:102B000002F42340A3426ED14E68012E05D0022E5E
:102B100003D0112E01D0122E12D186684FEA420C3A
:102B200005FA0CF7BE43CF6807FA0CF73743876006
:102B30004668A6430C79C4F30014944034434460BF
:102B4000C668570005FA07FC8C6826EA0C06BC40EC
:102B50003443C4604C68022C01D0122C13D1D40829
:102B600000EB8404A346D4F8209054074FEAD46ABB
:102B70000EFA0AF629EA06090E6906FA0AF646EA84
:102B80000906CBF8206004680E7924EA0C0406F0EC
:102B90000306BE40264306604C68E4006FD53B4CFC
:102BA000266846F480462660246822F0030604F472
:102BB00080440094364C3444A446D4F80848960720
:102BC000360F0EFA06F7BC43324FB84201D1002748
:102BD0002EE0314FB84201D1012729E02F4FB842F2
:102BE00002D1022724E04AE02D4FB84201D1032749
:102BF0001EE02C4FB84201D1042719E02A4FB842F9
:102C000001D1052714E0294FB84201D106270FE072
:102C1000274FB84201D107270AE0264FB84201D119
:102C2000082705E0244FB84201D1092700E00A2710
:102C3000B7402743CCF80878204E34684F689C434F
:102C4000FF0300D51C4334601C4E361D34684F68AA
:102C50009C43BF0300D51C433460184E08363468CB
:102C60004F689C43FF0200D51C433460134E0C3662
:102C700034684F689C43BF0200D51C433460521C2B
:102C8000102AFFF43BAFBDE8F88F00004438024043
:102C900000300140000002400004024000080240F1
:102CA000000C0240001002400014024000180240D4
:102CB000001C02400020024000240240003C014071
:102CC0000069084000D0012070470AB18161704757
:102CD0000904FBE701488068704700000C050120EB
:102CE00090F83D20202A01D002207047242280F84D
:102CF0003D200268136823F0010313600268536AE1
:102D000023F0100353620268536A0B435362016855
:102D10000A6842F001020A60202180F83D1000207C
:102D2000704790F83D20202A01D0022070472422CD
:102D300080F83D200268136823F0010313600368E4
:102D40005A6A22F00F020A4391B2596201680A6876
:102D500042F001020A60202180F83D1000207047F7
:102D600070B5040025D094F83D00002520B984F802
:102D70003C50204600F04CFA242084F83D002068A6
:102D8000016821F0010101602068016841F40041FF
:102D900001602068016821F40041016000F0C8FD75
:102DA0004D4A6168914201D84C4900E04C49884243
:102DB00001D2012070BD4B492368B0FBF1F15E6880
:102DC00026F03F060E435E606368934206D94FF4D7
:102DD000967359434FF47A73B1FBF3F12368491C9E
:102DE0001E6A26F03F06314319626168914210D88D
:102DF0004900401EB0FBF1F2521CC2F30B02042A40
:102E000001D2042022E0B0FBF1F0401CC0F30B0023
:102E10001CE0A268F2B301EBC10303EB0116431EF1
:102E2000B3FBF6F35B1C43F480431B0549D092B31C
:102E300001EBC10202EB0111401EB0FBF1F0401C9E
:102E4000C0F30B0040F4804040F400402168CA69A0
:102E50004CF6FF739A431043C861D4E9071001434D
:102E60002068026822F0C00211430160D4E9030126
:102E700001432068826848F2FF339A43114381601E
:102E8000D4E9050108432168CA6822F0FF02104313
:102E9000C86001E00EE016E02068016841F0010121
:102EA00001602564202084F83D00256384F83E50AD
:102EB000002070BD01EB4106431EB3FBF6F35B1C23
:102EC000B3E70120C2E701EB4101401EB0FBF1F086
:102ED000401CC0F30B00B7E7A086010080841E00F1
:102EE00000093D0040420F002DE9FF4F83B09A4694
:102EF000DDE9119793460446DDF84080FFF7EAFECE
:102F0000054694F83D00202870D11923012271490B
:102F10002046009501F0AAFD0028F5D194F83C0068
:102F2000012863D0012084F83C0020680168C907AB
:102F300003D1016841F0010101602068016821F4BA
:102F400000610160222084F83D00402084F83E00AA
:102F500000262664C4F82480A4F82A90608D208579
:102F60005D48E062CDE9007553465A462046049913
:102F700001F084FC00287CD1208DD0B1012821D023
:102F80000228206824D0416980690090208D0328A0
:102F900069D801282BD0514902283B464FF0000246
:102FA000009559D08846204601F060FD002860D188
:102FB0003CE02068416981690091016841F4007139
:102FC000016077E02068016821F480610160F0E72A
:102FD000016821F4806101602068016841F40061AA
:102FE0000160206841698069009063E06FE02A46D3
:102FF0003946204601F0B9FD98BB20680069616A36
:1030000008704EE02068016841F40071016020689A
:103010000069616A0870606A401C6062218D491E07
:103020002185618D491E6185216838E0206801682D
:1030300021F48061016020680069616A0870606A3B
:10304000401C6062208D401E2085608D401E608582
:103050003B46002241460095204601F007FD00B99D
:10306000D0E706E0FFE72A463946204601F07DFD1D
:1030700018B1012007B0BDE8F08F20680069616ACF
:103080000870606A401C6062218D491E2185618D37
:10309000491E618521684A69D24352070AD40969E9
:1030A0000170606A401C6062208D401E2085608D2A
:1030B000401E6085208D00287FF468AF202084F8B2
:1030C0003D0084F83E6084F83C600020D2E7022096
:1030D000D0E70000020010000000FFFF0400010024
:1030E0002DE9FF4F83B09A46DDE9119793460446D8
:1030F000DDF84080FFF7EEFD054694F83D002028FE
:103100007FD11923012240492046009501F0AEFCF1
:10311000002876D194F83C00012872D0012084F870
:103120003C0020680168C90703D1016841F0010132
:1031300001602068016821F400610160212084F8A9
:103140003D00402084F83E0000262664C4F8248018
:10315000A4F82A90608D20852C48E062CDE90075A6
:1031600053465A462046049901F006FC70B930E0F7
:103170002A463946204601F02BFD58B1206C042820
:1031800004D12068016841F400710160012007B09A
:10319000BDE8F08F606A216800780861606A401CB1
:1031A0006062218D491E89B22185628D521E628521
:1031B00022685369DB435B070BD469B10078106167
:1031C000606A401C6062208D401E2085608D401E1C
:1031D0006085208D0028CBD12A463946204601F053
:1031E0001FFC0028CAD154F83D0B016841F400715E
:1031F0000160202004F81E09E67766770020C6E704
:10320000FFE70220C3E70000020010000000FFFFFC
:103210002DE9F04F87B0044614216846FDF78CF87D
:10322000374D2268DFF8DC80364C0426002301216C
:1032300003204FF0120B08F11008AA423DD18A4634
:1032400081464022304FCDE9002ACDE90239694656
:103250003846FFF74BFC0025012240213846FFF796
:1032600034FD0120FFF778FA002240213846FFF7AD
:103270002CFD0120FFF770FA6D1C0A2DECDB206895
:1032800040F0020020602068CDF808A000F00200A5
:103290000590C020CDE9000BCDE90396694638467C
:1032A000FFF724FCD8F8001041F40011C8F8001012
:1032B000D8F8000000F400101DE0144B9A421BD116
:1032C000226842F0200222602268CDE9000BCDE99D
:1032D000021002F02002CDE9046269460C48FFF7B3
:1032E00005FCD8F8001041F48001C8F80010D8F8A7
:1032F000000000F48000059007B0BDE8F08F0000EA
:1033000000540040303802400004024000580040A1
:103310000014024070B5040011D021684CF6CC4076
:103320000860216845F255500860D4E90001416009
:103330002168A0688860FFF7CDFC054609E0012000
:1033400070BD00BFFFF7C6FC401B302801D9032029
:1033500070BD2068C0680028F4D121684AF6AA2010
:103360000860002070BD00684AF6AA2101600020B4
:1033700070470000024881680278114481607047FC
:103380000C0501200B4810B5016841F40071016083
:10339000016841F480610160016841F4807101605D
:1033A000032000F097F8002000F006F800F03EF847
:1033B000002010BD003C024010B5014688B000223C
:1033C0001A2000F067F81A2000F056F8134800247D
:1033D000016841F480210160006805A900F48020A3
:1033E0000690684600F084FA00F0B2FA0C494000FA
:1033F000B0FBF1F10C480B4A491E026040F2E73283
:10340000C0E90324C0E9011400F0E8FE10B1012076
:1034100008B010BD044800F0FDFEF9E74438024052
:1034200040420F00004801405C160120114808B5D9
:10343000016841F480410160006800F48040009020
:103440000C48001F016841F08051016000680022B3
:1034500000F0805000900F21901E00F01BF8002219
:103460000521042000F016F8BDE80840042000F013
:1034700003B8000044380240002809DB00F01F02B6
:10348000012191404009800000F1E020C0F80011C6
:1034900070470000F0B40E4B1B680C46C3F30223C8
:1034A000C3F10705042D00D90425191D072901D2F0
:1034B000002300E0DB1E012606FA05F1491E21402B
:1034C00099409E40761E16403143F0BC02F0E4BEA7
:1034D0000CED00E0064900F0070208684FF6FF0314
:1034E000184040EA0220034A104308607047000079
:1034F0000CED00E00000FA052DE9F84317480168DB
:1035000041F0805101600068154F00F080500126A5
:1035100000903E64FFF7DEFB05464FF47A78114CCD
:1035200005E000BFFFF7D6FB401B40450DD86068A3
:10353000C003F7D57E64FFF7CDFB0546464607E09E
:10354000FFF7C8FB401BB04202D90320BDE8F88357
:1035500060688003F4D50020F8E70000403802409E
:1035600000000E42007000402DE9F84F044600684C
:10357000DFF824A2894F8A4DC1074FF001084FF0B0
:10358000000603D1810701D4400648D5CAF8686017
:10359000FFF7A0FB814605E0FFF79CFBA0EB0900CD
:1035A00002287DD828680001F6D42078C1077D481C
:1035B00005D06168227A890141EA027101602178AF
:1035C000890711D501686268237B9201C1F30271FA
:1035D00042EA036242EA017101603968E26921F05E
:1035E0001F01521E114339602178490608D56168D0
:1035F000227B890141EA0261227A41EA027101607B
:10360000CAF86880FFF766FB814605E0FFF762FBBA
:10361000A0EB0900022843D828680001F6D52068ED
:10362000410701D400074ED5CAF87060FFF752FB7E
:10363000814605E0FFF74EFBA0EB090002282FD8DA
:103640002868C0438000F5D520784107564814D536
:1036500001682269237D9201C1F3027142EA03628B
:1036600042EA017101603968226A6FF0FF0321F4B8
:10367000F85103EB0222114339602178090712D572
:1036800001682269C1F30361920142EA0161227E6D
:1036900041EA027101603868616A20F4403000E05C
:1036A00051E008433860CAF87080FFF713FB074603
:1036B00005E000BFFFF70EFBC01B022843D82868B7
:1036C000C0438000F6D42078800653D5344840307B
:1036D000016841F0805101600068344D00F0805075
:1036E0000090286840F480702860FFF7F3FA0746DE
:1036F00005E000BFFFF7EEFAC01B022823D82868B8
:10370000C005F7D5274D143D286810F4407020D02F
:10371000218D01F4407181421BD0286820F4407152
:103720002348C0F80080066029602868C00710D0D0
:10373000FFF7D0FA064641F2883707E0FFF7CAFAEA
:10374000801BB84202D90320BDE8F88F28688007A3
:10375000F4D5A16A1248C1F301220830032A13D01C
:10376000016821F4F81101602868218DC1F30B0173
:10377000084328602078C00604D50E4994F82C0030
:10378000C1F8E0010020DFE702680B4B22F4F812D9
:1037900019400A430260E7E7000047428C380240C4
:1037A00000380240843802408838024000700040EF
:1037B000400E474200104742FFFCFF0F2DE9F04743
:1037C0000E46050065D0DFF81481D8F80000F7B286
:1037D00000F00F00B04207D288F80070D8F800005F
:1037E00000F00F00B04254D128683D4C810712D53B
:1037F000400703D5206840F4E05020602878000797
:1038000003D5206840F4604020602068A96820F05B
:10381000F000084320602878C0072DD03049686840
:103820000839012812D0022813D0032811D00968C2
:10383000890700292DDA216821F003010143216065
:10384000FFF748FA814641F2883A0EE00968890399
:10385000EFE709688901ECE7FFF73CFAA0EB090103
:10386000514502D90320BDE8F0872068696800F05F
:103870000C00B0EB810FEFD1D8F80010404601F0FA
:103880000F01B14207D90770006800F00F00B04285
:1038900001D00120E7E72878400705D52068E968CE
:1038A00020F4E050084320602878000706D52068FF
:1038B000296920F4604040EAC100206000F058F817
:1038C0002168084AC1F30311515CC84006490860E9
:1038D00006480068FFF770FD0020C4E7003C024086
:1038E000083802406F9400201805012010050120BF
:1038F0000F2202600C4A136803F00303436013684D
:1039000003F0F0038360136803F4E053C3601268AC
:103910004FF4E05303EAD20202610448006800F069
:103920000F0008607047000008380240003C024069
:103930000448054900680968044AC1F38221515CC2
:10394000C840704718050120083802407F940020C5
:103950000448054900680968044AC1F34231515CD2
:10396000C840704718050120083802407F940020A5
:10397000154810B5006810F00C02144813D041101F
:10398000042A0FD0082A0ED10F4C241F2268236866
:1039900002F03F025B0207D52068C0F38810A0FB4D
:1039A000010106E0084610BD2168C1F38811A1FBA2
:1039B00000010023FCF776FC2168C1F30141491C9A
:1039C0004900B0FBF1F010BD083802400024F400BB
:1039D0002DE9F84F040076D02078DFF838A3CE4DDB
:1039E000C00749D0DAF800105046C1F3810101291F
:1039F00008D00068C0F3810002280AD1281D0068A1
:103A0000400206D52868800336D560680028E2D0D9
:103A100032E06068B0F5803F10D0B0F5A02F286884
:103A200010D020F480302860286820F4802028609E
:103A30006068A0B1FFF74EF906460CE0286840F434
:103A40008030F4E740F480202860F7E7FFF742F980
:103A5000801B642873D828688003F7D50CE0FFF733
:103A600039F9064605E000BFFFF734F9801B6428EA
:103A7000F0D828688003F7D42078DFF8A082800788
:103A80004FF000093ED5DAF80010504611F00C0F47
:103A900009D00068C0F3810002280BD19D48001FA7
:103AA0000068400206D42868800715D5E068012820
:103AB00009D111E0E068B8B10120C8F80000FFF7B3
:103AC00009F9064605E020E1FFF704F9801B02280A
:103AD000C0D828688007F7D52868216920F0F80049
:103AE00040EAC10028600DE0C8F80090FFF7F2F846
:103AF000064604E0FFF7EEF8801B02281FD828686E
:103B00008007F7D42078000722D5824E8448616967
:103B10006C3671B101210160FFF7DCF8074604E063
:103B2000FFF7D8F8C01B022809D830688007F7D5FE
:103B30000EE0C0F80090FFF7CDF8074605E082E000
:103B4000FFF7C8F8C01B02287DD830688007F7D47B
:103B50002078400768D5DFF8BCB100270BF1380B9F
:103B6000DBF80000C0000BD4DBF8001041F08051FE
:103B7000CBF80010DBF80000012700F08050009027
:103B8000684E3068C00510D4306840F480703060F2
:103B9000FFF7A0F8009005E0FFF79CF80099401AA5
:103BA000022850D83068C005F6D55A4EA06868364D
:103BB00001280FD00528306810D020F001003060B7
:103BC000306820F004003060A068B8B1FFF782F8D8
:103BD00000900FE0306840F00100F4E740F004008E
:103BE0003060F7E7FFF776F80099411A41F2883024
:103BF000814266D830688007F4D50EE0FFF76AF896
:103C0000009007E0FFF766F80099411A41F288300A
:103C1000814256D830688007F4D42FB1DBF8001009
:103C200021F08051CBF80010A069D0B3DAF8002061
:103C30005146C2F38102022A4AD00228484607D0E0
:103C4000C8F8600000E03CE0FFF744F804463BE0C1
:103C50004746C8F86000FFF73DF8064605E000BF9C
:103C6000FFF738F8801B02282BD828688001F7D48A
:103C7000D4E907010843A16A2B4A490802EB014134
:103C8000626A41EA8211084394F82C1040EA01610B
:103C90002048001F016001203866FFF71BF804462A
:103CA00005E034E0FFF716F8001B022809D8286861
:103CB0008001F7D52BE000BFFFF70CF8001B0228AE
:103CC00002D90320BDE8F88F28688001F4D41EE0F3
:103CD0000128F7D00868E26900F48001914214D10C
:103CE000226A00F03F0191420FD147F6C071626A2B
:103CF0000140914209D1A26A00F44031914204D1BD
:103D0000E16A00F07060884201D00120DAE700200B
:103D1000D8E700000838024000380240000047425F
:103D2000800E4742007000400000FFFF10B50068A1
:103D30000B4641680D480140080CD870C1F30424BB
:103D40005C7001F03F049C70C1F34231197052B9AC
:103D500001F088FED870587801F084FE5870987889
:103D600001F080FE9870002010BD00003FFFFF00B2
:103D700010B50B460168896A596001680969C1F389
:103D80000E019960006801680E480140C1F30540CA
:103D90001870C1F306245C7001F07F049C7040240D
:103DA00004EA1141D97052B901F05CFE18705878DC
:103DB00001F058FE5870987801F054FE9870002079
:103DC00010BD00007F7F7F0070B5040002D0607FCF
:103DD00010B106E0012070BD00202077204600F0E1
:103DE00049F8022060772168CA2048622168532080
:103DF0004862204601F04AFEFF25042618BB2068D1
:103E000081681B4A1140816021688868626810439C
:103E1000D4E904231A43104388602168E0680861EC
:103E200020680169228941EA024101612068C16874
:103E300021F08001C16020688068800607D4204698
:103E400000F0FEF818B1206845626677C2E7206886
:103E5000016C21F4802101642068016CA269114386
:103E600001642068456201206077002070BD000079
:103E7000BFFF8FFF00680349884202D10249012039
:103E800008607047002800403C0E47422DE9F0478B
:103E90000446007F0B4601281FD04FF0010984F82B
:103EA0001C9002206077DAB19878D97840EA014511
:103EB00058781978000240EA413005432168CA2049
:103EC0004862216853204862204601F0DFFD002649
:103ED000FF274FF0040860BB1AE00220BDE8F0871E
:103EE0005878C10603D500F0EF000A305870D87832
:103EF00001F0C1FD0204587801F0BDFD42EA002244
:103F0000987801F0B8FD0243187842EA4035D5E7C9
:103F10000F480540206845602068C16821F0800195
:103F2000C1602068806880060AD4204600F088F8C6
:103F300030B12068476284F81D8026770120CDE7E4
:103F40002068476284F81D9026770020C6E70000AD
:103F50003FFFFF002DE9F0470446007F0D46012892
:103F600027D04FF0010A84F81CA002206077206857
:103F7000002680684FEA4060F2B1002800DBEE7056
:103F8000A878297840EA01476878E978000240EA91
:103F9000014007432168CA204862216853204862D3
:103FA000204601F073FD4FF0FF084FF00409A0BB5D
:103FB00016E00220BDE8F087002800DBEE702878CC
:103FC00001F059FD0204687801F055FD42EA002233
:103FD000A87801F050FD0243E87842EA0047D9E7AB
:103FE00016480740206807602068816821F4802116
:103FF0008160D5E90301084321688A68104388601D
:104000002068C16821F08001C16020688068800656
:104010000BD4204600F014F838B12168C1F8248090
:1040200084F81D9026770120C4E72168C1F8248018
:1040300084F81DA026770020BCE700007F7F7F006A
:1040400070B504460068C16821F0A001C160FEF7A8
:1040500041FE05464FF47A7607E000BFFEF73AFED0
:10406000401BB04201D9032070BD2068C0688006A3
:10407000F4D5002070BD70B5040005D00025A56200
:1040800094F8510010B106E0012070BD84F8505042
:10409000204600F031F8022084F8510020680168C1
:1040A00021F040010160D4E901010843D4E9031281
:1040B0001143084361690843218B01F400710843EF
:1040C000E1690843216A0843A16A0843216808603E
:1040D000A069042101EA1040616A08432168486030
:1040E0002068C16921F40061C1616565012084F81F
:1040F0005100002070BD0000F0B587B004461421C7
:104100006846FCF719F92E482C4F266800222C49E6
:104110001438022303240525BE4215D10E6846F447
:1041200080560E60096801F480510591016841F0E4
:10413000010101600068694600F001000590E0207F
:10414000CDE900031F4818E01F4FBE421CD10E6886
:1041500046F400560E60096801F4005105910168AB
:1041600041F0100101600068694600F01000059000
:104170004FF4E040CDE90003144802AE86E8340075
:10418000FEF7B4FC07B0F0BD114FBE42FAD10E6885
:1041900046F480160E60096801F4801105910168EB
:1041A00041F0200101600068694600F020000590A0
:1041B0004FF46070CDE900030648DEE700300140AF
:1041C0004438024000000240003401400010024028
:1041D00000500140001402407047704710B50400C1
:1041E00003D094F83D0010B107E0012010BD00207D
:1041F00084F83C00204600F00CF8022084F83D00D2
:10420000211D206801F038FD012084F83D000020C8
:1042100010BD70470168CA6842F00102CA600068B8
:10422000816801F00701062903D0016841F001010E
:10423000016000207047704770B50446006801694E
:104240004FF00005C943890715D4C168C9438907E0
:1042500011D4E91E01610120207720688069800760
:10426000204602D0FFF7E7FF04E000F098F8204670
:1042700000F096F8257720680169C943490717D4EB
:10428000C168C943490713D46FF0040101610220DA
:1042900020772068806910F4407F204602D0FFF725
:1042A000CAFF04E000F07BF8204600F079F825779B
:1042B00020680169C943090716D4C168C9430907C1
:1042C00012D46FF008010161042020772068C069D2
:1042D0008007204602D0FFF7AEFF04E000F05FF851
:1042E000204600F05DF8257720680169C943C906BA
:1042F00017D4C168C943C90613D46FF01001016116
:10430000082020772068C06910F4407F204602D042
:10431000FFF791FF04E000F042F8204600F040F87B
:10432000257720680169C943C90708D1C168C94315
:10433000C90704D1891E0161204600F033F82068C6
:104340000169C943090609D4C168C943090605D4EE
:104350006FF0800101612046FFF73EFF2068016990
:10436000C943490609D4C168C943490605D46FF059
:1043700040010161204600F01FF820680169C9432F
:1043800089060BD4C168C943890607D46FF02001A0
:1043900001612046BDE87040FFF71FBF70BD704748
:1043A0007047000000680349884201D1FEF7E2BF70
:1043B0007047000000480140704710B5044600688F
:1043C000416994F83920C1F3C011212A0BD151B1B0
:1043D000416921F080014161206B08B1FDF7F0FFD8
:1043E000204601F025FD2068416994F83A20C1F388
:1043F0008011222A0BD151B1416921F04001416164
:10440000606B08B1FDF7DCFF204601F003FD0020E2
:1044100010BD704770B5026804461068D1685369D2
:1044200010F00F0F52D003F0010501F490762E43E7
:104430005FD0C20705D0CA0503D5E26B42F0010286
:10444000E263420705D5DA0703D0E26B42F00202CD
:10445000E263820705D5DA0703D0E26B42F004027B
:10446000E263020707D501F020022A4303D0E26B82
:1044700042F00802E263E26B002A33D0800604D5E2
:10448000880602D5204601F0DCFC20684069E16B1B
:10449000C0F38010090700D428B3204601F0BAFC0D
:1044A0002068416949061AD5416921F040014161FE
:1044B000606BA0B11B490165606BFDF7C8FF002868
:1044C00010D0606B016DBDE870400847830610D5C1
:1044D0008B060ED52046BDE8704001F0B2BC2046E8
:1044E000FFF797FF70BD2046FFF793FF0020E063C2
:1044F00070BD030606D50B0604D52046BDE8704006
:1045000001F07EBD4006F3D54806F1D5D1682046BE
:1045100021F04001D160202184F8391000F094F995
:1045200070BD0000755D002070B5040004D094F8E3
:104530003900002510B106E0012070BD84F8385024
:10454000204600F023F8242084F839002068C16850
:1045500021F40051C160204601F0BEFC20680169D1
:1045600021F4904101612068416921F02A014161F3
:104570002068C16841F40051C160E563202084F8DF
:10458000390084F83A00002070BD0000F0B587B013
:10459000064614216846FBF7CFFE334F30680025EE
:1045A0003249022203230724B8423DD12F48143058
:1045B000076847F010070760006800F010000590DA
:1045C000086840F0010008600868694600F00100D2
:1045D000059058028DE82500CDE903342448FEF704
:1045E00085FA254C234820604FF00060C4E901059E
:1045F0004014C4E9035065614FF44030A561C4E93B
:10460000075020466562FEF705F808B1FDF710FB7C
:104610007463002205212520A663FEF73BFF2520B9
:10462000FEF72AFF07B0F0BD144EB042FAD10F4892
:104630001030066846F480260660006800F480208A
:104640000590086840F0080008600868694600F0B6
:10465000080005904FF440708DE82500CDE9033443
:104660000748FEF743FADDE700100140303802400A
:104670000000024040640240FC1501200048004058
:10468000000C0240F8B5044690F83A0020283CD1CE
:10469000C1B3BAB394F83800012836D0012084F8A9
:1046A0003800A162A2850025E563222084F83A0043
:1046B000636B1748D863636B16481864636B1648BE
:1046C000D864606B134605650846666B2168024630
:1046D0003046091DFEF708F820680168416800911E
:1046E00084F83850C16841F48071C1602068416924
:1046F00041F0010141612068416941F0400141619F
:104700000020F8BDFFE70120FBE70220F9E70000E9
:10471000CF5D00200B5E0020855D002090F83A30D0
:10472000202B22D1F9B1F2B190F83830012B1CD0F6
:1047300081628285C2850021C163222280F83A20ED
:1047400080F838100168CA6842F48072CA60016853
:104750004A6942F001024A610068C16841F02001E3
:10476000C1600020704701207047022070470000A0
:1047700000680449884203D10348006802F05CBC29
:104780007047000000100140DC04012070472DE953
:10479000F843044690F839001F4616460D46202877
:1047A00050D1B5B1AEB194F8380001284AD00120FB
:1047B00084F838004FF00008C4F83C80212084F8C9
:1047C0003900FEF787FAA6848146E68484F83880AB
:1047D00026E00120BDE8F883E08C401EE084A0685C
:1047E0004B46B0F5805F4FF000024FF0800120464D
:1047F000009703D001F035FCE8B90DE001F031FC81
:10480000C8B928882168C0F308004860206908B149
:104810006D1C05E0AD1C03E0216815F8010B486034
:10482000E08C0028D8D14B4600224021204600973A
:1048300001F017FC08B10320CCE7202084F83900F0
:104840000020C7E70220C5E77047FEE701684A6914
:10485000D24352050FD46FF480624A61002140F8C0
:10486000301F202242738173026942F00402026108
:104870000173012070470020704700002DE9F84FB8
:104880000446006889460B9D01689846174641F426
:10489000806101602068016841F4807101600095C9
:1048A0004FF0011B0022594620460A9B00F0DEF81B
:1048B0004FF4007A40B120680068C00501D5C4F803
:1048C00040A00320BDE8F88F216809F0FE000861D0
:1048D0002B46284920460A9A00F0FCF8F0BB2068D5
:1048E0004169806900902A4620460A9900F070F9D3
:1048F00040B1206C04283AD12068016841F400716D
:10490000016034E0FEB2B8F1010F09D02168380A25
:1049100008612A4620460A9900F05AF90028E8D191
:10492000206806612A4620460A9900F051F90028BD
:10493000DFD12068016841F4807101600095002298
:10494000594620460A9B00F091F80028B3D121680F
:1049500009F0FF0040F00100086100E007E02B468D
:10496000044920460A9A00F0B5F80028AAD0012090
:10497000A8E70000020001002DE9F84304460068A2
:104980000D46DDE9089701689846164641F48071A6
:1049900001604B4600224FF001112046009700F0C5
:1049A00065F848B120680068C00502D54FF4007072
:1049B00020640320BDE8F883216805F0FE0008614B
:1049C0003B464A461549204600F084F888B92068DD
:1049D0004169806900903A464946204600F0F8F85F
:1049E00048B1206C042804D12068016841F40071AA
:1049F00001600120DEE7F5B2B8F1010F09D02168AE
:104A0000300A08613A464946204600F0E1F800289D
:104A1000E7D1206805610020CCE70000020001001A
:104A200070B516460D4604460DE02046FFF70EFF12
:104A300008B1012070BD681C05D0FEF74BF9801B42
:104A4000A84207D835B120684069C0434007ECD47C
:104A5000002070BD002044F8300F20216173A07346
:104A6000216941F0200121612073E2E72DE9F0473F
:104A70001E4690460D460446C1F30747DDF82090D8
:104A800008E0701C06D0FEF725F9A0EB0900B04243
:104A90000FD876B12068012F18D0806925EA000070
:104AA0000004000C14D000214145EAD00020BDE8EC
:104AB000F087002044F8300F20216173A073216932
:104AC00041F02001216120730120F0E74069E5E712
:104AD0000121E9E72DE9F0479A4691460E46044642
:104AE00000254FF02008C1F3074725E02068406902
:104AF000C043400514D42068016841F4007101608E
:104B000021686FF480604861256384F83D8084F8F3
:104B10003E50206C40F00400206484F83C501FE0BC
:104B2000B9F1FF3F08D0FEF7D5F8A0EB0A014945DF
:104B30000CD8B9F1000F09D02068012F13D080697B
:104B400026EA00000004000C0BD0CFE744F8305FE9
:104B500084F80D80A573206940F020002061257342
:104B60000120BDE8F0874069EAE72DE9F041002522
:104B700090460E460446202717E04069C043C00611
:104B80000CD454F8301B6FF01000486144F81059F1
:104B90006777A577206A2062257717E0FEF79AF8F5
:104BA000A0EB0800B04208D83EB120684169C94373
:104BB0004906E2D40020BDE8F08144F8305F677315
:104BC000A573206940F02000206125730120F2E7E1
:104BD00070B516460D4604460DE02046FFF736FE3A
:104BE00008B1012070BD681C05D0FEF773F8801B6A
:104BF000A84207D835B120684069C0430006ECD40C
:104C0000002070BD002044F8300F20216173A07394
:104C1000216941F0200121612073E2E73EB564245F
:104C20009BB28DE81C0080B20A4601461023024860
:104C3000FEF75AF93EBD0000A01301202DE9FE4FFA
:104C40000027DFF868B091460E4682461D46B846FA
:104C50003A4620215846FEF738F81DE006F03F009E
:104C6000C0F14004AC4200DB2C466422A1B209EB47
:104C700007008DE807001FFA8AF1102332460C481E
:104C8000FEF72EFA5FEA000808D1301986B22D1B14
:104C900027440A2001F076FF002DDFDC01222021CD
:104CA0005846FEF712F84046BDE8FE8F0004024069
:104CB000A013012010B50B46014614461846FBF719
:104CC00022FB204610BD2DE9F041154688460646D8
:104CD000002402F00307FDF789FE1CE0201DA84216
:104CE0000FD900200246B84203D2231818F8031047
:104CF00000E02021C30099400A43401C0428F2D35D
:104D000002E008EB04000268002331460220FDF7B0
:104D10002FFE241D361DAC42E0D3FDF71DFE2046BC
:104D2000BDE8F0812DE9F0410646080640EA014061
:104D300040EA0125174600240D43FDF757FE07E022
:104D40002A46002331460220FDF712FE241D361D9F
:104D5000BC42F5D3FDF700FE2046BDE8F08100001F
:104D60007FB50024154800940194029412490394DD
:104D700001604FF48031C0E901140461047680F8C9
:104D800020400F49C0E90A140125C561C46080F8BC
:104D900030404561FDF7EFF908B1FCF749FF0948DC
:104DA000CDE90005694602940448FDF72FF9002873
:104DB00001D0FCF73DFF7FBD0020014058130120CA
:104DC0000100000F12000010094808B5016841F405
:104DD000800101600068002200F48000009005213D
:104DE0003A20FEF757FBBDE808403A20FEF744BBE7
:104DF0003038024010B500221146012002F0C4F8FC
:104E0000244C002211466060012002F0BDF800220F
:104E1000A0601146012002F0B7F8E06000220C21EA
:104E2000062001F059FF206100220C21062001F02C
:104E300053FF6061184801F0FFFF174AA061C432B8
:104E40000021164802F030F9134A20633432002161
:104E5000134802F029F9104A20621032002111484B
:104E600002F022F90C4AE061583200210E4802F0AB
:104E70001BF9094A60627C3200210C4802F014F9E7
:104E8000054AA062A0320021094802F00DF9E06253
:104E900010BD0000D804012060930020795B002041
:104EA000C97900204D67002001830020256800207B
:104EB000196900202DE9F04786B014216846FBF7F8
:104EC0003BFA54480024016841F002010160016886
:104ED00001F002010591016841F0010101600168E2
:104EE00001F001010591016841F0200101600168B4
:104EF00001F020010591016841F080010160016825
:104F000001F080010591016841F480710160016840
:104F100001F480710591016841F0100101600168A0
:104F200001F010010591016841F00801016000687D
:104F3000394F00F008000590002220213846FDF787
:104F4000C4FEDFF8D880002244214046FDF7BDFEB4
:104F5000DFF8CC90002210214846FDF7B6FEDFF8BE
:104F6000C4A0FE14002231465046FDF7AEFE2020BC
:104F700000900125CDE90154694638460394FDF7B8
:104F8000B5FD680300902848CDE90105274F694623
:104F90003846FDF7ABFD26480095CDE9010469468A
:104FA0002448FDF7A3FD44200090CDE90154694653
:104FB00040460394FDF79AFD4FF4FE50CDE90004FE
:104FC000694638460294FDF791FD10200090CDE926
:104FD0000154694648460394FDF788FD0096CDE9E3
:104FE0000154694650460394FDF780FD00220521D7
:104FF0000620FEF74FFA0620FEF73EFA00220521B2
:105000002820FEF747FA2820FEF736FA06B0BDE85A
:10501000F0870000303802400004024000140240D3
:10502000000002400010024000002110001C02405D
:105030000000111000200240144810B51249016010
:105040001349416000214FF480428160C0E903129E
:1050500041618161C1610162FDF782FE08B1FCF727
:10506000E7FD00210948FDF73BFE08B1FCF7E0FD34
:1050700000210648FDF755FE002803D0BDE810408A
:10508000FCF7D6BD10BD000000540040A013012065
:10509000A0860100144810B512490160134941600F
:1050A00000214FF480428160C0E9031241618161B7
:1050B000C1610162FDF754FE08B1FCF7B9FD0021A2
:1050C0000948FDF70DFE08B1FCF7B2FD00210648C6
:1050D000FDF727FE002803D0BDE81040FCF7A8BD6F
:1050E00010BD000000580040F4130120A08601000C
:1050F000094810B5074901600321416040F2DC51C5
:105100008160FEF707F9002803D0BDE81040FCF7E6
:105110008FBD10BD00300040481401200B4810B571
:105120000949016000217C22C0E90112FF22C0E987
:10513000032141618161FEF747FE002803D0BDE8ED
:105140001040FCF775BD10BD00280040541401202C
:105150000F4810B50D4901604FF482714160002184
:105160008160C1604FF400720161C0E90512C16144
:105170000162416281620A21C162FEF77CFF002860
:1051800003D0BDE81040FCF753BD10BD0030014016
:10519000741401200F4810B50D4901604FF482715D
:1051A000416000218160C1604FF400720161C0E97B
:1051B0000512C1610162416281620A21C162FEF78A
:1051C0005AFF002803D0BDE81040FCF731BD10BDE8
:1051D00000340140CC1401200F4810B50D49016086
:1051E0004FF48271416000218160C1604FF4007210
:1051F0000161C0E90512C1610162416281620A2157
:10520000C162FEF738FF002803D0BDE81040FCF76C
:105210000FBD10BD00500140241501200C4810B5F1
:105220000A4901604FF4E1314160002181600C22A4
:10523000C160C0E904128161C161FFF775F90028FE
:1052400003D0BDE81040FCF7F3BC10BD00100140D6
:105250007C1501200C4810B50A4901604FF4E1317A
:105260004160002181600C22C160C0E904128161AB
:10527000C161FFF759F9002803D0BDE81040FCF7E1
:10528000D7BC10BD00480040BC150120FEE77047A8
:105290002DE9F043EB4F87B0E94D38680090A84600
:1052A000CC23E94AE9A1F14800F0E2FFEF48FBF71F
:1052B0004EF882B2FF23ED49ED48FFF768FAED4E54
:1052C0003068ED4C800112D52078D02340F00100E9
:1052D0002070DD4AE9A1E54800F0CAFFE348FBF78A
:1052E00036F882B2FF23E149E148FFF750FA30680F
:1052F000400112D52078D42340F002002070D24A19
:10530000E5A1DA4800F0B4FFD848FBF720F882B2F4
:10531000FF23D649D648FFF73AFA3068000112D584
:105320002078D82340F004002070C74AE1A1CF487C
:1053300000F09EFFCD48FBF70AF882B2FF23CB496D
:10534000CB48FFF724FA3068C00029D52078DC2349
:1053500040F008002070BC4ADEA1C44800F088FF7D
:10536000C248FAF7F4FF82B2FF23C049C048FFF7F2
:105370000EFA283528463968FAF7FEFFDD4825354C
:1053800001682846FAF7F8FFDB4905F114000968BF
:10539000FAF7F2FF782342460021402000F09AFEFF
:1053A0003068800012D52078EA2340F01000207089
:1053B000A54AD2A1AD4800F05BFFAC48FAF7C7FFA1
:1053C00082B2FF23A949AA48FFF7E1F930684000FB
:1053D00012D52078EE2340F0200020709A4AD2A106
:1053E000A24800F045FFA148FAF7B1FF82B2FF23BF
:1053F0009E499F48FFF7CBF93068002812DA2078E1
:10540000F22340F0400020708F4AD1A1974800F06D
:105410002FFF9648FAF79BFF82B2FF2393499448E7
:10542000FFF7B5F9306840F080703060D04D002053
:10543000287068706070FCF76BFCCE48FCF7BCFD10
:1054400080B100904FF481737F4ACBA1874800F070
:105450000FFF8648FAF77BFF82B2FF238349844817
:10546000FFF795F9C34E03AF301D0FC887E80F0053
:105470003078B27871788DE807004FF48273724A01
:10548000C9A17A4800F0F4FE7848FAF760FF82B2CA
:10549000FF2376497648FFF77AF93078AA280FD0AB
:1054A0004FF48473684ACEA1704800F0E1FE6F4863
:1054B000FAF74DFF82B2FF236C496D48FFF767F999
:1054C0007078D04FDFF840934FF00608002831D0B5
:1054D000012834D0022847D040F21B135A4ACBA1EE
:1054E000624800F0C5FE6148FAF731FF82B2FF233F
:1054F0005E495F48FFF74BF90820C5E90190CA48AB
:10550000006800904FF490734F4AC8A1574800F0CC
:10551000AFFE5648FAF71BFF82B2FF2353495448A7
:10552000FFF735F9B078002831D04FF49573464A2B
:10553000C5A149E04FF48673434AC9A118E040F27F
:105540001113414ACDA1494800F092FE4748FAF7AD
:10555000FEFE82B2FF2345494548FFF718F9CF48C0
:1055600068600720A860CAE7374A4FF48B73CCA164
:105570003E4800F07DFE3D48FAF7E9FE82B2FF2387
:105580003A493B48FFF703F9C5E90178B7E701203D
:105590006070687040F225132B4AC9A1334800F0AF
:1055A00067FE3248FAF7D3FE82B2FF232F49304814
:1055B000FFF7EDF86968494502D0A868FCF790FB51
:1055C000214A4FF49473C5A1284800F051FE2748A2
:1055D000FAF7BDFE82B2FF2324492548FFF7D7F82A
:1055E00064481430FCF79AFC624C40F22F131434D8
:1055F000154AD4E90010CDE90001BEA11B4800F016
:1056000037FE1A48FAF7A3FE82B2FF23174918485B
:10561000FFF7BDF80C4A002061680C3A02EB8003EA
:105620005B68994202D3401C0228F7D30C302072E9
:1056300007B01021BDE8F043B7A000F081BB000027
:10564000600E0120080401200493002025732C25FE
:10565000643A204669726D7761726520766572736F
:10566000696F6E3A2025730A00000000980501203A
:10567000BC15012074380240D404012025732C2568
:10568000643A20424F52205265736574206973203A
:105690007365740A0000000025732C25643A2050BD
:1056A000494E205265736574206973207365740ACE
:1056B0000000000025732C25643A20504F522F50D3
:1056C0004452205265736574206973207365740AAF
:1056D0000000000025732C25643A20536F66747710
:1056E00061726520526573657420697320736574F7
:1056F0000A0000000C0401201004012025732C2551
:10570000643A20496E646570656E64656E742057F6
:1057100061746368646F6720526573657420697390
:10572000207365740A00000025732C25643A205705
:10573000696E646F77205761746368646F67205285
:1057400065736574206973207365740A0000000036
:1057500025732C25643A204C6F772D506F77657236
:10576000205265736574206973207365740A0000A4
:10577000141301203813012025732C25643A204787
:1057800065742075706772616465207374617475E7
:1057900073206661696C65642C2073746174757321
:1057A000203D2025750A000025732C25643A2075BC
:1057B0007067726164655F7374617475733A2025F4
:1057C00023582C2025752C2025752C2025752C2060
:1057D0002523582C2025752C202523580A0000004D
:1057E00025732C25643A2056657269667920665FB8
:1057F00073746174652E6D61676963206661696C9D
:1058000065640A00000004080000080825732C25C0
:10581000643A20665F73746174652E72756E2069D8
:105820006E76616C69640A00143C024025732C2575
:10583000643A20464C4153482D3E4F505443522029
:105840003D202523580A000025732C25643A206644
:105850006C61736820697320656D7074790A00004B
:1058600025732C25643A20426F6F742066726F6D29
:1058700020666163746F72790A00000025732C251D
:10588000643A20426F6F742066726F6D20417070B1
:105890006C69636174696F6E20310A00000006084C
:1058A00025732C25643A20426F6F742066726F6DE9
:1058B000204170706C69636174696F6E20320A00F8
:1058C00025732C25643A20666C6173682069732007
:1058D0006E6F7420656D7074790A000025732C2535
:1058E000643A20657261736520736563746F722E0C
:1058F0002E2E0A0025732C25643A206C6F675F6694
:10590000696C655F73746174653A202523582C2097
:105910002523580A000000004F53573178363420B1
:1059200070726F6772616D0A0000000070B50E46FC
:10593000044615462CA1364800F09AFC3448FAF784
:1059400006FD82B2FF2332493248FEF720FF22468D
:1059500031A12F4800F08CFC2D48FAF7F8FC82B2F8
:10596000FF232B492B48FEF712FF00242BE02007D2
:105970000DD122092AA1264800F07AFC2448FAF722
:10598000E6FC82B2FF2322492248FEF700FF2007EF
:10599000B0F1704F02D0681E844201D122A300E012
:1059A00022A3325D22A11A4800F062FC1848FAF7DF
:1059B000CEFC82B2FF2316491648FEF7E8FE0A2005
:1059C000FCF7CAFE641CAC42D1D31CA1104800F005
:1059D0004FFC0F48FAF7BBFCBDE8704082B2FF23D2
:1059E0000B490C48FEF7D3BE2A2A2A2A2A2A2A2A39
:1059F0002A2A2A2A2A205052494E54204845582003
:105A00002A2A2A2A2A2A2A2A2A2A2A2A2A0A00006A
:105A100098050120BC15012025733A0A00000000FA
:105A200025303858203A20000A00000020000000ED
:105A30003078253032582573000000002A2A2A2A9F
:105A40002A2A2A2A2A2A2A2A2A205052494E54200F
:105A5000454E44202A2A2A2A2A2A2A2A2A2A2A2A57
:105A60002A0A0000010901EB810100F00F0000EBA0
:105A70004100C0B27047002102E00A38C0B2491CA0
:105A80000A28FAD2090740EA1160704770B5044647
:105A90000068C168490614D44FF0FF31C160FDF7BA
:105AA00019F905464FF47A7607E000BFFDF712F9C1
:105AB000401BB04201D9032070BD2068C068400679
:105AC000F4D5002070BD00002DE9F047134D884645
:105AD00081461E4617464FF4FA71286801F076F9A0
