:020000040800F2
:10000000E0B50020990100083F17000859150008C5
:100010003D170008C3030008991E000800000000F7
:10002000000000000000000000000000EB180008C5
:10003000ED03000800000000E9180008ED180008B2
:10004000B3010008B3010008B3010008B3010008C0
:10005000B3010008B3010008B3010008B3010008B0
:10006000B3010008B3010008B3010008B3010008A0
:10007000B3010008B3010008B3010008B301000890
:10008000B3010008B3010008B3010008B301000880
:10009000B3010008B3010008B3010008B301000870
:1000A000B3010008B3010008B3010008B301000860
:1000B000911900089D190008B3010008B301000858
:1000C000B3010008B3010008B3010008B301000840
:1000D000B3010008ED1D00088D1E0008B3010008E3
:1000E000B3010008B3010008B3010008B301000820
:1000F000B3010008B3010008B3010008B301000810
:10010000B3010008B3010008B3010008B3010008FF
:10011000B3010008B3010008B3010008B3010008EF
:10012000B3010008B3010008B3010008B3010008DF
:10013000B30100080000000000000000B301000847
:10014000B3010008B3010008B3010008B3010008BF
:10015000B3010008B3010008B3010008B3010008AF
:10016000B3010008B3010008B3010008B30100089F
:10017000B3010008B3010008000000000000000007
:10018000B3010008DFF80CD000F0DEF800480047AB
:1001900035280008E0B5002006488047064800479B
:1001A000FEE7FEE7FEE7FEE7FEE7FEE7FEE7FEE727
:1001B000FEE7FEE749190008850100082DE9F05F18
:1001C0000546002092469B468846064681464024C6
:1001D0001BE0284641464746224600F09FF853461A
:1001E0005A46C01A914110D311461846224600F0D3
:1001F00086F82D1A67EB01084F46224601200021A0
:1002000000F07DF817EB00094E41201EA4F1010417
:10021000DFDC484631462A464346BDE8F09F40EAC7
:1002200001039B0703D009E008C9121F08C0042A74
:10023000FAD203E011F8013B00F8013B521EF9D25B
:100240007047D2B201E000F8012B491EFBD2704783
:100250000022F6E710B513460A4604461946FFF792
:10026000F0FF204610BD421C10F8011B0029FBD1F5
:10027000801A704710B5002200E0521C835C8C5C31
:10028000A34201D1002BF8D1D8B2E1B2401A10BD7F
:1002900070B50F4D00B92868002412E00A4602E04C
:1002A0009E4203D0521C1378002BF9D1DAB22243BC
:1002B00005D02BB124B1002100F8011B04E0044655
:1002C000401C0678002EE9D12860204670BD000051
:1002D000640600202DE9F0410E460546002400E0AA
:1002E000641C285D00F02AF80746305D00F026F80F
:1002F000381A02D1295D0029F2D1BDE8F081202A07
:1003000004DB203A00FA02F1002070479140C2F16C
:10031000200320FA03F3194390407047202A04DB9E
:10032000203A21FA02F00021704721FA02F3D0406E
:10033000C2F120029140084319467047A0F14101E3
:10034000192900D820307047064C074D06E0E068B8
:1003500040F0010394E8070098471034AC42F6D30C
:10036000FFF714FFEC3300080C34000870B58C184C
:1003700010F8015B15F0070301D110F8013B2A11B9
:1003800006D110F8012B03E010F8016B01F8016BA6
:100390005B1EF9D12B0705D40023521E0DD401F8A2
:1003A000013BFAE710F8013BCB1A921C03E013F86B
:1003B000015B01F8015B521EF9D5A142D8D30020A0
:1003C00070BDFEE730B54FF0FF330022064C07E06A
:1003D000855C5D40EDB2521C54F8255085EA13232C
:1003E0008A42F5D3D84330BD54020020704770478D
:1003F00090F83510022903D0802141650120704713
:10040000052180F835100068016821F001010160C4
:100410000020704731B500F011F9009C0546601CC2
:1004200002D004480078044400F008F9401BA042C0
:10043000FAD338BD540600202DE9F84FDFF8B4B1E7
:10044000002301274FF0030A4FF00F090BF1040EB0
:10045000C9E000BF07FA03F6324070D04C68022CA6
:1004600001D0122C12D1DC0800EB840CDCF8204007
:100470005D07ED0E09FA05F824EA0804D1F81080AA
:1004800008FA05F848EA0408CCF82080D0F8008083
:100490005D0091F804C00AFA05F40CF0030C28EA98
:1004A00004080CFA05FC4CEA080CC0F800C0D1F8AE
:1004B00004C0BCF1010F08D0BCF1020F05D0BCF1A3
:1004C000110F02D0BCF1120F16D1D0F808C0D1F82C
:1004D0000C802CEA040C08FA05F848EA0C08C0F86D
:1004E0000880D0F804C02CEA060C0E79C6F300167A
:1004F0009E4046EA0C064660C668A6438C68AC403F
:100500003443C4604C68E4006CD53B4C256845F42A
:1005100080452560246823F0030504F4804400949A
:10052000364C2E19D6F808489D074FEA157C09FA73
:100530000CF5AC43324DA84202D1002529E051E030
:10054000304DA84201D1012523E02F4DA84201D111
:1005500002251EE02D4DA84201D1032519E02C4DA6
:10056000A84201D1042514E02A4DA84201D1052555
:100570000FE0294DA84201D106250AE0274DA842E7
:1005800001D1072505E0264DA84201D1082500E04C
:10059000092505FA0CF52543C6F80858DBF8004094
:1005A0005D464E689443F60300D514432C60DEF894
:1005B000004075464E689443B60300D514432C6042
:1005C0000C4D08352C684E689443F60200D5144350
:1005D0002C60084D0C352C684E689443B60200D54B
:1005E00014432C605B1C0A6832FA03F47FF432AFC8
:1005F000BDE8F88F003C0140443802400030014023
:10060000000002400004024000080240000C0240CA
:10061000001002400014024000180240001C02407A
:100620000020024042690A4200D0090481617047FB
:100630000AB1816170470904FBE700000148806846
:100640007047000054060020024881680278114477
:1006500081607047540600200B4810B5016841F4D2
:1006600000710160016841F480610160016841F43A
:1006700080710160032000F06FF8002000F006F8A0
:1006800000F024F8002010BD003C024070B50D4D74
:1006900004464FF47A712878B1FBF0F00A490968F2
:1006A000B1FBF0F000F010FB48B9102C07D200228B
:1006B0002146501E00F030F800206C6070BD012013
:1006C00070BD000054060020600600200A4808B5EE
:1006D000016841F480410160006800F480400090AE
:1006E0000548001F016841F080510160006800F07A
:1006F0008050009008BD000044380240002809DB0B
:1007000000F01F02012191404009800000F1E0202B
:10071000C0F8001170470000F0B40E4B1B680C4687
:10072000C3F30223C3F10705042D00D90425191DC5
:10073000072901D2002300E0DB1E012606FA05F19D
:10074000491E214099409E40761E16403143F0BC20
:1007500001F0B8BB0CED00E0064900F007020868A4
:100760004FF6FF03184040EA0220034A1043086096
:10077000704700000CED00E00000FA052DE9F0479D
:100780000E46050063D0DFF81C81D8F80000F7B2F0
:1007900000F00F00B04207D288F80070D8F80000CF
:1007A00000F00F00B04252D128683F4C810712D5AB
:1007B000400703D5206840F4E05020602878000707
:1007C00003D5206840F4604020602068A96820F0CC
:1007D000F000084320602878C0072BD032496868B1
:1007E0000839012810D00968022810D0890700298B
:1007F0002DDA216821F0030101432160FFF71EFF7C
:10080000814641F2883A0EE009688903EFE78901E1
:10081000EDE700BFFFF712FFA0EB0901514502D938
:100820000320BDE8F0872068696800F00C00B0EB99
:10083000810FEFD1D8F80010404601F00F01B1420E
:1008400007D90770006800F00F00B04201D0012006
:10085000E7E72878400705D52068E96820F4E050EC
:10086000084320602878000706D52068296920F40D
:10087000604040EAC100206000F04EF82168F0229C
:1008800092FAA2F201F0F001B2FA82F2D140074AE4
:10089000515CC8400649086006480068FFF7F6FE4C
:1008A0000020BEE7003C0240083802404433000804
:1008B00060060020580600200848094900680968B9
:1008C0004FF4E05292FAA2F201F4E051B2FA82F24D
:1008D000D140044A515CC8407047000060060020C7
:1008E000083802405433000808480949006809687C
:1008F0004FF4604292FAA2F201F46041B2FA82F23D
:10090000D140044A515CC840704700006006002096
:100910000838024054330008154810B5006810F03C
:100920000C02144813D01449042A0FD0082A0ED1FF
:100930000F4C241F2268236802F03F025B0207D598
:100940002068C0F38810A0FB010106E0084610BD36
:100950002168C1F38811A1FB00010023FFF72EFCE1
:100960002168C1F30141491C4900B0FBF1F010BD01
:10097000083802400024F40040787D012DE9F84F4A
:10098000040079D0DFF830B32078ABF10408C00759
:10099000A8F1040536D0DBF800105846C1F38101F8
:1009A000012908D00068C0F3810002280AD1D8F8D4
:1009B0000000400206D52868800323D5606800281F
:1009C000DFD01FE0BC492079891F0870606860B1E2
:1009D000FFF734FE064604E0FFF730FE801B642874
:1009E00074D828688003F7D50CE0FFF727FE064689
:1009F00005E000BFFFF722FE801B6428F0D82868BE
:100A00008003F7D42078AD4E80074FF0000943D51E
:100A1000DBF80010584611F00C0F4FF0F80A08D020
:100A20000068C0F3810002280AD1D8F80000400213
:100A300006D42868800713D5E06801281CD10FE090
:100A4000E068D0B101203060FFF7F8FD074604E010
:100A5000FFF7F4FDC01B0228C2D828688007F7D52D
:100A600028689AFAAAF22169B2FA82F220F0F80014
:100A70009140084328600FE019E1C6F80090FFF7A5
:100A8000DDFD074605E000BFFFF7D8FDC01B0228CB
:100A9000A6D828688007F7D42078000727D5DFF884
:100AA00018A2874861690AF16C0A81B101210160CD
:100AB000FFF7C4FD074604E0FFF7C0FDC01B022896
:100AC00004D8DAF800008007F6D510E082E0C0F81C
:100AD0000090FFF7B3FD074605E000BFFFF7AEFD4E
:100AE000C01B022876D8DAF800008007F6D42078F8
:100AF00040075FD5DFF8C0A100270AF1380ADAF80D
:100B00000000C0000BD4DAF8001041F08051CAF8A0
:100B10000010DAF80000012700F0805000906948CA
:100B2000016841F4807101600168C90512D401684F
:100B300041F480710160FFF781FD009006E000BF85
:100B4000FFF77CFD0099401A022843D85D480068F1
:100B5000C005F5D55849207A68310870A06888B179
:100B6000FFF76CFD009007E0FFF768FD0099411A60
:100B700041F28830814276D84F486830006880075B
:100B8000F2D510E0FFF75AFD009007E0FFF756FDA1
:100B90000099411A41F28830814264D84648683051
:100BA00000688007F2D42FB1DAF8001021F08051EC
:100BB000CAF80010A069E8B3DBF80010C1F38101A6
:100BC000022957D00228C6F8609004D0FFF736FDFE
:100BD00004464BE047E0FFF731FD074605E000BF64
:100BE000FFF72CFDC01B64283DD828688001F7D48E
:100BF000D4E90701084347F6C07292FAA2F2616A8B
:100C0000B2FA82F29140A26A4FF0FF3303EB520234
:100C10004FF4403393FAA3F3B3FA83F39A401143AA
:100C200008434FF0706292FAA2F2E16AB2FA82F2DD
:100C3000914000E03DE00843C8F800000120306624
:100C4000FFF7FCFC044604E0FFF7F8FC001B6428F7
:100C500009D828688001F7D52BE000BFFFF7EEFC2C
:100C6000001B642802D90320BDE8F88F28688001A2
:100C7000F4D41EE00128F7D0D8F80000E26900F4AF
:100C80008001914213D1226A00F03F0191420ED1BE
:100C9000616AC0F38812914209D1A26A00F440311E
:100CA000914204D1E16A00F07060884201D00120D5
:100CB000DAE70020D8E70000083802400000474289
:100CC000800E47420070004010B5401EB0F1807F9A
:100CD00001D3012010BD4FF0E02460610F216017A7
:100CE00001F0F0F80020A06107202061002010BD75
:100CF0007047704770B590F83C20012A19D0012444
:100D000000F83C4F0222427050F83C3C5A689D6803
:100D100022F070060A684968324325F080052943AD
:100D20005A6050F83C2C91604470002101700846D4
:100D300070BD022070BD10B5040003D094F83D00D2
:100D400010B107E0012010BD002084F83C002046CF
:100D500000F00CF8022084F83D00211D206800F00E
:100D600023FE012084F83D00002010BD08B5016875
:100D70001448B1F1804F14D0134A914220D1016838
:100D800041F0020101600068002200F002000090C2
:100D900011461D20FFF7C0FC1D20BDE80840FFF7ED
:100DA000ADBC016841F0010101600068002200F063
:100DB0000100009011461C20FFF7AEFC1C20ECE760
:100DC00008BD000040380240000400400168CA68C5
:100DD00042F00102CA600068816801F0070106293B
:100DE00003D0016841F0010101600020704770B537
:100DF000044690F83C00012817D0012584F83C50A7
:100E0000022084F83D002068826822F0770222F4F4
:100E10007F4282600868502830D00DDC20284DD0F9
:100E200005DC98B310283BD148E0022070BD302883
:100E300044D0402834D139E0602828D0702806D02A
:100E4000B0F5805F2CD0B0F5005F29D10AE0CB6807
:100E5000D1E90121206800F00BFE2068816841F093
:100E6000770109E0CB68D1E90121206800F000FE9C
:100E70002068816841F48041816011E0CA68496856
:100E8000206800F007FE5021206807E016E0CA68DD
:100E90004968206800F00FFE6021206800F0F2FD34
:100EA00084F83D50002084F83C0070BDCA68496851
:100EB000206800F0EFFD40212068EFE7226801463E
:100EC0001046EBE7704770B50446006801694FF0C3
:100ED0000005C943890715D4C168C943890711D4DE
:100EE000E91E016101202077206880698007204683
:100EF00002D0FFF7E7FF04E000F098F8204600F08A
:100F000096F8257720680169C943490717D4C16855
:100F1000C943490713D46FF004010161022020770F
:100F20002068806910F4407F204602D0FFF7CAFF96
:100F300004E000F07BF8204600F079F8257720687F
:100F40000169C943090716D4C168C943090712D406
:100F50006FF008010161042020772068C0698007D4
:100F6000204602D0FFF7AEFF04E000F05FF8204615
:100F700000F05DF8257720680169C943C90617D4D8
:100F8000C168C943C90613D46FF01001016108207C
:100F900020772068C06910F4407F204602D0FFF718
:100FA00091FF04E000F042F8204600F040F8257779
:100FB00020680169C943C90708D1C168C943C90785
:100FC00004D1891E0161204600F032F820680169D1
:100FD000C943090609D4C168C943090605D46FF09D
:100FE000800101612046FFF783FE20680169C94343
:100FF000490609D4C168C943490605D46FF04001C8
:101000000161204600F068F820680169C94389063B
:101010000BD4C168C943890607D46FF02001016170
:101020002046BDE87040FFF764BE70BD7047704752
:1010300070B500682449884205D1BDE8704001219F
:101040002248FFF7EFBAB0F1804F3BD1204D214C41
:101050006868411C69604FF480414E10092831D204
:10106000DFE800F0051005301005303020000022C8
:101070002046FFF7DDFA002231462046FFF7D8FA76
:10108000002209E001222046FFF7D2FA0122314670
:101090002046FFF7CDFA01222046BDE8704020210E
:1010A000FFF7C6BA01222046FFF7C2FA01223146F5
:1010B0002046FFF7BDFA012220212046FFF7B8FAAB
:1010C0000020686070BD0000000400400004024081
:1010D00000000020000802407047704770B50268A9
:1010E00004461068D168536910F00F0F50D003F018
:1010F000010501F4907635435DD0C20705D0CA05DD
:1011000003D5E26B42F00102E263420705D5DA073C
:1011100003D0E26B42F00202E263820705D5DA07F0
:1011200003D0E26B42F00402E263020705D5DA075E
:1011300003D0E26B42F00802E263E26B002A33D094
:10114000800604D5880602D5204600F0DCFC206825
:101150004069E16BC0F38010090700D428B3204632
:1011600000F0C3FC2068416949061AD5416921F0A5
:1011700040014161606BA0B11B490165606BFFF7E5
:1011800037F9002810D0606B016DBDE8704008474A
:10119000830610D58B060ED52046BDE8704000F0C2
:1011A000B2BC2046FFF799FF70BD2046FFF795FFC0
:1011B0000020E06370BD030606D50B0604D520466B
:1011C000BDE8704000F0AEBD4006F3D54806F1D54D
:1011D000D168204621F04001D160202184F83910E7
:1011E00000F0B9F970BD0000DB1A000870B504000A
:1011F00004D094F83900002510B106E0012070BD3C
:1012000084F83850204600F023F8242084F8390070
:101210002068C16821F40051C160204600F0BEFC86
:101220002068016921F4904101612068416921F041
:101230002A0141612068C16841F40051C160E56341
:10124000202084F8390084F83A00002070BD0000A6
:10125000F0B587B0044614216846FEF7F9FF2A4F1F
:101260002368002229490224032507262848BB4277
:1012700021D1264B14331F6847F010071F601B68ED
:1012800003F0100305930B6843F001030B6009683A
:1012900002AB01F0010105916902CDE9001483E878
:1012A00064006946FFF7C8F8002211462520FFF7C1
:1012B00033FA252023E0174FBB4222D1134B1033C2
:1012C0001F6847F400371F601B6803F40033059361
:1012D0000B6843F001030B60096802AB01F00101E8
:1012E00005910C21CDE9001483E864006946FFF7FD
:1012F000A3F8002211462620FFF70EFA2620FFF75A
:10130000FDF907B0F0BD0000001001403038024088
:1013100000000240004400402DE9F843044690F8E4
:101320003A00994616460D4620284FD195B18EB108
:1013300094F83800012849D0012084F838000027AB
:10134000E763222084F83A00FFF778F9A685804603
:10135000E68531E00120BDE8F883E08D401EE085A0
:10136000A0684346B0F5805F4FF000024FF02001C7
:101370002046CDF8009004D000F005FD98B1032080
:10138000E9E700F000FD0028F9D120690028206875
:10139000406803D0C1B225F8011B0DE0C0F308017D
:1013A00025F8021B08E0206900282068406801D069
:1013B00000F07F0005F8010BE08D0028CDD1202042
:1013C00084F83A0084F838700020C4E70220C2E7AD
:1013D00090F83A30202B22D1F9B1F2B190F83830A0
:1013E000012B1CD081628285C2850021C16322222B
:1013F00080F83A2080F838100168CA6842F4807298
:10140000CA6001684A6942F001024A610068C16825
:1014100041F02001C1600020704701207047022088
:10142000704700000068194988422DD118480168AA
:101430000868C2888388521C9A4205D0C3880289F2
:1014400093420DD182885AB983880268D25C82881F
:1014500003899A4201D1002201E08288521C8280D5
:1014600008680C49C38809780268D154C188028988
:10147000914201D1002101E0C188491CC1800122B3
:1014800004490548FFF7A4BF704700000010014061
:101490004C02002000000020980C00202DE9F843A9
:1014A000044690F839001F4616460D46202850D1B4
:1014B000A5B19EB194F8380001284AD0012084F8E3
:1014C00038004FF00008C4F83C80212084F839002F
:1014D000FFF7B4F8A6848146E68426E00120BDE843
:1014E000F883E08C401EE084A0684B46B0F5805F36
:1014F0004FF000024FF080012046009703D000F02B
:1015000042FCE8B90DE000F03EFCC8B9288821682B
:10151000C0F308004860206908B16D1C05E0AD1CEF
:1015200003E0216815F8010B4860E08C0028D8D151
:101530004B46002240212046009700F024FC08B1D1
:101540000320CCE7202084F8390084F8388000207C
:10155000C5E70220C3E77047FEE70000F0B587B09B
:1015600014216846FEF774FE21480024016841F00A
:1015700004010160016801F004010591016841F076
:1015800080010160016801F080010591016841F06E
:1015900001010160016801F001010591016841F05C
:1015A000020101600068134E00F0020046F22005BF
:1015B0000590002229463046FFF73AF80E4F0022E8
:1015C0000F213846FFF734F800950125CDE9015485
:1015D000694630460394FEF72FFF0F200090CDE9B7
:1015E0000154694638460394FEF726FF07B0F0BD64
:1015F00030380240000802400004024010B586B0B6
:1016000000241748009401940294039404944FF02A
:1016100080410594016040F6B731C0E90114012111
:10162000C0E9031480218161FFF785FB08B1FEF753
:10163000DEFE4FF48050009069460948FFF7D7FB63
:1016400008B1FEF7D4FE049404A905480594FFF7F9
:1016500051FB002801D0FEF7CAFE06B010BD000005
:10166000180C002010B586B000241748009401948F
:101670000294039404941349059401604EF65F218B
:10168000C0E90114F921C0E9031480218161FFF749
:1016900052FB08B1FEF7ABFE4FF480500090694654
:1016A0000948FFF7A4FB08B1FEF7A1FE049404A9C2
:1016B00005480594FFF71EFB002801D0FEF797FEB2
:1016C00006B010BD00040040580C00200C4810B5B6
:1016D0000A4901604FF4E1314160002181600C2230
:1016E000C160C0E904128161C161FFF77FFD00287C
:1016F00003D0BDE81040FEF77ABE10BD00100140D7
:10170000980C00200C4810B50A4901604FF4E131F3
:101710004160002181600C22C160C0E90412816136
:10172000C161FFF763FD002803D0BDE81040FEF75C
:101730005EBE10BD00440040D80C0020FEE770479C
:101740002DE9F0410F460446164647A1504800F0E7
:10175000A5FB504D287800284D4806D0FEF783FDA4
:1017600001464B4801F0F6FB07E0FEF77CFD82B234
:10177000FF2347494848FFF791FE224647A14448C6
:1017800000F08CFB28780028414806D0FEF76BFD5E
:1017900001463F4801F0DEFB07E0FEF764FD82B240
:1017A000FF233B493C48FFF779FE00243FE0200738
:1017B00017D122093BA1364800F070FB2878002899
:1017C000334806D0FEF74FFD0146314801F0C2FB19
:1017D00007E0FEF748FD82B2FF232D492E48FFF7B0
:1017E0005DFE2007B0F1704F02D0701E844201D11F
:1017F0002EA300E02EA33A5D2EA1254800F04EFB5B
:1018000028780028224806D0FEF72DFD0146204802
:1018100001F0A0FB07E0FEF726FD82B2FF231C4982
:101820001D48FFF73BFE0A20FEF7F4FD641CB4429E
:10183000BDD323A1164800F031FB287800281448B6
:1018400007D0FEF710FDBDE8F0410146104801F059
:1018500081BBFEF708FDBDE8F04182B2FF230C49D1
:101860000D48FFF71BBE00002A2A2A2A2A2A2A2A04
:101870002A2A2A2A2A205052494E542048455820C4
:101880002A2A2A2A2A2A2A2A2A2A2A2A2A0A00002C
:101890006806002001000020980C002025733A0AF9
:1018A0000000000025303858203A20000A000000CF
:1018B00020000000307825303258257300000000E9
:1018C0002A2A2A2A2A2A2A2A2A2A2A2A2A20505234
:1018D000494E5420454E44202A2A2A2A2A2A2A2AB6
:1018E0002A2A2A2A2A0A000070477047FEF7ACBE4F
:1018F00010B592B030216846FEF7AAFC14210CA85E
:10190000FEF7A6FC01200090019002248005CDE99D
:10191000064019200890F020CDE9090404200B901E
:101920006846FFF72BF80F20CDE90C0400200E903D
:101930004FF4A0500F90E002109003210CA8FEF786
:101940001DFF12B010BD00000D48016841F00101FB
:1019500001600B4A0021083211600268094B1A40ED
:101960000260031D084A1A60026822F480220260A5
:1019700003480C30016005495806086070470000B4
:1019800000380240FFFFF6FE1030002408ED00E0B2
:101990000148FFF798BA0000180C00200148FFF733
:1019A00092BA0000580C0020F0B50268254C264D74
:1019B000264E274F274B4FF0804CA04209D0604560
:1019C00007D0A84205D0B04203D0B84201D0984217
:1019D00004D122F0700E4A6842EA0E02A0421BD0E7
:1019E000604519D0A84217D0B04215D0B84213D0E4
:1019F000984211D0184DA8420ED0184DA8420BD0D5
:101A0000174DA84208D0174DA84205D0164DA84240
:101A100002D0164DA84203D122F44075CA682A4369
:101A20004D6922F080022A4302608A68C2620A6815
:101A30008262A04201D0984201D10969016301216B
:101A40004161F0BD0000014000040040000800407A
:101A5000000C0040000401400040014000440140EF
:101A60000048014000180040001C004000200040D9
:101A700010B5846842EA032224F47F440A432243D7
:101A8000826010BD826822F070020A4342F00701B2
:101A90008160704710B5036A046A24F0010404628F
:101AA000846924F0F00444EA021423F00A020A4391
:101AB0008461026210BD10B5036A23F01003036253
:101AC0008369046A23F4704343EA023224F0A003DA
:101AD00043EA01118261016210BD10B5806B0021E3
:101AE000C185C184FFF7F9FA10BD0168CA6822F404
:101AF0009072CA6001684A6922F001024A6120219D
:101B000080F83A10704710B590F83A10222901D0A9
:101B1000022010BD8168B1F5805F11D001690029F4
:101B200001681FD0496801F07F03816A4A1C826204
:101B30000B70C18D491E0904090CC18518D02BE01A
:101B40000269816A002A0268526805D0D2B20A800E
:101B5000816A491C8162ECE7C2F308020A80816A4B
:101B6000891CF7E74A68816A4B1C83620A70E0E7C8
:101B70000168CA6822F02002CA600168CA6822F4BB
:101B80008072CA6001684A6922F001024A6120211C
:101B900080F83A10FFF746FC002010BD2DE9F04117
:101BA000044600680169E26821F440511143016173
:101BB0002169A068E269084361691143226808430A
:101BC000D16849F20C6399430143D16020684169AF
:101BD000A26921F4407111434161E2696425322612
:101BE000B2F5004F4D494E48226806D0824201D0DE
:101BF0008A4263D1FEF778FE62E0824201D08A42D7
:101C000025D1FEF771FE00EBC00101EB0010616809
:101C10006FF0180C4900B0FBF1F3B3FBF5F3B0FB28
:101C2000F1F7B0FBF1F203FB0CF307EB830306EBD8
:101C3000C303B2FBF5F2B3FBF5F3120103F0F803B3
:101C400002EB4302B0FBF1F3B0FBF1F024E0FEF74E
:101C500033FE00EBC00101EB001160686FF0180C5F
:101C60004000B1FBF0F3B3FBF5F3B1FBF0F7B1FBD0
:101C7000F0F203FB0CF307EB830306EBC303B2FBA9
:101C8000F5F2B3FBF5F3120103F0F80302EB4302A4
:101C9000B1FBF0F3B1FBF0F0B0FBF5F06FF0180121
:101CA000484303EB800006EBC000B0FBF5F000F00A
:101CB0000700216810448860BDE8F081FEF7FCFD54
:101CC00000EBC00101EB001160686FF018078000A5
:101CD000B1FBF0F2B2FBF5F2B1FBF0F37A4303EBA8
:101CE0008202B1FBF0F306EB0212B2FBF5F2B3FB9A
:101CF000F5F302F0F00202EB0312B1FBF0F3B1FBDB
:101D0000F0F0B0FBF5F0784303EB800006EB001039
:101D1000B0FBF5F000F00F00CBE70000001401402D
:101D20000010014090F83910212901D0022070479D
:101D30008168B1F5805F016A0BD04A1C02620268BB
:101D400009785160C18C491E0904090CC1840ED068
:101D500017E009880268C1F3080151600169002990
:101D6000016A02D0491C0162ECE7891CFBE70168AB
:101D7000CA6822F08002CA600068C16841F0400170
:101D8000C160002070472DE9F041984617460E4685
:101D90000446069D1DE0681C1BD02DB1FEF74EFCCD
:101DA000A0EB0800A84214D92068C16821F4D071C2
:101DB000C1602068416921F001014161202084F85F
:101DC000390084F83A00002084F838000320BDE888
:101DD000F0812068006836EA000004D00020B84294
:101DE000D9D00020F3E70120F9E700002DE9F04108
:101DF00023480078C8B3234D2868C168224F89065C
:101E000020D5016889061DD5396840680C68C6B2BE
:101E1000E088A188401C884205D0E088218988425A
:101E200004D1A08810B9204601F061F8E18820684B
:101E30004654E0882189884201D1002001E0E088F1
:101E4000401CE0802968C86800060CD508680006B8
:101E500009D5386840688288C3889A4206D1C86824
:101E600020F08000C860BDE8F08104E001F03FF898
:101E700029684860F7E7BDE8F0410248FFF72EB94E
:101E800001000020980C00204C0200200148FFF7C0
:101E900025B90000D80C0020FEE700000FB4084B65
:101EA00010B504A902AA039800F02CF8044602A970
:101EB000002000F058FA204610BC5DF814FB00002A
:101EC000672300080907090E002804DB00F1E02061
:101ED00080F80014704700F00F0000F1E02080F857
:101EE000141D704702E008C8121F08C1002AFAD169
:101EF00070477047002001E001C1121F002AFBD18A
:101F0000704700002DE9FF4F8DB00F4605460026B3
:101F100006E025280BD0DDE90F1290476D1C761CDA
:101F200028780028F5D111B03046BDE8F08F0024A4
:101F3000A246A1460122EC4900E0044315F8013F06
:101F4000203B02FA03F00842F7D128782A2810D063
:101F50006FF02F022878A0F13001092914D80AEB7C
:101F60008A0102EB410144F0020400EB010A6D1CFE
:101F7000F0E701CF5FEA000A03D544F40054CAF148
:101F8000000A44F002046D1C28782E2817D115F899
:101F9000010F44F004042A280ED06FF02F02287895
:101FA000A0F1300109290AD809EB890102EB4101AE
:101FB00000EB01096D1CF2E757F8049B6D1C2878B3
:101FC0006C280FD006DC4C2817D068280DD06A2862
:101FD00014D104E0742810D07A280FD10DE044F415
:101FE00000140AE044F4801401E044F440146978D9
:101FF000814202D104F580146D1C6D1C2A786E2A72
:102000001FD00CDC632A31D004DC002A8BD0582A84
:1020100011D1A3E0642A68D0692A0CD165E0732A43
:102020002ED004DC6F2A73D0702A04D19BE0752A6D
:102030006FD0782A6ED01046DDE90F129047761CDB
:1020400050E1C4F30250022806D0032809D0042826
:1020500001CF09D0066045E101CFF117C0E9006169
:1020600040E101CF06803DE106703BE117F8040B2B
:102070008DF8000000208DF80100EB46012003E000
:1020800057F804BB4FF0FF3061074FF0000102D456
:102090000DE008F10101884649450FDA8045F8DB7B
:1020A0001BF808100029F4D108E008F10101884666
:1020B0008142FADB1BF808100029F6D1DDE90F2375
:1020C000AAEB08008146214600F036F9304400EBC7
:1020D000080604E0DDE90F121BF8010B9047B8F188
:1020E0000108F7D221464846F7E00A21C4F302531B
:1020F0004FF0000B0891022B04D001CFC117032B26
:1021000009D00AE0FF1D27F00707F7E8020108E001
:1021100032E01FE020E000B2C117042B01D140B231
:10212000C117031E71F1000307DA4FF0000CD0EB6A
:102130000C006CEB01012D2302E0230504D52B23B9
:102140008DF82430012303E0E30701D02023F7E7D3
:10215000984658E00A2110E010210EE010204FF0C0
:10216000000B08900CE010214FF0000B44F0040429
:102170004FF00809089103E008214FF0000B089187
:10218000C4F30253022B04D001CF0021032B06D04D
:1021900006E0FF1D27F00707F7E8020103E080B221
:1021A000042B00D1C0B24FF0000823072BD5702AB2
:1021B00007D0DDF820C08CF0100C5CEA0B0C05D0C9
:1021C0000EE040238DF82430012308E050EA01039B
:1021D00006D030238DF824308DF825200223984630
:1021E000DDF820C08CF0080C5CEA0B0C0BD150EA37
:1021F000010301D1630706D530238DF824304FF059
:102200000108A9F10109582A04D038A20B9208AAA2
:102210000A920BE03AA2F9E75B46089AFDF7CEFF77
:102220000B9B9B5C0A9A521E0A92137050EA0102A1
:10223000F2D10A98ADEB000000F1200B600702D547
:1022400024F4803401E04FF00109D94502DDA9EB07
:102250000B0000E0002000EB0B0141440890AAEBCA
:10226000010AE00306D4DDE90F232146504600F0C1
:1022700063F806444FF0000908E009A911F80900C5
:10228000DDE90F12904709F10109761CC145F4DB25
:10229000E0030CD5DDE90F232146504600F04CF851
:1022A000064404E0DDE90F1230209047761C0899BF
:1022B000481E08900029F5DC08E00A980A99007881
:1022C000491C0A91DDE90F129047761CBBF1000111
:1022D000ABF1010BF1DC21465046DDE90F2300F0A4
:1022E00019F806446D1C1BE6092801003031323311
:1022F0003435363738396162636465660000000042
:10230000303132333435363738394142434445462B
:10231000000000002DE9F041044600251E46174646
:10232000880404D405E039462020B0476D1C641EA3
:10233000F9D52846BDE8F0812DE9F0410446002595
:102340001E469046C80301D5302700E020278804A8
:1023500004D505E041463846B0476D1C641EF9D5EA
:102360002846BDE8F0810A68531C0B601070704766
:102370002DE9F04786B02022102101A8FDF761FF6A
:102380000024DFF8C8900DF1040A314D314F56E0BA
:1023900004EB840605EB86082FA1D8F80C00FDF7A6
:1023A00069FF00284AD055F82600FDF75CFFC0F110
:1023B0000C0100220AF801202AA12C48FFF76EFD2B
:1023C00099F800000028294806D0FDF74CFF014687
:1023D000264800F0BFFD07E0FDF745FF82B2FF236E
:1023E00022492348FFF75AF8D8F80800009055F81A
:1023F000262001AB1FA11D48FFF750FD99F80000F2
:1024000000281A4806D0FDF72EFF0146174800F0B5
:10241000A1FD07E0FDF727FF82B2FF23134914480F
:10242000FFF73CF855F82600FDF71DFFC0F10C0141
:1024300020220AF801201E20FDF7ECFF641C3868FA
:102440008442A5D306B00020BDE8F087010000203B
:102450000800002030330008494E5445524E414C8C
:1024600000000000636D643A200000006806002050
:10247000980C0020257325732D2025730A00000079
:102480002DE9F04107460026534D544C09E000BFAA
:1024900006EB8600394655F82000FDF71BFF30B1EA
:1024A000761C20688642F3D30020BDE8F0814CA161
:1024B0004D48FFF7F3FC4D4C207800284A4806D0E1
:1024C000FDF7D1FE0146484800F044FD07E0FDF766
:1024D000CAFE82B2FF2344494548FEF7DFFF06EB00
:1024E000860644A155F826203F48FFF7D7FC207800
:1024F00000283D4806D0FDF7B6FE01463A4800F0F8
:1025000029FD07E0FDF7AFFE82B2FF2336493848C8
:10251000FEF7C4FF38A13448FFF7C0FC207800283C
:10252000314806D0FDF79FFE01462F4800F012FD0E
:1025300007E0FDF798FE82B2FF232B492C48FEF7F7
:10254000ADFF05EB86052BA12748EA68FFF7A6FC3F
:1025500020780028244806D0FDF785FE0146224851
:1025600000F0F8FC07E0FDF77EFE82B2FF231E4973
:102570001F48FEF793FF24A11B48FFF78FFC20782C
:102580000028194806D0FDF76EFE0146164800F0F7
:10259000E1FC07E0FDF767FE82B2FF231249144811
:1025A000FEF77CFF13A110482A69FFF777FC20781B
:1025B00000280D4806D0FDF756FE01460A4800F0F7
:1025C000C9FC71E7FDF74FFE82B2FF2306490848B8
:1025D000FEF764FF68E700000800002030330008C1
:1025E000636D643A200000006806002001000020AE
:1025F000980C002025730A0020202020207573618C
:1026000067653A2020200000202020202065786186
:102610006D706C653A20000010B50C4602280ED192
:102620000FA16068FDF726FE70B10FA16068FDF78D
:1026300021FE68B10EA16068FDF71CFE60B1206844
:10264000FFF71EFF002010BDBDE8104000F020BEC7
:10265000BDE8104000F0CABCBDE8104000F058BE14
:10266000696E69740000000066696C650000000016
:10267000696E7374616C6C007CB500220192012854
:1026800004D90868FFF7FCFE00207CBD4548009097
:10269000454B042201A9302000F090FA0600F4D145
:1026A000414C42A11D3422464548FFF7F7FB454DFA
:1026B00028780028424806D0FDF7D5FD014640485D
:1026C00000F048FC07E0FDF7CEFD82B2FF233C4955
:1026D0003D48FEF7E3FE0A3422463CA13848FFF7A6
:1026E000DDFB28780028364806D0FDF7BCFD014602
:1026F000334800F02FFC07E0FDF7B5FD82B2FF2361
:102700002F493148FEF7CAFE0A34224635A12C482B
:10271000FFF7C4FB28780028294806D0FDF7A3FD61
:102720000146274800F016FC07E0FDF79CFD82B249
:10273000FF2323492448FEF7B1FE253422462FA16A
:102740001F48FFF7ABFB287800281D4806D0FDF78F
:102750008AFD01461A4800F0FDFB07E0FDF783FD06
:1027600082B2FF2316491848FEF798FE04F11402BE
:1027700029A11348FFF792FB28780028104806D0BB
:10278000FDF771FD01460E4800F0E4FB07E0FDF7A0
:102790006AFD82B2FF230A490B48FEF77FFE3046EE
:1027A0007CBD00005002002030AD002050726F64EC
:1027B000756374204E756D6265723A2025730A0048
:1027C0006806002001000020980C00204D616E7505
:1027D0006661637475726520446174653A2025737F
:1027E0000A0000004669726D776172652056657255
:1027F00073696F6E3A2025730A0000004173736598
:102800006D626C792053657269616C204E756D62E2
:1028100065723A2025730A0046696C74657220530C
:10282000657269616C204E756D6265723A20257320
:102830000A000000C2B00025FDF70EFFFFF758F8B0
:10284000FEF78CFEFEF70EFFFEF740FFFEF75AFF85
:10285000FEF7D4FE744E4FF480742146326852F86D
:10286000080B00F035FB32682146506802F584728F
:1028700000F02EFB6D4C012060706D480068C1684F
:1028800041F02001C1606B48FEF7A0FA6A4E0122B8
:1028900091033046FDF7CCFE012251033046FDF78F
:1028A000C7FE012220213046FDF7C2FE63A1674822
:1028B000FFF7F4FA60780028644806D0FDF7D3FCEF
:1028C0000146624800F046FB07E0FDF7CCFC82B20F
:1028D000FF235E495648FEF7E1FD5DA15B48FFF727
:1028E000DDFA60780028594806D0FDF7BCFC0146A7
:1028F000564800F02FFB07E0FDF7B5FC82B2FF233E
:1029000052494B48FEF7CAFD58A15048FFF7C6FA96
:10291000607800284D4806D0FDF7A5FC01464B48DD
:1029200000F018FB07E0FDF79EFC82B2FF23474949
:102930003F48FEF7B3FD6E464FF0FF3700F0E6FA72
:102940000028FBD000F0F4FA8DF800010D28F5D036
:102950000A280CD008283FD0FF2D01D270556D1CDD
:102960003B46012240A93248FEF798FDE6E736A132
:102970003648FFF793FA60780028344806D0FDF710
:1029800072FC0146314800F0E5FA07E0FDF76BFC08
:1029900082B2FF232D492648FEF780FD00207055A6
:1029A000684600F067F831A12848FFF777FA6078A9
:1029B0000028264806D0FDF756FC0146234800F0C3
:1029C000C9FA07E0FDF74FFC82B2FF231F49184800
:1029D000FEF764FD0025B1E7002DAFD03B46012294
:1029E00040A91348FEF75AFD21A11848FFF756FAEF
:1029F00060780028154806D0FDF735FC01461348DD
:102A000000F0A8FA07E0FDF72EFC82B2FF230F4981
:102A10000748FEF743FD3B46012240A90448FEF764
:102A20003DFD6D1E8AE700004C02002000000020E2
:102A3000980C0020580C002000080240434F4D2005
:102A400069732072656164790A00000068060020DD
:102A50004669726D776172652056657273696F6E33
:102A60003A20302E312E350A000000003E000000D2
:102A7000200000002DE9F043A1B000246E4634A1EF
:102A800005E000BF46F8240031A10020641CFDF7DA
:102A9000FFFB0028F6D134B100252E4FDFF8B880B7
:102AA000DFF8B8900DE04FF0FF3021B0BDE8F083C3
:102AB00005EB8502009958F82200FDF70BFC98B150
:102AC0006D1CD9F800008542F2D325A12948FFF7F3
:102AD000E5F93878002827482FD0FDF7C4FB0146D8
:102AE000244800F037FA30E005EB850208EB82015C
:102AF000E0B24A6831469047040005D002461EA164
:102B00001C48FFF7CBF903E026A11A48FFF7C6F9E6
:102B100038780028174806D0FDF7A5FB0146154870
:102B200000F018FA07E0FDF79EFB82B2FF2311497F
:102B30002148FEF7B3FC2046B7E7FDF794FB82B2CD
:102B4000FF230C491C48FEF7A9FC0020ADE700005C
:102B50002009000001000020080000203033000898
:102B6000556E6B6E6F776E20636F6D6D616E640A6C
:102B700000000000680600204578637574652063D6
:102B80006F6D6D616E64206661696C65642C207286
:102B9000657475726E656420636F6465203D2025E1
:102BA000640A0000436F6D706C657465206578651C
:102BB000637574696F6E0A00980C00202DE9F04768
:102BC0008B4E14004FF05502DDF82090327000BAA1
:102BD000C6F8010004F1100000BA1D46C6F8050051
:102BE0004FF0090706D006F109002246FDF717FB52
:102BF00004F109074FF0000846F8078004F10C01C2
:102C0000701C3F1DFDF7DEFB00BAF0513F1DBAB24C
:102C1000FF2377497748FEF741FC774EE8B140F251
:102C2000B113764A76A17C48FFF738F9307800284E
:102C3000794806D0FDF717FB0146774800F08AF97E
:102C400007E0FDF710FB82B2FF2373497348FEF7DC
:102C500025FC4FF0FF30BDE8F08785F800804FF489
:102C60007A742346012229466248FEF755FBE0B1FB
:102C70004FF4DC73614A6AA16748FFF70FF93078B7
:102C80000028654806D0FDF7EEFA0146624800F0DC
:102C900061F907E0FDF7E7FA82B2FF235E495F487A
:102CA000FEF7FCFB6FF00100D5E728785528D8D156
:102CB000FF230822691C4F48FEF72EFBE0B140F2CB
:102CC000BD134E4A5DA15448FFF7E8F8307800285C
:102CD000514806D0FDF7C7FA01464F4800F03AF9CF
:102CE00007E0FDF7C0FA82B2FF234B494B48FEF7DD
:102CF000D5FB6FF00200AEE70520FF23405905F138
:102D0000090104BAA4F1080082B23A48FEF704FBB4
:102D100008B340F2C313394A4FA13F48FFF7BEF84A
:102D2000307800283C4806D0FDF79DFA01463A4825
:102D300000F010F907E0FDF796FA82B2FF2336495A
:102D40003648FEF7ABFB092229464AA0FEF7F8FCFD
:102D50006FF003007FE72F19A7F10308211F681CFC
:102D6000FDF730FBD8F8001009BA81421CD04FF4AF
:102D7000E673224A44A12848FFF790F830780028EB
:102D8000254806D0FDF76FFA0146234800F0E2F827
:102D900007E0FDF768FA82B2FF231F491F48FEF7DC
:102DA0007DFB6FF0040056E757F8070C02BACAB172
:102DB0003BA11948FFF772F830780028164806D072
:102DC000FDF751FA0146144800F0C4F807E0FDF79A
:102DD0004AFA82B2FF2310491048FEF75FFB6FF0FA
:102DE000050038E7641C0020C9F8004033E7000004
:102DF00068070020D80C00200100002034330008B0
:102E000025732C25643A205472616E736D697420A9
:102E10006661696C65640A0068060020980C0020F1
:102E200025732C25643A20526563656976652066B2
:102E300061696C656420310A0000000025732C254F
:102E4000643A2052656365697665206661696C65E0
:102E50006420320A0000000025732C25643A2052B9
:102E6000656365697665206661696C656420330A0F
:102E7000000000005265636569766564206D6573C6
:102E8000736167657300000025732C25643A204345
:102E90006865636B73756D206661696C65640A00B3
:102EA000436F6D6D616E6420657865637574696FDD
:102EB0006E206661696C65642C2052657475726E53
:102EC000656420636F6465206973202523580A00B8
:102ED00000238380C380491E01810260704781887E
:102EE000C088814201D1012070470020704782884C
:102EF0000168895C828803899A4201D1002201E03D
:102F00008288521C8280084670470000074800688B
:102F10000068C1888288891AC28883889A4202D24E
:102F20000089491C014488B2704700004C0200200F
:102F30000748006801688A880868805C8A880B896D
:102F40009A4201D1002201E08A88521C8A8070478F
:102F50004C0200202DE9F0410F4680460024214D0F
:102F6000214E03E018F804104160641C306840688A
:102F7000FFF7B5FF28B128680168090601D5BC42F2
:102F8000F0D32868C16821F08001C1601BE030687F
:102F900018F804104068C2888388521C9A4214D0E2
:102FA000C28803899A4201D1828872B1C3880268BB
:102FB000D154C1880289914201D1002101E0C18828
:102FC000491CC180641CBC42E1D330684068FFF7F3
:102FD00086FF20B92868C16841F08001C1602046A1
:102FE000BDE8F081980C00204C0200202DE9F04F44
:102FF000ADF2144DDFF8D0910025CDF80C54D9F87E
:1030000000004FF00108C16821F02001C160DFF825
:10301000BCA16FA173488AF80050FEF73FFF7148CA
:10302000FDF721F982B2FF236E494846FEF736FAD2
:103030004EF660234FF480726B494846FEF76CF9F8
:10304000D0B16AA16748FEF729FF6648FDF70BF982
:1030500082B2FF2363494846FEF720FAD9F8000000
:10306000C16841F02001C16001208AF80000002001
:103070000DF2144DBDE8F08F5B4842F2107350F82A
:10308000C01F09BA21F0FF04C1780C434168C07920
:1030900009BA21F0FF0658490643A2B20F464A4832
:1030A000FEF73AF93346224654A14E48FEF7F6FEA3
:1030B0004C48FDF7D8F882B2FF234A494248FEF750
:1030C000EDF921463846FDF77DF9B04201D156A110
:1030D00000E059A14348FEF7E1FE4248FDF7C3F87E
:1030E00082B2FF233F493848FEF7D8F956A13D4840
:1030F000FEF7D4FE3B48FDF7B6F882B2FF2339490C
:103100003148FEF7CBF904F580773EE098FA88F075
:10311000019005F58060B84203D9661B06F58076FC
:1031200001E04FF4806630BA02902F4832464119D0
:1031300003A8FDF774F849480090494B06F10802CE
:1031400001A91120FFF73AFD5FEA000B1AD0B8F190
:10315000010F1CD1DDF80C04032818D241A121482D
:10316000FEF79CFE1F48FDF77EF882B2FF231D4943
:103170001548FEF793F9DDF80C04401CC0B2CDF8F9
:103180000C0402E008F101083544BD42BED3BD4243
:1031900001D136A100E03AA11248FEF77FFE1148A6
:1031A000FDF761F882B2FF230E490748FEF776F972
:1031B000D9F80000C16841F02001C16001208AF8FF
:1031C0000000584654E70000980C00200100002041
:1031D000446F776E6C6F616420696D6167652E2E38
:1031E0002E0A000068060020300D002054696D652D
:1031F0006F75740A00000000300E0020446F776E77
:103200006C6F616420737563636573732C204C6508
:103210006E677468203D2025752C20637263203D05
:10322000202523580A00000043524333322073758F
:1032300063636573730A000043524333322066614F
:10324000696C65640A00000053656E64696E6720EE
:10325000696D6167652E2E2E0A0000005002002065
:1032600030AD002052657472790A000053656E64B7
:1032700020667720737563636573730A000000002E
:1032800053656E64206677206661696C65640A0028
:103290001FB515A11948FEF701FE1948007800284E
:1032A000164806D0FCF7DFFF01461448FFF752FE30
:1032B00007E0FCF7D8FF82B2FF2310491148FEF760
:1032C000EDF8012000BA01904FF4806000BA02903E
:1032D000002003900C4800900C4B0C2201A91020F8
:1032E000FFF76CFC04B010BD496E697469616C69CC
:1032F0007A6520557067726164650A00680600206F
:1033000001000020980C00205002002030AD002069
:103310001CB50020019004480090044B042201A930
:103320001220FFF74BFC1CBD5002002030AD0020E6
:103330000300000070726F636573735F636F6D6D80
:10334000616E640000000000000000000102030440
:10335000060708090000000001020304436F6D6DB9
:10336000616E642061626F7574207570677261644C
:103370006500000075706772616465007570677242
:1033800061646520696E6974207C2066696C6520C3
:103390007C20696E7374616C6C000000476574205A
:1033A00076657273696F6E0048656C7020696E6631
:1033B0006F726D6174696F6E0000000068656C70FB
:1033C000207C203C636D643E2068656C70000000CA
:1033D00068656C70207C2075706772616465206818
:1033E000656C700068656C70000000000C340008AB
:1033F00000000020680600006C0300085438000834
:103400006806002078AF0000F41E00088113A03386
:10341000140879261B089C08290C29041A74041A1C
:1034200019141A5C085A7C041AE4041371231B084B
:10343000A8081ABC041AD00413180D1B2024040178
:10344000FF01FF212244822010C2963007772C61B1
:103450000EEEBA51099919C46D078FF46A7035A53B
:1034600063E9A395649E3288DB0EA4B8DC791EE97B
:10347000D5E088D9D2972B4CB609BD7CB17E072DFB
:10348000B8E7911DBF906410B71DF220B06A487173
:10349000B9F3DE41BE847DD4DA1AEBE4DD6D51B5BB
:1034A000D4F4C785D38356986C13C0A86B647AF99B
:1034B00062FDECC9658A4F5C0114D96C0663633DFB
:1034C0000FFAF50D088DC8206E3B5E10694CE44183
:1034D00060D5727167A2D1E4033C47D4044BFD85EB
:1034E0000DD26BB50AA5FAA8B5356C98B242D6C90B
:1034F000BBDB40F9BCACE36CD832755CDF45CF0D6B
:10350000D6DC593DD1ABAC30D9263A1061DE5180C2
:1035100051D7C81661D0BFB5F4B42123C4B35699AE
:1035200095BACF0FA5BDB89EB802280888055FB22E
:10353000D90CC624E90BB1877C6F2F114C6858ABAE
:103540001D61C13D2D66B69041DC760671DB01BC84
:1035500020D2982A10D5EF8985B1711FB5B606A57E
:10356000E4BF9F33D4B8E8A2C9077834F910270F15
:103570008EA8099618980EE1BB0D6A7F2D3D6D0847
:10358000976C6491015C63E6F4516B6B62616C1C37
:10359000D83065854E103C62F2ED95066C7BA50136
:1035A0001BC1F4088257C40FF5C6D9B06550E9B7FE
:1035B00012EAB8BE8B7C88B9FCDF1DDD62492DDACA
:1035C00015F37CD38C654CD4FB5861B24DCE51B50C
:1035D0003A7410B1BCA3E230BBD441A5DF4AD79501
:1035E000D83D6DC4D1A4FBF4D6D36AE96943FCD9B4
:1035F0006E34468867ADD0B860DA732D0444E51D9B
:1036000003335F4C0AAAC97C0DDD3C710550AA4109
:10361000022710100BBE86200CC925B56857B3854C
:103620006F2009D466B99FE461CE0EF9DE5E98C9B9
:10363000D9292298D0B0B4A8D7C7173DB359810D66
:10364000B42E3B5CBDB7AD6CBAC02083B8EDB6B349
:10365000BF9A0CE2B6039AD2B1743947D5EAAF7774
:10366000D29D1526DB048316DC73120B63E3843BC7
:1036700064943E6A6D0DA85A6A7A0BCF0EE49DFFE2
:10368000099327AE10E40AB19E077D44930FF0D250
:10369000A3088768F2011EFEC206695D5762F7CB78
:1036A00067658071366C19E7066B6E761BD4FEE099
:1036B0002BD3895A7ADA10CC4ADD676FDFB9F9F972
:1036C000EFBE8E43BEB717D58EB060E8A3D6D67EC8
:1036D00093D1A1C4C2D83852F2DF4FF167BBD16792
:1036E00057BCA6DD06B53F4B36B248DA2B0DD84C99
:1036F0001B0AAFF64A0336607A0441C3EF60DF5518
:10370000DF67A8EF8E6E3179BE69468CB361CB1A44
:103710008366BCA0D26F2536E2685295770CCC0345
:10372000470BBBB91602222F260555BE3BBAC5284A
:103730000BBDB2925AB42B046AB35CA7FFD7C23157
:10374000CFD0B58B9ED92C1DAEDE5BB0C2649B265C
:10375000F263EC9CA36A750A936D02A906099C3F6B
:10376000360EEB85670772135730E305824ABF9523
:10377000147AB8E2AE2BB17B381BB60C9B8ED2927A
:103780000DBED5E5B7EFDC7C21DFDB0BD4D2D386D1
:1037900042E2D4F1F8B3DD686E83DA1FCD16BE8144
:1037A0005B26B9F6E177B06F7747B718E65A088815
:1037B000706A0FFFCA3B06665C0B0111FF9E658FA6
:1037C00069AE62F8D3FF6B6145CF6C1678E20AA050
:1037D000EED20DD75483044EC2B30339612667A7D6
:1037E000F71660D04D476949DB776E3E4A6AD1AE25
:1037F000DC5AD6D9660BDF40F03BD83753AEBCA9B4
:10380000C59EBBDE7FCFB247E9FFB5301CF2BDBD20
:103810008AC2BACA3093B353A6A3B4240536D0BA29
:103820009306D7CD2957DE54BF67D9232E7A66B3C6
:10383000B84A61C4021B685D942B6F2A37BE0BB473
:10384000A18E0CC31BDF055A8DEF022D0182105390
:0438500024F400005C
:040000050800018569
:00000001FF
