:020000040800F2
:1000000070E20020990100085722000871200008C2
:1000100055220008D90E00083D2B00080000000002
:100020000000000000000000000000008F25000814
:10003000050F0008000000008D250008912500082C
:10004000B3010008B3010008B3010008B3010008C0
:10005000B3010008B3010008B3010008B3010008B0
:10006000B3010008B3010008B3010008B3010008A0
:10007000B3010008B3010008B3010008B301000890
:10008000B3010008B3010008B3010008B301000880
:10009000B3010008B3010008B3010008B301000870
:1000A000B3010008B3010008B3010008B301000860
:1000B0003526000841260008B3010008B3010008F6
:1000C000B3010008B3010008B3010008B301000840
:1000D000B3010008912A0008312B0008B301000881
:1000E000B3010008B3010008B3010008B301000820
:1000F000B3010008B3010008B3010008B301000810
:10010000B3010008B3010008B3010008B3010008FF
:10011000B3010008B3010008B3010008B3010008EF
:10012000B3010008B3010008B3010008B3010008DF
:10013000B30100080000000000000000B301000847
:10014000B3010008B3010008B3010008B3010008BF
:10015000B3010008B3010008B3010008B3010008AF
:10016000B3010008B3010008B3010008B30100089F
:10017000B3010008B3010008000000000000000007
:10018000B3010008DFF80CD000F0B2FC00480047D3
:100190005142000870E200200648804706480047A8
:1001A000FEE7FEE7FEE7FEE7FEE7FEE7FEE7FEE727
:1001B000FEE7FEE7ED250008850100082DE9F05F68
:1001C0000546002092469B468846064681464024C6
:1001D0001BE0284641464746224600F02DFA53468A
:1001E0005A46C01A914110D311461846224600F0D3
:1001F00014FA2D1A67EB01084F4622460120002110
:1002000000F00BFA17EB00094E41201EA4F1010487
:10021000DFDC484631462A464346BDE8F09F40EAC7
:1002200001039B0703D009E008C9121F08C0042A74
:10023000FAD203E011F8013B00F8013B521EF9D25B
:100240007047D2B201E000F8012B491EFBD2704783
:100250000022F6E710B513460A4604461946FFF792
:10026000F0FF204610BD421C10F8011B0029FBD1F5
:10027000801A704710B5002200E0521C835C8C5C31
:10028000A34201D1002BF8D1D8B2E1B2401A10BD7F
:1002900070B50F4D00B92868002412E00A4602E04C
:1002A0009E4203D0521C1378002BF9D1DAB22243BC
:1002B00005D02BB124B1002100F8011B04E0044655
:1002C000401C0678002EE9D12860204670BD000051
:1002D000E00600202DE9F0410E460546002400E02E
:1002E000641C285D00F0C5F90746305D00F0C1F9D7
:1002F000381A02D1295D0029F2D1BDE8F081000051
:100300000FB400B58DB010A909900B9000914FF07B
:10031000FF300A9000200C90054806900548079091
:100320006A4609A80F9900F0BFF90DB05DF814FBFB
:10033000C5060008E30600082DE9FF5F1D464FF0E3
:10034000FF3BD5E9014691465F464FF00008A96999
:100350007F1C01988847296A824688470028F6D181
:10036000BAF1FF3F0CD024F4C064002E19DD600602
:1003700014D5BAF12B0F09D0BAF12D0F0ED103E02D
:10038000584604B0BDE8F09F44F48064A9697F1C1E
:1003900001988847761E8246002E02DDBAF1300FA2
:1003A00003D0B9F1000F26D032E0A969761E44F4DB
:1003B00000747F1C019888478246002E05DDBAF143
:1003C000780F06D0BAF1580F03D0B9F1000F10D052
:1003D0001EE0B9F1000F02D0B9F1100F18D1A969D0
:1003E000761E24F400747F1C0198884782461020F2
:1003F00002E0082000E00A20814609E008FB090825
:10040000A969761E44F400747F1C019888478246CF
:10041000002E05DD4946504600F031F90028EDDA9E
:10042000E96901988847A00502D46FF00100A8E7A8
:10043000E00725D1600613D5600502D5C8F100009C
:1004400000E0404629680A1D2A600968220501D596
:10045000087015E0220701D5088011E008600FE060
:100460002868011D29600068210502D580F80080F8
:1004700006E0210702D5A0F8008001E0C0F8008066
:1004800038467EE72DE9F05F93460F4680460446E6
:10049000002602F079FBD0F80090824614F8015B48
:1004A0002DB100F0D9F80068405DC007F6D12B2DC2
:1004B00002D02D2D1AD0641E0021CAF800105A4611
:1004C0003946204600F01EF9014627B13868A0429F
:1004D00001D1C7F80080DAF80000022809D0CAF874
:1004E0000090700505D54842BDE8F09F46F480664F
:1004F000E2E70846F8E72DE9F04D81EA030404F04D
:10050000004B21F0004514464FF0000A23F0004153
:1005100050EA050220D054EA01021DD0C5F30A5763
:100520000246C5F31303C1F31300C1F30A5640F4A6
:10053000801543F48013A7EB0608101BD64608F27B
:10054000FD3873EB050002D308F1010801E09218B1
:100550005B41B8F1000F03DA00200146BDE8F08DE1
:1005600000204FF48011064684460EE0171B73EB03
:10057000050705D3121B63EB050306434CEA010C88
:1005800049084FEA300092185B4150EA0107EDD16B
:1005900052EA030012D082EA040083EA050108430C
:1005A00005D0101BAB4106D20122002306E0002239
:1005B0004FF0004302E06FF0010253101AEB060007
:1005C0004CEB085110EB0A0041EB0B01BDE8F04D7C
:1005D00000F0E7B80EB540F2334102910021CDE9B9
:1005E00000110A460B4600F0EBF803B000BD30B531
:1005F0000B46014600202022012409E021FA02F5E1
:100600009D4205D303FA02F5491B04FA02F528447A
:10061000151EA2F10102F1DC30BD202A04DB203AD4
:1006200000FA02F1002070479140C2F1200320FA45
:1006300003F3194390407047202A04DB203A21FA43
:1006400002F00021704721FA02F3D040C2F12002EB
:1006500091400843194670470048704724500008ED
:1006600010B50446FFF7F8FF0068005D00F00100D8
:1006700010BDA0F14101192900D8203070473A2857
:1006800000D2303820F02002412A01D3A2F13700F5
:10069000884201D34FF0FF307047000002681144D8
:1006A0001378016018467047D160044951610449CC
:1006B000116200211161114600F03EBA9D0600084A
:1006C00061060008426842B1016811F8013B23B19C
:1006D000521EC0E90012184670470121C160881EF1
:1006E000704742685AB1C368016843B983688B4256
:1006F00005D0491E521CC0E90012002070474FF07F
:10070000FF3070472DE9F05F8246007800271546DC
:100710008B460AF10104B946302801D09DB113E09F
:1007200014F8010B0127782803D0582801D045B1CF
:100730000AE00DB1102D07D10027102514F8010B88
:1007400002E0082500E00A250026B0460EE005FB81
:10075000080005FB06F1012701EB10461FFA80F89F
:10076000B6F5803F00D3B94614F8010B2946FFF7D0
:1007700086FF0028EBDABBF1000F05D00FB1641E35
:1007800000E05446CBF80040B9F1000F06D002F06B
:10079000FBF902210160C81EBDE8F09F48EA06404F
:1007A000FAE710B5141E73F1000408DA401C41F199
:1007B000000192185B411A4301D120F0010010BDE5
:1007C0002DE9F04D92469B4611B1B1FA81F202E05B
:1007D000B0FA80F220329046FFF71FFF04460F4622
:1007E00040EA0A0041EA0B0153465A46084313D037
:1007F000114653EA010019D0C8F140025046FFF7F4
:100800001BFF05460E46504659464246FFF705FF78
:10081000084305D0012004E020463946BDE8F08DAC
:100820000020054346EAE0762C4337430A986305E7
:10083000E40AA0EB08000022FD0A44EA47540A300B
:1008400002D500200146E9E7010510196941DDE9FB
:10085000084500196941BDE8F04DA2E72DE9FE4FBA
:10086000804681EA0300C00F0C46009021F0004151
:1008700023F00045B8EB0200A94105D240462146CD
:1008800090461C460B46024623F00040104347D0DA
:10089000270DC7F30A00C3F30A510290401A0190D2
:1008A00040286BDAC3F3130040F4801B0098924693
:1008B00020B10023D2EB030A63EB0B0B01985946DE
:1008C000C0F140025046FFF7A8FE06460D465046CE
:1008D0005946019A00F01EF910EB0800614100240E
:1008E00087EA115284EAE7731A4340D0009A62B350
:1008F000019A012A4FEA075215DC001B61EB020145
:100900004FF0004202EA0752CDE90042001C41F5D7
:10091000801132462B46FFF753FF03B0BDE8F08F3E
:1009200040462146F9E7001B61EB0201001C41F53E
:10093000801300185B412018A2F5001747EB030154
:1009400040EAD570B6196D4111E06D084FEA3606E0
:1009500045EAC0754FEA0752001B61EB0201001C1B
:1009600041F5801149084FEA3000001951413246E3
:100970002B4603B0BDE8F04FFFF713BF00980122EC
:1009800040000023D0EB020263EBE07300982146A5
:100990004FEAE074B8EB000061EB0401E9E783F093
:1009A00000435BE781F0004158E72DE9FE4F81EA03
:1009B000030404F0004421F0004100944FF0000BC8
:1009C00023F0004350EA01045ED052EA03045BD0F6
:1009D000C3F30A54C1F30A552C44A4F2F33401942E
:1009E000A0FB0254C1F3130141F48011C3F31303BC
:1009F00043F4801301FB024400FB034E840A970A70
:100A000044EA815447EA8357A4FB076802958D0A9C
:100A100005FB07854FEA932C04FB0C542705029D28
:100A20004FEA065847EA1637B5EB08056EEB070C98
:100A3000870E920E47EA811742EA8312A7FB020152
:100A4000B6EB0B0164EB00042B0D43EA0C335E188C
:100A500044EB1C50DA465146E7FB0201C5F3130490
:100A60004FEA0B3343EA14534FEA0432019C43EA42
:100A70000603A4F10C040294009CCDE900B4FFF736
:100A80009FFE03B0BDE8F08F00200146F9E7C1F3F7
:100A90000A52C1F3130140F2FF3341F480119A422C
:100AA00002DA00200146704740F233439A42A2F234
:100AB000334202DC5242FFF7BFBDFFF7AEBD00007C
:100AC00030B5041E71F1000404DB4FF000444042D5
:100AD00064EB0101141E73F1000405DB1C464FF0AA
:100AE0000043524263EB0403994208BF904230BD79
:100AF000064C074D06E0E06840F0010394E807006B
:100B000098471034AC42F6D3FFF740FB4C52000834
:100B10006C520008202A06DBCB17203A41FA02F07B
:100B200043EAE07306E041FA02F3D040C2F120024A
:100B300091400843194670472DE9F34F8BB04FF0B1
:100B4000000801F10C000C464FF0010B46460DF178
:100B5000080A01906269012101989047051E2DD075
:100B6000252D2CD0216A8847C0B1626901210198E6
:100B70009047216A88470028F7D1411E6269019891
:100B8000904700E0761CA1690B988847216A884746
:100B90000028F7D1E1690B988847DBE7A1690B983A
:100BA00088470746A84201D1761CD3E7E1690B9834
:100BB00088477F1C02D1B8F1000F6FD046E10027B3
:100BC00062693D463946019890472A2804D16269F6
:100BD0000121019890470125DFF884926269012183
:100BE00001989047A0F130010A290AD24F45E5DC6F
:100BF00007EB870100EB4107303FDFD445F01005DC
:100C0000ECE7E90601D46FF000476C280AD04C28C5
:100C100014D0682815D06A280DD074281CD07A28E2
:100C20001AD01DE062690121019890476C2802D01A
:100C300045F0040514E045F002050DE045F02005FF
:100C40000AE06269012101989047682802D045F0C6
:100C5000080505E045F400656269012101989047A7
:100C6000C4E9015765283DD019DC58287AD00CDC3E
:100C7000452837D004DC252826D0412831D131E061
:100C800046282FD047282CD12CE05B2877D061282C
:100C900028D063287CD0642823D15AE0D0E06F2884
:100CA00048D008DC66281DD067281BD0692821D0D1
:100CB0006E2816D127E0702845D0732868D0752893
:100CC00047D078280DD14DE0A1690B98884705469B
:100CD00025283FF469AFE1690B9888476D1C3FF404
:100CE0006AAFB3E023466A466FF001000B99AFF399
:100CF00000809EE045F040006060A80723464FF06A
:100D0000000236D43EE0E8077FF447AF2068011DBB
:100D100021600068290501D506701BE7290701D568
:100D2000068017E7A90703D5F117C0E9006111E7AD
:100D300006600FE745F040006060A80723464FF0CB
:100D4000080216D41EE040F60E0125EA010060609C
:100D500016E045F040006060A80723464FF00A0205
:100D600007D40FE045F040006060A80708D523468F
:100D700010226FF001000B99AFF3008059E007E0FB
:100D8000234610226FF001000B99FFF7D5FA50E0CF
:100D90004FF000094F464B46632802D05B2806D02F
:100DA00040E0E80601D40120A06001273AE0626932
:100DB0000121019890475E2805D14FF00109626931
:100DC000494601989047216939B900210A4653469E
:100DD00043F82120491C0829FADBB0B3216969B91D
:100DE000C11700EBD16253110AEB830122F01F02FD
:100DF000821A01200B68904003430B606269012155
:100E0000019890475D28E8D1B9F1000F09D0002082
:100E1000514651F82020D24341F82020401C082898
:100E2000F7DB02AB224600976FF001000B99AFF39E
:100E3000008000280CDA401C08D1BBF1000F05D05F
:100E40004FF0FF300DB0BDE8F08FFFE74046F9E707
:100E5000E90701D108F1010806444FF0000B79E6DB
:100E6000CCCCCC0C70B58C1810F8015B15F00703D6
:100E700001D110F8013B2A1106D110F8012B03E033
:100E800010F8016B01F8016B5B1EF9D12B0705D43B
:100E90000023521E0DD401F8013BFAE710F8013B84
:100EA000CB1A921C03E013F8015B01F8015B521EA0
:100EB000F9D5A142D8D3002070BD020E0A70020CF1
:100EC0004A70020A8A70C87070470168C07809BA0F
:100ED00021F0FF0108437047FEE7000030B54FF0F6
:100EE000FF330022064C07E0855C5D40EDB2521CEA
:100EF00054F8255085EA13238A42F5D3D84330BDF0
:100F0000D00200207047704790F83510022903D0B6
:100F10008021416501207047052180F83510006867
:100F2000016821F0010101600020704731B500F037
:100F300011F9009C0546601C02D004480078044466
:100F400000F008F9401BA042FAD338BDD0060020BB
:100F50002DE9F84FDFF8B4B1002301274FF0030A61
:100F60004FF00F090BF1040EC9E000BF07FA03F6BA
:100F7000324070D04C68022C01D0122C12D1DC0807
:100F800000EB840CDCF820405D07ED0E09FA05F853
:100F900024EA0804D1F8108008FA05F848EA0408A1
:100FA000CCF82080D0F800805D0091F804C00AFAE7
:100FB00005F40CF0030C28EA04080CFA05FC4CEAD2
:100FC000080CC0F800C0D1F804C0BCF1010F08D073
:100FD000BCF1020F05D0BCF1110F02D0BCF1120F11
:100FE00016D1D0F808C0D1F80C802CEA040C08FA0D
:100FF00005F848EA0C08C0F80880D0F804C02CEACC
:10100000060C0E79C6F300169E4046EA0C064660B2
:10101000C668A6438C68AC403443C4604C68E400A6
:101020006CD53B4C256845F480452560246823F049
:10103000030504F480440094364C2E19D6F8084871
:101040009D074FEA157C09FA0CF5AC43324DA842D6
:1010500002D1002529E051E0304DA84201D10125FF
:1010600023E02F4DA84201D102251EE02D4DA842BC
:1010700001D1032519E02C4DA84201D1042514E02B
:101080002A4DA84201D105250FE0294DA84201D1E2
:1010900006250AE0274DA84201D1072505E0264D87
:1010A000A84201D1082500E0092505FA0CF52543E1
:1010B000C6F80858DBF800405D464E689443F603D6
:1010C00000D514432C60DEF8004075464E6894430A
:1010D000B60300D514432C600C4D08352C684E68BF
:1010E0009443F60200D514432C60084D0C352C684F
:1010F0004E689443B60200D514432C605B1C0A680A
:1011000032FA03F47FF432AFBDE8F88F003C0140BF
:101110004438024000300140000002400004024018
:1011200000080240000C024000100240001402407F
:1011300000180240001C02400020024042690A429E
:1011400000D00904816170470AB1816170470904C8
:10115000FBE700000148806870470000D0060020CF
:10116000024881680278114481607047D0060020EF
:101170000B4810B5016841F400710160016841F449
:1011800080610160016841F480710160032000F01A
:101190006FF8002000F006F800F024F8002010BDE1
:1011A000003C024070B50D4D04464FF47A7128782A
:1011B000B1FBF0F00A490968B1FBF0F000F010FB58
:1011C00048B9102C07D200222146501E00F030F8FA
:1011D00000206C6070BD012070BD0000D0060020B2
:1011E000DC0600200A4808B5016841F4804101602E
:1011F000006800F4804000900548001F016841F03D
:1012000080510160006800F08050009008BD00002F
:1012100044380240002809DB00F01F020121914000
:101220004009800000F1E020C0F800117047000084
:10123000F0B40E4B1B680C46C3F30223C3F1070541
:10124000042D00D90425191D072901D2002300E02F
:10125000DB1E012606FA05F1491E214099409E40F9
:10126000761E16403143F0BC01F07EBC0CED00E070
:10127000064900F0070208684FF6FF03184040EAED
:101280000220034A10430860704700000CED00E0A4
:101290000000FA052DE9F0470E46050063D0DFF89F
:1012A0001C81D8F80000F7B200F00F00B04207D25E
:1012B00088F80070D8F8000000F00F00B04252D15A
:1012C00028683F4C810712D5400703D5206840F4B9
:1012D000E05020602878000703D5206840F4604083
:1012E00020602068A96820F0F0000843206028787A
:1012F000C0072BD0324968680839012810D0096826
:10130000022810D0890700292DDA216821F0030175
:1013100001432160FFF71EFF814641F2883A0EE04B
:1013200009688903EFE78901EDE700BFFFF712FFC6
:10133000A0EB0901514502D90320BDE8F0872068E0
:10134000696800F00C00B0EB810FEFD1D8F8001005
:10135000404601F00F01B14207D90770006800F064
:101360000F00B04201D00120E7E72878400705D5FB
:101370002068E96820F4E0500843206028780007DE
:1013800006D52068296920F4604040EAC100206049
:1013900000F04EF82168F02292FAA2F201F0F0017A
:1013A000B2FA82F2D140074A515CC840064908604F
:1013B00006480068FFF7F6FE0020BEE7003C02404A
:1013C000083802408B4F0008DC060020D4060020BD
:1013D00008480949006809684FF4E05292FAA2F2FD
:1013E00001F4E051B2FA82F2D140044A515CC840A3
:1013F00070470000DC060020083802409B4F0008C0
:1014000008480949006809684FF4604292FAA2F25C
:1014100001F46041B2FA82F2D140044A515CC84002
:1014200070470000DC060020083802409B4F00088F
:10143000154810B5006810F00C02144813D0144978
:10144000042A0FD0082A0ED10F4C241F22682368CB
:1014500002F03F025B0207D52068C0F38810A0FBB2
:10146000010106E0084610BD2168C1F38811A1FB07
:1014700000010023FEF7A2FE2168C1F30141491CCF
:101480004900B0FBF1F010BD083802400024F40020
:1014900040787D012DE9F84F040079D0DFF830B3B2
:1014A0002078ABF10408C007A8F1040536D0DBF8BA
:1014B00000105846C1F38101012908D00068C0F32B
:1014C000810002280AD1D8F80000400206D5286819
:1014D000800323D560680028DFD01FE0BC49207955
:1014E000891F0870606860B1FFF734FE064604E0AB
:1014F000FFF730FE801B642874D828688003F7D576
:101500000CE0FFF727FE064605E000BFFFF722FECE
:10151000801B6428F0D828688003F7D42078AD4E6B
:1015200080074FF0000943D5DBF80010584611F052
:101530000C0F4FF0F80A08D00068C0F381000228B1
:101540000AD1D8F80000400206D42868800713D5D5
:10155000E06801281CD10FE0E068D0B101203060C4
:10156000FFF7F8FD074604E0FFF7F4FDC01B022873
:10157000C2D828688007F7D528689AFAAAF22169A4
:10158000B2FA82F220F0F8009140084328600FE0A0
:1015900019E1C6F80090FFF7DDFD074605E000BF42
:1015A000FFF7D8FDC01B0228A6D828688007F7D40B
:1015B0002078000727D5DFF818A2874861690AF16B
:1015C0006C0A81B101210160FFF7C4FD074604E008
:1015D000FFF7C0FDC01B022804D8DAF8000080071E
:1015E000F6D510E082E0C0F80090FFF7B3FD0746A3
:1015F00005E000BFFFF7AEFDC01B022876D8DAF881
:1016000000008007F6D4207840075FD5DFF8C0A13E
:1016100000270AF1380ADAF80000C0000BD4DAF823
:10162000001041F08051CAF80010DAF800000127DC
:1016300000F0805000906948016841F480710160B9
:101640000168C90512D4016841F480710160FFF797
:1016500081FD009006E000BFFFF77CFD0099401A75
:10166000022843D85D480068C005F5D55849207A5E
:1016700068310870A06888B1FFF76CFD009007E042
:10168000FFF768FD0099411A41F28830814276D80F
:101690004F48683000688007F2D510E0FFF75AFD28
:1016A000009007E0FFF756FD0099411A41F288309B
:1016B000814264D84648683000688007F2D42FB170
:1016C000DAF8001021F08051CAF80010A069E8B3E0
:1016D000DBF80010C1F38101022957D00228C6F8B7
:1016E000609004D0FFF736FD04464BE047E0FFF77B
:1016F00031FD074605E000BFFFF72CFDC01B642845
:101700003DD828688001F7D4D4E90701084347F69B
:10171000C07292FAA2F2616AB2FA82F29140A26AAF
:101720004FF0FF3303EB52024FF4403393FAA3F32D
:10173000B3FA83F39A40114308434FF0706292FA70
:10174000A2F2E16AB2FA82F2914000E03DE0084381
:10175000C8F8000001203066FFF7FCFC044604E0F6
:10176000FFF7F8FC001B642809D828688001F7D52A
:101770002BE000BFFFF7EEFC001B642802D903201A
:10178000BDE8F88F28688001F4D41EE00128F7D066
:10179000D8F80000E26900F48001914213D1226A76
:1017A00000F03F0191420ED1616AC0F3881291426C
:1017B00009D1A26A00F44031914204D1E16A00F0FB
:1017C0007060884201D00120DAE70020D8E70000ED
:1017D0000838024000004742800E47420070004037
:1017E00010B5401EB0F1807F01D3012010BD4FF035
:1017F000E02460610F21601701F0B6F90020A061BC
:1018000007202061002010BD7047704770B590F828
:101810003C20012A19D0012400F83C4F02224270DA
:1018200050F83C3C5A689D6822F070060A68496886
:10183000324325F0800529435A6050F83C2C9160D2
:10184000447000210170084670BD022070BD10B5C3
:10185000040003D094F83D0010B107E0012010BD52
:10186000002084F83C00204600F00CF8022084F8A8
:101870003D00211D206800F0E9FE012084F83D00B4
:10188000002010BD08B501681448B1F1804F14D094
:10189000134A914220D1016841F0020101600068C1
:1018A000002200F00200009011461D20FFF7C0FC4E
:1018B0001D20BDE80840FFF7ADBC016841F0010103
:1018C00001600068002200F00100009011461C2019
:1018D000FFF7AEFC1C20ECE708BD000040380240DA
:1018E000000400400168CA6842F00102CA60006852
:1018F000816801F00701062903D0016841F0010168
:1019000001600020704770B5044690F83C00012843
:1019100017D0012584F83C50022084F83D0020684F
:10192000826822F0770222F47F42826008685028A1
:1019300030D00DDC20284DD005DC98B310283BD1E9
:1019400048E0022070BD302844D0402834D139E02E
:10195000602828D0702806D0B0F5805F2CD0B0F574
:10196000005F29D10AE0CB68D1E90121206800F0AD
:10197000D1FE2068816841F0770109E0CB68D1E9A8
:101980000121206800F0C6FE2068816841F4804192
:10199000816011E0CA684968206800F0CDFE5021DE
:1019A000206807E016E0CA684968206800F0D5FEA4
:1019B0006021206800F0B8FE84F83D50002084F8D3
:1019C0003C0070BDCA684968206800F0B5FE40213F
:1019D0002068EFE7226801461046EBE7704770B5D4
:1019E0000446006801694FF00005C943890715D412
:1019F000C168C943890711D4E91E0161012020771C
:101A0000206880698007204602D0FFF7E7FF04E0E6
:101A100000F098F8204600F096F8257720680169D4
:101A2000C943490717D4C168C943490713D46FF0A4
:101A300004010161022020772068806910F4407F52
:101A4000204602D0FFF7CAFF04E000F07BF82046F2
:101A500000F079F8257720680169C943090716D491
:101A6000C168C943090712D46FF00801016104205D
:101A700020772068C0698007204602D0FFF7AEFFBC
:101A800004E000F05FF8204600F05DF8257720685C
:101A90000169C943C90617D4C168C943C90613D42B
:101AA0006FF010010161082020772068C06910F4F0
:101AB000407F204602D0FFF791FF04E000F042F89B
:101AC000204600F040F8257720680169C943C9071E
:101AD00008D1C168C943C90704D1891E01612046E4
:101AE00000F032F820680169C943090609D4C168C9
:101AF000C943090605D46FF0800101612046FFF754
:101B000083FE20680169C943490609D4C168C943F5
:101B1000490605D46FF040010161204600F068F8E5
:101B200020680169C94389060BD4C168C943890685
:101B300007D46FF0200101612046BDE87040FFF737
:101B400064BE70BD7047704770B500682449884214
:101B500005D1BDE8704001212248FFF7EFBAB0F18E
:101B6000804F3BD1204D214C6868411C69604FF487
:101B700080414E10092831D2DFE800F00510053011
:101B800010053030200000222046FFF7DDFA002249
:101B900031462046FFF7D8FA002209E0012220460C
:101BA000FFF7D2FA012231462046FFF7CDFA012293
:101BB0002046BDE870402021FFF7C6BA012220462A
:101BC000FFF7C2FA012231462046FFF7BDFA012293
:101BD00020212046FFF7B8FA0020686070BD0000A1
:101BE0000004004000040240000000200008024001
:101BF0007047704770B5026804461068D168536931
:101C000010F00F0F50D003F0010501F4907635432A
:101C10005DD0C20705D0CA0503D5E26B42F00102D0
:101C2000E263420705D5DA0703D0E26B42F0020215
:101C3000E263820705D5DA0703D0E26B42F00402C3
:101C4000E263020705D5DA0703D0E26B42F008022F
:101C5000E263E26B002A33D0800604D5880602D501
:101C6000204600F0A2FD20684069E16BC0F38010BF
:101C7000090700D428B3204600F089FD2068416997
:101C800049061AD5416921F040014161606BA0B15C
:101C90001B490165606BFFF737F9002810D0606BB6
:101CA000016DBDE870400847830610D58B060ED540
:101CB0002046BDE8704000F078BD2046FFF799FF50
:101CC00070BD2046FFF795FF0020E06370BD03065E
:101CD00006D50B0604D52046BDE8704000F074BE62
:101CE0004006F3D54806F1D5D168204621F04001E1
:101CF000D160202184F8391000F0B9F970BD0000DE
:101D00007F27000870B5040004D094F8390000253E
:101D100010B106E0012070BD84F83850204600F074
:101D200023F8242084F839002068C16821F4005188
:101D3000C160204600F084FD2068016921F49041D3
:101D400001612068416921F02A0141612068C16870
:101D500041F40051C160E563202084F8390084F823
:101D60003A00002070BD0000F0B587B00446142191
:101D70006846FEF76DFA2A4F23680022294902249B
:101D8000032507262848BB4221D1264B14331F6860
:101D900047F010071F601B6803F0100305930B68E2
:101DA00043F001030B60096802AB01F001010591EA
:101DB0006902CDE9001483E864006946FFF7C8F8BA
:101DC000002211462520FFF733FA252023E0174F84
:101DD000BB4222D1134B10331F6847F400371F60FA
:101DE0001B6803F4003305930B6843F001030B6099
:101DF000096802AB01F0010105910C21CDE9001445
:101E000083E864006946FFF7A3F800221146262004
:101E1000FFF70EFA2620FFF7FDF907B0F0BD00002E
:101E200000100140303802400000024000440040F1
:101E30002DE9F843044690F83A00994616460D46B7
:101E400020284FD195B18EB194F83800012849D09F
:101E5000012084F838000027E763222084F83A0044
:101E6000FFF778F9A6858046E68531E00120BDE8D8
:101E7000F883E08D401EE085A0684346B0F5805FA2
:101E80004FF000024FF020012046CDF8009004D022
:101E900000F0CBFD98B10320E9E700F0C6FD002873
:101EA000F9D1206900282068406803D0C1B225F824
:101EB000011B0DE0C0F3080125F8021B08E02069B2
:101EC00000282068406801D000F07F0005F8010B71
:101ED000E08D0028CDD1202084F83A0084F83870B5
:101EE0000020C4E70220C2E790F83A30202B22D12C
:101EF000F9B1F2B190F83830012B1CD081628285A3
:101F0000C2850021C163222280F83A2080F838106F
:101F10000168CA6842F48072CA6001684A6942F086
:101F200001024A610068C16841F02001C1600020DF
:101F3000704701207047022070470000006819496F
:101F400088422DD1184801680868C2888388521CCD
:101F50009A4205D0C388028993420DD182885AB92A
:101F600083880268D25C828803899A4201D1002268
:101F700001E08288521C828008680C49C388097875
:101F80000268D154C1880289914201D1002101E047
:101F9000C188491CC180012204490548FFF7A4BF3C
:101FA0007047000000100140C40200200000002023
:101FB000180D00202DE9F843044690F839001F461B
:101FC00016460D46202850D1A5B19EB194F8380090
:101FD00001284AD0012084F838004FF00008C4F8E6
:101FE0003C80212084F83900FFF7B4F8A6848146AC
:101FF000E68426E00120BDE8F883E08C401EE08402
:10200000A0684B46B0F5805F4FF000024FF08001B2
:102010002046009703D000F008FDE8B90DE000F07D
:1020200004FDC8B928882168C0F308004860206909
:1020300008B16D1C05E0AD1C03E0216815F8010B2B
:102040004860E08C0028D8D14B4600224021204631
:10205000009700F0EAFC08B10320CCE7202084F8C8
:10206000390084F838800020C5E70220C3E77047B4
:10207000FEE70000F0B587B014216846FEF7E8F8E7
:1020800021480024016841F004010160016801F069
:1020900004010591016841F080010160016801F0CF
:1020A00080010591016841F001010160016801F0C2
:1020B00001010591016841F0020101600068134EC1
:1020C00000F0020046F22005059000222946304625
:1020D000FFF73AF80E4F00220F213846FFF734F889
:1020E00000950125CDE90154694630460394FEF779
:1020F0002FFF0F200090CDE9015469463846039424
:10210000FEF726FF07B0F0BD30380240000802405D
:102110000004024010B586B00024174800940194D2
:102120000294039404944FF080410594016040F6BA
:10213000B731C0E901140121C0E903148021816194
:10214000FFF785FB08B1FEF7DEFE4FF480500090EC
:1021500069460948FFF7D7FB08B1FEF7D4FE04949F
:1021600004A905480594FFF751FB002801D0FEF7AC
:10217000CAFE06B010BD0000980C002010B586B055
:102180000024174800940194029403940494134982
:10219000059401604EF65F21C0E90114F921C0E900
:1021A000031480218161FFF752FB08B1FEF7ABFEFB
:1021B0004FF48050009069460948FFF7A4FB08B12E
:1021C000FEF7A1FE049404A905480594FFF71EFB41
:1021D000002801D0FEF797FE06B010BD00040040B5
:1021E000D80C00200C4810B50A4901604FF4E131C9
:1021F0004160002181600C22C160C0E9041281614C
:10220000C161FFF77FFD002803D0BDE81040FEF755
:102210007ABE10BD00100140180D00200C4810B50A
:102220000A4901604FF4E1314160002181600C22D4
:10223000C160C0E904128161C161FFF763FD00283C
:1022400003D0BDE81040FEF75EBE10BD0044004064
:10225000580D0020FEE770472DE9F0410F46044677
:1022600016464BA1544800F06BFC544D28780028CA
:10227000514806D0FDF7F7FF01464F4802F084FBB6
:1022800007E0FDF7F0FF82B2FF234B494C48FFF710
:1022900091FE22464BA1484800F052FC28780028C5
:1022A000454806D0FDF7DFFF0146434802F06CFBCE
:1022B00007E0FDF7D8FF82B2FF233F494048FFF710
:1022C00079FE002447E0200717D122093FA13A48B0
:1022D00000F036FC28780028374806D0FDF7C3FF09
:1022E0000146354802F050FB07E0FDF7BCFF82B223
:1022F000FF2331493248FFF75DFE2007B0F1704FF0
:1023000002D0701E844201D132A300E032A33A5DB4
:102310000A2A02D00D2A02D002E04E2200E0522208
:102320002EA1254800F00CFC28780028224806D071
:10233000FDF799FF0146204802F026FB07E0FDF774
:1023400092FF82B2FF231C491D48FFF733FE0A208B
:10235000FEF7ECFD641CB442B5D30DA1164800F0A5
:10236000EFFB28780028144807D0FDF77CFFBDE874
:10237000F0410146104802F007BBFDF774FFBDE8CD
:10238000F04182B2FF230C490D48FFF713BE000055
:102390002A2A2A2A2A2A2A2A2A2A2A2A2A20505259
:1023A000494E542043484152202A2A2A2A2A2A2ABE
:1023B0002A2A2A2A2A2A0A00E806002001000020E8
:1023C000180D002025733A0A000000002530385807
:1023D000203A20000A000000200000002563257339
:1023E000000000002DE9F0410F460446164647A1C3
:1023F000504800F0A5FB504D287800284D4806D0E5
:10240000FDF731FF01464B4802F0BEFA07E0FDF749
:102410002AFF82B2FF2347494848FFF7CBFD2246F7
:1024200047A1444800F08CFB28780028414806D09A
:10243000FDF719FF01463F4802F0A6FA07E0FDF755
:1024400012FF82B2FF233B493C48FFF7B3FD002453
:102450003FE0200717D122093BA1364800F070FB6E
:1024600028780028334806D0FDF7FDFE01463148A4
:1024700002F08AFA07E0FDF7F6FE82B2FF232D494B
:102480002E48FFF797FD2007B0F1704F02D0701E65
:10249000844201D12EA300E02EA33A5D2EA125484F
:1024A00000F04EFB28780028224806D0FDF7DBFE1E
:1024B0000146204802F068FA07E0FDF7D4FE82B238
:1024C000FF231C491D48FFF775FD0A20FEF72EFD6E
:1024D000641CB442BDD323A1164800F031FB287818
:1024E0000028144807D0FDF7BEFEBDE8F0410146C4
:1024F000104802F049BAFDF7B6FEBDE8F04182B2DD
:10250000FF230C490D48FFF755BD00002A2A2A2A4F
:102510002A2A2A2A2A2A2A2A2A205052494E542074
:10252000484558202A2A2A2A2A2A2A2A2A2A2A2AAE
:102530002A0A0000E806002001000020180D0020F3
:1025400025733A0A0000000025303858203A200050
:102550000A00000020000000307825303258257332
:10256000000000002A2A2A2A2A2A2A2A2A2A2A2A73
:102570002A205052494E5420454E44202A2A2A2AC5
:102580002A2A2A2A2A2A2A2A2A0A00007047704759
:10259000FEF7E6BD10B592B030216846FDF758FE53
:1025A00014210CA8FDF754FE012000900190022494
:1025B0008005CDE9064019200890F020CDE90904F6
:1025C00004200B906846FEF765FF0F20CDE90C0450
:1025D00000200E904FF4A0500F90E00210900321C5
:1025E0000CA8FEF757FE12B010BD00000D480168A0
:1025F00041F0010101600B4A0021083211600268BC
:10260000094B1A400260031D084A1A60026822F44E
:102610008022026003480C300160054958060860BA
:102620007047000000380240FFFFF6FE1030002423
:1026300008ED00E00148FFF7D2B90000980C002037
:102640000148FFF7CCB90000D80C0020F0B50268B3
:10265000254C264D264E274F274B4FF0804CA0424D
:1026600009D0604507D0A84205D0B04203D0B84297
:1026700001D0984204D122F0700E4A6842EA0E025C
:10268000A0421BD0604519D0A84217D0B04215D047
:10269000B84213D0984211D0184DA8420ED0184D10
:1026A000A8420BD0174DA84208D0174DA84205D01C
:1026B000164DA84202D0164DA84203D122F440750F
:1026C000CA682A434D6922F080022A4302608A6860
:1026D000C2620A688262A04201D0984201D10969AF
:1026E000016301214161F0BD000001400004004090
:1026F00000080040000C0040000401400040014080
:10270000004401400048014000180040001C004007
:102710000020004010B5846842EA032224F47F447C
:102720000A432243826010BD826822F070020A438D
:1027300042F007018160704710B5036A046A24F013
:1027400001040462846924F0F00444EA021423F0D2
:102750000A020A438461026210BD10B5036A23F0C5
:10276000100303628369046A23F4704343EA02326C
:1027700024F0A00343EA01118261016210BD10B58B
:10278000806B0021C185C184FFF733FA10BD016859
:10279000CA6822F49072CA6001684A6922F0010294
:1027A0004A61202180F83A10704710B590F83A102D
:1027B000222901D0022010BD8168B1F5805F11D0BF
:1027C0000169002901681FD0496801F07F03816A0F
:1027D0004A1C82620B70C18D491E0904090CC18517
:1027E00018D02BE00269816A002A0268526805D07D
:1027F000D2B20A80816A491C8162ECE7C2F3080206
:102800000A80816A891CF7E74A68816A4B1C8362E7
:102810000A70E0E70168CA6822F02002CA60016815
:10282000CA6822F48072CA6001684A6922F0010213
:102830004A61202180F83A10FFF780FB002010BD8C
:102840002DE9F041044600680169E26821F4405135
:10285000114301612169A068E2690843616911437C
:1028600022680843D16849F20C6399430143D1605F
:1028700020684169A26921F4407111434161E26914
:1028800064253226B2F5004F4D494E48226806D0E5
:10289000824201D08A4263D1FEF7B2FD62E08242F9
:1028A00001D08A4225D1FEF7ABFD00EBC00101EB60
:1028B000001061686FF0180C4900B0FBF1F3B3FB36
:1028C000F5F3B0FBF1F7B0FBF1F203FB0CF307EB10
:1028D000830306EBC303B2FBF5F2B3FBF5F312017E
:1028E00003F0F80302EB4302B0FBF1F3B0FBF1F0AD
:1028F00024E0FEF76DFD00EBC00101EB0011606804
:102900006FF0180C4000B1FBF0F3B3FBF5F3B1FB33
:10291000F0F7B1FBF0F203FB0CF307EB830306EBDC
:10292000C303B2FBF5F2B3FBF5F3120103F0F803B6
:1029300002EB4302B1FBF0F3B1FBF0F0B0FBF5F0BA
:102940006FF01801484303EB800006EBC000B0FBBA
:10295000F5F000F00700216810448860BDE8F081C0
:10296000FEF736FD00EBC00101EB001160686FF06F
:1029700018078000B1FBF0F2B2FBF5F2B1FBF0F307
:102980007A4303EB8202B1FBF0F306EB0212B2FBD7
:10299000F5F2B3FBF5F302F0F00202EB0312B1FB28
:1029A000F0F3B1FBF0F0B0FBF5F0784303EB8000FF
:1029B00006EB0010B0FBF5F000F00F00CBE70000D5
:1029C000001401400010014090F83910212901D075
:1029D000022070478168B1F5805F016A0BD04A1C04
:1029E0000262026809785160C18C491E0904090C11
:1029F000C1840ED017E009880268C1F30801516054
:102A000001690029016A02D0491C0162ECE7891CB6
:102A1000FBE70168CA6822F08002CA600068C168EA
:102A200041F04001C160002070472DE9F041984617
:102A300017460E460446069D1DE0681C1BD02DB1AE
:102A4000FEF788FBA0EB0800A84214D92068C168F3
:102A500021F4D071C1602068416921F00101416118
:102A6000202084F8390084F83A00002084F83800E7
:102A70000320BDE8F0812068006836EA000004D039
:102A80000020B842D9D00020F3E70120F9E7000088
:102A90002DE9F04123480078C8B3234D2868C16868
:102AA000224F890620D5016889061DD539684068FE
:102AB0000C68C6B2E088A188401C884205D0E08836
:102AC0002189884204D1A08810B9204601F029FF4D
:102AD000E18820684654E0882189884201D100209D
:102AE00001E0E088401CE0802968C86800060CD539
:102AF0000868000609D5386840688288C3889A4209
:102B000006D1C86820F08000C860BDE8F08104E00C
:102B100001F007FF29684860F7E7BDE8F041024887
:102B2000FFF768B801000020180D0020C402002043
:102B30000148FFF75FB80000580D0020FEE70000D5
:102B40000FB4084B10B504A902AA039800F0F2F8DC
:102B5000044602A9002000F084FC204610BC5DF869
:102B600014FB0000633400080907090E002804DB89
:102B700000F1E02080F80014704700F00F0000F131
:102B8000E02080F8141D704700487047E4060020DC
:102B900002E008C8121F08C1002AFAD17047704726
:102BA000002001E001C1121F002AFBD17047000084
:102BB0002DE9FF5F82B00021DDE90430020DDDF870
:102BC00040B0034318D044F61050A2F2FF32424303
:102BD0001514119801281FD0A5EB0B00401C5FEACB
:102BE000000A4FF000064E4FDFF83891B0465046CD
:102BF00015D5CAF1000413E0119801244AA3012855
:102C000001D16FEA0B010298119AC0E90031C0E9C5
:102C1000024206B0BDE8F09FCBF10000DFE70446BA
:102C20000021404A491842EB0450CDE9001012E05F
:102C3000E00707D032463B4640464946FDF7B5FE21
:102C40008046894632463B4610461946FDF7ADFEA2
:102C500006460F466410002CEAD1DDE90401DDE9E7
:102C60000023BAF1000F06DAFDF79FFE42464B46FD
:102C7000FDF79BFE05E0FDF73EFC42464B46FDF7A7
:102C80003AFC04460E460022284BFDF719FF03D8F4
:102C90004FF0FF30014607E00022254B2046314629
:102CA000FDF7DCFDFDF7F3FE102409E0002C0ADB44
:102CB0000A220023FDF782FA039B30321A55641E64
:102CC00050EA0102F2D1641C039AC4F111031444C6
:102CD000119A012A03D0012208430DD10AE00843CA
:102CE00004D000204FF0110B119072E7A3EB0B05FD
:102CF0006D1E0DE05B4504DD4FF0000205F101059E
:102D000004E003DA4FF00002A5F10105002AECD03F
:102D100002981199C0E90231C0E9004579E7000045
:102D2000000014400000F03F300000000000F043BD
:102D30000000E03F2DE9FF4F95B09B4689460646CF
:102D400000250FE2252877D100242746F84A0121E3
:102D5000059400E0044316F8013F203B01FA03F01C
:102D60001042F7D130782A2811D06FF02F03307835
:102D7000A0F13002092A16D8059A44F0020402EBA9
:102D8000820203EB42021044761C0590EFE759F8EB
:102D9000042B0592002A03DA504244F400540590B3
:102DA00044F00204761C30782E2816D116F8010F54
:102DB00044F004042A280DD06FF02F023078A0F1DF
:102DC0003003092B09D807EB870302EB4303C7182D
:102DD000761CF3E759F8047B761C30786C280FD00A
:102DE00006DC4C2817D068280DD06A2814D104E0DE
:102DF000742810D07A280FD10DE044F400140AE0B2
:102E000044F4801401E044F440147278824202D108
:102E100004F58014761C761C307866280BD013DC01
:102E2000582877D009DC002875D04528F6D04628E8
:102E3000F4D047281AD19DE118E0632835D06428E2
:102E400079D0652812D195E1702873D008DC672805
:102E5000F1D069286FD06E280DD06F2806D1B5E06B
:102E600073282CD0752875D0782874D05A461799B5
:102E700090476D1C75E1C4F30250022809D0032865
:102E80000DD0D9F8001004280DD00D6009F1040907
:102E900067E1D9F80010EA17C1E90052F6E7D9F85E
:102EA00000100D80F2E70D70F0E719F8041B8DF8A3
:102EB000001000208DF80100EA46012003E059F8D7
:102EC00004AB4FF0FF3061074FF0000102D40DE07A
:102ED00008F101018846B9420FDA8045F8DB1AF89B
:102EE00008100029F4D108E008F101018846814268
:102EF000FADB1AF808100029F6D105985B46A0EB1A
:102F0000080721463846179A00F094FA284400EB47
:102F1000080507E04DE029E10DE01AF8010B5A46DB
:102F200017999047B8F10108F7D25B462146384619
:102F3000179A13E142E00A220092C4F302524FF0C2
:102F4000000A022A08D059F804CB032A4FEAEC7190
:102F50000AD00DE029E02AE009F1070121F007027B
:102F6000F2E802C1914609E00FFA8CFC4FEAEC71DD
:102F7000042A03D14FFA8CFC4FEAEC71002907DADE
:102F80000A460021DCF1000C61EB02012D2202E077
:102F9000220504D52B228DF80420012203E0E2074C
:102FA00001D02022F7E7904659E00A2102E01022E2
:102FB0000DE010214FF0000A00910BE010224FF0BD
:102FC000000A44F004040827009203E008224FF0AE
:102FD000000A0092C4F30252022A05D059F804CB29
:102FE0000021032A08D009E009F1070121F00702B6
:102FF000F2E802C1914605E01FFA8CFC042A01D1D7
:103000000CF0FF0C4FF00008220728D5702806D0DE
:10301000009B83F0100353EA0A0305D00EE0402220
:103020008DF80420012208E05CEA010206D030227B
:103030008DF804208DF8050002229046009B83F055
:10304000080353EA0A030AD15CEA010201D16207CC
:1030500005D530228DF804204FF001087F1E582836
:1030600004D034A003900EA802900DE036A0F9E73A
:1030700053466046009AFDF7A1F884460398825CA7
:103080000298401E029002705CEA0100F0D10298A2
:1030900006A9081A00F1200A600702D524F480343A
:1030A00000E00127574502DDA7EB0A0000E0002001
:1030B00000EB0A01009005984144401A0590E00396
:1030C00006D45B462146179A059800F0B3F90544EB
:1030D000002706E001A85A46C05D179990476D1C6D
:1030E0007F1C4745F6DBE0030CD55B462146179A6B
:1030F000059800F09FF9054404E030205A461799DE
:1031000090476D1C0099481E00900029F5DC08E0EE
:10311000029802995A460078491C029117999047E3
:103120006D1CBAF10001AAF1010AF1DC65E10000B1
:10313000092801003031323334353637383961628D
:103140006364656600000000303132333435363751
:1031500038394142434445460000000000F058F928
:103160000544761C307800287FF4ECAD19B0284671
:10317000BDE8F08F620700D4062709F1070222F0AC
:10318000070CFCE80223E14603F000485FEA080C64
:1031900002D00FF2702C0DE05FEA045C02D50FF252
:1031A000682C07E05FEAC47C02D00FF2602C01E0DB
:1031B000AFF2700C4FF0FF3823F00043CDF850C051
:1031C00065280CD006DC452809D046281DD04728A4
:1031D0003DD13DE0662818D067287ED138E0002137
:1031E000112F01DB112000E0781CCDE9000106A9B8
:1031F0000EA8FFF7DDFCDDE90F010E9A0391002117
:10320000009207F1010A04914DE04FF00040009751
:10321000CDE9011006A90EA8FFF7CAFCDDE90F02EF
:1032200003920E9B11990022DDF80CA000930492EA
:1032300011B9791C00EB010AB7EB0A0004D4C0F104
:10324000FF3007F1010A0490AAEB0700019044E067
:10325000012F00DA01270021112F01DD112000E0EC
:103260003846CDE9000106A90EA8FFF7A1FCDDE96B
:103270000F010E9A0391002104910092BA46210792
:103280000CD40399514500DA8A46BAF1010F05DDE5
:10329000009AAAF10101515C302908D0B84202DA43
:1032A00010F1040F06DA0121CDE9011015E0AAF1B1
:1032B0000101E9E7002805DC049901440491AAEB27
:1032C000000102E0411C514500DD8A460499401A84
:1032D000401C01904FF000400290200704D4019858
:1032E000504501DBCDF8048000208DF84F00029896
:1032F0000DF14F07B0F1004F25D02B200E90029812
:103300004FF0020800280CDA404202902D200E9067
:1033100007E00A210298FDF76AF93031029007F8B8
:10332000011DB8F10001A8F10108F2DC02980028A3
:10333000EFD1791E0E980870307800F0200040F030
:10334000450007F8020D12A8C01B00F107081498E9
:10335000007800B1012000EB0A01019801EBE07157
:1033600005984144401A401E0590E00306D45B4690
:103370002146179A059800F05DF8054414980078E6
:1033800018B15A46179990476D1CE00324D55B4647
:103390002146179A059800F04DF805441CE0049862
:1033A000002807DBDDE90301884203DD0098405C6B
:1033B000179901E0179930205A469047049805F173
:1033C0000105401C04900198401E019004D12E205C
:1033D0005A46179990476D1CBAF10001AAF1010AEB
:1033E000DDDC05E017F8010B5A46179990476D1C74
:1033F000B8F10001A8F10108F4DC5B462146179AF8
:103400000598ABE62D0000002B0000002000000016
:103410002DE9F041044600251E461746880404D4D1
:1034200005E039462020B0476D1C641EF9D52846BA
:10343000BDE8F0812DE9F041044600251E46904686
:10344000C80301D5302700E02027880404D505E013
:1034500041463846B0476D1C641EF9D52846BDE884
:10346000F0810A68531C0B601070704738B5012852
:1034700004D9086800F004F9002038BD194800217B
:103480001A4B0163416318480090082203F59661C6
:10349000602001F0ADF80400EFD114480930FDF7C9
:1034A00014FD134D18B1A52803D012A102E015A1F7
:1034B00000E01BA12048FFF743FB287800281E48A6
:1034C00006D0FCF7D0FE01461B4801F05DFA07E08C
:1034D000FCF7C9FE82B2FF2317491848FEF76AFDC0
:1034E000204638BD30DA0020CC020020B0D50020C4
:1034F00001000020556E6B6E6F776E2073746174DF
:1035000075730A0044657669636520696E206E6F85
:10351000726D616C207374617475730A0000000031
:1035200044657669636520696E206572726F7220EA
:103530007374617475730A00E8060020180D00208A
:1035400070B50C460546052804D108A16068FCF753
:1035500091FE20B1206800F093F8002070BD214654
:103560002846BDE8704000F0D3BB000064616300F2
:103570002DE9F04786B02022102101A8FCF761FE5A
:103580000024DFF8C8900DF1040A314D314F56E0A8
:1035900004EB840605EB86082FA1D8F80C00FCF795
:1035A00069FE00284AD055F82600FCF75CFEC0F101
:1035B0000C0100220AF801202AA12C48FFF7C0FACA
:1035C00099F800000028294806D0FCF74CFE014677
:1035D000264801F0D9F907E0FCF745FE82B2FF2347
:1035E00022492348FEF7E6FCD8F80800009055F879
:1035F000262001AB1FA11D48FFF7A2FA99F8000091
:1036000000281A4806D0FCF72EFE0146174801F0A4
:10361000BBF907E0FCF727FE82B2FF2313491448E9
:10362000FEF7C8FC55F82600FCF71DFEC0F10C01A2
:1036300020220AF801201E20FDF778FC641C38685F
:103640008442A5D306B00020BDE8F0870100002029
:1036500008000020604F0008494E5445524E414C2E
:1036600000000000636D643A20000000E8060020BE
:10367000180D0020257325732D2025730A000000E6
:103680002DE9F04107460026534D544C09E000BF98
:1036900006EB8600394655F82000FCF71BFE30B1DA
:1036A000761C20688642F3D30020BDE8F0814CA14F
:1036B0004D48FFF745FA4D4C207800284A4806D07F
:1036C000FCF7D1FD0146484801F05EF907E0FCF740
:1036D000CAFD82B2FF2344494548FEF76BFC06EB66
:1036E000860644A155F826203F48FFF729FA20789E
:1036F00000283D4806D0FCF7B6FD01463A4801F0E7
:1037000043F907E0FCF7AFFD82B2FF2336493848A2
:10371000FEF750FC38A13448FFF712FA2078002851
:10372000314806D0FCF79FFD01462F4801F02CF9E7
:1037300007E0FCF798FD82B2FF232B492C48FEF7E7
:1037400039FC05EB86052BA12748EA68FFF7F8F955
:1037500020780028244806D0FCF785FD0146224841
:1037600001F012F907E0FCF77EFD82B2FF231E494B
:103770001F48FEF71FFC24A11B48FFF7E1F9207842
:103780000028194806D0FCF76EFD0146164801F0E6
:10379000FBF807E0FCF767FD82B2FF2312491448EB
:1037A000FEF708FC13A110482A69FFF7C9F9207831
:1037B00000280D4806D0FCF756FD01460A4801F0E6
:1037C000E3F871E7FCF74FFD82B2FF230649084892
:1037D000FEF7F0FB68E7000008000020604F0008DB
:1037E000636D643A20000000E8060020010000201C
:1037F000180D002025730A002020202020757361F9
:1038000067653A2020200000202020202065786174
:103810006D706C653A20000010B50C46022802D08D
:10382000042809D00DE00CA16068FCF723FD40B925
:10383000BDE8104000F0BEBC09A16068FCF71AFDAD
:1038400020B12068FFF71CFF002010BDD4E9020161
:10385000BDE8104000F038BC7061636B65747300A4
:1038600067657400F8B5012804D90868FFF708FFF8
:103870000020F8BD3A4800213B4B016341633948C1
:103880000090082203F59661402000F0B1FE06008A
:10389000EFD136A13948FFF753F9394D2878002880
:1038A000364806D0FCF7DFFC0146344801F06CF8DE
:1038B00007E0FCF7D8FC82B2FF2330493148FEF71D
:1038C00079FB294C30A1313422462C48FFF738F9D6
:1038D00028780028294806D0FCF7C5FC014627486F
:1038E00001F052F807E0FCF7BEFC82B2FF23234947
:1038F0002448FEF75FFB2534224629A11F48FFF725
:103900001FF9287800281D4806D0FCF7ACFC0146BA
:103910001A4801F039F807E0FCF7A5FC82B2FF2352
:1039200016491848FEF746FB04F1140223A1134878
:10393000FFF706F928780028104806D0FCF793FC1A
:1039400001460E4801F020F807E0FCF78CFC82B23B
:10395000FF230A490B48FEF72DFB3046F8BD000057
:1039600030DA0020CC020020B0D50020526573650B
:103970007420737563636573730A0000E8060020A2
:1039800001000020180D00204669726D7761726594
:103990002056657273696F6E3A2025730A00000025
:1039A000417373656D626C792053657269616C2037
:1039B0004E756D6265723A2025730A0046696C7413
:1039C00065722053657269616C204E756D62657217
:1039D0003A2025730A00000038B5012804D9086888
:1039E000FFF74EFE002038BD1A4800211B4B016333
:1039F000416319480090082203F59661502000F0B9
:103A0000F7FD0400EFD115480930FDF75EFAFCF729
:103A1000E1FD0022124BFCF76EFD02460B4611A1A0
:103A20001548FFF78DF8154800780028124806D091
:103A3000FCF719FC0146104800F0A6FF07E0FCF770
:103A400012FC82B2FF230C490D48FEF7B3FA204660
:103A500038BD000030DA0020CC020020B0D50020B4
:103A60000000244054656D70657261747572653A2A
:103A700020252E316C660A00E80600200100002097
:103A8000180D002010B50C46082802D002280CD0D2
:103A900010E00DA16068FCF7EDFB58B904F10801D6
:103AA000BDE81040062000F0BBBF08A16068FCF72D
:103AB000E1FB20B12068FFF7E3FD002010BDBDE869
:103AC000104000F0BFBA00007365740067657400B1
:103AD00010B50C46022802D0032814D018E015A116
:103AE0006068FCF7C7FB50B114A16068FCF7C2FB2B
:103AF000C0B114A16068FCF7BDFBB8B108E0BDE837
:103B0000104001F061B90BA16068FCF7B3FB20B174
:103B10002068FFF7B5FD002010BDA068BDE810408B
:103B200001F09AB9BDE8104000F0FCBFBDE81040BC
:103B300001F000BA696E69740000000066696C6586
:103B400000000000696E7374616C6C00F8B50128A8
:103B500004D90868FFF794FD0020F8BD474800210C
:103B6000484B0163416346480090082203F5966183
:103B7000302000F03DFD0600EFD1424C42A11D3443
:103B800022464648FEF7DCFF454D2878002843488A
:103B900006D0FCF768FB0146404800F0F5FE07E060
:103BA000FCF761FB82B2FF233C493E48FEF702FA74
:103BB0000A3422463CA13948FEF7C2FF2878002883
:103BC000364806D0FCF74FFB0146344800F0DCFED7
:103BD00007E0FCF748FB82B2FF2330493148FEF78B
:103BE000E9F90A34224636A12C48FEF7A9FF2878C5
:103BF00000282A4806D0FCF736FB0146274800F08B
:103C0000C3FE07E0FCF72FFB82B2FF2323492548C0
:103C1000FEF7D0F9253422462FA12048FEF790FF69
:103C2000287800281D4806D0FCF71DFB01461B48DC
:103C300000F0AAFE07E0FCF716FB82B2FF2317494B
:103C40001848FEF7B7F904F114022AA11348FEF749
:103C500077FF28780028114806D0FCF704FB0146BE
:103C60000E4800F091FE07E0FCF7FDFA82B2FF2358
:103C70000A490C48FEF79EF93046F8BD30DA0020BC
:103C8000CC020020B0D5002050726F6475637420A0
:103C90004E756D6265723A2025730A00E8060020B1
:103CA00001000020180D00204D616E75666163747F
:103CB00075726520446174653A2025730A0000001E
:103CC0004669726D776172652056657273696F6EB1
:103CD0003A2025730A000000417373656D626C79A8
:103CE0002053657269616C204E756D6265723A2071
:103CF00025730A0046696C746572205365726961A8
:103D00006C204E756D6265723A2025730A000000C2
:103D10002DE9FE4388680D460A220021801CFCF72D
:103D2000B1FB0646401E824C07281AD381A1874862
:103D3000FEF706FF20780028844806D0FCF793FAA7
:103D40000146824800F020FE07E0FCF78CFA82B2C0
:103D5000FF237E497E48FEF72DF94FF0FF30BDE886
:103D6000FE8301AA7BA1E868FCF7CAFADFF8E881C4
:103D70000198404503DD4FF48047B84219DB77A135
:103D80007248FEF7DDFE20780028704806D0FCF768
:103D90006AFA01466D4800F0F7FD07E0FCF763FAA8
:103DA00082B2FF2369496A48FEF704F96FF0010007
:103DB000D5E702AA67A12869FCF7A2FA0298404554
:103DC00001DDB84219DB6AA16048FEF7B9FE207830
:103DD00000285E4806D0FCF746FA01465B4800F032
:103DE000D3FD07E0FCF73FFA82B2FF23574958485A
:103DF000FEF7E0F86FF00200B1E762496248FDF7B4
:103E00005CF860490120091DFDF757F85D4930460F
:103E10000831FDF752F85B4901980C31FDF74DF878
:103E2000584902981031FDF748F858480090584B0F
:103E3000142254496FF0004000F0DAFB07008ED1E5
:103E400053480930FDF741F8054651480D30FDF75C
:103E50003CF80646030C2A0E4EA13C48FEF770FEC5
:103E600020780028394806D0FCF7FDF9014637488C
:103E700000F08AFD07E0FCF7F6F982B2FF23334930
:103E80003348FEF797F8B3B2C5F307424CA12F4869
:103E9000FEF756FE207800282C4806D0FCF7E3F900
:103EA00001462A4800F070FD07E0FCF7DCF982B219
:103EB000FF2326492648FEF77DF835481130FDF7E7
:103EC00004F80646030CC5F3072248A11F48FEF775
:103ED00037FE207800281D4806D0FCF7C4F90146BB
:103EE0001A4800F051FD07E0FCF7BDF982B2FF234C
:103EF00016491748FEF75EF8B3B2EAB246A1134876
:103F0000FEF71EFE20780028104806D0FCF7ABF91B
:103F100001460E4800F038FD07E0FCF7A4F982B234
:103F2000FF230A490A48FEF745F8384617E700001C
:103F300001000020537769746368206E756D6265B7
:103F40007220696E76616C69640A0000E8060020E0
:103F5000180D00202564000000C0FFFF56616C753D
:103F600065207820696E76616C69640A0000000043
:103F700056616C7565207920696E76616C69640A9A
:103F80000000000060DA0020A5A55A5ACC020020EB
:103F9000B0D50020506F736974697665207820640D
:103FA0006163206368616E6E656C203D2025752C11
:103FB0002076616C7565203D2025750A00000000A3
:103FC0004E6567617469766520782064616320635B
:103FD00068616E6E656C203D2025752C2076616CC5
:103FE0007565203D2025750A00000000506F73693B
:103FF00074697665207920646163206368616E6E00
:10400000656C203D2025752C2076616C7565203D02
:104010002025750A000000004E65676174697665A9
:10402000207920646163206368616E6E656C203D59
:104030002025752C2076616C7565203D2025750A3C
:104040000000000038B515480021164B016341639C
:1040500013480090082203F59661742000F0C8FA16
:1040600004001AD10F4A10A109321448FEF768FD66
:10407000134800780028114806D0FCF7F4F80146F0
:104080000E4800F081FC07E0FCF7EDF882B2FF2358
:104090000A490C48FDF78EFF204638BD30DA002073
:1040A000CC020020B0D50020526563656976656456
:1040B00020646174652025730A000000E806002072
:1040C00001000020180D002038B50D4600221146D1
:1040D000FCF7D8F90446002211462846FCF7D2F92D
:1040E000034623492046FCF7E8FE21491846091DEE
:1040F000FCF7E3FE1F4800901F4B08221C49762066
:1041000000F076FA040031D11B480930FCF7DDFEDF
:10411000034619480D30FCF7D8FE05461648113005
:10412000FCF7D3FE024615A11E480095FEF708FDD8
:104130001D48007800281B4806D0FCF794F801467B
:10414000184800F021FC07E0FCF78DF882B2FF234D
:1041500014491648FDF72EFF06480749001F153180
:10416000426813A01D3AFEF777F8204638BD0000DC
:1041700060DA0020CC020020B0D5002073697A6597
:10418000203D2025752C207061636B657473203D84
:104190002025752C206E756D626572203D20257579
:1041A0000A000000E806002001000020180D002091
:1041B0004C4F470038B5194800211A4B0163416341
:1041C00017480090082203F59661752000F010FA58
:1041D000040022D1134B0D331846FCF776FE02463D
:1041E000181DFCF772FE03460FA11648FEF7A8FC47
:1041F000154800780028134806D0FCF734F801462B
:10420000104800F0C1FB07E0FCF72DF882B2FF2355
:104210000C490E48FDF7CEFE204638BD30DA0020AE
:10422000CC020020B0D5002073697A65203D20259E
:10423000752C207061636B657473203D2025750AB1
:1042400000000000E806002001000020180D0020FA
:10425000C2B00025FCF78CFFFEF79CF9FDF70AFFC2
:10426000FDF78CFFFDF7BEFFFDF7D8FFFDF752FF0E
:10427000744E4FF480742146326852F8080B00F0F7
:1042800041FB32682146506802F5847200F03AFB27
:104290006D4C012060706D480068C16841F02001DC
:1042A000C1606B48FDF71EFB6A4E01229103304648
:1042B000FCF74AFF012251033046FCF745FF01227B
:1042C00020213046FCF740FF63A16748FEF738FC29
:1042D00060780028644806D0FBF7C5FF01466248B5
:1042E00000F052FB07E0FBF7BEFF82B2FF235E49FE
:1042F0005648FDF75FFE5DA15B48FEF721FC607844
:104300000028594806D0FBF7AEFF0146564800F09A
:104310003BFB07E0FBF7A7FF82B2FF2352494B4864
:10432000FDF748FE58A15048FEF70AFC60780028C7
:104330004D4806D0FBF797FF01464B4800F024FBA1
:1043400007E0FBF790FF82B2FF2347493F48FDF7A4
:1043500031FE6E464FF0FF3700F0F2FA0028FBD036
:1043600000F000FB8DF800010D28F5D00A280CD0D4
:1043700008283FD0FF2D01D270556D1C3B4601220D
:1043800040A93248FDF716FEE6E736A13648FEF7AB
:10439000D7FB60780028344806D0FBF764FF01465D
:1043A000314800F0F1FA07E0FBF75DFF82B2FF232E
:1043B0002D492648FDF7FEFD00207055684600F0A7
:1043C00067F831A12848FEF7BBFB60780028264833
:1043D00006D0FBF748FF0146234800F0D5FA07E076
:1043E000FBF741FF82B2FF231F491848FDF7E2FDAA
:1043F0000025B1E7002DAFD03B46012240A913486C
:10440000FDF7D8FD21A11848FEF79AFB6078002837
:10441000154806D0FBF727FF0146134800F0B4FA11
:1044200007E0FBF720FF82B2FF230F490748FDF7A3
:10443000C1FD3B46012240A90448FDF7BBFD6D1EAE
:104440008AE70000C402002000000020180D0020B0
:10445000D80C002000080240434F4D2069732072A1
:10446000656164790A000000E80600204669726D03
:10447000776172652056657273696F6E3A20302ECF
:10448000312E350A000000003E0000002000000030
:104490002DE9F043A1B000256F4634A105E000BF2F
:1044A00047F8250031A100206D1CFBF7F1FE002824
:1044B000F6D135B100242E4EDFF8B880DFF8B89081
:1044C0000DE04FF0FF3021B0BDE8F08304EB840233
:1044D000009958F82200FBF7FDFE98B1641CD9F84A
:1044E00000008442F2D325A12948FEF729FB307849
:1044F0000028274830D0FBF7B6FE0146244800F0DC
:1045000043FA31E004EB840208EB8201E8B24A6826
:1045100039469047040006D003461A461DA11C48A0
:10452000FEF70EFB03E029A11948FEF709FB3078DE
:104530000028174806D0FBF796FE0146144800F005
:1045400023FA07E0FBF78FFE82B2FF2310492748CA
:10455000FDF730FD2046B6E7FBF785FE82B2FF236C
:104560000B492248FDF726FD0020ACE7200900009A
:104570000100002008000020604F0008556E6B6E9F
:104580006F776E20636F6D6D616E640A00000000CE
:10459000E8060020436F6D6D616E64206578656389
:1045A0007574696F6E206661696C65642C20526554
:1045B0007475726E656420636F646520697320256D
:1045C0006420283D20252358290A0000436F6D6D83
:1045D000616E6420657865637574656420737563C6
:1045E0006365737366756C6C790A0000180D0020A2
:1045F0002DE9F047894F14004FF05502DDF8209067
:104600003A7000BAC7F8010004F10C0000BA1D4668
:10461000C7F805004FF0090606D007F10900224649
:10462000FBF7FDFD04F1090604F108013C46781C86
:10463000FCF754FC00BAA051361DB2B2FF237749F3
:104640007748FDF7B7FC774FE8B14FF4DC73764A53
:1046500076A17C48FEF774FA38780028794806D0AD
:10466000FBF701FE0146774800F08EF907E0FBF703
:10467000FAFD82B2FF2373497348FDF79BFC4FF0AC
:10468000FF30BDE8F087002028704FF47A7423468D
:10469000012229466248FDF7CBFBE0B140F2BF138F
:1046A000614A6AA16748FEF74BFA387800286548E6
:1046B00006D0FBF7D8FD0146624800F065F907E037
:1046C000FBF7D1FD82B2FF235E495F48FDF772FC24
:1046D0006FF00100D5E728785528D8D1FF230822AC
:1046E000691C4F48FDF7A4FBE0B14FF4E2734E4A5A
:1046F0005DA15448FEF724FA38780028514806D0C6
:10470000FBF7B1FD01464F4800F03EF907E0FBF72B
:10471000AAFD82B2FF234B494B48FDF74BFC6FF0DB
:104720000200AEE70520FF23405905F1090104BA54
:10473000A4F1080082B23A48FDF77AFB08B34FF4BF
:10474000E573394A4FA13F48FEF7FAF93878002857
:104750003C4806D0FBF787FD01463A4800F014F9C3
:1047600007E0FBF780FD82B2FF2336493648FDF7AC
:1047700021FC092229464AA0FDF734FE6FF0030010
:104780007FE72E19A6F10308211F681CFCF7A6FB82
:10479000D8F8001009BA81421CD040F2D313224A43
:1047A00044A12848FEF7CCF938780028254806D0DF
:1047B000FBF759FD0146234800F0E6F807E0FBF758
:1047C00052FD82B2FF231F491F48FDF7F3FB6FF034
:1047D000040056E756F8070C02BAD2B113463BA1C3
:1047E0001848FEF7ADF938780028164806D0FBF7D0
:1047F0003AFD0146134800F0C7F807E0FBF733FD28
:1048000082B2FF230F491048FDF7D4FB6FF005007B
:1048100037E7641C0020C9F8004032E7E8070020B1
:10482000580D0020010000207B4F000825732C2527
:10483000643A205472616E736D6974206661696CAC
:1048400065640A00E8060020180D002025732C2559
:10485000643A2052656365697665206661696C65B6
:104860006420310A0000000025732C25643A205290
:10487000656365697665206661696C656420320AE6
:104880000000000025732C25643A20526563656999
:104890007665206661696C656420330A000000005B
:1048A0005265636569766564206D657373616765DC
:1048B0007300000025732C25643A20436865636B00
:1048C00073756D206661696C65640A00436F6D6D78
:1048D000616E6420657865637574696F6E206661CA
:1048E000696C65642C2052657475726E6564206312
:1048F0006F646520697320256420283D2025235896
:10490000290A000000238380C380491E01810260C0
:1049100070478188C088814201D101207047002002
:10492000704782880168895C828803899A4201D134
:10493000002201E08288521C8280084670470000F5
:10494000074800680068C1888288891AC2888388FD
:104950009A4202D20089491C014488B27047000083
:10496000C40200200748006801688A880868805CE3
:104970008A880B899A4201D1002201E08A88521C60
:104980008A807047C40200202DE9F0410F4680461E
:104990000024214D214E03E018F804104160641CEE
:1049A00030684068FFF7B5FF28B12868016809063C
:1049B00001D5BC42F0D32868C16821F08001C160F4
:1049C0001BE0306818F804104068C2888388521CC5
:1049D0009A4214D0C28803899A4201D1828872B166
:1049E000C3880268D154C1880289914201D1002153
:1049F00001E0C188491CC180641CBC42E1D330681D
:104A00004068FFF786FF20B92868C16841F080013F
:104A1000C1602046BDE8F081180D0020C4020020CE
:104A20002DE9FF470C4648690A220021FBF72AFDC1
:104A300081460A2200212069FBF724FD80460A22D4
:104A40000021E068FBF71EFD07460A220021A0684E
:104A5000FBF718FD06460A2200216068FBF712FDED
:104A600005460A2200212068FBF70CFD8DE8C003F3
:104A700002462B4616A11E48FEF762F81C4A1DA1ED
:104A80002348FEF75DF8234800780028204806D028
:104A9000FBF7E9FB01461E48FFF776FF07E0FBF74F
:104AA000E2FB82B2FF231A491B48FDF783FA104844
:104AB000002130381A4B40F83F1F1422017117486B
:104AC00000900B497320FFF793FD04B0BDE8F08719
:104AD0002530346C752530326C752530326C752577
:104AE00030326C752530326C752530326C750000B3
:104AF00060DA002053656E64696E672064617465D6
:104B000020257320746F206D6F64756C650A00003A
:104B1000E806002001000020180D0020CC02002033
:104B2000B0D500202DE9FC5FDFF8D091002501957C
:104B3000D9F800004FF00108C16821F02001C160E0
:104B4000DFF8BCA16FA174488AF80050FDF7F8FFA8
:104B50007148FBF788FB82B2FF236F494846FDF797
:104B600029FA4EF660234FF480726C494846FDF7EF
:104B70005FF9C0B16AA16848FDF7E2FF6648FBF73C
:104B800072FB82B2FF2364494846FDF713FAD9F855
:104B90000000C16841F02001C16001208AF80000D6
:104BA0000020BDE8FC9F5D4842F2107350F8C01F22
:104BB00009BA21F0FF04C1780C434168C07909BAF1
:104BC00021F0FF0659490643A2B20F464B48FDF7B4
:104BD0002FF93346224656A14F48FDF7B1FF4E4804
:104BE000FBF741FB82B2FF234B494448FDF7E2F952
:104BF00021463846FCF772F9B04201D157A100E0D6
:104C00005AA14548FDF79CFF4348FBF72CFB82B2B5
:104C1000FF2341493948FDF7CDF958A13E48FDF73A
:104C20008FFF3D48FBF71FFB82B2FF233A49334811
:104C3000FDF7C0F904F5807642E000BF544898FAC9
:104C400088F1016053490A68A918B14202D9621B70
:104C500002F5807211BA8346416030481746411907
:104C60004B480830FBF7DBFA0BEB070100208860AC
:104C70004848494B001D009007F10C02444911209F
:104C8000FFF7B6FC5FEA000B17D0B8F1010F19D19E
:104C90000198032816D241A11F48FDF751FF1E4875
:104CA000FBF7E1FA82B2FF231B491448FDF782F9B2
:104CB0000198401CC0B2019002E008F101083D4497
:104CC000B542BBD3B54201D136A100E03AA11248AA
:104CD000FDF736FF1048FBF7C6FA82B2FF230E49F4
:104CE0000648FDF767F9D9F80000C16841F02001D6
:104CF000C16001208AF80000584652E7180D0020D4
:104D000001000020446F776E6C6F616420696D61F3
:104D100067652E2E2E0A0000E8060020B00D002048
:104D200054696D656F75740A00000000B00E0020B4
:104D3000446F776E6C6F6164207375636365737322
:104D40002C204C656E677468203D2025752C2063EF
:104D50007263203D202523580A000000435243334C
:104D60003220737563636573730A000043524333E3
:104D700032206661696C65640A00000053656E64E8
:104D8000696E6720696D6167652E2E2E0A0000002E
:104D900060DA0020C8020020B0D50020526574728D
:104DA000790A000053656E6420667720737563632B
:104DB0006573730A0000000053656E6420667720F7
:104DC0006661696C65640A0038B5184C4FF4806000
:104DD00017A120601B48FDF7B3FE1B480078002890
:104DE000184806D0FBF73FFA01461648FFF7CCFDFE
:104DF00007E0FBF738FA82B2FF2312491348FDF7A8
:104E0000D9F8012001BA12481022124B0160216822
:104E100009BA416000218160C16004480C49001D4D
:104E200000901046FFF7E4FB38BD0000C8020020E8
:104E3000496E697469616C697A6520557067726141
:104E400064650A00E806002001000020180D00201B
:104E500060DA0020B0D5002038B500221146FBF7FB
:104E600011FB274C274D2060A0F58070B0F5407FE6
:104E70001BD94FF4806020604423234A23492448EF
:104E8000FDF75EFE28780028214806D0FBF7EBF9F5
:104E900001461F48FFF778FD07E0FBF7E4F982B20F
:104EA000FF231B491B48FDF785F81BA11848FDF798
:104EB00047FE28780028164806D0FBF7D4F90146AB
:104EC0001348FFF761FD07E0FBF7CDF982B2FF233E
:104ED0000F491048FDF76EF8012001BA134810225F
:104EE000134B0160216809BA416000218160C160F3
:104EF00003480E49001D00901046FFF779FB38BDAE
:104F0000C802002001000020644F00080852000879
:104F1000E8060020180D0020496E697469616C690B
:104F20007A6520557067726164650A0060DA002056
:104F3000B0D5002008B507480021084B0163416344
:104F400005480090082203F596611220FFF750FBF8
:104F500008BD000030DA0020CC020020B0D50020CF
:104F600009000000757067726164655F696E69743D
:104F70005F776974685F73697A650070726F6365E3
:104F800073735F636F6D6D616E64000000000000FD
:104F900000000001020304060708090000000001E8
:104FA00002030400404040404040404040414141F5
:104FB00041414040404040404040404040404040EF
:104FC00040404040050202020202020202020202C6
:104FD0000202020220202020202020202020020285
:104FE0000202020202909090909090101010101007
:104FF00010101010101010101010101010101002BF
:10500000020202020288888888888808080808083E
:105010000808080808080808080808080808080216
:1050200002020240A44F0008646174652067657441
:10503000207C2073657420323032302037203239A2
:105040002031352035352035300000006C6F672069
:105050007061636B657473207C20676574203132E6
:10506000332032006C6F67207061636B657473204E
:105070007C20676574203C7061636B6574733E20AF
:105080003C6E756D6265723E00000000526573658E
:1050900074207468652064657669636500000000AB
:1050A000436F6D6D616E642061626F757420757001
:1050B0006772616465000000757067726164650005
:1050C0005365742F476574206D6F64756C6520742B
:1050D000696D650047657420646576696365207451
:1050E000656D7065726174757265000064617465E8
:1050F00000000000436F6D6D616E642061626F752A
:1051000074206C6F670000006C6F6700436F6D6DFB
:10511000616E6420666F72206465627567000000CE
:105120007570677261646520696E6974205B3531E2
:10513000325D207C2066696C65207C20696E73740A
:10514000616C6C007570677261646520696E69746A
:10515000205B626C6F636B5F73697A655D207C2096
:1051600066696C65207C20696E7374616C6C0000EC
:105170004765742076657273696F6E0048656C7060
:1051800020696E666F726D6174696F6E0000000059
:1051900068656C70207C203C636D643E2068656CA3
:1051A0007000000068656C70207C2075706772610B
:1051B00064652068656C700068656C7000000000B4
:1051C00074656D700000000064617465206765742B
:1051D000207C207365742079206D20642068206D08
:1051E00020730000476574206465766963652073E9
:1051F00074617475730000007374617475730000DA
:10520000726573657400000025732C25643A204292
:105210006C6F636B2073697A65206578636565647C
:10522000206C696D69746174696F6E2C20646566A9
:1052300061756C7420746F2046575F424C4F434B2E
:105240005F4D41585F53495A450A00006C520008AF
:1052500000000020E8060000640E00080C5700085B
:10526000E806002088DB0000A02B00088113B8505E
:105270001408D13A1B08A0081344511B0820041A33
:105280007404134D3B5B08700C290411125214086E
:1052900065381B088C28290C29041AC01813D93921
:1052A0001B08D414290C29041AF804136D345B0864
:1052B000E40C29041AEC201A85641AC0081AC810D4
:1052C0001A28081A08081A19501AF40C1A64041A31
:1052D0004C041A18141341351B080C08290C290416
:1052E0001AB8041A71141A7C081A90041AA4041328
:1052F000980D1B20A40401FF01FF2122BC1220A253
:105300000410C2963007772C610EEEBA5109991934
:10531000C46D078FF46A7035A563E9A395649E3266
:1053200088DB0EA4B8DC791EE9D5E088D9D2972BAA
:105330004CB609BD7CB17E072DB8E7911DBF9064C6
:1053400010B71DF220B06A4871B9F3DE41BE847D0A
:10535000D4DA1AEBE4DD6D51B5D4F4C785D38356A6
:10536000986C13C0A86B647AF962FDECC9658A4F2A
:105370005C0114D96C0663633D0FFAF50D088DC806
:10538000206E3B5E10694CE44160D5727167A2D11A
:10539000E4033C47D4044BFD850DD26BB50AA5FA56
:1053A000A8B5356C98B242D6C9BBDB40F9BCACE3BA
:1053B0006CD832755CDF45CF0DD6DC593DD1ABAC36
:1053C00030D9263A1061DE518051D7C81661D0BF5E
:1053D000B5F4B42123C4B3569995BACF0FA5BDB87F
:1053E0009EB802280888055FB2D90CC624E90BB123
:1053F000877C6F2F114C6858AB1D61C13D2D66B67F
:105400009041DC760671DB01BC20D2982A10D5EFE2
:105410008985B1711FB5B606A5E4BF9F33D4B8E83E
:10542000A2C9077834F910270F8EA8099618980E8C
:10543000E1BB0D6A7F2D3D6D08976C6491015C6343
:10544000E6F4516B6B62616C1CD83065854E103C84
:1054500062F2ED95066C7BA5011BC1F4088257C46E
:105460000FF5C6D9B06550E9B712EAB8BE8B7C8893
:10547000B9FCDF1DDD62492DDA15F37CD38C654C58
:10548000D4FB5861B24DCE51B53A7410B1BCA3E211
:1054900030BBD441A5DF4AD795D83D6DC4D1A4FB1C
:1054A000F4D6D36AE96943FCD96E34468867ADD037
:1054B000B860DA732D0444E51D03335F4C0AAAC9B2
:1054C0007C0DDD3C710550AA41022710100BBE86F1
:1054D000200CC925B56857B3856F2009D466B99FDC
:1054E000E461CE0EF9DE5E98C9D9292298D0B0B415
:1054F000A8D7C7173DB359810DB42E3B5CBDB7ADDE
:105500006CBAC02083B8EDB6B3BF9A0CE2B6039A6A
:10551000D2B1743947D5EAAF77D29D1526DB048323
:1055200016DC73120B63E3843B64943E6A6D0DA832
:105530005A6A7A0BCF0EE49DFF099327AE10E40A56
:10554000B19E077D44930FF0D2A3088768F2011E35
:10555000FEC206695D5762F7CB67658071366C19CC
:10556000E7066B6E761BD4FEE02BD3895A7ADA10ED
:10557000CC4ADD676FDFB9F9F9EFBE8E43BEB717CE
:10558000D58EB060E8A3D6D67E93D1A1C4C2D83858
:1055900052F2DF4FF167BBD16757BCA6DD06B53FBE
:1055A0004B36B248DA2B0DD84C1B0AAFF64A0336FD
:1055B000607A0441C3EF60DF55DF67A8EF8E6E317C
:1055C00079BE69468CB361CB1A8366BCA0D26F25C5
:1055D00036E2685295770CCC03470BBBB916022212
:1055E0002F260555BE3BBAC5280BBDB2925AB42B27
:1055F000046AB35CA7FFD7C231CFD0B58B9ED92C3C
:105600001DAEDE5BB0C2649B26F263EC9CA36A75A0
:105610000A936D02A906099C3F360EEB8567077257
:10562000135730E305824ABF95147AB8E2AE2BB126
:105630007B381BB60C9B8ED2920DBED5E5B7EFDC46
:105640007C21DFDB0BD4D2D38642E2D4F1F8B3DD88
:10565000686E83DA1FCD16BE815B26B9F6E177B09E
:105660006F7747B718E65A0888706A0FFFCA3B067B
:10567000665C0B0111FF9E658F69AE62F8D3FF6B0C
:105680006145CF6C1678E20AA0EED20DD7548304A0
:105690004EC2B30339612667A7F71660D04D47693C
:1056A00049DB776E3E4A6AD1AEDC5AD6D9660BDF4B
:1056B00040F03BD83753AEBCA9C59EBBDE7FCFB20E
:1056C00047E9FFB5301CF2BDBD8AC2BACA3093B3F8
:1056D00053A6A3B4240536D0BA9306D7CD2957DEF6
:1056E00054BF67D9232E7A66B3B84A61C4021B68D7
:1056F0005D942B6F2A37BE0BB4A18E0CC31BDF0544
:0C5700005A8DEF022D0182109324F4005A
:040000050800018569
:00000001FF
