:020000042000DA
:10000000B0E30120810200207B5600203B4C002001
:1000100079560020EB0A0020C96B00200000000088
:10002000000000000000000000000000C1010020EE
:10003000091C0020000000001D020020D5640020E3
:100040009B0200209B0200209B0200209B020020BC
:10005000C51C00209B0200200B1C00209B020020DE
:100060009B0200209B0200209B0200209B0200209C
:100070009B0200209B0200209B0200209B0200208C
:100080009B0200209B0200209B0200209B0200207C
:100090009B0200209B0200209B0200209B0200206C
:1000A0009B0200209B020020C16500209B020020D3
:1000B0009B0200209B0200209B0200209B0200204C
:1000C0009B0200209B0200209B0200209B0200203C
:1000D0009B0200201D6A00209B0200209B02002042
:1000E000111C00209B0200209B0200209B0200208C
:1000F0009B0200209B0200209B0200209B0200200C
:100100009B0200209B0200209B0200209B020020FB
:100110009B0200209B0200209B0200209B020020EB
:100120009B0200209B020020591B00209B02002004
:100130009B0200209B0200209B0200209B020020CB
:100140009B0200209B0200209B0200209B020020BB
:100150009B0200209B0200209B0200209B020020AB
:100160009B0200209B0200209B0200209B0200209B
:100170009B0200209B0200209B0200200000000048
:100180009B0200209B0200209B0200209B0200207B
:100190009B0200209B0200209B0200209B0200206B
:1001A00000000000000000009B020020DFF80CD0DF
:1001B00000F0BAFB0048004721780020B0E301209E
:1001C0002C4B19680868B0E8F04F80F30988BFF33A
:1001D0006F8F4FF0000080F311887047000000001F
:1001E00008480068006880F308884FF0000080F33A
:1001F000148862B661B6BFF34F8FBFF36F8F00DF15
:1002000000BF00BF08ED00E0DFF80C00016841F41A
:1002100070010160704700BF88ED00E0EFF30980D6
:10022000BFF36F8F134B1A681EF0100F08BF20ED3D
:10023000108A20E9F04F106009B44FF0500080F3AD
:100240001188BFF34F8FBFF36F8F08F0D9FE4FF0C7
:10025000000080F3118809BC19680868B0E8F04F05
:100260001EF0100F08BFB0EC108A80F30988BFF3AE
:100270006F8F704738850120EFF3058070470000CD
:100280000648804706480047FEE7FEE7FEE7FEE730
:10029000FEE7FEE7FEE7FEE7FEE7FEE7A9650020D2
:1002A000AD0100202DE9F05F0546002092469B46F7
:1002B00088460646814640241BE02846414647467C
:1002C000224600F05EFA53465A46C01A914110D3B6
:1002D00011461846224600F045FA2D1A67EB010830
:1002E0004F4622460120002100F03CFA17EB00099E
:1002F0004E41201EA4F10104DFDC484631462A4667
:100300004346BDE8F09F40EA01039B0703D009E0A4
:1003100008C9121F08C0042AFAD203E011F8013BF1
:1003200000F8013B521EF9D27047D2B201E000F84A
:10033000012B491EFBD270470022F6E710B5134689
:100340000A4604461946FFF7F0FF204610BD421C3E
:1003500010F8011B0029FBD1801A704710B500224C
:1003600000E0521C835C8C5CA34201D1002BF8D1CD
:10037000D8B2E1B2401A10BD034611F8012B00F8C3
:10038000012B002AF9D1184670472DE9F05F9346FA
:100390000F4680460446002606F03CFCD0F800904C
:1003A000824614F8015B2DB100F00EFA0068405D42
:1003B000C007F6D12B2D02D02D2D1AD0641E00219E
:1003C000CAF800105A463946204600F001FA0146A4
:1003D00027B13868A04201D1C7F80080DAF80000E0
:1003E000022809D0CAF80090700505D54842BDE83A
:1003F000F09F46F48066E2E70846F8E72DE9FE4FF5
:10040000804681EA0300C00F0C46009021F00041B5
:1004100023F00045B8EB0200A94105D24046214631
:1004200090461C460B46024623F00040104347D03E
:10043000270DC7F30A00C3F30A510290401A019036
:1004400040286BDAC3F3130040F4801B00989246F7
:1004500020B10023D2EB030A63EB0B0B0198594642
:10046000C0F14002504600F07DF906460D46504668
:100470005946019A00F095F910EB080061410024FB
:1004800087EA115284EAE7731A4340D0009A62B3B4
:10049000019A012A4FEA075215DC001B61EB0201A9
:1004A0004FF0004202EA0752CDE90042001C41F53C
:1004B000801132462B4600F0E9F903B0BDE8F08F19
:1004C00040462146F9E7001B61EB0201001C41F5A3
:1004D000801300185B412018A2F5001747EB0301B9
:1004E00040EAD570B6196D4111E06D084FEA360645
:1004F00045EAC0754FEA0752001B61EB0201001C80
:1005000041F5801149084FEA300000195141324647
:100510002B4603B0BDE8F04F00F0A9B900980122C6
:1005200040000023D0EB020263EBE0730098214609
:100530004FEAE074B8EB000061EB0401E9E783F0F7
:1005400000435BE781F0004158E72DE9FE4F81EA67
:10055000030404F0004421F0004100944FF0000B2C
:1005600023F0004350EA01045ED052EA03045BD05A
:10057000C3F30A54C1F30A552C44A4F2F334019492
:10058000A0FB0254C1F3130141F48011C3F3130320
:1005900043F4801301FB024400FB034E840A970AD4
:1005A00044EA815447EA8357A4FB076802958D0A01
:1005B00005FB07854FEA932C04FB0C542705029D8D
:1005C0004FEA065847EA1637B5EB08056EEB070CFD
:1005D000870E920E47EA811742EA8312A7FB0201B7
:1005E000B6EB0B0164EB00042B0D43EA0C335E18F1
:1005F00044EB1C50DA465146E7FB0201C5F31304F5
:100600004FEA0B3343EA14534FEA0432019C43EAA6
:100610000603A4F10C040294009CCDE900B400F0A0
:1006200035F903B0BDE8F08F00200146F9E72DE968
:10063000F04D81EA030404F0004B21F0004514461C
:100640004FF0000A23F0004150EA050220D054EA9E
:1006500001021DD0C5F30A570246C5F31303C1F3C7
:100660001300C1F30A5640F4801543F48013A7EB3E
:100670000608101BD64608F2FD3873EB050002D3BE
:1006800008F1010801E092185B41B8F1000F03DAAC
:1006900000200146BDE8F08D00204FF48011064691
:1006A00084460EE0171B73EB050705D3121B63EBA3
:1006B000050306434CEA010C49084FEA3000921842
:1006C0005B4150EA0107EDD152EA030012D082EA01
:1006D000040083EA0501084305D0101BAB4106D294
:1006E0000122002306E000224FF0004302E06FF0F9
:1006F000010253101AEB06004CEB085110EB0A00F4
:1007000041EB0B01BDE8F04D00F0B1B80EB540F281
:10071000334102910021CDE900110A460B4600F059
:10072000B5F803B000BD70B5C1F30A5201F0004541
:100730000024C1F3130140F2FF3341F480119A42C7
:1007400001DA002070BD40F233439A42A2F23342F4
:1007500003DC524200F015F800E090402C43F1D049
:10076000404270BD202A04DB203A00FA02F100204A
:1007700070479140C2F1200320FA03F319439040DF
:100780007047202A04DB203A21FA02F0002170474A
:1007900021FA02F3D040C2F12002914008431946E9
:1007A0007047202A06DBCB17203A41FA02F043EAD1
:1007B000E07306E041FA02F3D040C2F1200291401A
:1007C000084319467047000000487047E0A2002027
:1007D0002DE9F05F82460078002715468B460AF126
:1007E0000104B946302801D09DB113E014F8010B83
:1007F0000127782803D0582801D045B10AE00DB16F
:10080000102D07D10027102514F8010B02E0082550
:1008100000E00A250026B0460EE005FB080005FBB7
:1008200006F1012701EB10461FFA80F8B6F5803F6C
:1008300000D3B94614F8010B294600F087F80028C8
:10084000EBDABBF1000F05D00FB1641E00E0544697
:10085000CBF80040B9F1000F06D006F0DBF9022119
:100860000160C81EBDE8F09F48EA0640FAE710B5EF
:10087000141E73F1000408DA401C41F100019218C3
:100880005B411A4301D120F0010010BD2DE9F04D6C
:1008900092469B4611B1B1FA81F202E0B0FA80F2C1
:1008A00020329046FFF75EFF04460F4640EA0A00FA
:1008B00041EA0B0153465A46084313D0114653EA06
:1008C000010019D0C8F140025046FFF75AFF054613
:1008D0000E46504659464246FFF744FF084305D0AE
:1008E000012004E020463946BDE8F08D0020054394
:1008F00046EAE0762C4337430A986305E40AA0EB06
:1009000008000022FD0A44EA47540A3002D50020BC
:100910000146E9E7010510196941DDE908450019BB
:100920006941BDE8F04DA2E7064C074D06E0E068DE
:1009300040F0010394E8070098471034AC42F6D326
:10094000FFF738FC1CA400203CA400203A2800D269
:10095000303820F02002412A01D3A2F1370088422A
:1009600001D34FF0FF30704730B58C1810F8012BD1
:1009700012F00F0301D110F8013B120906D110F853
:10098000012B03E010F8015B01F8015B5B1EF9D15C
:1009900001E001F8013B521EFBD1A142E6D3002049
:1009A00030BD0000464910B54A6822F440324A6022
:1009B0004A6843681A434A6001684A6822F48072B0
:1009C0004A6001684A68036942EA03224A60016892
:1009D0004A6822F040724A6001684A6883681A4394
:1009E0004A6001688A6822F400628A6001688A6845
:1009F000C3681A438A60816A6FF07062D1420168ED
:100A00008A6822F070628A6001688A680CD0836A02
:100A10001A438A6001688A6822F040528A6001683D
:100A20008A68C36A1A4301E022F040528A60016872
:100A30008A6822F002028A6001688A68037E42EABC
:100A400043028A6090F82010002901684A680FD09C
:100A500042F400624A6001684A6822F460424A60D7
:100A600001684A68174C436A04EB43331A4301E0B8
:100A700022F400624A600168CA6A22F47002CA6203
:100A80000168CA6A838B104C04EB03531A43CA6291
:100A900001688A6822F400728A6001688A6890F8A6
:100AA000303042EA43228A6001688A6822F4806218
:100AB0008A6001688A68406942EA8020886010BDC7
:100AC0000023014000E0FFFF0000F0FF020E0A706B
:100AD000020C4A70020A8A70C87070470168C078B8
:100AE00009BA21F0FF0108437047FEE730B54FF027
:100AF000FF330022064C07E0855C5D40EDB2521CDE
:100B000054F8255085EA13238A42F5D3D84330BDE3
:100B100000800120044800226021C260C0E9001268
:100B20000421816010467047708E01202DE9F05F2E
:100B300033488146FFF7D2FF324E0027324942F256
:100B4000837B4FF004086FF0004506F13C04B76466
:100B5000884201D0584621E009F10400FFF7BEFFAA
:100B600001462748113800F1190200F11D0A00F171
:100B70002109012918D002292CD0032937D00429B2
:100B8000E8D11046B764FFF7A9FF06465046FFF7C5
:100B9000A5FF0246F0B2494606F044FCC4F80880BE
:100BA000C4E90050BDE8F09FB764F76410463765AC
:100BB000FFF794FF07465046FFF790FF064648466A
:100BC000FFF78CFF0246F8B2314606F043FB0C21DA
:100BD000256009E0B7641046F764FFF77FFFC0B2F5
:100BE00006F0CEFA08212560C4E90101DAE71046D3
:100BF000B764FFF773FFC0B206F066FCCEE70000F3
:100C0000C5890120348E0120A5A55A5A2DE9F05F2F
:100C1000424D434801F03AFB3221414801F0E4FAE9
:100C200000264FF47A794FF0FF3AA5F10C045027D3
:100C30004FF00408B8B140F243133A4A3AA145488C
:100C400005F0C4FF4348FFF782FB82B2FF2341490E
:100C5000414803F094FF484607F03EFD28603048C5
:100C600001F08AFB49E02E4801F07CFA83462C48CB
:100C700001F082FB5846FFF749FD9FED381B53EC0E
:100C8000112BFFF762FC9FED371B53EC112BFFF785
:100C90005CFC9FED361B53EC112BFFF750FC9FEDD6
:100CA000351B53EC112BFFF7C2FC9FED341B53ECAB
:100CB000112BFFF7A3FB9FED331B53EC112BFFF719
:100CC00044FCFFF730FD00B200F12D01B1F5A26F39
:100CD0001AD340F24F13134A2CA11E4805F076FF99
:100CE0001C48FFF734FB82B2FF231A491A4803F06D
:100CF00046FF484607F0F0FC2860C4F80880C4E9C5
:100D000000765046BDE8F09F07F0E6FC2860C4F886
:100D10000880C4E900760020F4E700007C8E012002
:100D20007893012050A0002025732C25643A205090
:100D30006F6C6C20666F722074656D706572617483
:100D40007572652073656E736F72206661696C657C
:100D5000640A0000B4850120DC9501200000000039
:100D60000000303F6666666666660A4052B81E85B9
:100D7000EB51E83F7B14AE47E17A643F000000008E
:100D800000003940000000000000244025732C259D
:100D9000643A2072657320696E76616C69640A003A
:100DA00000B58DB0002206A9264803F001F8002204
:100DB0000BA9244802F0DAFF9DF82E000DF1080C73
:100DC0009DF81A309DF819209DF818108CE80F0036
:100DD0009DF82F109DF82D0001F5FA61CDE9001066
:100DE00040F28F13184A19A1244805F0EFFE23485A
:100DF000FFF7ADFA82B2FF232049214803F0BFFE7E
:100E00009DF82E009DF81A309DF819209DF81810B5
:100E10008DE80F009DF82F209DF82D3019A1204856
:100E200002F5FA6205F0D2FE1D4800220C3874214A
:100E30008276C276C0E90012102181600DB01046A2
:100E400000BD00007494012071A0002025732C25A2
:100E5000643A204765742074696D652025303475C7
:100E60002D253032752D2530327520253032753ADA
:100E7000253032753A253032750A0000B4850120DC
:100E8000DC950120253034752530327525303275DA
:100E9000253032752530327525303275000000005E
:100EA0007C8E012070B5314C8AB074212046FFF74A
:100EB00043FA082301AA0021A020143405F038FACF
:100EC00006460198082301C4029844F8060B01AABB
:100ED0002021A02005F02CFA40EA0605019844F8EC
:100EE000040B029844F8060B214801682046FFF7DE
:100EF00043FA0C2301AA4021A020253405F018FA5A
:100F000040EA0506019844F8040B029844F8040BE3
:100F1000039844F80C0B172301AA6021A02005F0C8
:100F200007FA40EA0605172201A92046FFF7EBF968
:100F300085B14FF495730F4A0FA11848009505F03D
:100F400045FE1648FFF703FA82B2FF2313491448FF
:100F500003F015FE054830210C3801600021416086
:100F6000782181600AB0002070BD00007C8E0120D5
:100F70000084012040A0002025732C25643A2045E0
:100F80004550524F4D204552524F522120737461AB
:100F9000747573203D20252358000000B48501207E
:100FA000DC9501202DE9FF5F5148504DD0E900212B
:100FB000881A914206D24F490A684F490968891A2E
:100FC0000844401C870A00B17F1C2846FFF786FDB5
:100FD000DFF8288101460C2608F10C0042F28374E8
:100FE00008F1100B08F1140A4FF076090390B9428A
:100FF00007D04FF4DF73424A42A14E4805F0E6FDA8
:1010000058E0281DFFF76AFD0546B8424AD8002D72
:1010100048D03749484A086802EB85228618364886
:101020000268521C964205D3324A00681268301A90
:10103000401E16184FF48060AF4203D149688C1BE4
:10104000844200D904460095CDE9016440F2D913E9
:101050002B4A3AA1374805F0B9FD3648FFF777F932
:1010600082B2FF233349424803F089FD3846039991
:10107000FFF72CFD59462846FFF728FD514620462C
:10108000FFF724FD1D4922461831304604F00AF8C6
:101090000021C8E900910C340846C8F8084004B0A3
:1010A000BDE8F09F009040F2C713154A31A12148D6
:1010B00005F08CFD1F48FFF74AF982B2FF231D4956
:1010C0002B4803F05CFD38460399FFF7FFFC5946B7
:1010D0000020FFF7FBFC51460020FFF7F7FCC8E9B2
:1010E00000942046C8F80860D9E70000C5890120AF
:1010F0006C930120D0A0002020A10020708E012040
:101100008DA0002025732C25643A207061636B65E7
:10111000745F636F756E7420213D2042756666654D
:10112000725F546F5F42453332287072646174613C
:10113000290A0000B485012000FCFFFF25732C253F
:10114000643A207061636B65745F6E756D203D203D
:1011500025752C20646573742061646472203D20C1
:101160002523582C2073697A65203D2025750A00B7
:10117000DC95012025732C25643A207061636B6532
:10118000745F6E756D203D20257520696E76616CEB
:1011900069640A007CB51E4803C80C1A814206D255
:1011A0001C481D4900680968081A0444641CE017BB
:1011B00004EB9050851204B16D1C40F2A313174A42
:1011C00017A12148CDE9004505F000FD1E48FFF7B5
:1011D000BEF882B2FF231C491C4803F0D0FC1C4916
:1011E0000020FFF773FC1A492046091DFFF76EFC2B
:1011F000174928460831FFF769FC154875210C3856
:101200000160002141600C21816000207CBD000054
:101210006C930120D0A0002020A100207EA00020FF
:1012200025732C25643A2073697A65203D20256456
:101230002C207061636B65745F636F756E74203D05
:101240002025750A00000000B4850120DC950120EE
:101250007C8E012038B51848D0F8090007F03CFA18
:1012600004461648002100BF50F83120A24207D1A1
:1012700000EBC100406830B101B0BDE8304000472C
:10128000491C1129F0D345230D4A0EA1154800949D
:1012900005F09CFC1348FFF75AF882B2FF2311496E
:1012A000114803F06CFC114842F28371C0E900411F
:1012B00000218160084638BDB4890120588401208E
:1012C000F19F002025732C25643A20556E6B6E6FBC
:1012D0007720636F6D6D616E64206964203D202509
:1012E00023580A00B4850120DC950120708E01206E
:1012F00030B58FB04148002507958564142108A8B2
:10130000FFF71AF83E4C01208DF8340054F8110F05
:1013100006900A22002106A8FFF737F8A0F5FA6028
:101320008DF837008DF81A50A088ADF818000A2201
:10133000002106A8FFF729F88DF83500E088ADF800
:1013400018000A22002106A8FFF71FF88DF83600C2
:101350002089ADF818000A22002106A8FFF715F829
:101360008DF820006089ADF818000A22002106A837
:10137000FFF70BF88DF82100A089ADF818000A22BC
:10138000002106A8FFF701F8C0B28DF822009DF8F1
:1013900021109DF820309DF83620CDE90410CDE9CC
:1013A00002239DF837109DF8350001F5FA61CDE96B
:1013B00000104FF4C073134A13A11D4805F006FC3A
:1013C0001B48FEF7C4FF82B2FF231949194803F0F6
:1013D000D6FB002208A9184802F0DCFD00220DA966
:1013E000154802F073FD054873213C30C0E9001533
:1013F000042181600FB0002030BD0000348E012038
:10140000B489012064A0002025732C25643A205360
:1014100065742074696D6520746F2025752D2575A0
:101420002D25752025753A25753A25750A00000089
:10143000B4850120DC95012074940120BFF34F8F07
:1014400005480168054A01F4E06111430160BFF3FA
:101450004F8F00BFFDE700000CED00E00400FA052F
:101460002DE9FC5F9B4C04F5996854F8110F07F0C7
:1014700033F90746606807F02FF90546002638461D
:1014800007F02AF9C8F8000008F2B44008340178DF
:10149000A0F598694FF0110A42F283784FF0080BDB
:1014A000012906D08A238C4A8CA1944805F08EFB32
:1014B0001FE09348C069A84204D29023864A91A1B4
:1014C000009526E0012F1ED08D4801694A1CBA42C2
:1014D00002D1027B032A7BD0B94202D1027B022ACD
:1014E000F9D0CDE90071C3237B4A91A1834805F06F
:1014F0006DFB8248FEF72BFF82B2FF237F4996489F
:1015000003F03DFB2EE0A84213D0734A972393A12A
:1015100000957A4805F05AFB7848FEF718FF82B22A
:10152000FF2376498C4803F02AFB494642F2A57016
:10153000B6E096A12046FEF711FFB0B19C23664AA3
:1015400096496E4805F042FB6C48FEF700FF82B2F8
:10155000FF236A49804803F012FB2022214690A015
:1015600004F038FC494640469AE0DFF894810021B7
:101570006248C8F81070C8F82010D4F8C01094F869
:10158000C32009BA21F0FF011143C8F81810D4F89C
:10159000C42094F8C73012BA22F0FF021A43C8F8E8
:1015A0001420CDE90012AC234B4A80A105F00EFBBC
:1015B0005248FEF7CCFE82B2FF235049664803F042
:1015C000DEFA82484079002833D1AF23424A00E056
:1015D00034E07FA1494805F0F9FA4848FEF7B7FE24
:1015E00082B2FF2345495C4803F0C9FA7F4801787D
:1015F00019B1B223384A7EA10FE00121017088F8A9
:101600000110814AD8F80410914203D0D8F808009C
:1016100000F05AFB304AB9237CA1384805F0D6FACD
:101620003648FEF794FE82B2FF2334494A4803F05D
:10163000A6FA04F58074A5F5807500E007616B4F8C
:10164000387838B13046761C062803D2642006F07C
:1016500023F9F5E74FF0020842F27D77062E03D317
:10166000CC231D4A6FA10AE058484179F1B100210D
:10167000417105F07FFAC8B1174AD52371A11F48FF
:1016800005F0A4FA1D48FEF762FE82B2FF231B4953
:10169000314803F074FA1A48494680F80C803846FD
:1016A000C1E900A0C9F808B0BDE8FC9F144EAA0823
:1016B000316A70680844214600F02AFB306A2844E9
:1016C0003062032030730021C9E900A10846C9F83F
:1016D00008B0E9E7B48901201BA0002025732C2560
:1016E000643A2043616E6E6F74206578637574652B
:1016F00020636F6D6D616E640A000000B485012087
:101700003093012025732C25643A204657207265BA
:1017100063656976656420696E76616C69642064CE
:10172000617461206C656E6774682025750A00001D
:1017300025732C25643A2053657120696E76616C9F
:101740006964203A202575097072655F73657120A0
:101750003A2025750A000000DC95012025732C2510
:10176000643A20465720726563656976656420692E
:101770006E76616C69642064617461206C656E676B
:101780007468203A2025750A000000004F4E455429
:101790002D4F5357317836340000000028A3002025
:1017A0006D6F64756C65206E616D650025732C2509
:1017B000643A2046772073697A65203D2025752C90
:1017C00020637263203D202523580A005493012092
:1017D00025732C25643A20666C6173682069732038
:1017E0006E6F7420656D7074790A0000E1840120C9
:1017F00025732C25643A20466C61736820696E203D
:101800007573696E670A00000000080825732C25AF
:10181000643A20657261736520736563746F722E1C
:101820002E2E0A0025732C25643A205761697469AD
:101830006E6720666C6173682074696D656F75747E
:101840000A00000025732C25643A205570646174E9
:101850006520757067726164652073746174757357
:1018600020746F20656570726F6D206661696C65AC
:10187000640A0000F8B51748D0F8150006F02CFFF0
:10188000A0F58071144C10250426B1F5407F15D9C0
:1018900000906E23114A12A11C4805F097F91B48CD
:1018A000FEF755FD82B2FF231849194803F067F986
:1018B00042F27D70A660C4E90050F8BD15490122CE
:1018C0000A70C8610020087308610862A660C4E954
:1018D0000050F8BDB4890120708E01200AA00020BC
:1018E00025732C25643A2046572072656365697616
:1018F000656420696E76616C696420626C6F636BED
:101900002073697A652025750A000000B4850120DE
:10191000DC950120309301202DE9F0414B48122540
:101920000426017888B0A0F59864012911D0E92334
:10193000474A48A1534805F049F95248FEF707FDC8
:1019400082B2FF234F49504803F019F942F28370E5
:1019500071E0026A81696FF009078A4205D0CDE91A
:101960000021EF233A4A494920E00269032A10D2B4
:10197000F523374A46A1434805F028F94148FEF7C8
:10198000E6FC82B2FF233F493F4803F0F8F83846AF
:1019900051E080464068FFF7A9F8D8F8141081425A
:1019A00008D02B4ACDE90001FD233FA1354805F0C1
:1019B0000DF9E3E746480027DFF818C14771D8F86A
:1019C0000430634501D1012300E002230371D8F8FC
:1019D0001820C0E90221D0E9048C0DF1100E039209
:1019E0008EE8021100681A4A8DE889004FF483736B
:1019F00039A1244805F0EAF82248FEF7A8FC82B293
:101A0000FF232049204803F0BAF8314805F0B2F826
:101A1000B8B140F209130E4A3DA11A4805F0D6F8B4
:101A20001848FEF794FC82B2FF231649164803F0CB
:101A3000A6F86FF00800A660C4E9005008B0BDE841
:101A4000F081A660C4E900570020F7E73093012039
:101A50002CA0002025732C25643A2043616E6E6F04
:101A6000742065786375746520636D6420626561B8
:101A700063757365206F662077726F6E67206D6F78
:101A800064650A00B4850120DC950120E4A20020F1
:101A900025732C25643A204E6F2076616C69642092
:101AA000646174612E0A000025732C25643A20437A
:101AB0005243207665726966696564206661696C67
:101AC00065642E2025235820213D202523580A0017
:101AD000549301200000040825732C25643A2075D6
:101AE0007067726164655F7374617475733A202501
:101AF00023582C2025752C2025752C2025752C206D
:101B00002523582C2025752C202523580A00000059
:101B100025732C25643A20557064617465207570B6
:101B200067726164652073746174757320746F20CB
:101B3000656570726F6D206661696C65640A00008E
:101B4000044800227021C260C0E9001204218160B3
:101B500010467047708E0120014800F085BC0000DF
:101B60001C96012001681823CAB2103AB2FBF3F2A6
:101B7000054B6FF30901032A9B5CC36500D9091D5E
:101B800081650846704700003FA2002010B501465D
:101B900000208B698A6A4FF0C07453B1B3F5005FBF
:101BA00015D072B1012A0CD0022A0AD0032A09D119
:101BB00004E01AB1012A06D0022A03D1C96AC90178
:101BC00000D5012010BDC96AA142FAD010BD002A7B
:101BD000F7D0012AF2D0022AF3D0032AF3D010BDA5
:101BE00030B50468256825F48025256004686360A5
:101BF0008368402B036803D099600068C26030BDE1
:101C00009A600068C16030BD7047012000F05CBF81
:101C10004FF4005000F058BF70470000002229B177
:101C200001291DD002291ED04FF440720B2800D983
:101C3000001D0E490B6823F440730B600B681343BF
:101C40000B600A6822F0F8020A600A68022303EBBC
:101C5000C00002430A60086840F4803008607047A2
:101C60004FF48072E2E74FF40072DFE7103C02406D
:101C70001348016889050FD5016821F400710160DE
:101C8000016841F400610160016821F400610160B4
:101C9000016841F400710160016849050FD50168D0
:101CA00021F480610160016841F4805101600168A4
:101CB00021F480510160016841F480610160704746
:101CC000003C024000F0DCBD10B586B0044613288D
:101CD0000ED200F085FE0120CDE901040390002022
:101CE000009002200490684600F042FD002800D0D9
:101CF000012006B010BD000010B500F071FE0349D0
:101D000091200860BDE8104000F020BE0C3C02406D
:101D10002DE9F0470026174689460546344600F06F
:101D20005FFEDFF83C8012E059F8242000232946AA
:101D3000022000F017FE08B103260CE059F8240039
:101D40002968814201D0022605E0641C2D1DBC4299
:101D500001D24545E8D900F0F9FD3046BDE8F087ED
:101D6000F8FF0F080E4A136823F440731360032929
:101D70000DD0012911680FD041F4004111601168A4
:101D80004FF4803343EA002001431160704711682B
:101D900048F204031943F1E741F00401EEE70000C3
:101DA000103C0240064A136823F440731360136822
:101DB0001360136843F00103136001707047000063
:101DC000103C0240094910B50C6824F440740C60C2
:101DD0000C6844F440740C600C6844F001040C601E
:101DE0000260BFF36F8F436010BD0000103C0240E3
:101DF000074A136823F440731360136843F4807335
:101E00001360136843F00103136001807047000002
:101E1000103C0240074A136823F4407313601368B0
:101E200043F400731360136843F00103136001600F
:101E300070470000103C02401C490868C2061C485C
:101E400005D5C26942F01002C26110220A600A6818
:101E5000920605D5C26942F00802C26120220A60DA
:101E60000A68520605D5C26942F00402C2614022E6
:101E70000A600A68120605D5C26942F00202C26110
:101E800080220A600A68D20506D5C26942F00102C2
:101E9000C2614FF480720A600A68920705D5C26970
:101EA00042F02002C2610220086070470C3C0240F0
:101EB000BC96012070B5114904460020C86100F0AD
:101EC00003FF06460E4D09E0601C07D024B100F068
:101ED000FBFE801BA04201D9032070BD2868C0030F
:101EE000F2D42868C00701D001202860286810F4C7
:101EF000F970F2D0FFF7A0FF012070BDBC96012061
:101F00000C3C02407CB5044608236A4643F220019B
:101F1000A02004F00DFA050008D16846FEF7DEFDAA
:101F2000606001A8FEF7DAFD206028467CBD000055
:101F300070B51B4D00244FF40061284600F0BAFE36
:101F4000012800D120244FF48061284600F0B2FE21
:101F5000012801D144F010044FF40071284600F02C
:101F6000A9FE012801D144F008044FF480712846ED
:101F700000F0A0FE012801D144F00404802128468D
:101F800000F098FE012801D144F0020440212846C7
:101F900000F090FE012801D144F00104204670BDFC
:101FA000001C024030B587B0044616236A464FF441
:101FB0004051A02004F0BCF905001ED16846FEF790
:101FC0008DFD20609DF8040020719DF80500607172
:101FD0000DF10600FEF782FDA0600DF10A00FEF78C
:101FE0007DFDE0600DF10E00FEF778FD20610DF142
:101FF0001200FEF773FD6061284607B030BD000097
:1020000078B50024009490F83C20012A19D00122D0
:1020100080F83C200A6807230568092A13D9EE686E
:102020000A3A02EB420293409E43EE600B788A68C4
:102030000A3B03EB43039A400368DD682A43DA60F6
:1020400010E0022078BD2E6902EB420293409E43CD
:102050002E610B788A6803EB43039A4003681D697D
:102060002A431A614A681F23072A13D205686E6B38
:10207000521E02EB820293409E436E630A8893B223
:102080000A79521E02EB820293400268556B2B4381
:10209000536327E005680D2A12D22E6BD21F02EB84
:1020A000820293409E432E630B790A88DB1F92B213
:1020B00003EB83039A4003681D6B2A431A6311E004
:1020C000EE6A0D3A02EB820293409E43EE620B7978
:1020D0000A880D3B92B203EB83039A400368DD6AE2
:1020E0002A43DA621B4B0568194A9D420AD10D68E2
:1020F000122D07D1556825F400055560556845F443
:102100008005556005689D421DD1134D0B68AB429B
:1021100001D0112B17D1536823F480035360536807
:1021200043F4000353600968A9420CD10B490C4ADF
:102130000968B1FBF2F101EB8101490000E0491EA1
:1021400000910029FBD180F83C40002078BD0000C0
:1021500000230140002001401200001034850120BE
:1021600040420F000068C06C704770B504004FF02B
:10217000000503D0206C002610B107E0012070BDDF
:10218000204600F01DF8666484F83C60206CC006B0
:1021900010D4206C20F4885040F0020020642046C7
:1021A000FEF700FC6664206C20F0020040F00100A5
:1021B000206400E0012584F83C60284670BD0000E2
:1021C00008B500680649884208D10648016841F40C
:1021D00080710160006800F48070009008BD00000C
:1021E00000200140443802402DE9F04104460068D7
:1021F0000D4681684FF0000749050BD58068C00582
:1022000008D5206C40F02000206484F83C70012048
:10221000BDE8F08100F058FD06460FE0681C0DD0C7
:1022200025B100F051FD801BA84207D9206C40F079
:102230000400206484F83C700320E9E7206800680B
:102240008007EBD521686FF012000860206C40F425
:10225000007020642068816811F0405F13D1217EF6
:1022600089B9C16A11F4700F02D0806840050AD4A0
:10227000206C20F480702064206CC00403D4206C97
:1022800040F0010020640020C2E7000018B50021E2
:10229000009190F83C20012A07D0012280F83C20D0
:1022A00002689368DB0702D011E0022018BD936832
:1022B00043F0010393602A4A2A4B1268B2FBF3F2FF
:1022C00002EB420200E0521E0092002AFBD102689B
:1022D0009368DB0741D0036C40F20164A34343F4ED
:1022E0008073036453685B0505D5036C23F40053C6
:1022F00043F480530364036CDB0404D5436C23F084
:102300000603436400E0416480F83C1016496FF016
:102310002203136049680068CA06144906D088423F
:102320001BD1816811F0405F13D016E08842F8D0CD
:102330000F4A904203D1D1F80423D206F1D00D4ABE
:1023400090420AD1D1F8041301F01F011029E8D3FB
:1023500003E0816841F080418160002018BD0000E9
:102360003485012040420F0000230140002001403D
:10237000002101400022014090F83C1001290CD0BE
:10238000012180F83C1001688A6822F001028A600D
:1023900001688968C90702D007E002207047016C14
:1023A00021F4885141F001010164002180F83C10C2
:1023B000084670472DE9F0410446876D00F084FC23
:1023C000064694F835000025022806D08020606576
:1023D00084F834500120BDE8F0812068016821F0C4
:1023E000160101602068416921F080014161206C83
:1023F00008B9A06C20B12068016821F008010160D3
:102400002068016821F0010101600BE000F05CFC34
:10241000801B052806D92020606504F8345F03205E
:102420006070D8E720680068C007EFD194F85C10AE
:102430003F208840B86004F8345F012060700020BD
:10244000C9E790F83510022903D0802141650120A9
:102450007047052180F835100068016821F00101FE
:1024600001600020704700002DE9F84304464FF05A
:102470000009CDF8009063484FF41651A56D00682F
:10248000B0FBF1F72E6894F85C10082000FA01F117
:1024900031420FD021680A6852070BD50A6822F032
:1024A00004020A6094F85C108840A860606D40F0F7
:1024B0000100606594F85C104FF0010808FA01F023
:1024C000304208D021684969090604D5A860606DCA
:1024D00040F00200606594F85C10042088403042AF
:1024E00008D021680968890704D5A860606D40F0AC
:1024F0000400606594F85C1010208840304218D0C9
:1025000021680968090714D5A86020680168490393
:1025100004D50068000308D5A16C07E00168C9056F
:1025200003D4016821F008010160216C09B1204643
:10253000884794F85C1020208840304231D02168D0
:102540000968C9062DD5A86094F8350005282068CB
:10255000016806D0490347D5006800031DD4616CAB
:102560001CE021F0160101602068416921F0800122
:102570004161206C08B9A06C20B12068016821F08D
:102580000801016094F85C103F208840A86084F83E
:10259000349084F83580216D1FE0E16B09B120464D
:1025A0008847606D00282BD0606DC00714D00520CF
:1025B00084F835002068016821F00101016000986D
:1025C000401C0090B84203D820680068C007F6D1CC
:1025D00084F8349084F83580E16C002910D001B083
:1025E0002046BDE8F04308470168C905D5D4016815
:1025F00021F01001016084F8349084F83580CCE734
:10260000BDE8F883348501202DE9F041044600F04F
:102610005BFB06465CB1002584F83450022084F848
:1026200035002068016821F0010101600DE0012002
:10263000BDE8F08100F048FB801B052805D920206B
:102640006065032084F83500F2E720680068C00761
:10265000F0D12268116820480140D4E901031843F1
:10266000D4E903363343184363691843A369184315
:10267000E3691843236A18430843616A042903D1B4
:10268000D4E90B1319430843106020684069666A57
:1026900020F0070130460E43012704280CD1A06A20
:1026A0000643E06A40B12046FFF770FA20B14020AF
:1026B000606584F83570BAE7206846612046FFF708
:1026C00051FA94F85C203F2191408160656584F85F
:1026D00035700020ACE700003F8010F02DE9F0419C
:1026E0000446866D90F83400002501280DD00120A5
:1026F00084F8340094F835700020012F07D084F856
:10270000340002252846BDE8F0810220FBE70227BD
:1027100084F8357060652046FFF762FA94F85C1023
:102720003F208840B0602068016841F016010160D8
:10273000206C20B12068016841F008010160206828
:10274000016841F001010160DCE7000070B504465A
:1027500000F0BAFA0546601C02D004480078044430
:1027600000F0B2FA401BA042FAD370BD28850120C8
:1027700070B5174900240A7E012A1ED0154A01238C
:102780000B76156845F080751560156845F0007585
:102790001560104DF3222D1F2A600268012A0ED009
:1027A0000B70C2684A608268CA60027C0A72017C4F
:1027B0008068FFF733FA204670BD022070BD022208
:1027C0000A7042680A614168007CFFF7CBFAF2E7C1
:1027D000BC960120103C02400EB5401C24D14FF4A1
:1027E000A873144A14A11F4804F0F0F91D48FDF71E
:1027F000AEFD82B2FF231B491B4802F0C0F900F076
:10280000A5F81A490020487019494A786AB1194B4D
:1028100001225A71487018488DF8002000231A468A
:102820006946006805F01CF90EBD1448006805F003
:102830008DFA0EBDE5A0002025732C25643A2045B5
:102840007261736520666C617368206F7065726178
:1028500074696F6E20636F6D706C6574656C790A56
:1028600000000000B4850120DC950120E0840120F7
:102870003093012054930120F8840120F08401203A
:102880002DE9F0412F4F38682F4C10F4F97F4FF0AD
:10289000FF384FF000050DD0207801282ED0207889
:1028A00002282FD0D4F81460FFF7C6FA304600F0A3
:1028B00057F825703868C0070BD0012038602078A1
:1028C000012821D02078022838D06069FFF784FFE2
:1028D0002570207800280FD11A48001D016848F2A1
:1028E000FF0291430160016821F08071016001687D
:1028F00021F0007101602576BDE8F081E668C4F83A
:102900000C80D1E72669CFE76068401E6060606890
:1029100050B1E068FFF760FFE068401CE060E068ED
:10292000217AFFF77BF9D4E74646C4F80C8025707E
:10293000FFF79EF93046FFF74FFFCAE7FFF798F918
:102940002069C3E70C3C0240BC96012003480168A3
:1029500041F000410160002070470000103C02403F
:10296000704700002DE9F0471B4E05461446307EA7
:102970001F468946012808D0012030764CF2503895
:102980004046FFF797FA18B114E00220BDE8F0873F
:102990009DB1012D16D0022D19D022463B46484646
:1029A000FFF710FA4046FFF785FA0C490A6822F053
:1029B00001020A6000213176E8E7E1B24846FFF7FC
:1029C000F1F9EFE7A1B24846FFF712FAEAE721462C
:1029D0004846FFF71FFAE5E7BC960120103C02408D
:1029E000074900200A68002A09DA054A054B0C3A13
:1029F0001360054B13600968002900DA0120704755
:102A0000103C024023016745AB89EFCD08B5B0F516
:102A1000005F24D14FF48051114800F04BF9012898
:102A200015D0FFF785FA009040F267130D4A0EA10A
:102A3000144804F0CBF81348FDF789FC01B082B2CA
:102A4000FF23104910485DF804EB02F098B84FF4EA
:102A5000B273044A0DA10B4804F0B8F8EBE708BDC7
:102A6000001C024006A1002025732C25643A205347
:102A70007769746368206E756D6265722069732072
:102A800025750A00B4850120DC95012025732C25CD
:102A9000643A20537769746368207374726F626557
:102AA000207369676E616C20636F6D652062757459
:102AB00020737769746368206D6F64652069732083
:102AC0007365740A00000000044910B50A680242E8
:102AD00002D00860FFF79AFF10BD0000143C0140CF
:102AE0002DE9F84F00224FF0010803254FF00F0E9B
:102AF0000B6808FA02F42340A3426ED14E68012EFF
:102B000005D0022E03D0112E01D0122E12D18668CC
:102B10004FEA420C05FA0CF7BE43CF6807FA0CF7F0
:102B2000374387604668A6430C79C4F30014944089
:102B300034434460C668570005FA07FC8C6826EAEF
:102B40000C06BC403443C4604C68022C01D0122CEB
:102B500013D1D40800EB8404A346D4F82090540782
:102B60004FEAD46A0EFA0AF629EA06090E6906FA4D
:102B70000AF646EA0906CBF8206004680E7924EAD2
:102B80000C0406F00306BE40264306604C68E400D1
:102B90006FD53B4C266846F480462660246822F0B8
:102BA000030604F480440094364C3444A446D4F81C
:102BB00008489607360F0EFA06F7BC43324FB84264
:102BC00001D100272EE0314FB84201D1012729E081
:102BD0002F4FB84202D1022724E04AE02D4FB842DD
:102BE00001D103271EE02C4FB84201D1042719E080
:102BF0002A4FB84201D1052714E0294FB84201D12C
:102C000006270FE0274FB84201D107270AE0264FD9
:102C1000B84201D1082705E0244FB84201D1092765
:102C200000E00A27B7402743CCF80878204E3468E4
:102C30004F689C43FF0300D51C4334601C4E361D77
:102C400034684F689C43BF0300D51C433460184E62
:102C5000083634684F689C43FF0200D51C4334603B
:102C6000134E0C3634684F689C43BF0200D51C439A
:102C70003460521C102AFFF43BAFBDE8F88F00000F
:102C8000443802400030014000000240000402408D
:102C900000080240000C02400010024000140240F4
:102CA00000180240001C02400020024000240240A4
:102CB000003C01400069084000D0012070470AB183
:102CC000816170470904FBE7014880687047000094
:102CD0002885012090F83D20202A01D0022070474D
:102CE000242280F83D200268136823F0010313605A
:102CF0000268536A23F0100353620268536A0B435D
:102D0000536201680A6842F001020A60202180F8DB
:102D10003D100020704790F83D20202A01D002206D
:102D20007047242280F83D200268136823F00103D5
:102D3000136003685A6A22F00F020A4391B2596283
:102D400001680A6842F001020A60202180F83D1003
:102D50000020704770B5040025D094F83D00002590
:102D600020B984F83C50204600F04CFA242084F826
:102D70003D002068016821F00101016020680168C0
:102D800041F4004101602068016821F400410160C4
:102D900000F0ECFD4D4A6168914201D84C4900E0D9
:102DA0004C49884201D2012070BD4B492368B0FBD9
:102DB000F1F15E6826F03F060E435E606368934261
:102DC00006D94FF4967359434FF47A73B1FBF3F17C
:102DD0002368491C1E6A26F03F0631431962616868
:102DE000914210D84900401EB0FBF1F2521CC2F3D0
:102DF0000B02042A01D2042022E0B0FBF1F0401CB7
:102E0000C0F30B001CE0A268F2B301EBC10303EBBB
:102E10000116431EB3FBF6F35B1C43F480431B0512
:102E200049D092B301EBC10202EB0111401EB0FB8D
:102E3000F1F0401CC0F30B0040F4804040F400402F
:102E40002168CA694CF6FF739A431043C861D4E9FC
:102E5000071001432068026822F0C002114301609C
:102E6000D4E9030101432068826848F2FF339A43A2
:102E700011438160D4E9050108432168CA6822F042
:102E8000FF021043C86001E00EE016E02068016810
:102E900041F0010101602564202084F83D00256394
:102EA00084F83E50002070BD01EB4106431EB3FB89
:102EB000F6F35B1CB3E70120C2E701EB4101401EC2
:102EC000B0FBF1F0401CC0F30B00B7E7A086010097
:102ED00080841E0000093D0040420F002DE9FF4F95
:102EE00083B09A46DDE9119793460446DDF84080A9
:102EF000FFF7EAFE054694F83D00202870D119231B
:102F0000012271492046009501F0A8FF0028F5D163
:102F100094F83C00012863D0012084F83C0020682C
:102F20000168C90703D1016841F00101016020680F
:102F3000016821F400610160222084F83D004020F6
:102F400084F83E0000262664C4F82480A4F82A9061
:102F5000608D20855D48E062CDE9007553465A4694
:102F60002046049901F082FE00287CD1208DD0B14A
:102F7000012821D00228206824D04169806900906E
:102F8000208D032869D801282BD0514902283B46BF
:102F90004FF00002009559D08846204601F05EFFB0
:102FA000002860D13CE02068416981690091016896
:102FB00041F40071016077E02068016821F48061CC
:102FC0000160F0E7016821F4806101602068016818
:102FD00041F400610160206841698069009063E00C
:102FE0006FE02A463946204601F0B7FF98BB2068BB
:102FF0000069616A08704EE02068016841F4007160
:10300000016020680069616A0870606A401C606243
:10301000218D491E2185618D491E6185216838E019
:103020002068016821F48061016020680069616A9C
:103030000870606A401C6062208D401E2085608D93
:10304000401E60853B46002241460095204601F027
:1030500005FF00B9D0E706E0FFE72A4639462046DB
:1030600001F07BFF18B1012007B0BDE8F08F2068A8
:103070000069616A0870606A401C6062218D491EA7
:103080002185618D491E618521684A69D2435207B5
:103090000AD409690170606A401C6062208D401E7C
:1030A0002085608D401E6085208D00287FF468AFEC
:1030B000202084F83D0084F83E6084F83C600020C5
:1030C000D2E70220D0E70000020010000000FFFF5E
:1030D000040001002DE9FF4F83B09A46DDE9119706
:1030E00093460446DDF84080FFF7EEFD054694F870
:1030F0003D0020287FD11923012240492046009518
:1031000001F0ACFE002876D194F83C00012872D082
:10311000012084F83C0020680168C90703D10168D8
:1031200041F0010101602068016821F40061016043
:10313000212084F83D00402084F83E0000262664CB
:10314000C4F82480A4F82A90608D20852C48E06281
:10315000CDE9007553465A462046049901F004FE15
:1031600070B930E02A463946204601F029FF58B1AF
:10317000206C042804D12068016841F400710160CA
:10318000012007B0BDE8F08F606A2168007808610F
:10319000606A401C6062218D491E89B22185628D62
:1031A000521E628522685369DB435B070BD469B109
:1031B00000781061606A401C6062208D401E20858E
:1031C000608D401E6085208D0028CBD12A4639466F
:1031D000204601F01DFE0028CAD154F83D0B0168BD
:1031E00041F400710160202004F81E09E67766773B
:1031F0000020C6E7FFE70220C3E70000020010003E
:103200000000FFFF2DE9F04F87B004461421684607
:10321000FDF792F8494ADFF828A12168DFF82081FC
:103220000020012503244FF0120B4FF004090AF18E
:10323000100A91423ED14021CDE90015CDE90204AA
:10324000404F69463846FFF74BFC002601224021DB
:103250003846FFF734FD0120FFF778FA00224021BD
:103260003846FFF72CFD0120FFF770FA761C0A2E76
:10327000ECDBD8F8001041F00201C8F80010D8F8D3
:103280000000CDE9025400F002000590C020CDE915
:10329000000B6946CDF810903846FFF721FCDAF8AC
:1032A000001041F40011CAF80010DAF8000000F430
:1032B00000103EE0244A91423CD10221CDE90015A4
:1032C000CDE90204214F69463846FFF709FC002684
:1032D000012240213846FFF7F2FC0120FFF736FAC1
:1032E000002240213846FFF7EAFC0120FFF72EFAC2
:1032F000761C0A2EECDBD8F8001041F02001C8F84B
:103300000010D8F80000CDE9004B00F02000CDE916
:103310000490CDE9025469463846FFF7E1FBDAF83C
:10332000001041F48001CAF80010DAF8000000F43F
:103330008000059007B0BDE8F08F00000054004009
:10334000303802400004024000580040001402409F
:1033500070B5040011D021684CF6CC40086021689B
:1033600045F255500860D4E9000141602168A06829
:103370008860FFF7A9FC054609E0012070BD00BF89
:10338000FFF7A2FC401B302801D9032070BD206844
:10339000C0680028F4D121684AF6AA2008600020FD
:1033A00070BD00684AF6AA21016000207047000045
:1033B00002488168027811448160704728850120A5
:1033C0000B4810B5016841F400710160016841F4D7
:1033D00080610160016841F480710160032000F0A8
:1033E00097F8002000F006F800F03EF8002010BD2D
:1033F000003C024010B5014688B000221A2000F0BF
:1034000067F81A2000F056F813480024016841F4C8
:1034100080210160006805A900F4802006906846BC
:1034200000F084FA00F0B2FA0C494000B0FBF1F170
:103430000C480B4A491E026040F2E732C0E90324FF
:10344000C0E9011401F0C3F810B1012008B010BDAB
:10345000044801F0D8F8F9E74438024040420F0030
:10346000004801407C960120114808B5016841F4EC
:1034700080410160006800F4804000900C48001F0B
:10348000016841F0805101600068002200F0805026
:1034900000900F21901E00F01BF80022052104204F
:1034A00000F016F8BDE80840042000F003B8000062
:1034B00044380240002809DB00F01F02012191403E
:1034C0004009800000F1E020C0F8001170470000C2
:1034D000F0B40E4B1B680C46C3F30223C3F107057F
:1034E000042D00D90425191D072901D2002300E06D
:1034F000DB1E012606FA05F1491E214099409E4037
:10350000761E16403143F0BC03F074BB0CED00E0B6
:10351000064900F0070208684FF6FF03184040EA2A
:103520000220034A10430860704700000CED00E0E1
:103530000000FA052DE9F8431748016841F0805171
:1035400001600068154F00F08050012600903E6435
:10355000FFF7BAFB05464FF47A78114C05E000BF3F
:10356000FFF7B2FB401B40450DD86068C003F7D59C
:103570007E64FFF7A9FB0546464607E0FFF7A4FB7C
:10358000401BB04202D90320BDE8F8836068800385
:10359000F4D50020F8E700004038024000000E4259
:1035A000007000402DE9F84F04460068DFF824A2BF
:1035B000894F8A4DC1074FF001084FF0000603D133
:1035C000810701D4400648D5CAF86860FFF77CFB44
:1035D000814605E0FFF778FBA0EB090002287DD8C3
:1035E00028680001F6D42078C1077D4805D06168BD
:1035F000227A890141EA027101602178890711D597
:1036000001686268237B9201C1F3027142EA03629E
:1036100042EA017101603968E26921F01F01521E1E
:10362000114339602178490608D56168227B8901F8
:1036300041EA0261227A41EA02710160CAF86880B7
:10364000FFF742FB814605E0FFF73EFBA0EB0900D8
:10365000022843D828680001F6D52068410701D424
:1036600000074ED5CAF87060FFF72EFB814605E0D3
:10367000FFF72AFBA0EB090002282FD82868C043D7
:103680008000F5D520784107564814D50168226995
:10369000237D9201C1F3027142EA036242EA0171A1
:1036A00001603968226A6FF0FF0321F4F85103EBDF
:1036B0000222114339602178090712D50168226975
:1036C000C1F30361920142EA0161227E41EA027183
:1036D00001603868616A20F4403000E051E008433E
:1036E0003860CAF87080FFF7EFFA074605E000BFC0
:1036F000FFF7EAFAC01B022843D82868C0438000BD
:10370000F6D42078800653D534484030016841F023
:10371000805101600068344D00F0805000902868AE
:1037200040F480702860FFF7CFFA074605E000BF3D
:10373000FFF7CAFAC01B022823D82868C005F7D5AE
:10374000274D143D286810F4407020D0218D01F4DD
:10375000407181421BD0286820F440712348C0F892
:103760000080066029602868C00710D0FFF7ACFA17
:10377000064641F2883707E0FFF7A6FA801BB842F9
:1037800002D90320BDE8F88F28688007F4D5A16A24
:103790001248C1F301220830032A13D0016821F432
:1037A000F81101602868218DC1F30B0108432860DE
:1037B0002078C00604D50E4994F82C00C1F8E00129
:1037C0000020DFE702680B4B22F4F81219400A438D
:1037D0000260E7E7000047428C38024000380240B0
:1037E000843802408838024000700040400E474252
:1037F00000104742FFFCFF0F2DE9F0470E46050081
:1038000065D0DFF81481D8F80000F7B200F00F009F
:10381000B04207D288F80070D8F8000000F00F001E
:10382000B04254D128683D4C810712D5400703D5DA
:10383000206840F4E05020602878000703D5206815
:1038400040F4604020602068A96820F0F000084340
:1038500020602878C0072DD03049686808390128D1
:1038600012D0022813D0032811D009688907002933
:103870002DDA216821F0030101432160FFF724FACA
:10388000814641F2883A0EE009688903EFE709684A
:103890008901ECE7FFF718FAA0EB0901514502D9BD
:1038A0000320BDE8F0872068696800F00C00B0EBE9
:1038B000810FEFD1D8F80010404601F00F01B1425E
:1038C00007D90770006800F00F00B04201D0012056
:1038D000E7E72878400705D52068E96820F4E0503C
:1038E000084320602878000706D52068296920F45D
:1038F000604040EAC100206000F058F82168084AA2
:10390000C1F30311515CC8400649086006480068CD
:10391000FFF770FD0020C4E7003C02400838024079
:1039200047A20020348501202C8501200F2202604F
:103930000C4A136803F003034360136803F0F003B9
:103940008360136803F4E053C36012684FF4E053DC
:1039500003EAD20202610448006800F00F00086028
:103960007047000008380240003C02400448054906
:1039700000680968044AC1F38221515CC84070475D
:10398000348501200838024057A200200448054928
:1039900000680968044AC1F34231515CC84070476D
:1039A000348501200838024057A20020154810B580
:1039B000006810F00C02144813D01449042A0FD0E8
:1039C000082A0ED10F4C241F2268236802F03F0200
:1039D0005B0207D52068C0F38810A0FB010106E058
:1039E000084610BD2168C1F38811A1FB0001002326
:1039F000FCF758FC2168C1F30141491C4900B0FBA8
:103A0000F1F010BD083802400024F400002D31010F
:103A10002DE9F84F040076D02078DFF838A3CE4D9A
:103A2000C00749D0DAF800105046C1F381010129DE
:103A300008D00068C0F3810002280AD1281D006860
:103A4000400206D52868800336D560680028E2D099
:103A500032E06068B0F5803F10D0B0F5A02F286844
:103A600010D020F480302860286820F4802028605E
:103A70006068A0B1FFF728F906460CE0286840F41A
:103A80008030F4E740F480202860F7E7FFF71CF966
:103A9000801B642873D828688003F7D50CE0FFF7F3
:103AA00013F9064605E000BFFFF70EF9801B6428F6
:103AB000F0D828688003F7D42078DFF8A082800748
:103AC0004FF000093ED5DAF80010504611F00C0F07
:103AD00009D00068C0F3810002280BD19D48001F67
:103AE0000068400206D42868800715D5E0680128E0
:103AF00009D111E0E068B8B10120C8F80000FFF773
:103B0000E3F8064605E020E1FFF7DEF8801B022817
:103B1000C0D828688007F7D52868216920F0F80008
:103B200040EAC10028600DE0C8F80090FFF7CCF82B
:103B3000064604E0FFF7C8F8801B02281FD8286853
:103B40008007F7D42078000722D5824E8448616927
:103B50006C3671B101210160FFF7B6F8074604E049
:103B6000FFF7B2F8C01B022809D830688007F7D5E4
:103B70000EE0C0F80090FFF7A7F8074605E082E0E6
:103B8000FFF7A2F8C01B02287DD830688007F7D461
:103B90002078400768D5DFF8BCB100270BF1380B5F
:103BA000DBF80000C0000BD4DBF8001041F08051BE
:103BB000CBF80010DBF80000012700F080500090E7
:103BC000684E3068C00510D4306840F480703060B2
:103BD000FFF77AF8009005E0FFF776F80099401AB1
:103BE000022850D83068C005F6D55A4EA06868360D
:103BF00001280FD00528306810D020F00100306077
:103C0000306820F004003060A068B8B1FFF75CF8BD
:103C100000900FE0306840F00100F4E740F004004D
:103C20003060F7E7FFF750F80099411A41F2883009
:103C3000814266D830688007F4D50EE0FFF744F87B
:103C4000009007E0FFF740F80099411A41F28830F0
:103C5000814256D830688007F4D42FB1DBF80010C9
:103C600021F08051CBF80010A069D0B3DAF8002021
:103C70005146C2F38102022A4AD00228484607D0A0
:103C8000C8F8600000E03CE0FFF71EF804463BE0A7
:103C90004746C8F86000FFF717F8064605E000BF82
:103CA000FFF712F8801B02282BD828688001F7D470
:103CB000D4E907010843A16A2B4A490802EB0141F4
:103CC000626A41EA8211084394F82C1040EA0161CB
:103CD0002048001F016001203866FEF7F5FF04460A
:103CE00005E034E0FEF7F0FF001B022809D8286841
:103CF0008001F7D52BE000BFFEF7E6FF001B02288E
:103D000002D90320BDE8F88F28688001F4D41EE0B2
:103D10000128F7D00868E26900F48001914214D1CB
:103D2000226A00F03F0191420FD147F6C071626AEA
:103D30000140914209D1A26A00F44031914204D17C
:103D4000E16A00F07060884201D00120DAE70020CB
:103D5000D8E700000838024000380240000047421F
:103D6000800E4742007000400000FFFF10B5006861
:103D70000B4641680D480140080CD870C1F304247B
:103D80005C7001F03F049C70C1F34231197052B96C
:103D900002F0BCF8D870587802F0B8F858709878EB
:103DA00002F0B4F89870002010BD00003FFFFF0043
:103DB00010B50B460168896A596001680969C1F349
:103DC0000E019960006801680E480140C1F305408A
:103DD0001870C1F306245C7001F07F049C704024CD
:103DE00004EA1141D97052B902F090F8187058786D
:103DF00002F08CF85870987802F088F898700020DB
:103E000010BD00007F7F7F0070B5040002D0607F8E
:103E100010B106E0012070BD00202077204600F0A0
:103E200049F8022060772168CA204862216853203F
:103E30004862204602F07EF8FF25042618BB206861
:103E400081681B4A1140816021688868626810435C
:103E5000D4E904231A43104388602168E0680861AC
:103E600020680169228941EA024101612068C16834
:103E700021F08001C16020688068800607D4204658
:103E800000F0FEF818B1206845626677C2E7206846
:103E9000016C21F4802101642068016CA269114346
:103EA00001642068456201206077002070BD000039
:103EB000BFFF8FFF00680349884202D102490120F9
:103EC00008607047002800403C0E47422DE9F0474B
:103ED0000446007F0B4601281FD04FF0010984F8EB
:103EE0001C9002206077DAB19878D97840EA0145D1
:103EF00058781978000240EA413005432168CA2009
:103F00004862216853204862204602F013F80026D8
:103F1000FF274FF0040860BB1AE00220BDE8F087DD
:103F20005878C10603D500F0EF000A305870D878F1
:103F300001F0F5FF0204587801F0F1FF42EA002297
:103F4000987801F0ECFF0243187842EA4035D5E753
:103F50000F480540206845602068C16821F0800155
:103F6000C1602068806880060AD4204600F088F886
:103F700030B12068476284F81D8026770120CDE7A4
:103F80002068476284F81D9026770020C6E700006D
:103F90003FFFFF002DE9F0470446007F0D46012852
:103FA00027D04FF0010A84F81CA002206077206817
:103FB000002680684FEA4060F2B1002800DBEE7016
:103FC000A878297840EA01476878E978000240EA51
:103FD000014007432168CA20486221685320486293
:103FE000204601F0A7FF4FF0FF084FF00409A0BBE7
:103FF00016E00220BDE8F087002800DBEE7028788C
:1040000001F08DFF0204687801F089FF42EA002286
:10401000A87801F084FF0243E87842EA0047D9E734
:1040200016480740206807602068816821F48021D5
:104030008160D5E90301084321688A6810438860DC
:104040002068C16821F08001C16020688068800616
:104050000BD4204600F014F838B12168C1F8248050
:1040600084F81D9026770120C4E72168C1F82480D8
:1040700084F81DA026770020BCE700007F7F7F002A
:1040800070B504460068C16821F0A001C160FEF768
:104090001BFE05464FF47A7607E000BFFEF714FEDC
:1040A000401BB04201D9032070BD2068C068800663
:1040B000F4D5002070BD70B5040005D00025A562C0
:1040C00094F8510010B106E0012070BD84F8505002
:1040D000204600F031F8022084F851002068016881
:1040E00021F040010160D4E901010843D4E9031241
:1040F0001143084361690843218B01F400710843AF
:10410000E1690843216A0843A16A084321680860FD
:10411000A069042101EA1040616A084321684860EF
:104120002068C16921F40061C1616565012084F8DE
:104130005100002070BD00002DE9F04786B0044614
:1041400014216846FCF7F8F821684A4CDFF820C1D2
:10415000002201200323474D143C02260527614518
:1041600023D12021CDE90010DFF80CA1904699461B
:1041700069465046CDE90223FEF7B2FC00224021F9
:104180005046FEF79CFD286840F48050286028685F
:1041900000F480500590206840F001002060206805
:1041A00000F001000590E02028E0DFF8D0C0614574
:1041B0002FD14FF48051CDE90010DFF8C4A0904614
:1041C000994669465046CDE90223FEF789FC002254
:1041D00040215046FEF773FD286840F400502860E7
:1041E000286800F400500590206840F0100020601E
:1041F000206800F0100005904FF4E04004978DE82F
:10420000410369464FEA0A00FEF76AFC06B0BDE8C2
:10421000F087DFF870C06145F8D18021CDE900104A
:10422000DFF864A09146984669465046CDE90223DE
:10423000FEF756FC002240215046FEF740FD28685C
:1042400040F480102860286800F4801005902068F1
:1042500040F0200020602068694600F020000590B2
:104260004FF460708DE84102CDE903875046CBE7FB
:104270000030014044380240000002400034014058
:104280000010024000500140001402402DE9F84F98
:10429000044690F8500000271D461646894601281E
:1042A0000DD04FF0010B84F850B0FEF70DFD8046A5
:1042B00094F85100BA46012804D002278EE002206B
:1042C000BDE8F88FB9F1000F7DD0002E7BD0032020
:1042D00084F85100C4F854A0C4F83090A686E6864D
:1042E000C4F838A0A4F83CA0A4F83EA0C4F844A0A8
:1042F000C4F840A0A068B0F5004F04D12068016860
:1043000041F48041016020680168490603D40168D6
:1043100041F040010160E068B0F5006F606803D0D3
:1043200030B3012E24D040E008B1012E1CD1206B07
:1043300021680088C86006E020688168890709D57F
:10434000216B0988C160206B801C2063E08E401EB9
:10435000E08609E0FEF7B8FCA0EB0800A84202D313
:10436000681C01D031E07DB3E08E0028E4D11FE06D
:10437000206B21680078087306E02068816889074F
:1043800009D5216B09780173206B401C2063E08EF6
:10439000401EE08609E0FEF797FCA0EB0800A8426B
:1043A00002D3681C01D010E075B1E08E0028E4D182
:1043B00042462946204602F013F808B120206065E5
:1043C000A06820B107E008E0FFE7032706E02068C7
:1043D000C16880680090606D00B1012784F851B019
:1043E00084F850A038466BE72DE9F84F044690F862
:1043F000500000270A9E1D4692468B464FF0010949
:1044000001280ED0012084F85000FEF75DFC8046A4
:1044100094F85100616801280CD0B1F5827F07D172
:1044200002E00220BDE8F88FA16809B9042801D094
:104430000227C2E0BBF1000F27D0BAF1000F24D051
:104440001DB394F85100042802D0052084F85100CF
:1044500000206065C4F838A0E587A587C4F830B0AF
:10446000E586A5862064606420680168490603D457
:10447000016841F040010160E068B0F5006F6068DC
:1044800005D0E8B3012D46D07FE0012795E008B1C3
:10449000012D39D1206B21680088C860206B801CF9
:1044A0002063E08E401EE0862EE020688168890748
:1044B0000FD5E18E69B1B9F1010F0AD1216B0988DD
:1044C000C160206B801C2063E08E401EE0864FF0B0
:1044D000000920688168C9070CD0E18F51B1C0681C
:1044E000A16B0880A06B801CA063E08F401EE0875A
:1044F0004FF00109FEF7E8FBA0EB0800B04200E036
:1045000009E001D3701C50D1E08E0028CDD1E08F9E
:104510000028CAD13FE0206B216800780873206B27
:10452000401C2063E08E401EE0862EE020688168FB
:1045300089070FD5E18E69B1B9F1010F0AD1216B5D
:1045400009780173206B401C2063E08E401EE086DA
:104550004FF0000920688168C9070CD0E18F51B184
:10456000C068A16B0870A06B401CA063E08F401E68
:10457000E0874FF00109FEF7A7FBA0EB0800B0426F
:1045800002D3701C01D010E07EB1E08E0028CDD1A6
:10459000E08F0028CAD142463146204601F020FF74
:1045A00028B101272020606507E0032705E0A06807
:1045B00018B92068C16880680090012084F8510013
:1045C000002084F8500038462CE77047704710B53B
:1045D000040003D094F83D0010B107E0012010BDA5
:1045E000002084F83C00204600F00CF8022084F8FB
:1045F0003D00211D206801F0E9FF012084F83D0005
:10460000002010BD70470168CA6842F00102CA600C
:104610000068816801F00701062903D0016841F0B4
:104620000101016000207047704770B504460068C2
:1046300001694FF00005C943890715D4C168C94312
:10464000890711D4E91E0161012020772068806963
:104650008007204602D0FFF7E7FF04E000F098F85B
:10466000204600F096F8257720680169C94349077C
:1046700017D4C168C943490713D46FF0040101611D
:10468000022020772068806910F4407F204602D005
:10469000FFF7CAFF04E000F07BF8204600F079F84D
:1046A000257720680169C943090716D4C168C94341
:1046B000090712D46FF008010161042020772068F7
:1046C000C0698007204602D0FFF7AEFF04E000F08B
:1046D0005FF8204600F05DF8257720680169C9433E
:1046E000C90617D4C168C943C90613D46FF01001B5
:1046F0000161082020772068C06910F4407F2046BF
:1047000002D0FFF791FF04E000F042F8204600F0ED
:1047100040F8257720680169C943C90708D1C168F5
:10472000C943C90704D1891E0161204600F032F84F
:1047300020680169C943090609D4C168C94309064B
:1047400005D46FF0800101612046FFF73EFF20682D
:104750000169C943490609D4C168C943490605D45A
:104760006FF040010161204600F01EF820680169E9
:10477000C94389060BD4C168C943890607D46FF0C1
:10478000200101612046BDE87040FFF71FBF70BDEA
:104790007047704700680349884201D1FEF708BEA0
:1047A0007047000000480140704710B5044600689B
:1047B000416994F83920C1F3C011212A0BD151B1BC
:1047C000416921F080014161206B08B1FDF7F2FDE4
:1047D000204601F0D7FF2068416994F83A20C1F3E0
:1047E0008011222A0BD151B1416921F04001416170
:1047F000606B08B1FDF7DEFD204601F0B5FF00203B
:1048000010BD704770B5026804461068D1685369DE
:1048100010F00F0F52D003F0010501F490762E43F3
:104820005FD0C20705D0CA0503D5E26B42F0010292
:10483000E263420705D5DA0703D0E26B42F00202D9
:10484000E263820705D5DA0703D0E26B42F0040287
:10485000E263020707D501F020022A4303D0E26B8E
:1048600042F00802E263E26B002A33D0800604D5EE
:10487000880602D5204601F08EFF20684069E16B72
:10488000C0F38010090700D428B3204601F06CFF64
:104890002068416949061AD5416921F0400141610A
:1048A000606BA0B11B490165606BFDF7CAFD002874
:1048B00010D0606B016DBDE870400847830610D5CD
:1048C0008B060ED52046BDE8704001F064BF20463F
:1048D000FFF797FF70BD2046FFF793FF0020E063CE
:1048E00070BD030606D50B0604D52046BDE8704012
:1048F00002F030B84006F3D54806F1D5D16820461D
:1049000021F04001D160202184F8391000F094F9A1
:1049100070BD0000C966002070B5040004D094F892
:104920003900002510B106E0012070BD84F8385030
:10493000204600F023F8242084F839002068C1685C
:1049400021F40051C160204601F070FF2068016928
:1049500021F4904101612068416921F02A014161FF
:104960002068C16841F40051C160E563202084F8EB
:10497000390084F83A00002070BD0000F0B587B01F
:10498000064614216846FBF7D7FC334F30680025F4
:104990003249022203230724B8423DD12F48143064
:1049A000076847F010070760006800F010000590E6
:1049B000086840F0010008600868694600F00100DE
:1049C000059058028DE82500CDE903342448FEF710
:1049D00087F8254C234820604FF00060C4E90105AA
:1049E0004014C4E9035065614FF44030A561C4E947
:1049F000075020466562FDF707FE08B1FDF70CF988
:104A00007463002205212520A663FEF761FD2520A1
:104A1000FEF750FD07B0F0BD144EB042FAD10F487A
:104A20001030066846F480260660006800F4802096
:104A30000590086840F0020008600868694600F0C8
:104A4000020005904FF440608DE82500CDE9033465
:104A50000748FEF745F8DDE7001001403038024016
:104A600000000240406402401C96012000480040C3
:104A700000040240F8B5044690F83A0020283CD1E2
:104A8000C1B3BAB394F83800012836D0012084F8B5
:104A90003800A162A2850025E563222084F83A004F
:104AA000636B1748D863636B16481864636B1648CA
:104AB000D864606B134605650846666B216802463C
:104AC0003046091DFDF70AFE206801684168009123
:104AD00084F83850C16841F48071C1602068416930
:104AE00041F0010141612068416941F040014161AB
:104AF0000020F8BDFFE70120FBE70220F9E70000F6
:104B0000236700205F670020D966002090F83A30C4
:104B1000202B22D1F9B1F2B190F83830012B1CD002
:104B200081628285C2850021C163222280F83A20F9
:104B300080F838100168CA6842F48072CA6001685F
:104B40004A6942F001024A610068C16841F02001EF
:104B5000C1600020704701207047022070470000AC
:104B600000680449884203D10348006803F0EEB8A6
:104B70007047000000100140E884012070472DE9D3
:104B8000F843044690F839001F4616460D46202883
:104B900050D1B5B1AEB194F8380001284AD0012007
:104BA00084F838004FF00008C4F83C80212084F8D5
:104BB0003900FEF789F8A6848146E68484F83880B7
:104BC00026E00120BDE8F883E08C401EE084A06868
:104BD0004B46B0F5805F4FF000024FF08001204659
:104BE000009703D001F0E7FEE8B90DE001F0E3FE25
:104BF000C8B928882168C0F308004860206908B156
:104C00006D1C05E0AD1C03E0216815F8010B486040
:104C1000E08C0028D8D14B46002240212046009746
:104C200001F0C9FE08B10320CCE7202084F8390048
:104C30000020C7E70220C5E77047FEE701684A6920
:104C4000D24352050FD46FF480624A61002140F8CC
:104C5000301F202242738173026942F00402026114
:104C60000173012070470020704700002DE9F84FC4
:104C70000446006889460B9D01689846174641F432
:104C8000806101602068016841F4807101600095D5
:104C90004FF0011B0022594620460A9B00F0DEF827
:104CA0004FF4007A40B120680068C00501D5C4F80F
:104CB00040A00320BDE8F88F216809F0FE000861DC
:104CC0002B46284920460A9A00F0FCF8F0BB2068E1
:104CD0004169806900902A4620460A9900F070F9DF
:104CE00040B1206C04283AD12068016841F4007179
:104CF000016034E0FEB2B8F1010F09D02168380A32
:104D000008612A4620460A9900F05AF90028E8D19D
:104D1000206806612A4620460A9900F051F90028C9
:104D2000DFD12068016841F48071016000950022A4
:104D3000594620460A9B00F091F80028B3D121681B
:104D400009F0FF0040F00100086100E007E02B4699
:104D5000044920460A9A00F0B5F80028AAD001209C
:104D6000A8E70000020001002DE9F84304460068AE
:104D70000D46DDE9089701689846164641F48071B2
:104D800001604B4600224FF001112046009700F0D1
:104D900065F848B120680068C00502D54FF400707E
:104DA00020640320BDE8F883216805F0FE00086157
:104DB0003B464A461549204600F084F888B92068E9
:104DC0004169806900903A464946204600F0F8F86B
:104DD00048B1206C042804D12068016841F40071B6
:104DE00001600120DEE7F5B2B8F1010F09D02168BA
:104DF000300A08613A464946204600F0E1F80028AA
:104E0000E7D1206805610020CCE700000200010026
:104E100070B516460D4604460DE02046FFF70EFF1E
:104E200008B1012070BD681C05D0FDF74DFF801B47
:104E3000A84207D835B120684069C0434007ECD488
:104E4000002070BD002044F8300F20216173A07352
:104E5000216941F0200121612073E2E72DE9F0474B
:104E60001E4690460D460446C1F30747DDF82090E4
:104E700008E0701C06D0FDF727FFA0EB0900B04248
:104E80000FD876B12068012F18D0806925EA00007C
:104E90000004000C14D000214145EAD00020BDE8F8
:104EA000F087002044F8300F20216173A07321693E
:104EB00041F02001216120730120F0E74069E5E71E
:104EC0000121E9E72DE9F0479A4691460E4604464E
:104ED00000254FF02008C1F3074725E0206840690E
:104EE000C043400514D42068016841F4007101609A
:104EF00021686FF480604861256384F83D8084F800
:104F00003E50206C40F00400206484F83C501FE0C8
:104F1000B9F1FF3F08D0FDF7D7FEA0EB0A014945E4
:104F20000CD8B9F1000F09D02068012F13D0806987
:104F300026EA00000004000C0BD0CFE744F8305FF5
:104F400084F80D80A573206940F02000206125734E
:104F50000120BDE8F0874069EAE72DE9F04100252E
:104F600090460E460446202717E04069C043C0061D
:104F70000CD454F8301B6FF01000486144F81059FD
:104F80006777A577206A2062257717E0FDF79CFEFA
:104F9000A0EB0800B04208D83EB120684169C9437F
:104FA0004906E2D40020BDE8F08144F8305F677321
:104FB000A573206940F02000206125730120F2E7ED
:104FC00070B516460D4604460DE02046FFF736FE46
:104FD00008B1012070BD681C05D0FDF775FE801B6F
:104FE000A84207D835B120684069C0430006ECD418
:104FF000002070BD002044F8300F20216173A073A1
:10500000216941F0200121612073E2E73EB532249D
:105010009BB28DE81C0080B20A460146102302486C
:10502000FDF75CFF3EBD0000149401202DE9FE4F0A
:105030000027DFF868B091460E4682461D46B84606
:105040003A4604215846FDF73AFE1DE006F03F00BF
:10505000C0F14004AC4200DB2C463222A1B209EB85
:1050600007008DE807001FFA8AF1102332460C482A
:10507000FEF730F85FEA000808D1301986B22D1B20
:1050800027440A2002F008FC002DDFDC0122042165
:105090005846FDF714FE4046BDE8FE8F001402405E
:1050A0001494012010B50B46014614461846FBF730
:1050B0002AF9204610BD2DE9F041154688460646DE
:1050C000002402F00307FDF78BFC1CE0201DA84222
:1050D0000FD900200246B84203D2231818F8031053
:1050E00000E02021C30099400A43401C0428F2D369
:1050F00002E008EB04000268002331460220FDF7BD
:1051000031FC241D361DAC42E0D3FDF71FFC2046C8
:10511000BDE8F0812DE9F0410646080640EA01406D
:1051200040EA0125174600240D43FDF759FC07E02E
:105130002A46002331460220FDF714FC241D361DAB
:10514000BC42F5D3FDF702FC2046BDE8F08100002B
:105150007FB50024154800940194029412490394E9
:1051600001604FF48031C0E901140461047680F8D5
:1051700020400F49C0E90A140125C561C46080F8C8
:1051800030404561FCF7F1FF08B1FCF745FD0948E7
:10519000CDE90005694602940448FCF731FF002878
:1051A00001D0FCF739FD7FBD00200140789301203C
:1051B0000100000F12000010094808B5016841F411
:1051C000800101600068002200F480000090052149
:1051D0003A20FEF77DF9BDE808403A20FEF76AB9AB
:1051E0003038024010B500221146012002F056FD71
:1051F0002C4C002211466060012002F04FFD00227D
:10520000A0601146012002F049FDE06000220C215F
:10521000062002F0EBFB206100220C21062002F0A8
:10522000E5FB6061204802F091FCA0611E4802F09D
:105230008DFCE0611C4802F089FC20621A4802F0F3
:1052400085FC6062184802F081FC174AA062C432F3
:105250000021164802F0B2FD134A206434320021C6
:10526000134802F0ABFD104A2063103200211148B0
:1052700002F0A4FD0C4AE062583200210E4802F010
:105280009DFD094A60637C3200210C4802F096FDC6
:10529000054AA063A0320021094802F08FFDE063B7
:1052A00010BD0000E484012038A10020CD6400205E
:1052B000DD860020A970002065900020397500204F
:1052C0002D7600202DE9F04786B014216846FBF7C3
:1052D00033F849480025016841F002010160016886
:1052E00001F002010591016841F0010101600168CE
:1052F00001F001010591016841F0200101600168A0
:1053000001F020010591016841F080010160016810
:1053100001F080010591016841F48071016001682C
:1053200001F480710591016841F01001016000688D
:10533000324F00F010000590002244213846FDF75E
:10534000BEFCDFF8BC80002210214046FDF7B7FC10
:10535000DFF8B0A0FE14002231465046FDF7AFFC46
:10536000B000009028480124CDE90104DFF89C90AA
:1053700069464846FDF7B4FB25486946CDE900403B
:1053800002952448FDF7ACFB4420CDE900046946B2
:105390003846CDE90245FDF7A3FB4FF4FE50CDE9B9
:1053A0000005694648460295FDF79AFB1020CDE9B5
:1053B00000040220CDE9020569464046FDF790FB56
:1053C000CDE9006469465046CDE90245FDF788FB0A
:1053D000002205210620FEF77BF80620FEF76AF87A
:1053E000002205212820FEF773F82820FEF762F836
:1053F00006B0BDE8F08700003038024000140240DB
:10540000000002400010024000002110001C024079
:105410000000111000200240144810B5124901602C
:105420001349416000214FF480428160C0E90312BA
:1054300041618161C1610162FDF78CFC08B1FCF73B
:10544000EBFB00210948FDF745FC08B1FCF7E4FB44
:1054500000210648FDF75FFC002803D0BDE810409E
:10546000FCF7DABB10BD000000540040C0930120DF
:10547000A0860100144810B512490160134941602B
:1054800000214FF480428160C0E9031241618161D3
:10549000C1610162FDF75EFC08B1FCF7BDFB0021B4
:1054A0000948FDF717FC08B1FCF7B6FB00210648D8
:1054B000FDF731FC002803D0BDE81040FCF7ACBB81
:1054C00010BD00000058004014940120A086010087
:1054D000094810B5074901600321416040F2DC51E1
:1054E0008160FDF735FF002803D0BDE81040FCF7D0
:1054F00093BB10BD00300040689401200B4810B5EC
:105500000949016000217C22C0E90112FF22C0E9A3
:10551000032141618161FEF777FC002803D0BDE8DB
:105520001040FCF779BB10BD0028004074940120A6
:10553000104810B50E4901604FF48271416000219E
:1055400081600122C160C0E9041252028261082216
:10555000C0E90721416281620A21C162FEF7ABFD09
:10556000002803D0BDE81040FCF756BB10BD00007A
:105570000030014094940120104810B50E4901609C
:105580004FF48271416000218160C1604FF400726C
:105590000161C0E905121022C0E907214162816260
:1055A0000A21C162FEF787FD002803D0BDE8104044
:1055B000FCF732BB10BD000000340140EC94012028
:1055C000104810B50E4901604FF48271416000210E
:1055D0008160C1604FF400720161C0E905121022C0
:1055E000C0E90721416281620A21C162FEF763FDC1
:1055F000002803D0BDE81040FCF70EBB10BD000032
:1056000000500140449501200C4810B50A49016042
:105610004FF4E1314160002181600C22C160C0E99A
:1056200004128161C161FFF777F9002803D0BDE85A
:105630001040FCF7F1BA10BD001001409C9501200C
:105640000C4810B50A4901604FF4E1314160002176
:1056500081600C22C160C0E904128161C161FFF761
:105660005BF9002803D0BDE81040FCF7D5BA10BDA7
:1056700000480040DC950120FEE770472DE9F04727
:10568000DFF8E49390B0F74CD9F800000090A24600
:10569000CD23F64AF6A1FE4801F098FAFC48FAF745
:1056A00056FE82B2FF23FA49FA48FFF768FAFA4E2B
:1056B0003068FA4D800112D52878D12340F00100DE
:1056C0002870EA4AF6A1F24801F080FAF048FAF7A9
:1056D0003EFE82B2FF23EE49EE48FFF750FA3068F3
:1056E000400112D52878D52340F002002870DF4A07
:1056F000F2A1E74801F06AFAE548FAF728FE82B21B
:10570000FF23E349E348FFF73AFA3068000112D576
:105710002878D92340F004002870D44AEEA1DC4850
:1057200001F054FADA48FAF712FE82B2FF23D849A0
:10573000D848FFF724FA3068C0006BD52878DD23FD
:1057400040F008002870C94AEBA1D14801F03EFAA8
:10575000CF48FAF7FCFD82B2FF23CD49CD48FFF7D1
:105760000EFA74212046FAF7E7FD082307AA002164
:10577000A020143400F0DCFD07460798082301C47C
:10578000089844F8060B07AA2021A02000F0D0FDBD
:1057900040EA0708079844F8040B089844F8060BF9
:1057A0002046D9F80010FAF7E7FD0C2307AA40219C
:1057B000A020253400F0BCFD40EA0807079844F813
:1057C000040B089844F8040B099844F80C0B1723B1
:1057D00007AA6021A02000F0ABFD0743172207A90C
:1057E0002046FAF790FD7FB1F023A04ACAA1A8484D
:1057F000009701F0EBF9A648FAF7A9FD82B2FF2362
:10580000A349A448FFF7BBF9782352460021402062
:1058100001F00AF93068800012D52878F72340F0AB
:1058200010002870914AC5A1994801F0CFF9984815
:10583000FAF78DFD82B2FF2395499648FFF79FF94D
:105840003068400012D52878FB2340F020002870F3
:10585000864AC5A18E4801F0B9F98D48FAF777FD5F
:1058600082B2FF238A498B48FFF789F93068002804
:1058700012DA2878FF2340F0400028707B4AC4A148
:10588000834801F0A3F98248FAF761FD82B2FF2351
:105890007F498048FFF773F9306840F080703060CE
:1058A000C34C0020207060706870FCF725FAC14876
:1058B000FCF778FB80B1009040F20F136B4ABEA159
:1058C000734801F083F97248FAF741FD82B2FF2371
:1058D0006F497048FFF753F9B64E03AF06F1080061
:1058E0000FC887E80F003068727931798DE80700BA
:1058F00040F211135D4ABCA1654801F067F96448A4
:10590000FAF725FD82B2FF2361496248FFF737F9B4
:10591000C349306888420FD040F21513534AC1A1E1
:105920005B4801F053F95A48FAF711FD82B2FF23A0
:1059300057495848FFF723F93079C34FDFF80C93E4
:105940004FF00608002831D0012834D0022847D073
:105950004FF49473454ABEA14D4801F037F94C48C5
:10596000FAF7F5FC82B2FF2349494A48FFF707F9E5
:105970000820C4E90190BD480068009040F22D1352
:105980003A4ABBA1424801F021F94148FAF7DFFC4D
:1059900082B2FF233E493F48FFF7F1F870790028B3
:1059A00031D040F23713314AB8A149E040F219131F
:1059B0002E4ABCA118E04FF48F732C4AC0A1344882
:1059C00001F004F93248FAF7C2FC82B2FF233049F1
:1059D0003048FFF7D4F8C24860600720A060CAE7EB
:1059E000224A40F22313BFA1294801F0EFF82848CA
:1059F000FAF7ADFC82B2FF2325492648FFF7BFF82E
:105A0000C4E90178B7E70120687060704FF49973BA
:105A1000164ABCA11E4801F0D9F81D48FAF797FCB8
:105A200082B2FF231A491B48FFF7A9F8616849456C
:105A300002D0A068FCF748F90C4A40F23513B8A12F
:105A4000134801F0C3F81248FAF781FC82B2FF2331
:105A50000F491048FFF793F856481830FCF752FAF0
:105A6000544C69E17C8E012000840120DCA00020E0
:105A700025732C25643A204669726D776172652022
:105A800076657273696F6E3A2025730A0000000014
:105A9000B4850120DC95012074380240E0840120A7
:105AA00025732C25643A20424F5220526573657449
:105AB000206973207365740A0000000025732C258B
:105AC000643A2050494E20526573657420697320F2
:105AD0007365740A0000000025732C25643A205079
